:020000040800F2
:10000000B8040020C900000889140008D10F0008B6
:1000100000000000000000000000000000000000E0
:10002000000000000000000000000000A719000808
:10003000000000000000000075150008311A0008DB
:10004000F900000800000000F9000008F9000008AD
:10005000F9000008F9000008F9000008F90000089C
:1000600000000000F9000008F9000008F90000088D
:10007000F9000008F9000008F9000008000000007D
:10008000F90000080000000000000000F90000086E
:10009000F9000008F9000008F9000008F90000085C
:1000A000F9000008F9000008F9000008551B0008D5
:1000B000F90000080348854600F010FC004800479E
:1000C00051310008B80400200C4880F308880C481F
:1000D0000168090E0B4A914205D10B480B4901609A
:1000E0000B480C4901600C4880470C480047FEE76C
:1000F000FEE7FEE7FEE7FEE7FEE70000B8040020AB
:10010000040000001F000000181002400100000061
:100110000000014000000000411A0008B50000087E
:1001200030B50B46014600202022012409E00D468F
:10013000D5409D4205D31D469540491B2546954017
:1001400040191546521E002DF1DC30BDD2B201E03F
:100150000270401C491EFBD270470022F6E710B522
:1001600013460A4604461946FFF7F0FF204610BD25
:1001700030B505460020034600E05B1C934205D2E3
:10018000EC5CC85C201A01D1002CF6D130BD000017
:10019000F0B507460846584087B0C00F04904800A5
:1001A0000E46590040084908BC1A884105D2384615
:1001B00031461E4617460B4602465800400810437B
:1001C0004CD0300D039040055900400D490D05906D
:1001D000401A0290402872DA18030121000B090529
:1001E0000843019004980092002805D001995242DA
:1001F0000020884100920190029840210A1A01993A
:10020000009800F025FA05460C466B4607CB00F037
:1002100040FAC0197141039A0E0D0023D7175640BA
:100220001A467A40164344D0049A002A2DD0029AE6
:10023000012A039A15DC1205C01A914101263605E0
:10024000001C7141D20F059ED207009301920296C5
:100250002A46234600F0D0FA07B0F0BD38463146B2
:10026000FAE71605224A0F46B218C01AB741012113
:100270000905001C4F4100187F41114618187941AB
:10028000E20F10436D19644113E0E2076D08154356
:100290006408C2071443039A01261205C01A91414B
:1002A0003605001C7141CE07400830434908C0188C
:1002B00051412A46234600F092FACDE7FFE7049821
:1002C00001224000C117121A00238B4104983146C5
:1002D000C417381AA141EEE730B40124E4076340A3
:1002E00030BC55E730B40124E407614030BC4FE72F
:1002F0000000E0FFF0B51FB488B00B990998002406
:1003000048400999C00F490049080991C0070B9955
:100310000090490049080B9109990898A64608439E
:100320001CD00B990A98084318D009980124400062
:10033000420D4800410D099824050003000B20439D
:1003400009900B980003000B20430B9050181C4998
:100350004018002201901446104605E00020014696
:100360000DB0F0BD032801DA034600E003239C46EC
:10037000C11A0AAE0AE05F0008ADED5B4F00F75B03
:100380007D430027AA187C41491C5B1E6145F2DDB4
:10039000410004AB5A522104120C0A43240C401CA5
:1003A0000828DFDB019802900099704601910090C7
:1003B000059B049A0799069800F01EFAD0E7000002
:1003C0000DFCFFFFF0B50C465C4085B0E40FE40780
:1003D00003944C00002664085900944649080246DC
:1003E0000296224321D062460A431ED06200570D76
:1003F0004A000E032303550D012402462C4924050F
:10040000781B1B0B360B4018234326436146009094
:100410001C46501AB44103D30098401C009002E0DF
:10042000921800985B41002803DA0020014605B0CD
:10043000F0BD0020012109050746864611E064460B
:100440001D46141BB54106D36546521BB341744685
:1004500007430C43A646CD07400849082843921895
:100460005B4105460D43EAD11046184313D0604660
:10047000194650407140084306D06046101AB341F7
:1004800006D20122002306E000220123DB0702E05E
:100490000122D2435310009874460105381C614173
:1004A000029C039D0019694100F099F9BFE7000023
:1004B000FD0300000EB5C217C10F5040CA07401817
:1004C0000021054B0293019200910A460B4600F071
:1004D00093F903B000BD0000330400000EB50549D8
:1004E0000291002100910A460B46019100F084F927
:1004F00003B000BD3304000070B5CD0F4A000903FE
:100500000123090B1B0519430B4BED070024520D6A
:100510009A4201DA002070BD074B34339A4203DC63
:100520009A1A00F0A5F802E00449511888402C43BB
:10053000F1D0404270BD0000FF030000CDFBFFFF83
:10054000C20FD207400040080BD0C10D0723DB01CA
:10055000C91840020905400A1143C2084007114367
:10056000704700200146704710B5002904DB0124C4
:10057000E40740428C412146002B04DB1C4601234A
:10058000DB075242A3418B4200D1824210BD0000E2
:1005900010B5002904DB0124E40740428C412146C8
:1005A000002B04DB1C460123DB075242A341994286
:1005B00000D1904210BD0000CB0FDB07490010B501
:1005C000490802460A4307D00A0D07240903E4013B
:1005D000090B121B002A01DC002010BDC900440FCA
:1005E0000C43C100E018D205801800F0B7F810BD28
:1005F000F0B51FB40646002082B0054640240191A4
:1006000000901BE0019922460F46304600F030F87A
:10061000049A059B801A994110D310461946224628
:1006200000F016F8361A8F4101972246012000216A
:10063000009F00F00DF838184D4100902046641ED0
:100640000028DFDC019B00982946324607B0F0BD48
:1006500010B5202A04DB0146203A9140002010BD4D
:10066000914020239C1A0346E3401943904010BD5B
:1006700010B5202A04DB0846203AD040002110BDE6
:100680000B46D340D0402024A21A9140084319467B
:1006900010BD10B5202A06DBCB170846203A1041C2
:1006A000C1170B4306E00B461341D0402024A21A89
:1006B00091400843194610BD0FB400B589B00CA98C
:1006C00000910B990023CB60204B214A069307929F
:1006D000042201921F4A02921F4A089202466B4668
:1006E000002000F0A4F909B008BC04B0184770B5A8
:1006F00086B006460020C0430190002015460C46F7
:100700000091029104903246694604A8FFF7D4FF95
:10071000024604982118002D05D0002801D0084673
:1007200000E020462860049800280DD0002A02DD51
:100730000098884208D0081B019000943246694610
:10074000029404A8FFF7B8FF06B070BD850C00083E
:10075000A50C0008FFFFFF7F01090008002904DA4B
:10076000401C490001D140084000704770B400248B
:10077000050C05D11024000402D1002921D0112438
:10078000050E01D100020834050F01D10001241D1E
:10079000850F01D18000A41C002801DB4000641CEF
:1007A000002908D020252E1B0D46F540A14000D081
:1007B00001212943084301061B1B000ADB1D02D54A
:1007C000002070BC7047DB05181880180029F8DA83
:1007D000401C4900F5D170BC40084000704710B57E
:1007E000002B08DA0024401C614192185B411A4337
:1007F00001D14008400010BDF0B51FB482B00546DD
:100800000C0003D0084601F0E9FA02E001F0E6FA34
:1008100020300246009021462846FFF719FF049B2E
:10082000059A04460F4618431143084314D018464E
:1008300010431BD0009840210A1A18460599FFF76B
:1008400017FF05460E46009A05990498FFF700FF2A
:10085000084305D0012004E02046394607B0F0BD2A
:100860000020C11705430E432C43374300990E98CF
:100870006305401A7905E40A00220C43FD0A0A3098
:1008800002D500200146E9E70105101969410C9CD9
:100890000D9D00196941FFF7A2FFDFE74A00090338
:1008A0000123090B1B0519430A4B10B5520D9A423F
:1008B00002DA0020014610BD064B34339A4203DCB5
:1008C0009A1AFFF7D5FE10BD034BD218FFF7C0FEF2
:1008D00010BD0000FF030000CDFBFFFF064C01250B
:1008E000064E05E0E36807CC2B430C3C98471034D8
:1008F000B442F7D3FFF7E2FB24380008443800087D
:1009000010B50F21C0B2490200F01CFA10BD000062
:10091000FFB5087889B01546FF2805D0491C2D2859
:1009200004D00022002407E000240BE00122F9E7B4
:100930000A235C430419491C0878FF28F8D1002ACF
:1009400000D06442002004902A7801462D2A01D06C
:100950002B2A0FD16D1C2D2A02D00022049209E00F
:100960000122FBE700260A2233466D1C00F0ACF999
:10097000381871412F78FF2FF4D10C9AA2180692E3
:1009800002460A4304D0FF23069A9133DA4205DA7D
:10099000002109980A4606C00DB0F0BD0024B74AF0
:1009A000B54D2646079200F0DFF9029006980391B4
:1009B000002801DA474200E0074639050020AF4A27
:1009C000001C51410191009012E0F80707D0224627
:1009D0002B4630460799FFF78DFC064607912246C5
:1009E0002B4610461946FFF785FC04460D467F103E
:1009F000002FEAD10698019B0028009A03990298DB
:100A000006DAFFF7DFFC3246079BFFF7DBFC05E069
:100A1000FFF770FC3246079BFFF76CFC049A002A34
:100A200002D00122D2075140099A03C2B4E7FFB5B0
:100A300091B0002009900025ED432E209E685C684F
:100A40001F460190B9696D1C129888470090396A59
:100A500088470028F6D10098401C0AD00D20C0011C
:100A60008443002E12DD00982B2809D02D280DD1AB
:100A700003E00020C04315B0F0BD01208002044314
:100A8000B9696D1C12988847761E009003A960050D
:100A900001D52D2000E02B206A461073491C0CA8BC
:100AA0000F9102900AE0B9696D1C12988847009076
:100AB0000120400204431398761E0560002E02DDDB
:100AC00000983028EFD001990098884246D18020C4
:100AD000044308E00998401E0990012040020443A5
:100AE0001399681C0860B9696D1C761E12988847B6
:100AF00000903028EED031E00199884205D12006DF
:100B000003D480200443761E1EE0009801F046FACC
:100B1000002826D001204002044307A90F98033182
:100B2000761E88420BD200980F99303808700F98C3
:100B3000401C0F90200607D50998401E03E02006B0
:100B400002D40998401C0990A00502D51399681C8D
:100B50000860B9696D1C129888470090002ECBDCA4
:100B600059E0002E57DD0098652801D0452852D164
:100B7000A00550D5032000028443B9696D1C761E80
:100B8000129888470090002E0CDD2B2804D02D28C9
:100B900008D1FF2001300443B9696D1C12988847C1
:100BA000761E0090E00501D52D2100E02B21029852
:100BB00001700298401C0290019025E00120400243
:100BC00004430EA902980131761E88420ED2009885
:100BD000029930380006000E087003D1029901987E
:100BE00081420AD90298401C029006E0E00501D536
:100BF000234801E0224840420990B9696D1C1298CF
:100C00008847009013980560002E04DD009801F0DD
:100C1000C5F90028D2D1F969129888470F99FF20A9
:100C20000870029903AA087000200A900B900CA982
:100C30000AA8099BFFF76CFEA00502D40120C0435F
:100C400019E72420044209D0E00713D138680B9A31
:100C50000A99031D3B60006806C00BE00B990A98D7
:100C6000FFF7AAFC0146E00704D13868021D3A608C
:100C7000006801602846FEE6000014400000F03FD6
:100C8000F1D8FFFF4268002A08D001680B78491CA0
:100C9000002B03D0521E06C0184670470121C160C8
:100CA000881E70474268002A0BD0C3680168002B79
:100CB00007D183688B4204D0491E521C06C0002015
:100CC00070470020C0437047F0B51FB486B00020C5
:100CD0000090019002900698069980B204900798BF
:100CE000090C02040014114307900027089D09987D
:100CF00006913E463C4603900398A9B20204000CBC
:100D0000039004982D0C1543484300212246FFF719
:100D10009FFCC719714110340E46402CECDB38465D
:100D2000029AFFF795FC009A019B801800905941A8
:100D300002980191103002904028CCDB00980BB053
:100D4000F0BD00007F2801D9002207E0054B4208D2
:100D50009A5CC00700D112091207120F01209040BF
:100D600008407047E43700080EB5054A0292002299
:100D7000009213460192FFF73FFD03B000BD000053
:100D800033040000F0B58DB0404800880121C9034C
:100D90000840002878D03D48047800203C49085598
:100DA0000846007800286CD00C223AA0FFF7E0F942
:100DB000002866D10B90364F0C370BA9384602F04D
:100DC00045FC0546FFF7F8FB0A90364A04A90720C0
:100DD00001F0E7FC0A98FFF7B3FB05460B460799BD
:100DE00006982A4601910090FFF776FA0391029047
:100DF000FFF7E2FB2C490860012003460A460A215E
:100E00000090A02000F07CF901200346264A521CE5
:100E10000B210090A02000F073F901200346224A24
:100E2000921C0C210090A02000F06AF901200346DA
:100E30001D4AD21C0D210090A02000F061F9012074
:100E400003461AA264210090A02000F059F9069DE3
:100E50002A4617A0079B00F0B1FF0A98FFF770FB26
:100E600005462A460B4615A000F0A8FF0E49086863
:100E7000FFF766FB05462A460B4613A000F09EFFCF
:100E800000BF0020014908800DB0F0BD0200002025
:100E90008400002054656D70657261747572653DE3
:100EA0000000000044000020040000205900000061
:100EB0004765745F543D25660D0A000043616C5F11
:100EC000543D25660D0A000054646174613D256639
:100ED0000D0A0000F0B50A4600210023002400BFDF
:100EE0003DE001258D402B4615681D402C469C4257
:100EF00034D11579012D02D01579022D16D18568CE
:100F00004F000326BE40B543856055794E00B5407D
:100F1000866835438560858801268E40B543858087
:100F2000858896798E40B6B23543858005684F0036
:100F30000326BE40B543056015794E00B5400668EE
:100F400035430560C5684F000326BE40B543C56004
:100F5000D5794E00B540C6683543C560491C102997
:100F6000BFD3F0BDF0B5002300244D07EE0E1546AB
:100F7000B5402B46CD10AE0005462035AD594E0785
:100F8000F70E0F26BE40B543CE10B60007462037F9
:100F9000BD51CD10AE003D46AD591D432C46CD1080
:100FA000AD003E467451F0BD02460020138A0B404E
:100FB000002B01D0012000E0002070470185704720
:100FC00081617047014800687047000008000020F8
:100FD00000BFFEE710B5012189030920C006FFF715
:100FE000EDFF00F05FF9012149030920C006FFF77A
:100FF000E5FF022002F016F8012189030920C0064E
:10100000FFF7DEFF022002F00DF80121890309201D
:10101000C006FFF7D3FF10BDFFB581B005460C46F3
:10102000164600F090F90A98032818D12746E117D0
:10103000090EC91909124900FE312940084600F07D
:1010400048F900F0C4F9E117090EC919091209029B
:10105000611AC8B200F03DF900F0B9F931E00A9820
:10106000022818D1FE212940084600F032F900F08C
:10107000AEF9201200F02DF900F0A9F92746E1178A
:10108000090EC91909120902611AC8B200F021F942
:1010900000F09DF915E00A98012812D1FE2129409F
:1010A000084600F016F900F092F92746E117090EFC
:1010B000C91909120902611AC8B200F00AF900F050
:1010C00086F900F040F901212943084600F001F9B2
:1010D00000F07DF908E00498401EC0B204900120A1
:1010E00000F099F83070761C04980128F3D10020A4
:1010F00000F091F83070761C00F047F905B0F0BDB3
:10110000FFB581B005460C46164600F01CF90A985A
:10111000032818D12746E117090EC91909124900F9
:10112000FE312940084600F0D4F800F050F9E117EC
:10113000090EC91909120902611AC8B200F0C9F8EA
:1011400000F045F931E00A98022818D1FE21294023
:10115000084600F0BEF800F03AF9201200F0B9F8A5
:1011600000F035F92746E117090EC91909120902DD
:10117000611AC8B200F0ADF800F029F915E00A983C
:10118000012812D1FE212940084600F0A2F800F003
:101190001EF92746E117090EC91909120902611A39
:1011A000C8B200F096F800F012F905E03078761C2D
:1011B00000F08FF800F00BF90498411EC9B20491B9
:1011C0000028F3D100F0E1F80A2001F021FF05B07A
:1011D000F0BD10B5012189030920C006FFF7EEFE1E
:1011E00000F060F8012149030920C006FFF7E8FE7E
:1011F000022001F017FF012189030920C006FFF733
:10120000DFFE022001F00EFF012189030920C00644
:10121000FFF7D4FE10BD70B50546002400F02DF890
:1012200000261FE0012189030920C006FFF7C6FE42
:10123000022001F0F7FE012189030920C006FFF713
:10124000BFFE6006040E012149030920C006FFF716
:10125000ABFE002801D0601CC4B2012001F0E2FE08
:10126000701CC6B2082EDDDB002D02D1FFF7B1FFE6
:1012700001E0FFF7AFFE204670BD1CB50121480418
:1012800000F07AF9012040030090002168460171C6
:10129000032141710121C17169460920C006FFF790
:1012A00019FE1CBD1CB50121480400F065F90120A0
:1012B00040030090012168460171002181710321E2
:1012C00041710021C17169460920C006FFF702FE85
:1012D0001CBD70B50446FFF7E5FF01218903092015
:1012E000C006FFF76BFE00252AE080202040C011D9
:1012F000002806D0012149030920C006FFF760FE3F
:1013000005E0012149030920C006FFF757FE6006EA
:10131000040E022001F086FE012189030920C00687
:10132000FFF74EFE022001F07DFE01218903092016
:10133000C006FFF743FE022001F074FE681CC5B230
:10134000082DD2DB70BD10B5FFF7ACFF01214903BA
:101350000920C006FFF734FE012189030920C006D9
:10136000FFF72EFE042001F05DFE01214903092054
:10137000C006FFF723FE042001F054FE012189037B
:101380000920C006FFF71AFE10BD10B5FFF78AFF4F
:10139000012189030920C006FFF710FE012149033E
:1013A0000920C006FFF70AFE042001F03BFE0121E0
:1013B00089030920C006FFF703FE01214903092024
:1013C000C006FFF7FDFD042001F02CFE10BD10B596
:1013D0000024FFF752FF012149030920C006FFF74F
:1013E000EFFD012001F01EFE012189030920C00646
:1013F000FFF7E6FD012001F015FE07E0601CC4B216
:10140000FA2C03DDFFF7C1FF012010BD01214903C4
:101410000920C006FFF7C8FD0028EFD1012189038C
:101420000920C006FFF7CAFD0020EEE71CB5012128
:10143000480400F0A1F80121880500F09DF8032080
:101440004003009001216846017100218171032150
:1014500041710121C17169460920C006FFF73AFDBB
:10146000032149030920C006FFF7AAFD02200090CE
:1014700069460448FFF72EFD02210248FFF7A0FD50
:101480001CBD000000140048704700000021827855
:10149000002A27D0184A03231B02D21803789B1076
:1014A0009B00D15802789207D30EFF229A400B4638
:1014B0009343194642789207120E03789B07DB0E7E
:1014C0009A4011430C4A03231B02D21803789B1045
:1014D0009B00D1500278D306DB0E01229A40064BC6
:1014E0001A6007E00278D306DB0E01229A40024B15
:1014F00080331A607047000000E100E010B500285A
:1015000019DA1A4A03071B0F083B9B089B00D258A5
:101510008307DC0EFF23A3409A438B071B0E84072F
:10152000E40EA3401A43114B0407240F083CA408FF
:10153000A4001A5118E00E4A03231B02D218830894
:101540009B00D2588307DC0EFF23A3409A438B07EE
:101550001B0E8407E40EA3401A43054B0324240208
:101560001B198408A4001A5110BD00001CED00E0F6
:1015700000E100E070470000002905D0054A5269EB
:101580000243044B5A6104E0024A52698243014B10
:101590005A61704700100240002905D0054A1269BF
:1015A0000243044B1A6104E0024A12698243014B70
:1015B0001A61704700100240002905D0054A92695F
:1015C0000243044B9A6104E0024A92698243014B50
:1015D0009A61704700100240002905D0054AD26880
:1015E0000243044BDA6004E0024AD2688243014BB2
:1015F000DA60704700100240FEB504460025002660
:1016000000200290019000900027704840680C2153
:1016100008400546002D06D0042D07D0082D08D01F
:101620000C2D2CD128E06A4820602BE0684820600F
:1016300028E0664840680F21890408400646634850
:1016400040680321C90308400290B00C861C029830
:10165000002803D15F48374647430BE05B48C06A28
:101660000007000F401C019059480199FEF758FDF2
:1016700070430746276005E05748206002E0544861
:10168000206000BF00BF51484068F0210840054677
:101690002D095248405D009021680098C14061606A
:1016A0004A48406807210902084005462D0A4B4870
:1016B000405D009061680098C140A1604348006BA4
:1016C000FF2101310840884202D04548E0600DE02A
:1016D0003E484068012189030840884203D0A06841
:1016E0004008E06002E0A0688008E0603748006BD6
:1016F00040210840402802D03A48206102E0012001
:10170000C00320613148006B10210840102802D02E
:101710002F48606101E0206860612C48006B800701
:10172000800F002802D1A068A06119E02748006B53
:101730008007800F012802D12068A06110E02348B3
:10174000006B8007800F022802D18003A06107E0B0
:101750001E48006B8007800F032801D11C48A06140
:101760001A48006B032109040840002802D1A06830
:10177000E06120E01548006B0321090408400121C5
:101780000904884202D12068E06114E00F48006B30
:1017900003210904084001214904884202D1801034
:1017A000E06108E00948006B032109040840884211
:1017B00001D10748E0610548006B8021084080287E
:1017C00002D00548206200E02762FEBD0010024002
:1017D00000127A0000093D00006CDC020C000020C1
:1017E000809FD5001280000000B587B00121480419
:1017F000FFF7C2FE01210803FFF7DEFE00220521EC
:101800000920C006FFF7AEFB002206210920C00612
:10181000FFF7A8FB002207210920C006FFF7A2FB63
:10182000E0200590022168460176032141760121DE
:101830008176C17605A90920C006FFF74BFB01217F
:101840008804FFF799FE0220059001216846017681
:1018500005A91748FFF73EFB02211548FFF7B0FB2B
:10186000144800F037F8002168460180FF21053157
:1018700041800721090281800021C180018101216D
:1018800049024181102181810021C181072101820A
:101890006946084800F046F801210903054800F0B0
:1018A00073F80121034800F007F807B000BD0000FD
:1018B0000004004800300140002904D00288402381
:1018C0001A43028003E00288014B1A4002807047ED
:1018D000BFFF000010B504460B48844208D1012127
:1018E0008014FFF779FE0021A014FFF775FE0AE0CF
:1018F0000648844207D101210014FFF74DFE002164
:101900002014FFF749FE10BD0030014000380040B0
:101910000246002013890B40002B01D0012000E07B
:101920000020704710B500220288C1239B011A4095
:101930000B88CC892343CC8823430C8923434C89CF
:1019400023438C8923431A4302808288084B1A4020
:101950008B881A4382800B8A03820288054B1A40C7
:101960004B881A430280838B034C2340838310BD32
:10197000FFF00000FBFF0000FFF70000014600221F
:101980000A460C32107870478288034B1A408280D6
:1019900082880A4382807047FFEF000000220246DF
:1019A0000C321170704770470CB500200190009008
:1019B00011201D4908601D4840681C4948600846C0
:1019C00040684860084640687B21C903884317493E
:1019D0004860084640680521C90408431349486027
:1019E000084600680121090608431049086000BF45
:1019F0000E4800680121490608400028F8D00B482D
:101A00004068800880000949486008464068022113
:101A100008430649486000BF044840680C2108405C
:101A20000828F9D10CBD000000200240001002403F
:101A300002480068401C0149086070470800002007
:101A400010B51B4800680121084319490860084681
:101A50004068184908401649486008460068164919
:101A6000084013490860084600680121890488433A
:101A70000F490860084640683F21090488430C4923
:101A800048600846C06A00090001C8620846006B49
:101A9000FF2154318843064908630846406B4008DB
:101AA0004000486300208860FFF77EFF10BD000003
:101AB000001002400CB8FF08FFFFF6FE00B589B029
:101AC00001214804FFF758FD01218803FFF774FD49
:101AD00001220921C806FFF745FA01220A2109203F
:101AE000C006FFF73FFA0320400206900221684635
:101AF0000177002181770121C1770321417706A970
:101B00000920C006FFF7E6F91B2108A80170022191
:101B1000417001218170FFF7B9FCE1204002009083
:101B2000002001900290039005900C2004906946DB
:101B3000064800F0C5F801220549044800F09EF867
:101B40000121024800F05DF809B000BD00380140F5
:101B50000501050010B52249224800F068F8002868
:101B60003DD01F491F4800F043F81E4800F01CF903
:101B7000C4B21D4800880121C903084000282ED1A5
:101B8000194800884910084000280DD00A2C03D0BD
:101B900000201549088022E0134800880121C9036C
:101BA0000843114908801AE00D2C07D10E4800881F
:101BB0000121890308430C49088010E00A48008885
:101BC0008004800C09490C5407480088401C0649D1
:101BD000088008460088312801DD0020088010BDFB
:101BE00005010500003801400200002084000020AB
:101BF00010B5002300220B0C01249C4022460262F7
:101C000010BD002904D0026801231A43026003E0DA
:101C10000268520852000260704702460020D369F1
:101C20000B40002B01D0012000E00020704770B570
:101C300002460B4600240021002500201E04350E1C
:101C4000D9B201268E403146012D02D116683140AD
:101C500006E0022D02D15668314001E0966831401D
:101C60001C0C0126A6403446D6693440002903D016
:101C7000002C01D0012000E0002070BDF8B5034623
:101C80000024002600960025002018460E04340E7D
:101C9000CEB200960127009EB7403D46022C01D1EE
:101CA000001D02E0032C00D10830002A03D0066892
:101CB0002E43066002E00668AE430660F8BD0000F1
:101CC000F0B58BB004460D46002700200A90002690
:101CD0002068400840002060666803210903304600
:101CE00088430646A8680643666026682A48064078
:101CF000E968686808432969084306432660A668BE
:101D00000321090230468843064668690643A660F7
:101D100001A8FFF771FC2148844202D107980A907C
:101D200007E01F48844202D108980A9001E0039816
:101D30000A9020680121C903084000280CD02968B6
:101D40000A9A5000FEF7ECF9074629680A9A5000F3
:101D5000FEF7E6F90E4609E029680A98FEF7E0F971
:101D6000074629680A98FEF7DBF90E4628684008FE
:101D7000B04200D87F1C20680121C9030840002818
:101D800006D03807460F3846064908403043074614
:101D9000A7810BB0F0BD0000F3E9FFFF0038014060
:101DA00000440040F0FF00000146888CC005C00DD3
:101DB0007047CA05D20D0285704700000FB410B5F8
:101DC00003A9044B044A029800F0F0F810BC08BCC8
:101DD00004B01847C13000081C0000202021020C6C
:101DE00001D010211046020A01D01046083902091C
:101DF00001D01046091F820801D01046891E4208F2
:101E000001D0881E7047081A704702E008C8121FE8
:101E100008C1002AFAD170477047002001E001C1D3
:101E2000121F002AFBD17047F0B51FB486B0099885
:101E3000089A030D0021024314D05148514A181842
:101E4000504305141198012810981AD0281A401CE4
:101E500000264D4F4D49009601910490002812DA5A
:101E6000444211E01198012449A3012801D110989E
:101E7000C1430698119A84600360C26041600BB050
:101E8000F0BD4042E4E70446210500203F4A001C23
:101E900051410391029012E0E00707D032463B46E1
:101EA00001990098FEF726FA0191009032463B46D0
:101EB00010461946FEF71EFA06460F466410002C1F
:101EC000EAD10498039B0028029A0999089806DA37
:101ED000FEF710FA019B009AFEF70CFA05E0FEF7F8
:101EE00071FA019B009AFEF76DFA04460E46002235
:101EF000284BFEF74DFB03D80020C043014607E006
:101F00000022254B20463146FEF742F9FEF7C6FC7B
:101F1000102409E0002C0ADB0A220023FEF768FBEC
:101F2000079B30321A55641E02460A43F2D1112231
:101F3000641C079B121B1C19119B012B03D001234E
:101F400008430ED10AE0084304D01120109000206D
:101F5000119077E71098151A6D1E0BE010988242C9
:101F600002DD00236D1C03E0824201DA00236D1EB6
:101F7000002BEED0069811998260C16030C07EE7D8
:101F800001FCFFFF104D0000000014400000F03F76
:101F9000300000000000F0430000E03F30380A2825
:101FA00001D201207047002070470000FFB597B0B4
:101FB0000646002518E2252877D100242746FD494A
:101FC000049400E00443761C32780120203A9040CB
:101FD0000842F7D130782A280ED002223078014604
:101FE0003039092916D804990A2359433039401841
:101FF0001443761C0490F1E7189802C804911890D5
:10200000002904DA012040030443484204900220DE
:102010000443761C30782E2814D1042004437078B1
:10202000761C2A2809D11898761C80C8189009E0D7
:102030000A214F43303FC719761C307801463039AA
:102040000929F5D930786C2810D006DC4C281AD034
:1020500068280ED06A2817D104E0742813D07A2893
:1020600012D110E00120400504430CE001210905D4
:1020700001E0032109050C437178814203D101205D
:1020800000052418761C761C3078119066280BD039
:1020900013DC58287DD009DC00287BD04528F6D0F9
:1020A0004628F4D047281AD1A5E118E0632835D096
:1020B000642870D0652812D19DE170286CD008DCAE
:1020C0006728F1D069287BD06E280DD06F2806D103
:1020D000BAE073282ED0752871D0782859D01A9A72
:1020E000199990476D1C7EE16002400F022809D0CB
:1020F00003280DD00428189801680DD00D60001D2C
:10210000189070E11898EA1701680D604A60F6E7C8
:10211000189801680D80F2E70D70F0E718986A468C
:1021200001781172001D18900020507202A80090D2
:10213000012005E0189802C8189000200091C043C3
:1021400061070DD5002101E00199491C0191B942B7
:1021500012DA8142F8DB009A515C0029F4D10BE0DD
:10216000002101E00199491C01918142FADB019AA9
:102170000099895C0029F5D1019904981A9B471AA6
:1021800021463846199A00F097FA019940194518E6
:102190000BE04FE02CE113E04EE00098009900784E
:1021A000491C00911A9A199990470198401E019074
:1021B000401CF2D1214638461A9B199A10E137E0AB
:1021C0000A200021009001916002410F022907D0EE
:1021D000189A01CA1892C2179446032908D00AE037
:1021E0001898C01DC108C90005C91891944607E098
:1021F00000B2C2179446042902D140B2C1178C46DE
:1022000000226146944506DA0A4600214042914187
:102210008C462D2102E0210504D52B216A4611733D
:10222000012103E0E10701D02021F7E7029155E009
:102230000A200AE0102008E010200090002104206D
:1022400004430191082703E0082000210191009038
:102250006002410F022907D0189A01CA1892002281
:102260009446032908D008E01898C01DC108C90089
:1022700005C91891944603E080B2042900D1C0B288
:1022800000210291210729D51199702906D0009AC1
:102290001021019B4A401A4305D00EE040216A46B6
:1022A0001173012108E06146014306D030216A46DE
:1022B00011731199517302210291009A0821019B17
:1022C0004A401A430AD16146014301D1610705D54D
:1022D00030216A46117301217F1E029111995829FC
:1022E00004D035A10E910DA90D910DE037A1F9E7AC
:1022F0006146019B009AFEF77BF90E9B8C469B5C26
:102300000D9A521E0D92137061460143F0D10D9843
:1023100005A9081A20300190600703D501200004A8
:10232000844300E001270198874201DD381A00E06C
:102330000020019900904118029809180498401A49
:102340000490E00306D421461A9B199A049800F0E1
:10235000B3F94519002706E003A81A9AC05D199938
:1023600090476D1C7F1C02988742F5DBE0030CD57B
:1023700021461A9B199A049800F09EF9451904E029
:102380001A9A3020199990476D1C0099481E0090A8
:102390000029F5DC08E00D980D990078491C0D9195
:1023A0001A9A199990476D1C0199481E01900029AD
:1023B000F1DC63E10928010030313233343536373E
:1023C0003839616263646566000000003031323381
:1023D0003435363738394142434445460000000021
:1023E00000F05AF94519761C3078002800D0E2E553
:1023F00028461BB0F0BD600700D406271898C01D02
:10240000C108C90048680A680831C30FDB07189182
:10241000190001D09CA108E0210501D59BA104E091
:10242000E10701D09AA100E09AA1430011985B084E
:10243000109165280CD006DC452809D046281DD00F
:10244000472841D141E0662818D067283CD13CE0BC
:102450000021112F01DB112000E0781C0191009078
:1024600008A911A8FFF7E0FC139905910021119A22
:1024700015927F1C12980197009150E00120C0072F
:1024800003900120019008A9009711A8FFF7CCFC48
:10249000139A149905920022119B00921298159399
:1024A000059A0192002901D0104602E0791C4018DB
:1024B0000190381A01D5019804E04042401E009076
:1024C000781C0190C01B029043E0012F00DA012725
:1024D0000021112F01DD112000E03846019100900C
:1024E00008A911A8FFF7A0FC13990591119A0021E2
:1024F000129815920091019721070CD40599B942C1
:1025000001DB019900E00191012904DD159A491EC2
:10251000515C302906D0B84201DA011D05DA0121EB
:10252000029115E00199491EEDE7002805DC0099AC
:10253000411800910199091A03E0019A411C914246
:1025400000DD01910099401A401C02900120C00753
:102550000390200706D402990198814202DB0020F3
:10256000C043029000206946C87707AF0121039855
:102570000337C907884224D0022011902B201290E3
:10258000039800280CDA404203902D20129007E0B7
:102590000A210398FDF7C4FD30317F1E0390397086
:1025A0001199481E11900029F2DC03980028EFD100
:1025B000791E129808703078202108404530BF1EDF
:1025C000387006A8C01BC01D039010980078002822
:1025D00000D00120019941180298C01709180398EA
:1025E00009180498401A401E0490E00306D42146BE
:1025F0001A9B199A049800F05FF845191098007812
:10260000002803D01A9A199990476D1CE00324D52D
:1026100021461A9B199A049800F04EF845191CE0BF
:102620000098002807DB00990598884203DD15987B
:10263000405C199901E0199930201A9A9047009846
:102640006D1C401C00900298401E0290002804D18E
:102650001A9A2E20199990476D1C0199481E0190D5
:102660000029DDDC05E038781A9A7F1C199990471B
:102670006D1C0399481E03900029F4DC21461A9B27
:10268000199A0498ACE600002D0000002B00000011
:102690002000000000000000F8B5044600251E469A
:1026A0001746880404D405E039462020B0476D1C45
:1026B000641EF9D52846F8BDFFB50446002581B053
:1026C0001E46C80301D5302700E02027880404D522
:1026D00005E038460399B0476D1C641EF9D52846BD
:1026E00005B0F0BD0246002013460B40002B01D080
:1026F000012000E000207047F8B505460E4614465C
:102700001F4600200090002E29D0002C27D0002F3B
:1027100025D00021A160E1602060606021616161DD
:102720006807400F002805D03946304600F0D0FB3E
:10273000E160A060E807C00F002805D039463046A8
:1027400000F066FA6160206004202840002809D06B
:102750003946304600F07CF96161206102E00020DA
:10276000C04300900098F8BDFFB581B005461C46F7
:10277000204600F07BFD0646002E0FD1A0780128F0
:1027800001D080200543607867682946039B029A40
:10279000B8470646002E01D00326F643304605B062
:1027A000F0BDF0B585B007460D46144600200390F5
:1027B0000490009001900290204600F057FD0646DC
:1027C000002E17D1002D15D02346082203A9F7208B
:1027D000FFF7CAFF0646002E0ED1694603A800F097
:1027E00058F8234610332A4669463846FFF784FFD7
:1027F000064601E00026F643304605B0F0BD70B550
:1028000004460D46284600F031FD0646002E0AD14A
:102810002B4601222146F420FFF7A6FF064620782A
:102820008007800F2070304670BDF8B5044605263D
:1028300000200090204600F019FD0546002D26D10D
:102840001FE0234601226946D020FFF78DFF054691
:10285000002D11D16846007860280DD168460078B7
:102860002070204600F0DCF80546002D03D12046FC
:1028700000F038FC054606E00120E1688847701E3C
:10288000C6B2002EDDD100BF002E00D1B51E2846F5
:10289000F8BD30B505782B0345782A0185782C09D9
:1028A0001D46154325430D60C5782B0305792A0184
:1028B00045792C091D46154325434D6085792A022B
:1028C000C3791D4615438D6030BDFFB589B00546FF
:1028D00014461E460A2C00DD0A24304600F0C6FCD1
:1028E0000890089800283CD1002D3AD00A9800287A
:1028F00037D0002C31D00A98007869460873B07838
:1029000001280FD00020019009E00198285C4106C1
:10291000490E019829540198401CC0B201900198B9
:10292000A042F2DB012C08DD234603A928460A9ABF
:1029300000F0FEFB6000029000E0029429787078BD
:102940000090B76803AA029BB8470890089800282F
:102950000AD00320C043089006E00220C04308903C
:1029600002E00020C043089008980DB0F0BDF8B513
:1029700006460D46284600F079FC0446002C15D189
:1029800029466846FFF73BFF0446002C07D16846FE
:102990000078002803D0284600F03AFD0446002CB9
:1029A00004D12946304600F0FDFE04462046F8BD1D
:1029B000F8B506460C46204600F058FC0546002DAA
:1029C0002CD121466846FFF71AFF0546002D07D196
:1029D00068460078002803D0204600F019FD05461F
:1029E000002D1BD131460720FFF77CFE002806D0C2
:1029F000224621463831304600F0B2FD0546002D12
:102A00000CD131461820FFF76DFE002806D0224673
:102A100021463831304600F02AFD05462846F8BDEB
:102A20007CB50446E0210191B6210091204600F0DA
:102A30001DFC0546002D09D123460122694601A847
:102A4000FFF743FF05460220E168884728467CBD22
:102A5000F0B599B007460C460021169117916448CD
:102A600014911590606AFDF725FD0022614B0791D6
:102A70000690FDF731FC139112902020205EFDF7A7
:102A800019FD00225C4B01910090FDF79BFC039126
:102A90000290139B129AFDF72DFC079106901E20C1
:102AA000205EFDF707FD0022544B03910290FDF7D5
:102AB00021FC05910490079B069AFDF769FB119193
:102AC0001090B868FDF70AFD07910690119B109AC7
:102AD000FDF702FC0F910E901A20205EFDF7EAFC34
:102AE0000022474B07910690FDF76CFC0D910C906E
:102AF000207FFDF7F3FC0022424B03910290FDF78B
:102B000061FC05910490139B129AFDF7F3FB0022E0
:102B10003D4B07910690FDF73BFB0B910A9022215C
:102B20000857FDF7C7FC0022364B01910090FDF7D6
:102B300049FC03910290139B129AFDF7DBFB059170
:102B400004900B9B0A9AFDF7D5FB00222E4B0791B0
:102B50000690FDF71DFB09910890099B089A0B99B7
:102B60000A98FDF7C7FB079106900D9B0C9A0F99E9
:102B70000E98FDF7BFFB05910490079B069AFDF7A1
:102B8000B9FB09910890207EFDF7A8FC0191009007
:102B9000099B089AFDF7AEFB00221C4B03910290A3
:102BA000FDF710FC0022184B05910490FDF79AFBED
:102BB00007910690099B089AFDF79CFB05460E4677
:102BC00028463146159B149AFDF7E2FC02D2159E69
:102BD000149D08E028463146179B169AFDF7C4FC61
:102BE00001D2179E169D2846314619B0F0BD00004F
:102BF0000000594000C0F2400000D04000005040AA
:102C00000000F040000090410000F03F0000204133
:102C1000F0B593B007460E460020A0490B910A90EC
:102C200000229F4908920991706AFDF743FC002237
:102C300001239B0705910490FDF7C4FB0022994BEB
:102C400007910690FDF748FB119110901020305E1F
:102C5000FDF730FC05910490109A1046119B19461F
:102C6000FDF748FB03910290059B049AFDF742FB98
:102C700000228D4B07910690FDF7A4FB0F910E905B
:102C80000E20305EFDF716FC03910290119B109A06
:102C9000FDF730FB002201239B0705910490FDF70F
:102CA00029FB079106900F9B0E9AFDF771FA0F9181
:102CB0000E900C20305EFDF7FDFB00227B4B039154
:102CC0000290FDF717FB0022794B079106900F99B0
:102CD0000E98FDF777FB05910490079B069AFDF788
:102CE00057FA0F910E900A20305EFDF7E3FB039137
:102CF0000290119B109AFDF7FDFA05910490119B2B
:102D0000109AFDF7F7FA00226A4B07910690FDF73B
:102D100059FB0D910C900820305EFDF7CBFB039121
:102D20000290119B109AFDF7E5FA059104900D9B16
:102D30000C9AFDF72DFA00225E4B07910690FDF7E5
:102D400041FB11911090F088FDF7C8FB0022564B13
:102D50000791069011991098FDF734FB0022564B0D
:102D600003910290FDF714FA05910490079B069ACF
:102D7000FDF7C0FA11911090002213461199109896
:102D8000FDF7F2FB78D03868FDF7A8FB00224B4B2B
:102D900007910690FDF7A6FA04460D460022484B1F
:102DA0000F990E98FDF70EFB22462B4603910290D9
:102DB000FDF798FA0022434B05910490FDF79AFA2B
:102DC00007910690119B109AFDF7FCFA04460D46F8
:102DD0001620305EFDF76EFB22462B4603910290D3
:102DE000FDF788FA22462B4605910490FDF782FAFA
:102DF0000022354B07910690FDF7E4FA11911090EF
:102E00001420305EFDF756FB22462B4605910490B8
:102E1000FDF770FA0022244B07910690FDF7D2FAD5
:102E20000F910E901220305EFDF744FB039102904B
:102E30000F9B0E9A11991098FDF7AAF90191009035
:102E4000039B029AFDF7A4F90022204B0591049000
:102E5000FDF7B8FA22462B4607910690FDF798F940
:102E600004460D46204629460B9B0A9AFDF77CFB3B
:102E700003D20B9D0A9C0CE009E020462946099BE1
:102E8000089AFDF785FB04D2099D089C01E00B9D83
:102E90000A9C2046294613B0F0BD0000004CDD40DE
:102EA00000DBFA400040EF400000E0400000F0404E
:102EB00000001040000020410000F03F00003041C1
:102EC0000000B040006AB8400000E041000030401F
:102ED000F0B58FB007460E4600214748089109908B
:102EE0004648069107903088FDF7F8FA0022444BD7
:102EF00001910090FDF766FA059104907868FDF75E
:102F0000EDFA00223F4B01910090FDF75BFA03912F
:102F10000290059B049AFDF7DFF90D910C900220B9
:102F2000305EFDF7C7FA059104900D9B0C9AFDF7F2
:102F3000E1F90D910C903088FDF7D0FA0022324B68
:102F400001910090FDF73EFA059104907868FDF735
:102F5000C5FA002241231B0601910090FDF732FAC9
:102F600003910290059B049AFDF7B6F90B910A9024
:102F70000420305EFDF79EFA059104900A9A1046EF
:102F80000B9B1946FDF7B6F903910290059B049A35
:102F9000FDF7B0F90B910A900B9B0A9A0D990C98CA
:102FA000FDF7F6F805910490FDF7A6FA70620B9B09
:102FB0000A9A0D990C98FDF7EBF80022134B059136
:102FC0000490FDF7FFF904460D4620462946099B6B
:102FD000089AFDF7C9FA02D2099D089C08E020462C
:102FE0002946079B069AFDF7D3FA01D2079D069C56
:102FF000204629460FB0F0BD000044C000405540B7
:10300000000090400000D0400000C0400000B440EC
:1030100010B504467D21C9006143084600F002F85E
:1030200010BD000070B5034600BF0E4E7569302616
:103030005E43344600220B4EB1690FE0094EB06981
:1030400088420BD0884202D20E1AB21802E02E1A21
:103050007618B2180146A24200D300E0EEE700BFA6
:1030600070BD000000E000E010B502781C239A4318
:10307000CB789B001C2423401A43027010BD10B56E
:1030800002781C239A430B789B001C2423401A438C
:10309000027010BD10B50278E0239A434B785B01B3
:1030A000E02423401A43027010BD10B50278E023DB
:1030B0009A430B795B01E02423401A43027010BD50
:1030C00070B504460D46E1B20548FEF772FE00BF3A
:1030D00080210348FEF7A1FD0028F9D0204670BDED
:1030E0000038014070B588B0044688261C2101A82C
:1030F000FDF733F823461A2201A93046FFF734FBC7
:103100000546002D11D1214601A800F0FCF8E1266A
:103110002346072201A93046FFF726FB0546002D6E
:1031200003D1214601A800F0CBF8284608B070BDB5
:1031300070B50446012008E0265C45006D1E4E5522
:10314000155C46008D55451CE8B29842F4DB70BD15
:103150001CB53A48FEF750FA384948687D21C90045
:10316000FCF7DEFF0446601E3549884200D90CE0BA
:10317000601E344948610321081FFEF7BFF9002093
:10318000304988610720086100BFFEF74FF9FEF75C
:103190002BFBFEF793FC00202B49487088702B48CE
:1031A00048602B4888602B48C8600846FFF73DFB05
:1031B000294908700120034601AA64210090A0203B
:1031C000FDF72AFF6846007959282DD101200346D2
:1031D000224A0A210090A020FDF71EFF012003468D
:1031E0001E4A521C0B210090A020FDF715FF012064
:1031F00003461A4A921C0C210090A020FDF70CFFF8
:1032000001200346154AD21C0D210090A020FDF795
:1032100003FF12490868FDF793F9044622460B465E
:103220000FA0FEF7CBFD02E000200C490860FDF77F
:10323000C9FE02E0044800F0ADF9FBE720000020E1
:10324000FFFFFF0000E000E04400002075360008AA
:103250000D37000869360008000000200400002037
:1032600054646174613D25660D0A00000146002921
:1032700008D04A68002A05D08A68002A02D0CA68A5
:10328000002A02D10020C04300E0002070470278ED
:103290005207520F8A7082781C231A4092080A70D3
:1032A0008278E0231A4052094A70C2781C231A40DF
:1032B0009208CA70C278E0231A4052090A71704716
:1032C000F8B50A46114610314678360207783E4373
:1032D00036B24E8386780E77C67876B23401067998
:1032E00033071B0F26461E43CE83467976B236013E
:1032F000009606793511009E2E430E84867976B2AB
:1033000022277E54F8BD10B50A4611461031437885
:103310001B02047823430B80C3781B028478234369
:103320001BB24B8043791B02047923431BB28B8071
:10333000C3791B0284792343CB80437A1B02047A2E
:1033400023431BB20B81C37A1B02847A23431BB233
:103350004B81437B1B02047B23431BB28B81C37BCA
:103360001B02847B23431BB2CB81437C1B02047C66
:1033700023431BB20B82C37C1B02847C23431BB2FE
:103380004B82437D1B02047D23431BB28B82C37D92
:103390001B02847D23431BB2CB82437E0B7610BD80
:1033A00070B588B006460022124B3468204671681A
:1033B000FDF708F8079106900F490868FDF7C0F877
:1033C00004460B46F168B068224603910290FCF770
:1033D00083FF059104900799069803910290716903
:1033E00030690191009005A0059B049AFEF7E6FC68
:1033F00008B070BD00408F400400002025302E3200
:10340000662C25302E32662C25302E32660D0A00B1
:103410003EB504462346042202A9F220FFF7A4F990
:103420000546002D0ED1694602A8FFF730FF204661
:10343000FFF7F6FA0546002D04D12146684600F054
:1034400003F8054628463EBD70B504460D462A469B
:1034500021461F2000F084F80646002E05D12A469A
:1034600021461F2000F003F80646304670BDFEB529
:1034700004460F461546F52101912B460122694667
:1034800068460079FFF770F90646002E16D108202D
:103490002040002803D039466846FFF7E5FD10209C
:1034A0002040002803D039466846FFF7FEFD2B4632
:1034B0000122694601A8FFF708FA06463046FEBD1C
:1034C000FEB505460E46F2210091A8784107490F46
:1034D00002913346012202A96846FFF7F6F9044635
:1034E000002C12D1F42100913346012201A9684633
:1034F0000078FFF739F90446002C06D13346012243
:1035000001A96846FFF7E1F904462046FEBDFEB575
:1035100004460F461546F42101912B4601226946C7
:1035200068460079FFF720F90646002E16D1E0071D
:10353000C00F002803D039466846FFF7A0FD0220DF
:103540002040002803D039466846FFF7A3FD2B46EC
:103550000122694601A8FFF7B8F906463046FEBDCC
:10356000F8B504460D4616460127042020400028E1
:1035700004D031462846FFF7A3FF0746A007800F77
:10358000002805D0324629462046FFF7C0FF0746EF
:103590003846F8BD86B0044601213A200155052180
:1035A0003820015502213920015504213B200155C5
:1035B00001213C200155012502200543042005433B
:1035C000102005430820054321462846FFF7F0F95F
:1035D00021460320FFF7CBF912A0FEF7EFFBFDF722
:1035E000F1FC07461CE0FDF7CDFBFDF7EBFCC61B2D
:1035F000002E01DB304600E07042FA2810DD224642
:1036000069460720FFF7CDF86846FFF7C9FE0E4868
:10361000808A022148400C498882FDF7D3FC074686
:10362000E1E7000054656D70657261747572652C18
:103630002048756D69646974792C205072657373C4
:103640007572650D0A0000000014004800B50A46B6
:1036500083B000210091019101466846FDF747F8CB
:103660000199009803B000BD10B50446A0B2FFF761
:10367000CFFC10BDFFB581B0054616461F460020A1
:103680000090002D39D102211E48FDF797FC00BFA4
:1036900002211D48FEF73CF90028F9D01A4802998A
:1036A000FEF77CF900BF01211748FEF731F9002829
:1036B000F9D01548FEF762F9002417E000BF022197
:1036C0001148FEF725F90028F9D00F480299FEF7B6
:1036D00065F900BF01210C48FEF71AF90028F9D05E
:1036E0000948FEF74BF93055601CC4B2BC42E5DB1B
:1036F00002210448FDF764FC00E000BF00BF009811
:1037000005B0F0BD0004004800300140FFB581B0B5
:10371000054616461F4600200090002D38D1022194
:103720001E48FDF74BFC00BF02211D48FEF7F0F8D4
:103730000028F9D01A480299FEF730F900BF01219C
:103740001748FEF7E5F80028F9D01548FEF716F9F6
:10375000002416E000BF02211148FEF7D9F8002826
:10376000F9D0315D0E48FEF719F900BF01210C4870
:10377000FEF7CEF80028F9D00948FEF7FFF8601CE4
:10378000C4B2BC42E6DB02210448FDF719FC00E0AC
:1037900000BF00BF009805B0F0BD00000004004865
:1037A000003001407CB504460D46F42101912B46C2
:1037B0000122694668460079FEF7D6FF0646002ECC
:1037C0000ED16946087880088000A107890F084358
:1037D00000902B460122694601A8FFF776F80646BD
:1037E00030467CBDDDDDDDDDDCBBBBDDDDDDDDDD13
:1037F000DDDDDDDD98888888888888887777777729
:1038000077888888855555566666666666666666F4
:10381000666888888333333222222222222222229F
:103820002228888D44380008000000202000000075
:103830000A1E0008643800082000002098040000D8
:103840001A1E000800000000000000000000000038
:103850000000000001020304010203040607080936
:043860000000000064
:04000005080000B53A
:00000001FF
