:020000040800F2
:10000000700D00203D4500083D0300083F03000837
:1000100043030008470300084B03000800000000EA
:100020000000000000000000000000004F03000876
:100030005103000800000000530300085542000867
:100040005745000857450008574500085745000820
:100050005745000857450008574500085745000810
:1000600057450008574500089741000857450008C4
:1000700057450008574500085745000857450008F0
:1000800057450008574500085745000857450008E0
:10009000574500085745000857450008A541000886
:1000A00057450008574500085745000857450008C0
:1000B00057450008574500085745000857450008B0
:1000C00057450008574500085745000857450008A0
:1000D00057450008D5430008574500085745000814
:1000E0005745000857450008574500085745000880
:1000F0005745000857450008574500085745000870
:10010000574500085745000857450008574500085F
:10011000574500085745000857450008574500084F
:10012000574500085745000857450008574500083F
:1001300000F002F800F06BF80AA090E8000C82448E
:100140008344AAF10107DA4501D100F060F8AFF26B
:10015000090EBAE80F0013F0010F18BFFB1A43F0A5
:100160000103184764720000847200000A444FF0D3
:10017000000C10F8013B13F0070408BF10F8014B06
:100180001D1108BF10F8015B641E05D010F8016B4B
:10019000641E01F8016BF9D113F0080F1EBF10F8AF
:1001A000014BAD1C0C1B09D16D1E58BF01F801CBD2
:1001B000FAD505E014F8016B01F8016B6D1EF9D555
:1001C0009142D6D37047000000230024002500266A
:1001D000103A28BF78C1FBD8520728BF30C148BFAA
:1001E0000B607047642906F0CD80752906F0CA803F
:1001F000782906F00381632906F0E982732906F065
:10020000EE82002070471FB51FBD10B510BD06F06F
:1002100019FB1146FFF7F7FF00F008F806F037FB6F
:1002200003B4FFF7F2FF03BC04F078F886B04FF494
:10023000A06004F015F904F016F84FF4E13004F072
:100240007CF802F0A3FC02F003FB02F0BFF902F01D
:1002500019F9002014222C490590684606F0DDF9B2
:100260002A48C468284810380FC8A0472849087091
:100270000120142224490590684606F0CEF923484F
:10028000C468214810380FC8A0472249087000F000
:100290007EF9214800682149B0FBF1F0C4B2204842
:1002A0004168204688471FA006F010F803F0D8FFE9
:1002B000054603F0D5FF064624E003F0D1FF441BBA
:1002C000002C01DB204600E06042B0F5AF7F05DD89
:1002D000194803F096FB03F0C3FF0546104908696F
:1002E000804703F0BDFF841B002C01DB204600E0AB
:1002F00060420F2806DD01F05DF800F045FF03F0D5
:10030000AFFF0646D9E70000E0000020A40000206F
:10031000190000201A0000200000002040420F00B9
:10032000A40100206669787475726520696E69742D
:10033000206F6B0D0A3E3E0050040020704700BF46
:10034000FEE700BFFEE700BFFEE700BFFEE7704725
:10035000704770470CB50020019000906C48006811
:1003600040F480306A49086000BF6948006800F4C2
:10037000003000900198401C0190009818B9019835
:10038000B0F5A06FF1D16248006800F4003010B100
:100390000120009001E0002000900098012843D146
:1003A0005C48006840F010005A4908600846006840
:1003B00020F0030008600846006840F00200086072
:1003C00053484068524948600846406848600846BB
:1003D000406840F4806048600846406820F47C1023
:1003E00048600846406840F4E810486008460068E5
:1003F00040F08070086000BF4548006800F0007061
:100400000028F9D04248406820F003004049486085
:100410000846406840F00200486000BF3C48406821
:1004200000F00C000828F9D10CBD10B5FFF792FFC1
:1004300010BD10B53648006840F00100344908602E
:100440000846406834490840314948600846006819
:10045000324908402E4908600846006820F4802090
:1004600008600846406820F4FE0048604FF41F0012
:100470008860FFF7DAFF4FF000602949086010BD7F
:1004800010B5002100200022214B5B6803F00C0115
:1004900021B1042906D0082928D107E0214B224C9C
:1004A000236027E01F4B204C236023E0184B5B6840
:1004B00003F47010164B5B6803F48032022303EBE5
:1004C000904022B9194B4343174C23600DE0104B69
:1004D0005B6803F4003323B1144B4343124C236095
:1004E00003E0104B4343104C236003E00D4B0E4CD4
:1004F000236000BF00BF064B5B68C3F303130C4CC3
:10050000E15C094B1B68CB40074C236010BD000029
:1005100000100240002002400000FFF8FFFFF6FE3E
:1005200008ED00E000127A000000002000093D0004
:100530000400002010B50021052003F049FE02212F
:10054000F94805F0F5FA10BD00201DE0642100EB2C
:10055000C002F64B43F822104FF4FA7100EBC002D0
:1005600003EB82025160052100EBC00203EB820223
:100570001173082100EBC00203EB820251730121C9
:10058000EB4A1154411CC8B20328DFDB704710B599
:10059000FFF7D0FF4821E74803F0B0F94821E648CB
:1005A00003F0ACF903F0AAFCFFF7CEFF01F05DFD0C
:1005B00010BD70B504460D46E0480078002834D1DF
:1005C000002C2EDD042C2CDA281E01DB014600E075
:1005D0004142B1F5006F24DA601EC4B2002D03DD84
:1005E0005220D749085502E04C20D5490855012032
:1005F000CF4908550221204601F030FC062141EA8E
:100600004411C8B240F2FF7101F0A3FB082141EA96
:100610004411C8B2294601F09CFBCAA005F056FE61
:1006200008E0CDA005F052FE04E0D9480178D9A039
:1006300005F04CFE70BD10B50446002C0ADD042CFC
:1006400008DA601EC4B2204601F0FCFCD9A005F017
:100650003DFE02E0D9A005F039FE10BD70B504469C
:100660000D4628784C280CD103217C2001F0B5FBE5
:10067000620002219140084008B1012070BD0020B5
:10068000FCE703217C2001F0A8FB620001219140DE
:10069000084008B10120F1E70020EFE72DE9F04123
:1006A00004460E461546A5480078002877D1002C50
:1006B00076DD042C74DA281E01DB014600E041429D
:1006C000C54A91427DDA601EC4B23078412802D01A
:1006D0003078522850D19648005DB0B104EBC40286
:1006E000924B53F82210062242EA4412D0B201F093
:1006F00030FB04EBC4008D4A02EB800041682046C9
:1007000001F0F2FB00208A4908553078412812D1C7
:1007100070782D2807D1002141EA4411C8B26942FE
:1007200001F02AFB28E0002141EA4411C8B2294621
:1007300001F022FB20E070782D280FD1022141EA40
:100740004411C8B201F06EFB69424718002141EA2A
:100750004411C8B2394601F00FFB0DE0022141EA15
:100760004411C8B201F05EFB4719002141EA44116F
:10077000C8B2394601F000FB0021204601F06EFBB3
:100780008CA005F0A3FD0A2141EA4411C8B201F092
:1007900032FB002805DD5220694908551AE014E0B3
:1007A0000FE00A2141EA4411C8B201F024FB0028FD
:1007B00003DA4C20624908550CE04E206049085588
:1007C00008E086A005F082FD04E07148017871A080
:1007D00005F07CFDBDE8F08170B505460C4605EBE3
:1007E000C500524901EB8000007B072878D105EB5A
:1007F000C50001EB8000407B0A28F7D1192C0BDAE9
:10080000611D284601F070FB601D05EBC501474ADC
:1008100002EB8101486089E1642C0DDA04F10A01E0
:10082000284601F061FB04F10A0005EBC5013F4ACF
:1008300002EB8101486079E1962C0DDA04F11E018A
:10084000284601F051FB04F11E0005EBC501374AB3
:1008500002EB8101486069E1B4F58C7F0DDA04F1A7
:100860003C01284601F040FB04F13C0005EBC501CA
:100870002E4A02EB8101486058E1B4F5D27F0DDACF
:1008800004F16401284601F02FFB04F1640005EB3C
:10089000C501264A02EB8101486047E1B4F50C7FAF
:1008A0000DDA04F19601284601F01EFB04F19600D2
:1008B00005EBC5011D4A02EB8101486036E1B4F544
:1008C0002F7F0EDA04F1C801284601F00DFB04F178
:1008D000C80005EBC501154A02EB8101486025E11E
:1008E000BCE0B4F5527F0DDA04F1FA01284601F0BC
:1008F000FBFA04F1FA0005EBC5010C4A02EB810199
:10090000486013E1B4F5757F0DDA04F59671284659
:1009100001F0EAFA04F5967005EBC501034A02EB13
:100920008101486002E175E00004004034000020CD
:10093000A0000020F804002000050020180000207E
:10094000150000203C6D6F746F7220697320726F08
:10095000746174696E673E003C6D6F746F72206ED7
:10096000756D626572206D75737420626520317ECD
:10097000332C207370656564206D75737420626517
:10098000202D323034377E323034373E00000000C4
:10099000190000203C6D6F746F72206973206469C8
:1009A0007361626C6520627920696E70757425646C
:1009B0003E0000003C6F6B3E000000003C6D6F7419
:1009C0006F72206E756D626572206D757374206232
:1009D0006520317E333E0000FFFF7F003C6D6F7469
:1009E0006F72206E756D626572206D757374206212
:1009F0006520317E332C706F736974696F6E206D62
:100A000075737420626520307E383338383630375D
:100A10003E00000040F29C4084420DDC04F5AF71C2
:100A2000284601F061FA04F5AF7005EBC501FE4AF6
:100A300002EB8101486079E040F2FF70844275DA90
:100A400004F51671284601F04FFA04F5167005EB0F
:100A5000C501F54A02EB8101486067E005EBC5007E
:100A6000F14901EB8000007B05285FD105EBC50053
:100A700001EB8000407B082858D1192C0ADA214666
:100A8000284601F031FA05EBC500E74901EB80008B
:100A900044604BE0322C0BDA611D284601F024FA49
:100AA000601D05EBC501E04A02EB810148603DE0B5
:100AB000642C0BDA6421284601F016FA642005EB59
:100AC000C501D94A02EB810148602FE0962C0DDA6E
:100AD0004FF4FA71284601F007FA4FF4FA7005EB6B
:100AE000C501D14A02EB810148601FE0FA2C0DDA02
:100AF0004FF47A71284601F0F7F94FF47A7005EB5C
:100B0000C501C94A02EB810148600FE040F2FF7065
:100B100084420BDA0146284601F0E6F940F2FF7004
:100B200005EBC501C04A02EB8101486070BD2DE9AB
:100B3000FC4104460E4615464FF00108002C6EDDC0
:100B4000042C6CDA601EC4B230786D2834D004DC1A
:100B5000412821D056287DD104E0702860D0722829
:100B600078D12EE004EBC400AF4941F8205004EBEB
:100B7000C4020B4653F82210062242EA4412D0B2B5
:100B800001F0E7F82F1E01DB384600E0784201460D
:100B90002046FFF721FE74E004EBC400A24901EBFC
:100BA0008000456004EBC4000A4602EB8000416807
:100BB000204601F099F964E0E9B2204601F04EF9CF
:100BC0005FE0192040EA4410C0B28DF80000694689
:100BD00001A801F06BF89DF805008DF801009DF863
:100BE000060000F0F00005F00F0108438DF8020048
:100BF0009DF807008DF80300182040EA4410C0B2A9
:100C00008DF80000694601A801F050F805F00F00CA
:100C100004EBC401844A02EB8101487331E03DE0FA
:100C2000192040EA4410C0B28DF80000694601A8BE
:100C300001F03CF89DF805008DF801009DF80600D4
:100C400065F31F10C0B28DF802009DF807008DF803
:100C5000030000E012E0182040EA4410C0B28DF812
:100C60000000694601A801F021F805F00F0004EB2F
:100C7000C4016D4A02EB8101087302E04FF00008E5
:100C800000BF00BFB8F1000F04D0AFF2D82005F0CC
:100C90001DFB07E065A005F019FB03E0AFF2E420BF
:100CA00005F014FBBDE8FC812DE9F04104460D463A
:100CB00000260127002C72DD042C70DA601EC4B2FD
:100CC000287858281AD00CDC522851D004DC41284E
:100CD00032D04C2878D13DE0532834D0562873D1F7
:100CE0001CE0702866D004DC59280FD06D286BD129
:100CF0004CE0722854D0762866D115E0022141EAF2
:100D00004411C8B201F08EF806465FE0002141EAC6
:100D10004411C8B201F086F8064657E004EBC4005F
:100D2000414951F8206051E00A2141EA4411C8B21A
:100D300001F061F8064649E004EBC4003A4901EBD2
:100D40008000466842E001F02AF800F0010000B19E
:100D500001263BE003217C2001F03FF862000221E4
:100D60009140084008B1012000E0002006462DE037
:100D700003217C2001F031F86200012191400840FC
:100D800008B1012000E0002006461FE0142141EADE
:100D90004411C8B2032101F020F8064616E020E015
:100DA000182141EA4411C8B2022101F016F800F0FE
:100DB0000F060BE0182141EA4411C8B2022101F0EC
:100DC0000CF8061102E0FFE7002700BF00BF27B1C3
:100DD000314619A005F07AFA06E014A005F076FA7B
:100DE00002E017A005F072FABDE8F08110B540F2FC
:100DF0003311682000F0C0FFAFF2484005F066FAFA
:100E000010BD10B588B001201449087002211422C9
:100E1000CDE905101249684605F0FFFB1148046949
:100E20000F4810380FC81FE0340000203C74797060
:100E300065206572723E00003C25643E00000000A3
:100E40003C6D6F746F72206E756D626572206D758A
:100E5000737420626520317E33000000140000208E
:100E6000E0000020A4000020A047AFF2B84005F049
:100E70002DFA08B010BD70B504460D46F74800784D
:100E800010BB032C20DA281E01DB014600E04142A2
:100E9000B1F5006F18DA0120F1490855022120460A
:100EA00000F0DCFF062141EA4411C8B240F2FF71B4
:100EB00000F04FFF082141EA4411C8B2694200F036
:100EC00048FF4C20E749085570BD70B504460D46F3
:100ED000E248007810BB032C20DA281E01DB014613
:100EE00000E04142B1F5006F18DA0120DC490855F5
:100EF0000221204600F0B2FF062141EA4411C8B2A7
:100F000040F2FF7100F025FF082141EA4411C8B208
:100F1000294600F01EFF5220D249085570BD70B519
:100F200004460D461646CD480078002834D1002CE2
:100F300038DD042C36DA601EC4B20021CA480155DF
:100F40000120C949C91E08552978C748C01C015548
:100F5000801D40F82460204601F074F8611CC8B27E
:100F600003F0FBF82878522807D131462046FFF7D6
:100F7000ACFF5220BB49085509E028784C2806D11F
:100F800031462046FFF777FF4C20B6490855611CD3
:100F9000B6A005F09BF905E0BA480178AFF20C6005
:100FA00005F094F970BD70B504460D461646AB4881
:100FB000007838BB002C2BDD042C29DA601EC4B26B
:100FC0000021A94801550120A749C91E08552978C3
:100FD000A548801D0155C01C40F82460287852287F
:100FE00004D131462046FFF770FF06E028784C28F0
:100FF00003D131462046FFF73EFF611CA2A005F059
:1010000065F905E09F480178AFF2786005F05EF978
:1010100070BD10B50446611CC8B203F0ADF820469F
:1010200001F010F8642003F065F9022141EA44114F
:10103000C8B2002100F0A0FE002141EA4411C8B26C
:10104000002100F099FE00208749C91E08550121A2
:10105000854801554E21801D0155C01E01554E2069
:1010600080490855611C8FA005F030F910BD10B5FE
:101070007D48C01E0078012824D17B48C01E80799D
:1010800052280DD10A2000F0B6FE00281ADC0A20F2
:1010900000F0B1FE002815DA0020FFF7BAFF11E0DA
:1010A0007148C01E80794C280CD10A2000F0A3FEA4
:1010B000002807DB0A2000F09EFE002802DD002049
:1010C000FFF7A7FF10BD10B56748C01E4078012884
:1010D00024D16548C01EC07952280DD12A2000F0C5
:1010E0008AFE00281ADC2A2000F085FE002815DA86
:1010F0000120FFF78EFF11E05B48C01EC0794C282D
:101100000CD12A2000F077FE002807DB2A2000F00F
:1011100072FE002802DD0120FFF77BFF10BD10B535
:101120005148C01E807801281FD14F48C01E007A48
:1011300052280DD14A2000F05EFE002815DC4A201E
:1011400000F059FE002810DA0220FFF762FF0CE0E1
:101150004A2000F050FE002807DB4A2000F04BFE3A
:10116000002802DD0220FFF754FF10BD10B5044631
:10117000002C08DD042C06DA601E3B4A115CAFF23D
:10118000483005F0A3F810BD70B534480078002849
:101190005FD103217C2000F020FE0546002455E0AD
:1011A000610002208840284008B1012000E00020B2
:1011B00001281FD12C48C01E005D012810D12A48EB
:1011C000801D005D4C2803D12046FFF722FF11E06F
:1011D0002548093050F824102046FFF776FE09E034
:1011E0002048005D4C2805D14E201E490855204658
:1011F00000F028FF610001208840284008B101204C
:1012000000E0002001281FD11748C01E005D012802
:1012100010D11548801D005D522803D12046FFF7EC
:10122000F8FE11E01048093050F824102046FFF76E
:1012300022FE09E00B48005D522805D14E200949E5
:101240000855204600F0FEFE601CC4B2032CA7DB4C
:1012500002E0002000F0F6FE70BD00001800002043
:10126000A0000020150000201F0000203C6D6F74BE
:101270006F72256420737461727420676F20686FC9
:101280006D653E00190000203C6D6F746F7225641F
:1012900020737461727420676F206C696D69743E8D
:1012A000000000003C6D6F746F72256420726573DE
:1012B0006574206F6B3E0D0A3E3E000070B588B02D
:1012C00004460D462146CAA005F0DAF918B90120F6
:1012D000C94908704AE02146C8A005F0D1F918B9FB
:1012E0000220C549087041E02146C6A005F0C8F9B2
:1012F00018B90320C049087038E02146C3A005F0A2
:10130000BFF918B90420BC4908702FE02146C1A0DC
:1013100005F0B6F918B90520B749087026E021464E
:10132000BEA005F0ADF918B90620B34908701DE05C
:101330002146BCA005F0A4F918B90720AE490870F1
:1013400014E02146B9A005F09BF918B90820AA4974
:1013500008700BE02146B7A005F092F918B90920F2
:10136000A549087002E00020A3490870A24800784F
:1013700000211422CDE90510B049684605F04DF969
:10138000AF480669AD4810380FC8B0470120142295
:10139000AA49CDE90505684605F03FF9A848066960
:1013A000A64810380FC8B047AFF6F81004F08EFF0B
:1013B00008B070BD904800780A2878D2DFE800F0C5
:1013C0007705213F5D7C9AB6D4F39E48007848B9F2
:1013D0009D480068012802D19C49087002E0002065
:1013E0009A49087097480078012809D19648006802
:1013F00018B901209549087002E00020934908704F
:10140000F3E09048007850B98F48001D006801282B
:1014100002D18E49087002E000208C49087089488A
:10142000007801280AD18848001D006818B90120F9
:101430008649087002E0002084490870D5E08148A0
:10144000007850B9804808300068012802D17F49EF
:10145000087002E000207D4908707A480078012871
:101460000AD179480830006818B901207749087016
:1014700002E0002075490870B7E07248007850B962
:1014800071480C300068012802D17049087002E0F0
:1014900000206E4908706B48007801280BD16A481B
:1014A0000C30006820B901206849087003E098E01A
:1014B00000206649087098E06248007850B9624898
:1014C00010300068012802D16049087002E0002055
:1014D0005E4908705B48007801280AD15A481030EC
:1014E000006818B901205949087002E000205749E6
:1014F00008707AE05348007848B9554800680128D8
:1015000002D15249087002E00020504908704D484D
:101510000078012809D14E48006818B901204B49CC
:10152000087002E00020494908705EE045480078F4
:1015300050B94748001D0068012802D1434908708E
:1015400002E00020414908703E48007801280AD195
:101550003F48001D006818B901203C49087002E0AE
:1015600000203A49087040E03648007850B93848C1
:1015700008300068012802D13449087002E00020D8
:10158000324908702F48007801280AD130480830C5
:10159000006818B901202D49087002E000202B498D
:1015A000087022E0FFE72748007850B928480C303F
:1015B0000068012802D12549087002E00020234973
:1015C00008702048007801280AD121480C300068B2
:1015D00018B901201D49087002E000201B4908705D
:1015E00003E000201949087000BF00BF70470000E9
:1015F000696E70757431000019000020696E707595
:1016000074320000696E707574330000696E707515
:1016100074340000696E707574350000696E707501
:1016200074360000696E707574370000696E7075ED
:1016300074380000696E707574390000E000002095
:10164000A40000201A00002014812142180000206C
:101650000001234210B50124F0480068012803D19D
:10166000EFA004F033FE00240120F64908600020BA
:10167000F549C1F89401F349083908600A2002F0DD
:1016800039FEF248D0F81801012803D1F0A004F087
:101690001DFE0024E1480830006818B9F5A004F0E8
:1016A00015FE0024DD480C30006818B9FAA004F0DB
:1016B0000DFE00240020E34908600120E249C1F842
:1016C00094010020DF49083908600A2002F012FE68
:1016D000DE48D0F8180118B9DDA004F0F7FD0024A9
:1016E000CE4808300068012803D1E2A004F0EEFDE6
:1016F0000024CA480C30006818B9E7A004F0E6FDE1
:1017000000240020CF490860CF49C1F8940101208E
:10171000CC49083908600A2002F0ECFDCB48D0F82B
:10172000180118B9CAA004F0D1FD0024BB48083044
:10173000006818B9CFA004F0C9FD0024B7480C30E8
:101740000068012803D1D4A004F0C0FD00240120CA
:10175000DA4908600A2002F0CDFDBC48D0F8240127
:10176000012803D1D6A004F0B1FD00240020D34904
:1017700008600A2002F0BEFDB448D0F8240118B970
:10178000CFA004F0A3FD00240120D64908600A2060
:1017900002F0B0FDD448D0F80001012803D1D3A055
:1017A00004F094FD00240020CE4908600A2002F0D5
:1017B000A1FDCD48D0F8000118B9CCA004F086FDF9
:1017C00000240120C749091D08600A2002F092FD8B
:1017D000C548D0F80401012803D1CDA004F076FD5E
:1017E00000240020BF49091D08600A2002F082FD84
:1017F000BD48D0F8040118B9C5A004F067FD002465
:101800000120B849083108600A2002F073FDB6488B
:10181000D0F80801012803D1C6A004F057FD002428
:101820000020B049083108600A2002F063FDAE488C
:10183000D0F8080118B9BFA004F048FD0024012029
:101840008049183908600A2002F054FDA648D0F8F3
:101850000C01012803D1C0A004F038FD00240020B1
:101860007849183908600A2002F044FD9E48D0F8F3
:101870000C0118B9B8A004F029FD00240120714919
:10188000143908600A2002F035FD9748D0F810019D
:10189000012803D1B9A004F019FD002400206949F2
:1018A000143908600A2002F025FD8F48D0F8100195
:1018B00018B9B2A004F00AFD0024012061491039D2
:1018C00008600A2002F016FD8748D0F814010128AC
:1018D00003D1B3A004F0FAFC0024002059491039C8
:1018E00008600A2002F006FD7F48D0F8140118B9FC
:1018F000ABA004F0EBFC0024012052490C39086035
:101900000A2002F0F7FC7848D0F81801012803D12A
:10191000ACA004F0DBFC002400204A490C3908602C
:101920000A2002F0E7FC7048D0F8180118B9A5A009
:1019300004F0CCFC002414B1ABA004F0C7FC10BD33
:1019400010B5034607E018780C78A04201D0104685
:1019500010BD5B1C491C101EA2F10104A2B2F2D101
:1019600000BFF5E770B598B0A8A5284604F036FE8C
:10197000C4B2AFA004F0AAFC4FF4C8501422B4497A
:10198000CDE906540590684604F047FEB1488668E4
:10199000AF4810380FC8B0470A2002F0ABFC08A8C7
:1019A0004FF4C8511422CDE906040591A8496846B0
:1019B00004F033FEA7484668A54810380FC8B04762
:1019C000224608A92846FFF7BBFF18B1A2A004F0E1
:1019D0007DFC02E0A2A004F079FC18B070BD10B547
:1019E000A1A004F073FC03217C2000F0F6F918B9E3
:1019F000A5A004F06BFC05E0A4A004F067FCAA48D5
:101A000004F064FC10BD10B50DA004F05FFCFFF7FE
:101A100021FEFFF7A7FFFFF7E2FF10BD148121426F
:101A2000696E70757431206F72207267625F3576EF
:101A3000202E2E2E2E2E2E2E2E2E2E2E2E65727215
:101A40000D0A00009881224200802242008021423B
:101A5000696E70757432206F72207267625F7220D7
:101A60002E2E2E2E2E2E2E2E2E2E2E2E2E657272D7
:101A70000D0A0000696E70757433206F72207267F2
:101A8000625F67202E2E2E2E2E2E2E2E2E2E2E2EE6
:101A90002E6572720D0A0000696E70757434206FC5
:101AA00072207267625F62202E2E2E2E2E2E2E2E18
:101AB0002E2E2E2E2E6572720D0A0000BC012142C0
:101AC000696E70757435206F72206F7574707574DF
:101AD00031202E2E2E2E2E2E2E2E2E2E2E65727272
:101AE0000D0A0000A801224200002342696E7075B1
:101AF0007436206F72206F757470757432202E2EBC
:101B00002E2E2E2E2E2E2E2E2E6572720D0A0000D7
:101B1000696E70757437206F72206F75747075748C
:101B200033202E2E2E2E2E2E2E2E2E2E2E6572721F
:101B30000D0A0000696E70757438206F72206F7521
:101B40007470757434202E2E2E2E2E2E2E2E2E2EA8
:101B50002E6572720D0A0000696E70757439206FFF
:101B600072206F757470757435202E2E2E2E2E2EC9
:101B70002E2E2E2E2E6572720D0A0000696E707563
:101B8000743130206F72206F757470757436202E2A
:101B90002E2E2E2E2E2E2E2E2E6572720D0A000047
:101BA000696E7075743131206F72206F7574707545
:101BB0007437202E2E2E2E2E2E2E2E2E2E65727245
:101BC0000D0A0000696E7075743132206F72206FDB
:101BD000757470757438202E2E2E2E2E2E2E2E2ECD
:101BE0002E6572720D0A0000696E70757473206143
:101BF0006E64206F75747075747320746573742EC1
:101C00002E2E2E2E2E6F6B0D0A0000007468697345
:101C1000207061676520646174612073617665205E
:101C2000666F7220656570726F6D207465737400E5
:101C3000656570726F6D20746573742E2E2E2E2E56
:101C40002E2E2E2E2E2E2E2E2E2E2E2E2E0000003E
:101C5000E0000020A40000206572720D0A00000060
:101C60006F6B0D0A00000000746D6334323920740C
:101C70006573742E2E2E2E2E2E2E2E2E2E2E2E2EC2
:101C80002E2E2E2E2E000000657272006F6B0D0A34
:101C90000D0AD7EEBAF33ABCECB2E2CFDECEBBB25D
:101CA000C9BCAFB5E7C2B7004470000870B50446C0
:101CB0000D4629780022104602F076F920706978E6
:101CC0000022104602F070F96070A97800221046D8
:101CD00002F06AF9A070E9780122002002F064F9AC
:101CE000E07070BD7CB505460C468DF80450207838
:101CF0008DF8050060788DF80600A0788DF8070053
:101D000001A96846FFF7D2FF7CBD2DE9FC410446DE
:101D10000D4616461F468DF804408DF805508DF887
:101D200006608DF8077001A96846FFF7BFFFBDE8A0
:101D3000FC811CB504468DF8044000208DF8050098
:101D40008DF806008DF8070001A96846FFF7AEFF81
:101D50001CBD7CB505460C468DF8045000208DF85E
:101D60000500200A8DF80600E0B28DF8070001A9F1
:101D70006846FFF79BFF7CBD7CB505460C468DF899
:101D80000450200C8DF80500200A8DF80600E0B202
:101D90008DF8070001A96846FFF788FF7CBD10B5E4
:101DA00001221146002002F0FFF810BD7CB5054667
:101DB0000C4645F001008DF80000694601A8FFF7C8
:101DC00075FF9DF8050020709DF8060060709DF875
:101DD0000700A0709DF804007CBD7CB504460D464C
:101DE00044F001008DF80000694601A8FFF75EFF8E
:101DF00001A8405D7CBD7CB5054645F001008DF82D
:101E00000000694601A8FFF751FF9DF807009DF803
:101E1000061040EA012404F4006008B1D2480443EB
:101E200020467CBD7CB5054645F001008DF80000DC
:101E3000694601A8FFF73AFF9DF8050000049DF8E8
:101E4000061040EA01209DF8071040EA010404F45E
:101E5000000008B144F07F4420467CBD7CB50446B8
:101E60000D46142040EA4410401CC0B28DF8040016
:101E700001A96846FFF71AFF142040EA4410C0B2D7
:101E80008DF804009DF801008DF805009DF8020012
:101E90008DF806008DF8075001A96846FFF706FF88
:101EA0007CBD7CB504460D46142040EA4410401C1D
:101EB000C0B28DF8040001A96846FFF7F7FE1420B0
:101EC00040EA4410C0B28DF804009DF801008DF87E
:101ED00005008DF806509DF803008DF8070001A954
:101EE0006846FFF7E3FE7CBD2DE9F04F8DB0054657
:101EF0000F46C7F30A07182141EA4511C8B208A9DD
:101F0000FFF754FF9DF82100099009984FEA201A25
:101F1000099800F00F094FF0FF300B900A90D1455F
:101F20001DDBA9EB0A02012101FA02F004F07DFE9B
:101F300000228E4BCDE9000104F0A2FECDE90401A0
:101F4000384604F089FECDE90201DDE9042304F0FE
:101F5000E5FCCDE9060104F0AFFC80461EE0AAEBEB
:101F60000902012101FA02F004F05FFE02460B466D
:101F7000CDE9000100207D4904F0D0FCCDE9040149
:101F8000384604F069FECDE90201DDE9042304F0DE
:101F9000C5FCCDE9060104F08FFC8046404604F004
:101FA0006DFF734A734BCDE9040104F069FECDE97E
:101FB000060104F081FC8346002424E0012101FA9B
:101FC00004F004F032FECDE90401584604F056FF57
:101FD0000022694BCDE9000104F052FECDE9020177
:101FE000DDE9042304F04CFECDE9060104F0EEFD2A
:101FF000A0F18006002E05DB7F2E03DC06F18000B9
:102000000B900A94641C0D2CD8DD00208DF8200064
:102010000B98C0B28DF821000A98C0B28DF822004A
:10202000122141EA4511C8B208A9FFF75BFE0C2155
:1020300041EA4511C8B23946FFF78BFE00200DB0CA
:10204000BDE8F08F10B50446E0B20221FFF706FFAD
:10205000082141EA4411C8B2FFF76BFE0A2141EAA8
:102060004411C8B2FFF765FE10BD70B500250BE046
:10207000002405E044EA4511C8B2FFF75AFE641C8B
:102080001C2CF7D9681CC5B2032DF1DB4FF49971F4
:102090006820FFF771FE0223042200217E20FFF753
:1020A00034FE3648017B407B61F31F10C2B204232B
:1020B00000211820FFF729FE304890F8301090F8E2
:1020C000310061F31F10C2B2042300213820FFF752
:1020D0001CFE2A4890F8541090F8550061F31F1028
:1020E000C2B2042300215820FFF70FFE00231A4636
:1020F00019461420FFF709FE002304221946342054
:10210000FFF703FE0023042219465420FFF7FDFDCC
:1021100001210420FFF71DFE01212420FFF719FEF5
:1021200001214420FFF715FE144801680620FFF73F
:1021300023FE124841680020FFF7D6FE0F48416A8F
:102140002620FFF719FE0D48816A0120FFF7CCFE1B
:102150000A48816C4620FFF70FFE0848C16C022038
:10216000FFF7C2FE70BD000000F0FFFF00006040FE
:1021700004560E2DB29DEF3F000020403400002099
:102180000FB410B5F8480268DDE90401904710BCAF
:102190005DF814FB0FB4FEB5DDE91265119C611901
:1021A0000E98801C81422EDABDF8340004280BDA28
:1021B000CDE9016500949DF83030EB480122876835
:1021C000DDE90A01B8471EE0BDF8340002280FDD42
:1021D000BDF8340020280BDACDE9016500949DF8A4
:1021E0003030E14803228768DDE90A01B8470AE098
:1021F000CDE9016500949DF83030DB480222876804
:10220000DDE90A01B847FEBC5DF814FB0FB42DE907
:10221000FE4FDDE91689159C04EB09011298801C1C
:10222000814269DA0FFA89F60027BA46002560E094
:10223000139894FBF0F100FB11400FFA80FA139809
:10224000B04201DA139800E030461399A1EB0A017D
:10225000884203DD1398A0EB0A0005E01398B04212
:1022600001DA139800E0304605B2BDF844000428B6
:102270000FDAA8B208EB0701CDE9004102909DF802
:102280004030B9480122D0F804C0DDE90E01E04732
:1022900026E0BDF84400022813DDBDF844002028E4
:1022A0000FDAA9B208EB0700CDE9004002919DF8D2
:1022B0004030AD480322D0F804C0DDE90E01E0470C
:1022C0000EE0A8B208EB0701CDE9004102909DF8AD
:1022D0004030A5480222D0F804C0DDE90E01E047F5
:1022E000052002F007F8701B06B2781907B26019D2
:1022F00084B2002E9CDC00BFBDE8FE0F5DF814FB2D
:102300000FB410B588B0139C01200AA91422CDE99E
:10231000054107900EA9684604F07FF90AA80FC886
:10232000FFF738FF9DF8280008B010BC5DF814FBDB
:102330000FB410B588B0139C012014A91422CDE964
:10234000054107900EA9684604F067F90AA80FC86E
:10235000FFF75CFF052001F0CDFF08B010BC5DF871
:1023600014FB0FB410B588B0139C02200AA91422E4
:10237000CDE9054107900EA9684604F04EF90AA878
:102380000FC8FFF707FFBDF8280008B010BC5DF8C4
:1023900014FB0FB410B588B0139C022014A91422AA
:1023A000CDE9054107900EA9684604F036F90AA860
:1023B0000FC8FFF72BFF052001F09CFF08B010BCF1
:1023C0005DF814FB0FB410B588B0139C04200AA963
:1023D0001422CDE9054107900EA9684604F01DF9C5
:1023E0000AA80FC8FFF7D6FE0A9808B010BC5DF81F
:1023F00014FB0FB410B588B0139C042014A9142248
:10240000CDE9054107900EA9684604F006F90AA82F
:102410000FC8FFF7FBFE052001F06CFF08B010BCF1
:102420005DF814FB0FB410B588B0139C04200AA902
:102430001422CDE9054107900EA9684604F0EDF895
:102440000AA80FC8FFF7A6FE0A9808B010BC5DF8EE
:1024500014FB0FB410B588B0139C042014A91422E7
:10246000CDE9054107900EA9684604F0D6F80AA800
:102470000FC8FFF7CBFE052001F03CFF08B010BCF1
:102480005DF814FB10B586B03848394C1ECC1430BA
:102490001EC01422A0F11401684604F0BEF83548AD
:1024A000046832480FC8A04706B010BDF0B589B027
:1024B00005460E46304604F091F8C4B2002D1CDDEE
:1024C000FF2D1ADC412C18DA402C03D000203055A7
:1024D000601CC4B2A801142224491031CDE906645D
:1024E0000590684604F099F8224887681F480FC88D
:1024F000B84721A003F0EAFE02E021A003F0E6FEC7
:1025000009B0F0BD70B598B00546002D26DDFF2D51
:1025100024DC402108AAA801CDE906210590142257
:1025200012491031684604F078F8124846680F489E
:102530000FC8B047002409E008A8005D7F2803DD2C
:10254000002008A9085503E0601CC4B2402CF3DB4E
:1025500000BF08A915A003F0B9FE02E015A003F022
:10256000B5FE18B070BD000018060020D000002095
:10257000E86F0008A40000203C6F6B3E00000000E4
:102580003C70616765206D75737420626520317ED3
:102590003235352C20636F6D6D616E6473206D75FF
:1025A000737420626520317E36343E003C252E3621
:1025B00034733E003C70616765206D7573742062F2
:1025C0006520317E3235353E0000000008B501211E
:1025D000042002F07DFB0121082002F079FB01219B
:1025E000102002F075FB0121202002F071FB012177
:1025F000402002F06DFB0121084602F069FB012139
:102600007F4802F07AF94FF40040ADF80000102046
:102610008DF8030003208DF802006946794802F026
:102620009BF84FF40041774802F045F94FF4E05031
:10263000ADF800006946744802F08EF84FF4E0519E
:10264000714802F038F90F20ADF8000069466F4874
:1026500002F082F80F216D4802F02DF9F020ADF85C
:1026600000006946694802F077F8F021674802F0F7
:1026700022F94FF47870ADF8000003208DF80200C5
:1026800048208DF803006946614802F065F87F2014
:10269000ADF8000003208DF8020048208DF80300FB
:1026A00069465C4802F058F84FF44050ADF800001D
:1026B00028208DF803006946564802F04DF808BD01
:1026C00038B505460C465448007800284BD1082DF3
:1026D00049DD0120504908700121082002F0F8FA74
:1026E0000121202002F0F4FA0121402002F0F0FA4A
:1026F0004FF48040ADF8000010208DF80300032057
:102700008DF802006946424802F026F84FF48041F5
:102710003F4802F0D0F84FF43050ADF80000694661
:102720003A4802F019F84FF43051384802F0C3F833
:102730004FF44040ADF800006946364802F00CF80E
:102740004FF44041334802F0B6F84FF48050ADF8F2
:10275000000069462E4801F0FFFF4FF480512C48DD
:1027600002F0A9F800BF002D45DD0F2D43DA3CD261
:10277000DFE805F03B080B0E1216191D2125282C49
:10278000303437002548046030E0254804602DE0EF
:102790002348001D046029E021480830046025E03A
:1027A0002048046022E01F48001D04601EE01D4810
:1027B000083004601AE01B480C30046016E01A4828
:1027C000046013E01748283004600FE015483430E7
:1027D00004600BE013482C30046007E013480460E9
:1027E00004E01248001D046000E000BF00BF10A01C
:1027F00003F06CFD02E010A003F068FD38BD00009E
:1028000000023000000801400010014000140140A7
:10281000000C014000180140F4000020BC012142DE
:10282000A801224280812242B8812142B80123427C
:102830003C6F6B3E000000003C6368616E6E656C2F
:10284000206D75737420626520317E31343E000046
:1028500008B50121082002F03BFA0121402002F0D6
:1028600037FA4FF47870ADF8000003208DF80200BD
:1028700048208DF803006946B34801F06DFF7F20C2
:10288000ADF8000003208DF8020048208DF8030009
:102890006946AE4801F060FF08BD38B50446AC4853
:1028A000007818BB082C21DD0120A94908700121FE
:1028B000082002F00DFA0121202002F009FA03207D
:1028C0008DF8020048208DF803004AF20200ADF8AE
:1028D000000069469C4801F03FFF4FF49850ADF866
:1028E000000069469B4801F037FF00BF002C6FDDF8
:1028F000132C6DDA6DD2DFE804F0AB0A121B242D25
:10290000363E475059626D767F879099A200924873
:10291000006808B9012000E0002005469AE08E48D2
:10292000001D006808B9012000E00020054691E084
:1029300089480830006808B9012000E000200546F9
:1029400088E085480C30006808B9012000E00020CC
:1029500005467FE080481030006808B9012000E09B
:102960000020054676E07D48006808B9012000E0B7
:10297000002005466EE07948001D006808B9012076
:1029800000E00020054665E074480830006808B99A
:10299000012000E0002005465CE070480C30006833
:1029A00008B9012000E00020054653E06B481030D4
:1029B000006808B9012000E0002005464AE06748A9
:1029C0001430006808B9012000E00020054641E00D
:1029D00046E03DE061481830006808B9012000E099
:1029E0000020054636E05C481038006808B9012030
:1029F00000E0002005462DE05948006808B9012094
:102A000000E00020054625E055481030006808B970
:102A1000012000E0002005461CE05148001D006830
:102A200008B9012000E00020054613E04A4828309C
:102A3000006808B9012000E0002005460AE0464889
:102A40002030006808B9012000E00020054601E0C0
:102A5000FF2500BF00BF294642A003F037FC02E07B
:102A600042A003F033FC38BD0EB53B48006808B106
:102A7000302000E031208DF800003748001D00684C
:102A800008B1302000E031208DF8010032480830D4
:102A9000006808B1302000E031208DF802002E4897
:102AA0000C30006808B1302000E031208DF80300C0
:102AB00029481030006808B1302000E031208DF83E
:102AC00004002648006808B1302000E031208DF86D
:102AD00005002248001D006808B1302000E03120C8
:102AE0008DF806001D480830006808B1302000E06D
:102AF00031208DF8070019480C30006808B13020EB
:102B000000E031208DF8080014481030006808B14A
:102B1000302000E031208DF80900104814300068A2
:102B200008B1302000E031208DF80A000B48183041
:102B3000006808B1302000E031208DF80B006946B4
:102B400010A003F0C3FB0EBD000C014000180140B3
:102B5000F5000020001401401481214200012342AD
:102B6000208122423C25643E000000006368616EC3
:102B70006E6C65206D75737420626520317E31380E
:102B8000000000003C252E3132733E0008B50121C3
:102B9000202002F09DF8F020ADF8000010208DF804
:102BA000030003208DF802006946214801F0D4FD9E
:102BB000F0211F4801F07FFE08BD10B504462078C3
:102BC00062281AD067280CD0722821D10120194917
:102BD000086000201849C1F89401164908390860B6
:102BE00020E000201349086001201349C1F8940136
:102BF000002010490839086014E000200D490860E1
:102C00000D49C1F8940101200A490839086009E01A
:102C10000020084908600849C1F8940105490839AD
:102C2000086000BF00BF05A003F050FB10BD00000E
:102C30000014014098812242008022423C6F6B3E8A
:102C40000000000010B58CB004461E230BAA03A997
:102C5000204600F051FC0090009810B101200CB00B
:102C600010BD9DF82C00044400200B900EE0FB48A2
:102C70009DF82C2050F8221003A800F087FB00B923
:102C800008E09DF82C00401CC0B20B909DF82C0071
:102C90000728ECD300BF9DF82C00072875D2DFE889
:102CA00000F004050C2E5C88B30000BFECA003F01C
:102CB0000DFBECA003F00AFBC7E0E9A003F006FB64
:102CC000EBA003F003FB00200B900EE0F848006837
:102CD0009DF82C2000EBC2004168F6A003F0F6FA44
:102CE0009DF82C00401CC0B20B90F148007D9DF86F
:102CF0002C108842EADCDAA003F0E8FAA5E0D8A0BC
:102D000003F0E4FAEDA003F0E1FA00200B901AE0E2
:102D1000E74909689DF82C2001EBC20101AB02AA2A
:102D2000486803A900F00EFCE14800689DF82C10EB
:102D300050F8312003A9F1A003F0C8FA9DF82C0047
:102D4000401CC0B20B90DA48007D9DF82C108842E0
:102D5000DEDCC3A003F0BAFA77E0C1A003F0B6FA54
:102D60000BAA03A9204600F0C9FC9DF82C00D0B99D
:102D7000694603A800F03DFB0B909DF82C0028B994
:102D8000E3A0009903F0A2FA0FE05CE09DF82C00AC
:102D9000042801D0022062E7E0A003F097FA0020A7
:102DA000C349C87501E0022059E7ADA003F08EFACF
:102DB0004BE0ABA003F08AFA0BAA03A9204600F06F
:102DC0009DFC9DF82C00C8B9694603A800F011FBD2
:102DD0000B909DF82C0020B9D5A0009903F076FA4D
:102DE0000EE09DF82C00042801D0022037E7D3A084
:102DF00003F06CFA0120AE49C87501E002202EE70D
:102E000097A003F063FA20E095A003F05FFA0BAA05
:102E100003A9204600F072FC9DF82C0068B96946B1
:102E200003A800F0E6FA0B909DF82C0018B9C848EA
:102E300003F04CFA03E0022011E702200FE788A01C
:102E400003F044FA01E0012009E700BF002006E793
:102E50000121974AD175704730B595B0054613AB3F
:102E600012AA09A9284600F06DFB044614B12046B9
:102E700015B030BD0020149026E08D4909689DF8FA
:102E8000502001EBC20113AB11AA486801A900F060
:102E900059FB04460CB12046EAE709A901A800F055
:102EA00075FA60B99DF844009DF84810884201DD2C
:102EB0000220DDE79DF850007D4988750AE09DF805
:102EC0005000401CC0B214907948007D9DF850100D
:102ED0008842D2DC00BF7648007D9DF850108842C1
:102EE00001D10420C4E714A9284600F07EFC044662
:102EF0000CB12046BCE79DF850006D494875002094
:102F0000B6E72DE9F0419AB06948847D007DA04282
:102F100002DC1AB0BDE8F0816549096801EBC40123
:102F200006AB07AA486808A900F00CFB08A989A00D
:102F300003F0CCF9002645E05D48008B0121B1404B
:102F40000840D8B1222184A003F0C0F9304600F037
:102F50003FFC574924314718394680A003F0B6F9A1
:102F600022217DA003F0B2F9304600F031FC504937
:102F70002431084410A941F8260019E0304600F039
:102F800027FC4B492431085810A941F8260048482D
:102F9000C07D012806D110A850F8261070A003F0BB
:102FA00095F905E010A850F826106EA003F08EF9F0
:102FB0009DF81C00401EB04202D06CA003F086F9C0
:102FC000701CC6B29DF81C008642B5DB68A003F0F9
:102FD0007DF93748407D0B280DD2DFE800F0060D63
:102FE000151E2732CBDAEBFEFD003149096851F896
:102FF0003400804705461FE12D4A126852F834100C
:1030000010988847054617E1294B1B6853F8342070
:10301000DDE91001904705460EE1254F3F6857F85E
:10302000343010A807C89847054605E1DFF880C08E
:10303000DCF800C05CF8347010A80FC8B84705462B
:10304000FAE01498DFF868C00090DCF800C05CF883
:10305000347010A80FC8B8470546EDE0F80000200E
:103060000D0A0000D6B8C1EECAA7D0A70D0A00000D
:103070002D2D2D2D2D2D2D2D2D2D2D2D2D2D2D2D80
:103080002D2D2D2D66756E6374696F6E206C6973BE
:10309000742D2D2D2D2D2D2D2D2D2D2D2D2D2D2D19
:1030A0002D2D2D2D2D2D2D2D2D2D2D2D200D0A00CD
:1030B000A401002025730D0A000000002D2D2D2DE8
:1030C0002D2D2D2D2D2D2D2D2D2D2D2D2D2D2D2D30
:1030D0002D2D2D2D2DBAAFCAFD204944202D2D2D8B
:1030E0002D2D2D2D2D2D2D2D2D2D2D2D2D2D2D2D10
:1030F0002D2D2D2D2D2D2D2D200D0A002573206910
:10310000642069733A0D0A3058253038580D0A008A
:103110004845583A305825580D0A00003136BDF858
:10312000D6C6B2CECAFDCFD4CABE210D0A00000059
:103130004445433A256C750D0A0000003130BDF856
:10314000D6C6B2CECAFDCFD4CABE210D0A00000039
:10315000987000082573280025630000257300007F
:10316000256C750030582558000000002C00000028
:1031700029000000DDE91401DFF890C1CDE900016C
:10318000DCF800C05CF8347010A80FC8B8470546DA
:1031900052E0DDE914121698DFF870C1CDE9001293
:1031A0000290DCF800C05CF8347010A80FC8B84773
:1031B000054641E0DDE91423DDE91610DFF84CC1D6
:1031C000CDE90023CDE90210DCF800C05CF83470D2
:1031D00010A80FC8B84701E017E001E005462BE052
:1031E000DDE91523DDE91710CDE90123CDE9031051
:1031F0001498DFF818C10090DCF800C05CF8347057
:1032000010A80FC8B847054616E0DDE91623DDE92A
:103210001810CDE90223CDE90410DDE91401DFF82F
:10322000ECC0CDE90001DCF800C05CF8347010A8F7
:103230000FC8B847054600BF00BF9DF81800012819
:103240000DD13248C07D012804D1294630A003F0B9
:103250003DF807E0294630A003F038F802E031A03D
:1032600003F034F8294890F8EC0088B12748D0F8EA
:10327000F0000A21B0FBF1F201FB12072348D0F85D
:10328000F000B0FBF1F83A46414628A003F01EF8E2
:1032900000BF3EE670B52D48008800F400400028CD
:1032A00033D02A48057800202949485517488168B5
:1032B0002748884704461CB91449C868804721E05C
:1032C0002348FFF7BFFC0546012D00D02C46CCB1AA
:1032D000012C06D0022C08D0032C0AD0042C10D1CB
:1032E0000BE01CA002F0F2FF0BE01DA002F0EEFFCD
:1032F00007E01EA002F0EAFF03E01FA002F0E6FFD5
:1033000000BF00BF00201149088070BDA40100204B
:103310003D256C753B0D0A003D305825583B0D0A84
:10332000000000000D0A3E3E0000000046756E637E
:1033300074696F6E2052756E2054696D653A25640C
:103340002E2531646D730D0A000000003006002048
:1033500048060020BAAFCAFDB4EDCEF3210D0A0035
:10336000B2CECAFDB4EDCEF3210D0A00B2CECAFD35
:10337000CCABB6E0210D0A00CEB4D5D2B5BDC6A502
:10338000C5E4B5C4BAAFCAFD210D0A0002460AE081
:1033900010780B78984201D001207047107800B95E
:1033A00002E0521C491CF3E700BF0020F5E706E0ED
:1033B00002780A70027802B902E0401C491CF7E763
:1033C00000BF70470146002005E00A7802B903E01B
:1033D000421CD0B2491CF8E700BF704710B5024646
:1033E000012000E050430B1EA1F10104E1B2F9D12C
:1033F00010BD2DE9F04F05460F4600264FF00A0993
:10340000B3462C460020386034E02078392802DCAE
:103410002078302811DA28782D2802D028782B2817
:1034200000D156B12078462802DC2078412804DA01
:103430002078582817D1012E15D12078412801DB9A
:103440004FF0100928782D2803D14FF0020B6D1C86
:103450000FE028782B2803D14FF0010B6D1C08E0FA
:10346000701CC6B205E0207800B904E00120BDE878
:10347000F08F641CC9E700BF2C46B9F1100F0FD1C3
:10348000032E01DA0220F2E72078302806D1607896
:10349000582803D1A41CB01EC6B204E00320E6E7FE
:1034A0000EB90420E3E71BE00EB1701EC6B220780F
:1034B000392806DC2078302803DB2078A0F1300A98
:1034C00002E02078A0F1370A31464846FFF786FF30
:1034D00039680AFB00103860641C207800B900E0ED
:1034E000E2E700BFBBF1020F04D13868C0F1000869
:1034F000C7F800800020BAE710B50446002010701D
:103500000BE020780870641C491C1078401C107077
:103510001078984201DB012010BD2078202802D0CD
:1035200020780028EDD10020087000BFF4E70146A4
:10353000491C00E0491C0878202801D10029F9D154
:10354000087870472DE9FF4F85B0804689460027EF
:10355000002004900390012002904FF0000B002502
:1035600044461DE02078202816D005F07F0005286D
:1035700012DA0DB945F0800505F07F00042803D16B
:1035800020782A2800D00EE0207805F07F010DF881
:103590000100681CC5B202E0852D00D103E0641C67
:1035A00020780028DED100BF8DB1002005F07F011A
:1035B0000DF80100CEA16846FFF7E8FE18B900211A
:1035C0000898017002E001210898017000254FF071
:1035D000000A444614E0641C0AF1010000F0FF0AEE
:1035E0002078202802D020782A2809D12046FFF709
:1035F0009EFF0646282E03D02A2E01D0CDF810A01B
:103600002078282802D020780028E4D14446049865
:1036100010B10498401C04444FF0000A002654E006
:10362000207810B94FF0010A50E02078282803D103
:1036300016B9781CC7B213E02078292808D13EB902
:1036400017B1781EC7B201E04FF0010A47B93DE05B
:103650002078222804D10EB9012000E0002006467F
:1036600047B9207820282FD0207889F8000009F168
:10367000010929E020782C2804D101200290681C3F
:10368000C5B214E02078202811D0207828280ED048
:103690004DB9BBF1050F06DA20780DF80B000BF1E0
:1036A000010000F0FF0B0298401CC0B20290012FF5
:1036B0000AD10298022807D10298401CC0B2029099
:1036C0000398401CC0B20390641CA9E700BF039894
:1036D000012809D100200DF80B0085A16846FFF7ED
:1036E00055FE08B900200390079903980870002040
:1036F00089F80000504609B0BDE8F08FF0B50346E8
:10370000154600200022002600245BE01F782C2FA5
:1037100001D104B901221F78292F01D01F780FB9D8
:1037200004B950E0002E3AD11F78302F02DB1F7809
:10373000392F17DD1F782D2F14D01F782B2F11D084
:103740001F78612F02DB1F78662F0BDD1F78412F5A
:1037500002DB1F78462F05DD1F78582F02D01F7817
:10376000782F0CD102B12EE01F78612F03DB1F7878
:10377000203F0F7001E01F780F70491C1FE01F7879
:10378000222F04D102B11EE00126012417E01F7888
:10379000202F14D01F782C2F11D0FF2613E01F7874
:1037A000222F00D1002402B10DE044B11F785C2F1C
:1037B00002D15B1C471CF8B21F780F70491C471CD4
:1037C000F8B25B1CA2E700BF00270F702E70F0BD9F
:1037D00002460020002105E0474B5B5C0344D8B261
:1037E0004B1CD9B29142F7DB70472DE9F043B5B0DD
:1037F00005460F460024002604E000213E4881557E
:10380000701CC6B20A2EF8DB06E06D1C287818B9C9
:10381000012035B0BDE8F08328782828F5D16D1C4B
:1038200061E034AA69462846FFF768FF064635443A
:103830009DF8D00020B1012827D0FF284CD149E0C5
:103840009DF8000000B333A96846FFF7D2FD064695
:103850000EB10220DDE72046FFF7BAFF26490A3104
:10386000339A0A50A1F12400008B0121A140884322
:1038700021491A39088304211F480155601CC4B22C
:103880000A2C01DD0320C4E726E06846FFF79AFD15
:10389000401C00F0FF082046FFF79AFF16490A3146
:1038A00000EB010949466846FFF781FD12481A38C6
:1038B000018B0120A040014388B20F491A390883C7
:1038C0000D4800F80480601CC4B20A2C01DD0320FE
:1038D0009FE701E002209CE700BF2878292801D05B
:1038E000287800B900E09CE700BF3C70002090E71A
:1038F000766F696400000000BE01002038B5044600
:103900000D46434A2068811A904229D009DC41497A
:10391000084480B1B0F5806F14D0B0F5006F3BD192
:1039200017E0B1F5806F22D0B1F5006F26D0B1F568
:10393000406F31D129E03848806940F004003649B1
:10394000886129E03448806940F008003249886184
:1039500022E03148806940F010002F4988611BE067
:103960002D48806940F020002B49886114E02A48E6
:10397000806940F04000284988610DE02648806950
:1039800040F080002449886106E02348806940F4C3
:1039900080702149886100BF00BF182D02D01C2D06
:1039A00005D100BF0121084601F092F900E000BFF7
:1039B00000BF8DF80350A088ADF8000003208DF8FB
:1039C00002006946206800F0C7FE38BD81880268A1
:1039D00011617047818802685161704719B9828806
:1039E00003685A6102E0828803681A6170470146E1
:1039F000086880688A88104008B10120704700205C
:103A0000FCE70168C968828851400268D16070474C
:103A10000014014000F8FEBF0010024013B5102151
:103A20000198FFF76BFF10210098FFF767FF1CBD9F
:103A300013B510210198FFF761FF0198FFF7C6FF4A
:103A40000098FFF7C3FF042000F035FC0198FFF752
:103A5000C1FF042000F02FFC0098FFF7BBFF1CBD46
:103A600013B510210198FFF749FF0198FFF7B2FF46
:103A7000012000F020FC0098FFF7A8FF042000F0D0
:103A80001AFC0198FFF7A2FF042000F014FC1CBDF3
:103A900013B5002448210198FFF730FF012000F002
:103AA0000AFC0098FFF792FF012000F004FC09E0F7
:103AB000601CC4B2FA2C05DDDDE90001FFF7D0FF80
:103AC00001201CBD0198FFF792FF0028F0D100985B
:103AD000FFF780FF012000F0EEFB0020F1E713B5B7
:103AE0000098FFF777FF10210198FFF707FF019873
:103AF000FFF770FF022000F0DEFB0098FFF766FF83
:103B0000022000F0D8FB0098FFF764FF022000F0CD
:103B1000D2FB1CBD13B50098FFF75CFF1021019884
:103B2000FFF7ECFE0198FFF751FF022000F0C3FB06
:103B30000098FFF74BFF022000F0BDFB0098FFF755
:103B400049FF012000F0B7FB1CBD37B5144610211A
:103B50000198FFF7D3FE0098FFF73CFF012000F02B
:103B6000AAFB002516E0E1090198FFF737FF600680
:103B7000040E012000F09FFB0098FFF727FF0220B2
:103B800000F099FB0098FFF725FF012000F093FB60
:103B9000681CC5B2082DE6DB3EBDF7B51546082604
:103BA000002448210198FFF7A9FE002615E0022015
:103BB00000F081FB0098FFF709FF6006040E0198F2
:103BC000FFF715FF08B1601CC4B2022000F073FBC0
:103BD0000098FFF7FFFE701CC6B2082EE7DB25B980
:103BE000DDE90001FFF796FF03E0DDE90001FFF7E3
:103BF00076FF2046FEBD2DE9FF4717461D46DDE94D
:103C00000D890C9CDDE90001FFF712FF37B1012F90
:103C100014D0022F33D0032F73D15DE005F0FE02E4
:103C2000DDE90001FFF791FFDDE90001FFF730FF5B
:103C300018B1012004B0BDE8F08700BF05F0FE0216
:103C4000DDE90001FFF781FFDDE90001FFF720FF5B
:103C500008B10120EEE72646E01704EB10600012E1
:103C6000A4EB0020C2B2DDE90001FFF76EFFDDE941
:103C70000001FFF70DFF08B10220DBE757E005F078
:103C8000FE02DDE90001FFF760FFDDE90001FFF75B
:103C9000FFFE08B10120CDE72212DDE90001FFF7A8
:103CA00054FFDDE90001FFF7F3FE08B10220C1E790
:103CB0002646E01704EB10600012A4EB0020C2B20D
:103CC000DDE90001FFF741FFDDE90001FFF7E0FE5C
:103CD00008B10220AEE72AE02646E01704EB1060A8
:103CE0000012FE2101EB400000EA0502DDE90001BF
:103CF000FFF72BFFDDE90001FFF7CAFE10B101203D
:103D000098E713E02646E01704EB10600012A4EBDE
:103D10000020C2B2DDE90001FFF717FFDDE9000175
:103D2000FFF7B6FE08B1022084E700E000BF00BF45
:103D30000CE018F8012BDDE90001FFF706FFDDE9D3
:103D40000001FFF7A5FE08B1032073E7B9F10000F9
:103D5000A9F101011FFA81F9EBD1DDE90001FFF7BB
:103D60007FFE002066E72DE9FF4790461D46DDE90E
:103D70000D690C9CB8F1000F09D0B8F1010F07D004
:103D8000B8F1020F2BD0B8F1030F72D158E000BF89
:103D9000DDE90001FFF74CFE05F0FE02DDE9000160
:103DA000FFF7D3FEDDE90001FFF772FE18B1012035
:103DB00004B0BDE8F0872746E01704EB106000125E
:103DC000A4EB0020C2B2DDE90001FFF7BEFEDDE991
:103DD0000001FFF75DFE08B10220E9E75FE0DDE9E1
:103DE0000001FFF725FE05F0FE02DDE90001FFF707
:103DF000ACFEDDE90001FFF74BFE08B10120D7E77B
:103E00002212DDE90001FFF7A0FEDDE90001FFF766
:103E10003FFE08B10220CBE72746E01704EB106015
:103E20000012A4EB0020C2B2DDE90001FFF78DFE15
:103E3000DDE90001FFF72CFE08B10220B8E72EE013
:103E4000DDE90001FFF7F4FD2746E01704EB106001
:103E50000012FE2101EB400000EA0502DDE900014D
:103E6000FFF773FEDDE90001FFF712FE10B101203C
:103E70009EE713E02746E01704EB10600012A4EB66
:103E80000020C2B2DDE90001FFF75FFEDDE90001BD
:103E9000FFF7FEFD08B102208AE700E000BF00BF87
:103EA000DDE90001FFF7C4FD45F00102DDE9000195
:103EB000FFF74BFEDDE90001FFF7EAFD08B1032043
:103EC00076E70AE0A9F101001FFA80F90122DDE995
:103ED0000001FFF762FE06F8010BB9F1010FF1D105
:103EE0000022DDE90001FFF758FE06F8010BDDE9CD
:103EF0000001FFF7B5FD00205AE7000000B587B0CC
:103F00000121042000F0E4FE0121080300F0E0FE9E
:103F1000A020ADF8040003208DF8060018208DF8CD
:103F2000070001A93B4800F017FC1020ADF8040081
:103F30008DF8070001A9384800F00EFC1021364822
:103F400000F0B7FC4020ADF8040003208DF8060017
:103F500004208DF8070001A92E4800F0FDFB002089
:103F6000ADF808004FF48270ADF80A000020ADF8FB
:103F70000C000220ADF80E000120ADF81000400248
:103F8000ADF812003020ADF814000020ADF8160096
:103F9000ADF8180002A9214802F036F801211F48A7
:103FA00002F0D7F807B000BD2DE9F04105460F46F5
:103FB000164600245DBB10201749486106E0601CCE
:103FC000C4B2C82C02DD0020BDE8F08102211348F4
:103FD00002F043F90028F2D03946104802F0EAF81E
:103FE000002405E0601CC4B2C82C01DD0020EBE712
:103FF00001210A4802F031F90028F3D016B110204F
:1040000005490861054802F0D7F8C0B2DCE7002096
:10401000DAE70000000801400010014000300140D4
:1040200008B50A208DF8000000208DF803006846CE
:1040300000F01BFA08BD08B517208DF8000000201D
:104040008DF80300684600F010FA08BD0EB5012196
:10405000084600F03DFE0421084600F093FC1020C5
:10406000019000208DF808005848007818B90C20FD
:104070008DF8090002E008208DF8090001208DF874
:104080000A0001A800F088FA0A208DF80000032039
:104090008DF8010001208DF802008DF803006846BC
:1040A00000F0E3F90EBD0EB50121084600F010FE48
:1040B0000521042000F066FC2020019000208DF8EE
:1040C00008004248007818B90C208DF8090002E079
:1040D00008208DF8090001208DF80A0001A800F0E1
:1040E0005BFA17208DF8000003208DF801000120F5
:1040F0008DF802008DF80300684600F0B6F90EBD99
:104100000EB50121084600F0E3FD0621042000F071
:1041100039FC4020019000208DF808002B480078E1
:1041200018B90C208DF8090002E008208DF809006C
:1041300001208DF80A0001A800F02EFA17208DF852
:10414000000003208DF8010001208DF802008DF899
:104150000300684600F089F90EBD10B50446012C35
:1041600001D1FFF773FF022C01D1FFF79CFF032C55
:1041700001D1FFF7C5FF10BD10B50446012C01D1D8
:10418000FFF74EFF022C01D1FFF755FF032C01D1A1
:10419000FFF751FF10BD10B5FCF769FF102000F0CC
:1041A00072FA10BD10B5202000F05CFA20B1FCF7C7
:1041B0008AFF202000F067FA402000F053FA20B177
:1041C000FCF7ADFF402000F05EFA10BD14000020A7
:1041D00030B589B005460C460121022000F085FD6E
:1041E0000121092000F074FD0120ADF82000182005
:1041F0008DF8230003208DF8220008A9134800F051
:10420000ABFAADF81850ADF814400020ADF81A0024
:10421000ADF8160005A90E4800F092FE7020ADF82A
:1042200004000120ADF806000020ADF80C0001A943
:10423000074800F051FF0821054801F023FB012148
:10424000034801F0D9F909B030BD7047000C0140B6
:10425000000400402C480068401C2B49086070474F
:1042600029480068704710B56FF0040000F047F966
:10427000264800682649B0FBF1F026490870084638
:10428000007800EB4001C1EBC0104FF6FF7101EA6E
:10429000C00021490880084600884FF0E0214861AD
:1042A0000846006940F0020008610846006940F0D5
:1042B0000100086110BD70B5034600224FF0E026F2
:1042C000756903EBC30400BFB16910E04FF0E0264D
:1042D000B06988420BD0884202D20E1A324402E002
:1042E0002E1A0E4432440146A24200D300E0EDE70C
:1042F00000BF70BD10B504464FF47A7104FB01F0A5
:10430000FFF7D9FF10BD00002806002000000020A4
:1043100000127A002406002026060020014600BF75
:10432000704700BF4A4A128802F04002002AF9D0C2
:10433000C2B2474B1B1D1A80704710B586B00446A9
:10434000012144F2040000F0C3FC4FF40070ADF80A
:10435000140003208DF8160018208DF8170005A909
:104360003C4800F0F9F94FF48060ADF814000420E7
:104370008DF8170005A9374800F0EEF925208DF8D3
:10438000000003208DF8010002208DF802000120BA
:104390008DF80300684600F068F801940020ADF83D
:1043A0000800ADF80A00ADF80C00ADF810000C20C4
:1043B000ADF80E0001A9264801F03FFC012240F2B1
:1043C0002551234801F0D1FC0121214801F0C1FC15
:1043D00006B010BD10B540F225511D4801F0AAFDF0
:1043E00010B31B4801F026FDC4B21B48008800F43E
:1043F0000040C8B91848008800F4804060B10A2C19
:1044000003D000201449088020E01348008840F4BD
:1044100000401149088019E00D2C06D10E48008893
:1044200040F480400C49088010E00B480088C0F33D
:104430000D000A490C5408480088401C06490880B1
:1044400008460088C72801DD0020088010BD000054
:1044500000380140000801403006002048060020D6
:1044600031490143314A1160704770B50021002382
:104470000F22C47804B32D4C246804F4E064C4F51E
:10448000E064210AC1F10403CA40447804FA03F14C
:104490008478144021430901254C0678A1550478FD
:1044A00004F01F050124AC4005786D11AD0005F145
:1044B000E025C5F8004109E0047804F01F05012457
:1044C000AC401C4D0678761145F8264070BD1A4A5E
:1044D0000A400243154B1B1F1A60704739B1134A3B
:1044E000121D12680243114B1B1D1A6006E00F4A91
:1044F000121D126882430D4B1B1D1A607047042861
:1045000008D14FF0E021096941F004014FF0E022A9
:10451000116107E04FF0E021096921F004014FF03B
:10452000E0221161704700000000FA050CED00E088
:1045300000E400E080E100E080FFFF1F09488047C1
:1045400009480047FEE7FEE7FEE7FEE7FEE7FEE775
:10455000FEE7FEE7FEE7FEE704480549054A064B8D
:104560007047000033040008310100087007002084
:10457000700D0020700900207009002000204449BF
:104580000860091D0860091D0860091D0860414890
:104590003F4914310860704700213D498279002A63
:1045A0003AD00A46126803689A430B461A600A1DFD
:1045B000126803689A430B1D1A60027911440A6855
:1045C00003681A430A60324A0832126803689A4341
:1045D0002F4B08331A601A1D126803689A432C4B3C
:1045E0000C331A604279102A0ED11A1F1268036820
:1045F0001A43274B08331A601A1D126803681A43BE
:10460000234B0C331A600DE02149427911440A68AA
:1046100003681A430A6005E0027911440A680368D6
:104620009A430A6070470021016001710C214171B9
:104630000021817170471649103109680143144AFD
:1046400010321160704701460020114A143212687E
:104650000A400AB1012000E0002070470C491431E3
:1046600008607047014600200022094B1B6803EADE
:104670000102074B14331B680B4013B10AB1012030
:1046800000E00020704702491431086070470000C4
:1046900000040140FFFF0F0010B50446CC488442DF
:1046A00008D10121042000F02DFB0021042000F09E
:1046B00029FB46E0C748844208D10121082000F0C8
:1046C00021FB0021082000F01DFB3AE0C248844293
:1046D00008D10121102000F015FB0021102000F06E
:1046E00011FB2EE0BD48844208D10121202000F0BA
:1046F00009FB0021202000F005FB22E0B84884429D
:1047000008D10121402000F0FDFA0021402000F0F6
:10471000F9FA16E0B348844208D10121802000F064
:10472000F1FA0021802000F0EDFA0AE0AE48844260
:1047300007D10121801500F0E5FA0021A01500F055
:10474000E1FA10BD10B50121084600F0DBFA0021A6
:10475000012000F0D7FA10BD2DE9F04102460025F6
:104760000026002000230024002791F803C00CF04D
:104770000F0591F803C00CF0100CBCF1000F03D032
:1047800091F802C04CEA050591F800C0BCF1000F99
:1047900031D0146800202BE04FF0010C0CFA00F32C
:1047A000B1F800C00CEA03069E4220D183004FF00E
:1047B0000F0C0CFA03F7BC4305FA03FC4CEA0404A3
:1047C00091F803C0BCF1280F06D14FF0010C0CFA90
:1047D00000FCC2F814C00AE091F803C0BCF1480F15
:1047E00005D14FF0010C0CFA00FCC2F810C0401CBF
:1047F0000828D1D31460B1F800C0BCF1FF0F34DD3C
:10480000546800202EE000F1080C4FF0010808FA6F
:104810000CF3B1F800C00CEA03069E4221D18300DC
:104820004FF00F0C0CFA03F7BC4305FA03FC4CEAFB
:10483000040491F803C0BCF1280F05D100F1080C65
:1048400008FA0CF8C2F8148091F803C0BCF1480FC4
:1048500007D100F1080C4FF0010808FA0CF8C2F873
:104860001080401C0828CED35460BDE8F0814FF67C
:10487000FF710180022181700421C17070470246DE
:10488000002093680B400BB1012000E0002070472E
:104890000146886880B2704702460020D3680B400A
:1048A0000BB1012000E0002070470146C86880B2CB
:1048B000704701617047416170470AB1016100E0D2
:1048C00041617047C16070474FF480320A43826192
:1048D0008161826182698269704702460020434B90
:1048E00018684FF68073184040EA021008433F4BA7
:1048F000186070473E49C8617047F0B50A4600230A
:1049000000240021002500F00046B6F1004F02D13E
:10491000364EF16901E0354E7168C0F3034583B24C
:1049200000F44016B6F5401F08D121F070612F4EFB
:10493000766826F070662D4F7E6012E000F48016D7
:10494000B6F5801F06D1032606FA05F4A14341F00F
:10495000706106E0460D360103FA06F6B14341F0F8
:10496000706122B1460D360103FA06F6314300F0BC
:104970000046B6F1004F02D11C4EF16101E01B4E22
:104980007160F0BD30B500228B071C0F0F2303FAB6
:1049900004F2164B08338C1053F824309343134C15
:1049A00008348D1044F8253023468C1053F82430F9
:1049B0008C07240F00FA04F423430C4C08348D10A8
:1049C00044F8253030BD0A49DC31086070470000EA
:1049D00000080140000C014000100140001401409B
:1049E00000180140001C014000200140000001406F
:1049F00000002042DF48006840F00100DD49086007
:104A000008464068DC490840DA49486008460068C2
:104A1000DA490840D74908600846006820F4802039
:104A200008600846406820F4FE0048604FF41F000C
:104A300088607047CF49096821F48031CD4A116000
:104A40001146096821F480211160B0F5803F03D040
:104A5000B0F5802F0ED106E0C649096841F48031D7
:104A6000C44A116007E0C349096841F4A021C14A62
:104A7000116000E000BF00BF704710B50146002282
:104A8000002300204A11012A02D1BA4C236806E013
:104A9000022A02D1B74C236A01E0B64C636A01F0E6
:104AA0001F02012494401C400CB1012000E00020B2
:104AB00010BD38B5002000900024002500BF312033
:104AC000FFF7DBFF05460098401C00900098B0F50A
:104AD000A06F01D0002DF2D03120FFF7CEFF08B13A
:104AE000012400E00024204638BD01460020A14AF0
:104AF000106820F0F80040EAC10010607047A0493B
:104B000008607047024600209A4B586820F47C10D9
:104B100042EA01031843974B58607047984908666A
:104B2000704701460020934A506820F00300084374
:104B3000506070478F48406800F00C007047014695
:104B400000208C4A506820F0F00008435060704705
:104B500001460020874A506820F4E0600843506016
:104B6000704701460020834A506820F4605040EAB4
:104B7000C1005060704729B17E4A527A02437D4B92
:104B80005A7204E07B4A527A82437A4B5A727047D7
:104B90007B49D8310860704701460020754A50684B
:104BA00020F440400843506070470021714A203291
:104BB0001170704A82F82010012802D004280AD10E
:104BC00004E001216B4A2032117005E00521694A99
:104BD0002032117000E000BF00BF704769490860D3
:104BE00070476449096A0143624A11627047654926
:104BF00044390860704730B50021002200240023AA
:104C00005C4D6D6805F00C0121B1042905D008291F
:104C100023D105E05C4D056022E05B4D05601FE09F
:104C2000544D6D6805F47012524D6D6805F4803472
:104C3000022505EB92421CB9544D554305600BE02B
:104C40004C4D6D6805F400351DB1504D5543056060
:104C500002E04D4D5543056002E04B4D056000BF3D
:104C600000BF444D6D6805F0F0010909484D6B5CCB
:104C70000568DD4045603F4D6D6805F4E061090A57
:104C8000434D6B5C4568DD4085603A4D6D6805F4C9
:104C90006051C90A3E4D6B5C4568DD40C560354DCD
:104CA0006D6805F44041890B3A4D6B5CC568B5FBF6
:104CB000F3F5056130BD29B12E4A526902432D4BEF
:104CC0005A6104E02B4A526982432A4B5A61704769
:104CD00029B1284A92690243264B9A6104E0254A89
:104CE00092698243234B9A61704729B1214AD26964
:104CF0000243204BDA6104E01E4AD26982431D4B15
:104D0000DA61704729B11B4AD2680243194BDA6055
:104D100004E0184AD2688243164BDA60704729B122
:104D2000144A12690243134B1A6104E0114A1269D2
:104D30008243104B1A61704712494039086070472E
:104D40000F49C86470470B49C87170470948406AE9
:104D500040F0807007494862704701460020054ACC
:104D600092680A400AB1012000E000207047014922
:104D700088727047001002400000FFF8FFFFF6FE47
:104D8000000042428004424200127A0000093D00C5
:104D9000320600204206002010B50446FE48844238
:104DA00008D10121C014FFF7ADFF0021E014FFF787
:104DB000A9FFC4E0B4F1804F08D101210846FFF7F4
:104DC000AEFF00210120FFF7AAFFB8E0F3488442BC
:104DD00008D101210220FFF7A2FF00210220FFF7E6
:104DE0009EFFACE0EE48844208D101210420FFF789
:104DF00096FF00210420FFF792FFA0E0E9488442DB
:104E000008D101210820FFF78AFF00210820FFF7C1
:104E100086FF94E0E448844208D101211020FFF786
:104E20007EFF00211020FFF77AFF88E0DF488442F0
:104E300008D101212020FFF772FF00212020FFF779
:104E40006EFF7CE0DA48844208D101214014FFF76C
:104E500059FF00216014FFF755FF70E0D5488442E8
:104E600009D10121C804FFF74DFF00214FF40020B4
:104E7000FFF748FF63E0D048844209D101210805CB
:104E8000FFF740FF00214FF48010FFF73BFF56E093
:104E9000CA48844209D101214805FFF733FF0021A8
:104EA0004FF40010FFF72EFF49E0C548844208D1B7
:104EB00001214020FFF733FF00214020FFF72FFFA3
:104EC0003DE0C048844208D101218020FFF727FF40
:104ED00000218020FFF723FF31E0BB48844208D146
:104EE00001218015FFF71BFF0021A015FFF717FF19
:104EF00025E0B648844209D101210804FFF702FFEA
:104F000000214FF48030FFF7FDFE18E0B0488442E6
:104F100009D101214804FFF7F5FE00214FF40030CC
:104F2000FFF7F0FE0BE0AB48844208D10121880472
:104F3000FFF7E8FE00214FF48020FFF7E3FE10BDED
:104F400000220288944B98420ED0994B98420BD085
:104F5000B0F1804F08D0914B984205D0904B9842C9
:104F600002D0904B984204D14FF68F731A404B8871
:104F70001A438D4B984207D08C4B984204D04FF681
:104F8000FF431A40CB881A4302808B8883850B88A5
:104F90000385814B98420BD0854B984208D08B4BB0
:104FA000984205D08A4B984202D08A4B984201D150
:104FB0000B7A038601238382704770B50024002298
:104FC0000023058C4FF6FE7635400584028C8388DD
:104FD000048B4FF68F752C40B51E2C400D882C434A
:104FE000751E2A400D892A434D882A436A4DA842DE
:104FF0000BD06F4DA84208D0744DA84205D0744D17
:10500000A84202D0734DA84213D14FF6F7752A403B
:105010004D892A434FF6FB752A408D882A434FF667
:10502000FF652B404FF6FF552B408D892B43CD89D3
:105030002B4383800483CD888586028470BD70B540
:10504000002400220023058C4FF6EF7635400584BE
:10505000028C8388048B48F6FF752C404FF6FF4581
:105060002C400D884FF6FF7606EA05252C434FF6B7
:10507000DF752A400D8906EA05152A434D8806EAA0
:1050800005152A43444DA84202D0494DA8421DD1DE
:105090004FF67F752A404D894FF6FF7606EA0515D3
:1050A0002A434FF6BF752A408D8806EA05152A4324
:1050B0004FF6FF352B404FF2FF752B408D8906EAE6
:1050C00085052B43CD8906EA85052B438380048320
:1050D000CD880587028470BD70B5002400220023AE
:1050E000058C4FF6FF6635400584028C8388848BDF
:1050F0004FF68F752C404FF6FC752C400D882C43D5
:105100004FF6FF552A400D894FF6FF7606EA052532
:105110002A434D8806EA05252A431F4DA84202D09E
:10512000234DA8421DD14FF2FF752A404D894FF6FD
:10513000FF7606EA05252A434FF6FF352A408D887B
:1051400006EA05252A434EF6FF752B404DF6FF75FE
:105150002B408D8906EA05152B43CD8906EA0515F6
:105160002B4383808483CD888587028470BD70B58E
:10517000002200230024058C4EF6FF76354005847E
:10518000038C8488828B48F6FF752A404FF6FF45D2
:105190002A400D8820E00000002C0140000400405F
:1051A00000080040000C00400010004000140040C7
:1051B00000340140004C01400050014000540140C7
:1051C00000180040001C004000200040004001404A
:1051D00000440140004801404FF6FF7606EA0525ED
:1051E0002A434DF6FF752B400D8906EA05352B4302
:1051F0004D8806EA05352B43FA4DA84202D0FA4DF8
:10520000A84208D14BF6FF752C408D894FF6FF76EA
:1052100006EA85152C4384808283CD88A0F840500F
:10522000038470BD828B4FF2FF331A408283828BDE
:105230004FF6FF7303EA01231A4382837047F0B5E8
:105240000C461546002200210026078C4EF6FF7CF6
:1052500007EA0C070784828B018C4FF6FF7707EA79
:10526000043640F6FF473A404FF6FF7707EA052736
:105270003A434FF6FF7707EA03373A43D94FB8422C
:105280000ED0D94FB8420BD0B0F1804F08D0D74FD5
:10529000B84205D0D64FB84202D0D64FB84206D158
:1052A0004DF6FF77394046F48057394305E047F61D
:1052B000FF57394044F48057394382830184F0BD5D
:1052C000828B4FF6F3731A408283828B0A43828368
:1052D0007047F0B50C461546002200210026078CC9
:1052E0004FF6FF6C07EA0C070784828B018C4FF6A0
:1052F000FF7707EA04264FF60C773A404FF6FF7720
:1053000007EA03172F433A43B64FB8420ED0B64FC1
:10531000B8420BD0B0F1804F08D0B44FB84205D09E
:10532000B34FB84202D0B34FB84206D14FF6FF5741
:10533000394046F48077394305E04FF2FF57394052
:1053400044F48077394382830184F0BD028B4FF2AD
:10535000FF331A400283028B4FF6FF7303EA0123E7
:105360001A4302837047F0B50C461546002200210F
:105370000026078C4FF6EF7C07EA0C070784028BA8
:10538000018C4FF6FF7707EA041640F6FF473A40D4
:105390004FF6FF7707EA03373A434FF6FF7707EAFE
:1053A00005273A438F4FB8420ED08F4FB8420BD0EB
:1053B000B0F1804F08D08D4FB84205D08C4FB84225
:1053C00002D08C4FB84206D14FF6DF77394046F015
:1053D0001007394305E04FF65F77394044F0100776
:1053E000394302830184F0BD028B4FF6F3731A40F8
:1053F0000283028B0A4302837047F0B50C461546C0
:1054000000220021068C4FF6FE773E400684028B78
:10541000018C4FF60C7632407E1C06EA03162E43B2
:105420003243704EB0420ED06F4EB0420BD0B0F14E
:10543000804F08D06D4EB04205D06D4EB04202D0C4
:105440006C4EB04206D14FF6FD76314044F0010675
:10545000314305E04FF6F576314044F00106314323
:1054600002830184F0BD70B505460C465D48854257
:105470000ED05D4885420BD0B5F1804F08D05B4817
:10548000854205D05A48854202D05A48854200D10B
:1054900000E000BF208850B92389A288618828468F
:1054A000FFF7ABFFE1882846FFF79EFF25E0208845
:1054B00004280AD12389A28861882846FFF753FF70
:1054C000E1882846FFF742FF17E0208808280AD124
:1054D0002389A28861882846FFF7FBFEE1882846D9
:1054E000FFF7EEFE09E02389A28861882846FFF7CE
:1054F000A6FEE1882846FFF795FE70BD2DE9F04134
:1055000005460C4600260127608808B9022600E0FF
:105510000026A088012801D1022700E00127208869
:10552000A0B92389A28861882846FFF766FFE18831
:105530002846FFF759FF23893A4631462846FFF7A8
:1055400012FFE1882846FFF701FF13E02389A288B4
:1055500061882846FFF707FFE1882846FFF7F6FE37
:1055600023893A4631462846FFF747FFE188284617
:10557000FFF73AFFBDE8F0810A884B881A438B8811
:105580001A43CB881A430B891A434B891A438B89D8
:105590001A43A0F8442070474FF6FF718180002124
:1055A0000180C180418001727047002101804180EB
:1055B0008180C180018141818181C1817047002149
:1055C00001804180012181800021C18001817047DB
:1055D0000021018041808180C180018141818181E0
:1055E00070470000002C01400034014000040040DE
:1055F00000080040000C004021B1028842F0010286
:10560000028004E002884FF6FE731A400280704761
:1056100031B1B0F8442042F40042A0F8442005E043
:10562000B0F84420C2F30E02A0F8442070471AB12B
:1056300083890B43838102E083898B438381704795
:105640008182704741EA0203A0F8483070471AB1DE
:1056500083890B43838102E083898B438381704775
:1056600001894FF6F8721140018170470A46002106
:1056700001894FF68F73194011430181704730B58E
:1056800004460D4629462046FFF7F0FF208940F0EA
:105690000700208130BD2DE9F04104460D46164635
:1056A0001F46602D06D13B46012231462046FFF7BA
:1056B0005AFE05E03B46012231462046FFF79DFE9B
:1056C00029462046FFF7D2FF208940F007002081BD
:1056D000BDE8F08130B50C4600210189C9B24FF612
:1056E000FF7505EA0325154325432943018130BD94
:1056F0002DE9F04105460E461746984600244346DC
:105700003A4631462846FFF7E5FF2C894FF6F870F8
:10571000044044F007044FF68F70044044F07004D6
:105720002C81BDE8F081F0B504460D4616461F46B3
:105730003B46324629462046FFF7CCFF208940F4FD
:1057400080402081F0BD0185828270470A46002199
:1057500001884FF68F731940114301807047F0B5EF
:105760000C4615461E460021002200230189028BAB
:10577000038C4FF6F877394021434FF6FC473A4007
:1057800040F201173A434FF6DD773B404FF6FF7783
:1057900007EA06172F433B43018102830384F0BDD0
:1057A0000A460021018B4FF68F7319401143018384
:1057B00070470A460021018B48F6FF7319404FF6E7
:1057C000FF7303EA02231943018370470A4600214D
:1057D000818B4FF68F7319401143818370470A46BE
:1057E0000021818B48F6FF7319404FF6FF7303EADF
:1057F000022319438183704721B1028842F080025D
:10580000028004E002884FF67F731A4002807047DE
:1058100021B1828842F00402828004E082884FF63F
:10582000FB731A408280704721B1828842F00802DF
:10583000828004E082884FF6F7731A4082807047B6
:1058400021B1828842F00102828004E082884FF612
:10585000FE731A40828070470A460021018B4FF682
:10586000F77319401143018370470A460021018BE9
:105870004FF2FF7319404FF6FF7303EA02231943F7
:10588000018370470A460021818B4FF6F773194058
:105890001143818370470A460021818B4FF2FF73C9
:1058A00019404FF6FF7303EA0223194381837047BF
:1058B0000A460021018B4FF6FB7319401143018307
:1058C00070470A460021018B4FF6FF3319404FF60F
:1058D000FF7303EA02231943018370470A4600213C
:1058E000818B4FF6FB7319401143818370470A4641
:1058F0000021818B4FF6FF3319404FF6FF7303EA07
:1059000002231943818370470A460021018B4FF619
:105910007F7319401143018370470A460021018BB0
:10592000C1F30E014FF6FF7303EA0223194301830B
:1059300070470A460021818B4FF67F73194011434F
:10594000818370470A460021818BC1F30E014FF617
:10595000FF7303EA02231943818370470A4600213B
:10596000018C4FF6FD7319401143018470470A46BC
:105970000021018C4FF6F7731940114301847047E1
:105980000A460021018C4FF6DF7319404FF6FF7372
:1059900003EA02131943018470470A460021018C6F
:1059A0004FF67F7319404FF6FF7303EA0213194352
:1059B000018470470A460021018C4FF6FF531940BD
:1059C0004FF6FF7303EA02231943018470470A4626
:1059D0000021018C4FF2FF7319404FF6FF7303EA69
:1059E00002231943018470470A460021018C4DF6B9
:1059F000FF7319404FF6FF7303EA02331943018422
:105A0000704730B5002301248C40A3B2048C9C4322
:105A10000484048C02FA01F5ADB22C43048430BD39
:105A200030B5002304248C40A3B2048C9C4304842E
:105A3000048C02FA01F5ADB22C43048430BD70B57C
:105A40000346002000241846183001258D40ACB2D2
:105A50001D8CA5431D8409B1082909D100EB610003
:105A6000056825F0700505600568154305600EE0C2
:105A70000D1FC5F34E052844056825F4E045056073
:105A800005684FF6FF7606EA02263543056070BDCD
:105A900021B1028842F00202028004E002884FF63F
:105AA000FD731A400280704721B1028842F004025F
:105AB000028004E002884FF6FB731A4002807047B0
:105AC00021B1828842F08002828004E082884FF611
:105AD0007F731A408280704702884FF6F7731A402E
