:020000040800F2
:1000000060050020C5000008C5230008091F00087E
:1000100000000000000000000000000000000000E0
:10002000000000000000000000000000F5250008AE
:1000300000000000000000000D240008F725000863
:10004000D700000800000000D7000008D700000813
:10005000D7000008D7000008D7000008D700000824
:1000600000000000D7000008D7000008D7000008F3
:10007000D7000008D7000008D700000800000000E3
:10008000D70000080000000000000000D7000008B2
:1000900000000000D7000008D7000008D7000008C3
:1000A00000000000D700000800000000D700000892
:1000B0000348854600F008FC00480047AD3A0008B8
:1000C000600500200448804704480047FEE7FEE73B
:1000D000FEE7FEE7FEE7FEE779260008B10000082C
:1000E00030B50B46014600202022012409E00D46D0
:1000F000D5409D4205D31D469540491B2546954058
:1001000040191546521E002DF1DC30BD10B5202AD5
:1001100004DB0846203AD040002110BD0B46D340F6
:10012000D0402024A21A91400843194610BDD2B2F3
:1001300001E00270401C491EFBD270470022F6E726
:1001400010B513460A4604461946FFF7F0FF20464D
:1001500010BD30B505460020034600E05B1C93420D
:1001600005D2EC5CC85C201A01D1002CF6D130BD60
:10017000F0B507460846584087B0C00F04904800C5
:100180000E46590040084908BC1A884105D2384635
:1001900031461E4617460B4602465800400810439B
:1001A0004CD0300D039040055900400D490D05908D
:1001B000401A0290402872DA18030121000B090549
:1001C0000843019004980092002805D001995242FA
:1001D0000020884100920190029840210A1A01995A
:1001E000009800F03BFA05460C466B4607CB00F042
:1001F00045FAC0197141039A0E0D0023D7175640D6
:100200001A467A40164344D0049A002A2DD0029A06
:10021000012A039A15DC1205C01A91410126360500
:10022000001C7141D20F059ED207009301920296E5
:100230002A46234600F0D6FA07B0F0BD38463146CC
:10024000FAE71605224A0F46B218C01AB741012133
:100250000905001C4F4100187F41114618187941CB
:10026000E20F10436D19644113E0E2076D08154376
:100270006408C2071443039A01261205C01A91416B
:100280003605001C7141CE07400830434908C018AC
:1002900051412A46234600F098FACDE7FFE704983B
:1002A00001224000C117121A00238B4104983146E5
:1002B000C417381AA141EEE730B40124E4076340C3
:1002C00030BC55E730B40124E407614030BC4FE74F
:1002D0000000E0FFF0B51FB488B00B990998002426
:1002E00048400999C00F490049080991C0070B9976
:1002F0000090490049080B9109990898A6460843BF
:100300001CD00B990A98084318D009980124400082
:10031000420D4800410D099824050003000B2043BD
:1003200009900B980003000B20430B9050181C49B8
:100330004018002201901446104605E000200146B6
:100340000DB0F0BD032801DA034600E003239C460C
:10035000C11A0AAE0AE05F0008ADED5B4F00F75B23
:100360007D430027AA187C41491C5B1E6145F2DDD4
:10037000410004AB5A522104120C0A43240C401CC5
:100380000828DFDB019802900099704601910090E7
:10039000059B049A0799069800F024FAD0E700001C
:1003A0000DFCFFFFF0B50C465C4085B0E40FE407A0
:1003B00003944C00002664085900944649080246FC
:1003C0000296224321D062460A431ED06200570D96
:1003D0004A000E032303550D012402462C4924052F
:1003E000781B1B0B360B40182343264361460090B5
:1003F0001C46501AB44103D30098401C009002E000
:10040000921800985B41002803DA0020014605B0ED
:10041000F0BD0020012109050746864611E064462B
:100420001D46141BB54106D36546521BB3417446A5
:1004300007430C43A646CD074008490828439218B5
:100440005B4105460D43EAD11046184313D0604680
:10045000194650407140084306D06046101AB34117
:1004600006D20122002306E000220123DB0702E07E
:100470000122D2435310009874460105381C614193
:10048000029C039D0019694100F09FF9BFE700003D
:10049000FD03000070B54B005B0803430BD04B001D
:1004A0005C0D002633466542B341D417AD1AA34113
:1004B00002DB0020014670BD12053018514170BDAD
:1004C0000EB5C217C10F5040CA0740180021054B96
:1004D0000293019200910A460B4600F083F903B0A3
:1004E00000BD0000330400000EB505490291002153
:1004F00000910A460B46019100F074F903B000BD6B
:100500003304000070B5CD0F4A0009030123090B25
:100510001B0519430B4BED070024520D9A4201DADB
:10052000002070BD074B34339A4203DC9A1AFFF760
:10053000EDFD02E00449511888402C43F1D04042BF
:1005400070BD0000FF030000CDFBFFFFC20FD2070C
:10055000400040080BD0C10D0723DB01C918400241
:100560000905400A1143C2084007114370470020A3
:100570000146704710B5002904DB0124E40740421E
:100580008C412146002B04DB1C460123DB07524231
:10059000A3418B4200D1824210BD000010B500295A
:1005A00004DB0124E40740428C412146002B04DB9C
:1005B0001C460123DB075242A341994200D19042DD
:1005C00010BD0000CB0FDB07490010B549080246FB
:1005D0000A4307D00A0D07240903E401090B121B83
:1005E000002A01DC002010BDC900440F0C43C100EB
:1005F000E018D205801800F0A7F810BDF0B51FB4C0
:100600000646002082B005464024019100901BE080
:10061000019922460F463046FFF778FD049A059B64
:10062000801A994110D310461946224600F016F858
:10063000361A8F410197224601200021009F00F0C9
:100640000DF838184D4100902046641E0028DFDC6C
:10065000019B00982946324607B0F0BD10B5202A0C
:1006600004DB0146203A9140002010BD9140202338
:100670009C1A0346E3401943904010BD10B5202A50
:1006800006DBCB170846203A1041C1170B4306E0A2
:100690000B461341D0402024A21A9140084319462A
:1006A00010BD00000FB400B589B00CA900910B99E2
:1006B0000023CB60204B214A06930792042201922B
:1006C0001F4A02921F4A089202466B46002000F021
:1006D000A4F909B008BC04B0184770B586B0064646
:1006E0000020C0430190002015460C460091029165
:1006F00004903246694604A8FFF7D4FF02460498E6
:100700002118002D05D0002801D0084600E0204621
:100710002860049800280DD0002A02DD0098884245
:1007200008D0081B0190009432466946029404A840
:10073000FFF7B8FF06B070BD710C0008910C0008FF
:10074000FFFFFF7FED080008002904DA401C490084
:1007500001D140084000704770B40024050C05D159
:100760001024000402D1002921D01124050E01D14A
:1007700000020834050F01D10001241D850F01D1AD
:100780008000A41C002801DB4000641C002908D064
:1007900020252E1B0D46F540A14000D00121294304
:1007A000084301061B1B000ADB1D02D5002070BC9C
:1007B0007047DB05181880180029F8DA401C49003A
:1007C000F5D170BC40084000704710B5002B08DA26
:1007D0000024401C614192185B411A4301D140083A
:1007E000400010BDF0B51FB482B005460C0003D028
:1007F000084602F0A9F802E002F0A6F8203002460E
:10080000009021462846FFF729FF049B059A0446DD
:100810000F4618431143084314D0184610431BD009
:10082000009840210A1A18460599FFF76FFC054603
:100830000E46009A05990498FFF710FF084305D06B
:10084000012004E02046394607B0F0BD0020C11762
:1008500005430E432C43374300990E986305401A15
:100860007905E40A00220C43FD0A0A3002D5002073
:100870000146E9E70105101969410C9C0D9D00191D
:100880006941FFF7A2FFDFE74A0009030123090BD3
:100890001B0519430A4B10B5520D9A4202DA00208B
:1008A000014610BD064B34339A4203DC9A1AFFF717
:1008B0002DFC10BD034BD218FFF7D0FE10BD000079
:1008C000FF030000CDFBFFFF064C0125064E05E0AF
:1008D000E36807CC2B430C3C98471034B442F7D361
:1008E000FFF7EAFB483F0008683F000810B50F21FA
:1008F000C0B2490200F01CFA10BD0000FFB5087834
:1009000089B01546FF2805D0491C2D2804D00022A7
:10091000002407E000240BE00122F9E70A235C43EE
:100920000419491C0878FF28F8D1002A00D0644235
:10093000002004902A7801462D2A01D02B2A0FD1BD
:100940006D1C2D2A02D00022049209E00122FBE74F
:1009500000260A2233466D1C00F0ACF938187141AC
:100960002F78FF2FF4D10C9AA218069202460A4360
:1009700004D0FF23069A9133DA4205DA0021099860
:100980000A4606C00DB0F0BD0024B74AB54D264654
:10099000079200F0DFF9029006980391002801DA2F
:1009A000474200E0074639050020AF4A001C51418C
:1009B0000191009012E0F80707D022462B463046FE
:1009C0000799FFF787FC0646079122462B461046FB
:1009D0001946FFF77FFC04460D467F10002FEAD131
:1009E0000698019B0028009A0399029806DAFFF7FF
:1009F000D9FC3246079BFFF7D5FC05E0FFF76AFC00
:100A00003246079BFFF766FC049A002A02D00122B7
:100A1000D2075140099A03C2B4E7FFB591B0002054
:100A200009900025ED432E209E685C681F460190CA
:100A3000B9696D1C129888470090396A8847002868
:100A4000F6D10098401C0AD00D20C0018443002E2E
:100A500012DD00982B2809D02D280DD103E00020AD
:100A6000C04315B0F0BD012080020443B9696D1C7C
:100A700012988847761E009003A9600501D52D20A5
:100A800000E02B206A461073491C0CA80F910290BD
:100A90000AE0B9696D1C1298884700900120400255
:100AA00004431398761E0560002E02DD009830285E
:100AB000EFD001990098884246D18020044308E095
:100AC0000998401E09900120400204431399681CB4
:100AD0000860B9696D1C761E12988847009030280E
:100AE000EED031E00199884205D1200603D4802060
:100AF0000443761E1EE0009802F006F8002826D077
:100B000001204002044307A90F980331761E884252
:100B10000BD200980F99303808700F98401C0F9036
:100B2000200607D50998401E03E0200602D4099844
:100B3000401C0990A00502D51399681C0860B9698A
:100B40006D1C129888470090002ECBDC59E0002ED7
:100B500057DD0098652801D0452852D1A00550D511
:100B6000032000028443B9696D1C761E12988847E1
:100B70000090002E0CDD2B2804D02D2808D1FF205A
:100B800001300443B9696D1C12988847761E0090A5
:100B9000E00501D52D2100E02B210298017002987B
:100BA000401C0290019025E00120400204430EA960
:100BB00002980131761E88420ED200980299303890
:100BC0000006000E087003D10299019881420AD9EB
:100BD0000298401C029006E0E00501D5234801E0A0
:100BE000224840420990B9696D1C129888470090CC
:100BF00013980560002E04DD009801F085FF0028A1
:100C0000D2D1F969129888470F99FF20087002998C
:100C100003AA087000200A900B900CA90AA8099B4F
:100C2000FFF76CFEA00502D40120C04319E7242081
:100C3000044209D0E00713D138680B9A0A99031DC2
:100C40003B60006806C00BE00B990A98FFF7BAFCFE
:100C50000146E00704D13868021D3A60006801606F
:100C60002846FEE6000014400000F03FF1D8FFFFE8
:100C70004268002A08D001680B78491C002B03D079
:100C8000521E06C0184670470121C160881E704779
:100C90004268002A0BD0C3680168002B07D1836823
:100CA0008B4204D0491E521C06C000207047002011
:100CB000C0437047F0B51FB486B00020009001908B
:100CC00002900698069980B204900798090C0204D5
:100CD0000014114307900027089D099806913E468D
:100CE0003C4603900398A9B20204000C03900498B8
:100CF0002D0C1543484300212246FFF7AFFCC719CE
:100D0000714110340E46402CECDB3846029AFFF756
:100D1000A5FC009A019B801800905941029801910E
:100D2000103002904028CCDB00980BB0F0BD0000E2
:100D30007F2801D9002207E0054B42089A5CC007D2
:100D400000D112091207120F01209040084070478D
:100D5000083F00080EB5054A029200220092134691
:100D60000192FFF73FFD03B000BD00003304000017
:100D7000F0B5284C89B06088010449D52649C0B235
:100D800000260E540878002841D00C2223A0FFF73B
:100D9000E0F900283BD1204808A90C30089603F060
:100DA00049F8FFF70FFC1C4A0546403A02A9072004
:100DB00002F06EFA2846FFF7C9FB05460191059B34
:100DC000049AFFF77FFAFFF7FDFB60600127042319
:100DD000221D0021A020009701F0F9F801235922DB
:100DE0006421A020009701F0F2F810A0059B049A5E
:100DF00001F09AFD2A4610A0019B01F095FD606864
:100E0000FFF7A4FB02460B460EA001F08DFD6680A5
:100E100009B0F0BD080000202801002054656D7065
:100E2000657261747572653D000000004765745F0E
:100E3000543D25660D0A000043616C5F543D2566F4
:100E40000D0A000054646174613D25660D0A0000BE
:100E500031B500F0BFF8009C0546601C00D0641C52
:100E600000F0B8F8401BA042FAD338BDF8B5002313
:100E70008DE001249C40A44622407DD04C68022C89
:100E800001D0122C0CD1DC08A40027183C6A5D07A5
:100E9000ED0E0F26AE40B4430E69AE4026433E62CF
:100EA00005685E000324B4400F79A543BF07BF0F58
:100EB000B7402F4307604D68012D05D0022D03D0A8
:100EC000112D01D0122D0ED18568CF68A543B740F2
:100ED0002F43876047686546AF430D79ED06ED0FF8
:100EE0009D403D434560C568A5438C68B4402C4394
:100EF000C4604C68E40049D5284CA56901263543F7
:100F0000A561A4699D0834400094254CAD002F19BB
:100F1000BC689D072E0F0F25B540AC430925ED0693
:100F2000A84201D100250FE01E4DA84201D10125A4
:100F30000AE01D4DA84201D1022505E01B4DA84243
:100F400001D1032500E00525B5402543BD60184CBF
:100F500025684E689543F60300D5154325606568FE
:100F60004E689543B60300D515436560A5684E6885
:100F70009543F60202D500E008E01543A560E56858
:100F80004E689543B60200D51543E5605B1C0A68C0
:100F90001446DC4000D06CE7F8BD000000100240B1
:100FA000000001400004004800080048000C004810
:100FB000000401400069084000D0012070474269E8
:100FC0004A4042617047002A01D0816170478162C6
:100FD00070470000014800687047000000000020D2
:100FE00002480168491C01607047000000000020B1
:100FF00010B506480168102211430160002000F07E
:1010000007F800F017F8002010BD00000020024093
:1010100010B5044600F042F97D21C900FFF760F8E1
:1010200000F04CFE00222146501E00F029F800205E
:1010300010BD000008B50C4881690122114381618F
:1010400080691040002200901146501F00F018F8EF
:1010500000221146901E00F013F800221146501E87
:1010600000F00EF808BD000000100240C106C90ED5
:1010700001208840014908607047000000E100E05D
:1010800010B501F0A1F910BDF8B505460068354C62
:10109000C00352D5E0690026C00007D4E1692004EE
:1010A0000143E161E1690140012600912E48016898
:1010B000C90510D40168821511430160FFF78AFF4A
:1010C000074604E0FFF786FFC01B642824D82648A3
:1010D0000068C005F6D5206A03273F02384020D0BB
:1010E0006968394081421CD0206A226AB8430121D4
:1010F00009040A432262226A8A4322622062C007EC
:101100000FD0FFF767FF009008E0FFF763FF00993B
:10111000411A1648814201D90320F8BD206A800790
:10112000F3D5206A6968B84308432062002E04D0D2
:10113000E169012000078143E1612878C00705D0FB
:10114000206BA96880088000084320632878800607
:1011500005D5206B10218843E968084320630020EF
:10116000F8BD00000010024000700040881300002D
:10117000F8B5054644480E460068C007C00FB042A7
:101180000AD24148016849084900314301600068BA
:10119000C007C00FB0425CD128783C4C800705D511
:1011A0006068F0218843A968084360602878C00718
:1011B0003FD06868012813D02168022813D089071E
:1011C000002946DA61688908890001436160FFF7F8
:1011D00001FF6968074601290DD0022917D024E0D4
:1011E00021688903ECE78901EAE7FFF7F3FEC11BF9
:1011F0002748814217D860680007800F0128F4D182
:1012000017E0FFF7E7FEC11B214881420BD8606859
:101210000007800F0228F4D10BE0FFF7DBFEC11BB3
:101220001B48814201D90320F8BD60680007800F88
:10123000F3D115480168C907C90FB1420BD901683C
:1012400049084900314301600068C007C00FB0423F
:1012500001D00120F8BD2878400706D56068072135
:1012600009028843E9680843606000F02DF861686E
:10127000084A0906090F515CC84007490860002068
:10128000FFF7C6FE0020F8BD00200240001002401B
:1012900088130000F03E00080400002001480068A8
:1012A00070470000040000200448054900684968B0
:1012B000044A4905490F515CC840704704000020AA
:1012C00000100240003F000810B512A30FCB88B0F9
:1012D0006C460FC413A30FCB0FC416494A680C20E9
:1012E000134603401448042B0FD0082B0DD1930252
:1012F0001B0F6C46E45CC96A04AB0907090F595C13
:10130000D20304D5FEF7ECFE604308B010BD0B48D5
:101310006043FAE702030405060708090A0B0C0DEF
:101320000E0F10100102030405060708090A0B0C32
:101330000D0E0F100010024000127A0000093D004F
:10134000FEB504460078D04DC00747D06868000756
:10135000800F012807D068680007800F022809D194
:101360006868C00306D52868800337D56068002800
:101370007ED033E0012062680004012A11D0810090
:10138000002A01D0052A10D02A6882432A602868E2
:10139000884328606068002814D0FFF71BFE0646CB
:1013A0000CE0296801432960F4E72A680A432A60AF
:1013B000F7E7FFF70FFE801B64286FD828688003CB
:1013C000F7D50BE0FFF706FE064604E0FFF702FE46
:1013D000801B6428F1D828688003F7D42078012680
:1013E000800700283BDA68680007800F07D068682C
:1013F0000007800F022809D16868C00306D4286856
:10140000800715D5E068012832D111E0E068002896
:10141000286815D030432860FFF7DCFD074604E05C
:10142000FFF7D8FDC01B0228C7D828688007F7D56A
:101430002868F82188432169C900084328600EE024
:10144000400840002860FFF7C5FD074604E0FFF7AD
:10145000C1FDC01B0228B0D828688007F7D42078C7
:10146000000724D5E0690028686A10D0304300E006
:1014700008E16862FFF7AEFD074604E0FFF7AAFD4A
:10148000C01B022899D8686A8007F7D50FE040088A
:1014900040006862FFF79EFD074605E09DE0FFF70C
:1014A00099FDC01B022888D8686A8007F7D4207885
:1014B00004274007002860DA00200190E869C00096
:1014C00008D4E969B8060143E961E96901400120EE
:1014D000009101906D480168C90511D40168821519
:1014E00011430160FFF776FD009005E0FFF772FD04
:1014F0000099401A642870D864480068C005F5D582
:10150000A06801280AD0002801D0052810D0286A38
:10151000400840002862286AB84301E0286A304346
:101520002862A068002812D0FFF754FD00900AE05E
:10153000286A38432862F1E7FFF74CFD0099411A09
:101540005348814249D8286A8007F5D50DE0FFF756
:1015500041FD009006E0FFF73DFD0099411A4C481F
:1015600081423AD8286A8007F5D40198002804D02F
:10157000E969012000078143E9612078C00635D57B
:10158000606901280CD0401D686B23D03843686324
:10159000686B400840006863FFF71CFD064622E0C8
:1015A000686B38436863686B30436863FFF712FD0C
:1015B000064604E0FFF70EFD801B02285BD8686B2F
:1015C0008007F7D5686BF8218843A169C9000843F3
:1015D00068630BE0B8436863F4E74CE0FFF7FAFC9C
:1015E000801B022847D8686B8007F7D4206A002840
:1015F00046D069680907890F022943D001263606BB
:101600000228286805D0B0432860FFF7E3FC0446B1
:1016100033E0B0432860FFF7DDFC074604E0FFF746
:10162000D9FCC01B022826D828688001F7D4E86AB4
:10163000E16A000900010843E862616AA06A0843A0
:1016400069683D221204914308436860286830436A
:101650002860FFF7BFFC044604E0FFF7BBFC001B5B
:10166000022808D828688001F7D509E0FFF7B2FC06
:10167000001B022801D90320FEBD28688001F5D493
:101680000020FEBD0120FEBD0010024000700040A1
:1016900088130000F8B5040007D000262546403521
:1016A000A662687F002802D005E00120F8BD2E77F1
:1016B000204600F04BF802236B7720680168402237
:1016C000914301600721E0680902884201D90022A4
:1016D00001E0012212030F273F02B84202D08842E4
:1016E00000D0A662276B002F05D1884201D9236361
:1016F00001E001202063A1686068636908432169F3
:10170000194308430123A1695B0219400843E169B9
:101710000843216A0843A16A084321680860616B95
:10172000606AA36908431B0C0427E1683B40194326
:1017300008432168104348602068C1697A029143D8
:10174000C1612666012068770020F8BD00B50068F9
:101750000D4987B0884215D10C48826981140A432B
:101760008261806908400590E0200090022001908D
:101770000021032003900291049109206946C006CC
:10178000FFF774FB07B000BD0030014000100240BD
:10179000FFB504460E464068FF2125460027053167
:1017A000403581B0884202D1A06800280CD0287F43
:1017B000012815D001202877FFF70CFC0090687FE6
:1017C00001280FD0022789E0042068770498009050
:1017D000324611462046039B00F03EF905B0F0BDAD
:1017E0000220FBE7002E78D00398002875D0042053
:1017F00068770020206626640399A9800399E98010
:10180000A063A087E087E064206507200121E268EB
:101810000002090382422268536801D98B4300E029
:101820000B4353600122A168D203914205D1216884
:101830000A6801239B039A430A6021680A685206DA
:1018400003D40A6840231A430A60E168814218D928
:1018500034E020688168C90706D0007B3070E888D2
:10186000401EE880761C0CE00498002824D0401C20
:1018700007D0FFF7AFFB01460098091A0498814290
:101880001AD2E8880028E4D11BE020688168C907E3
:1018900006D0C0683080E888401EE880B61C0DE0A5
:1018A0000498002808D0401C08D0FFF793FB00994B
:1018B000411A0498814201D303270FE0E8880028E9
:1018C000E3D12046009A049900F0A1FD002801D040
:1018D00020202066206E002800D001270120687794
:1018E00000202877384679E7FFB50646044640369B
:1018F000307F002781B00D46012809D001203077C4
:10190000FFF768FB0090707F012804D002279DE05C
:10191000022005B0F0BD002D72D0039800286FD0D2
:101920000320707700202066A5630399A18703999F
:10193000E1872064B080F0802065E0640121A06828
:10194000C903884205D1206801680122920311432E
:10195000016020680168490603D4016840221143F0
:1019600001600720E16800028142606823D90028F5
:1019700002D0E08F01281AD121682888C86005E0CC
:1019800020688168890706D52988C160E08F401EDC
:10199000E087AD1C0BE0049800283ED0401C06D028
:1019A000FFF718FB0099411A0498814235D2E08F65
:1019B0000028E5D136E0002802D0E08F01282ED1A2
:1019C000E08F012803D921682888C8600CE02168CD
:1019D000287808730FE020688168890711D5E18FA6
:1019E000012906D92988C160E08F801EE087AD1CDF
:1019F00015E029780173E08F401EE0876D1C0EE032
:101A000023E00498002808D0401C08D0FFF7E2FA31
:101A10000099411A0498814201D3032716E0E08F10
:101A20000028D8D12046009A049900F02CFD002807
:101A300001D020202066A068002803D12068C1685A
:101A400080680090206E002800D001270120707768
:101A50000020307738465CE7FFB5044683B00120AC
:101A6000254640350090287F00270E4601280FD0DC
:101A700001202877FFF7AEFA0190687F616801289E
:101A80000DD0CA1FFD3A08D1A168002905D102E096
:101A9000022007B0F0BD042801D00227FAE0002E92
:101AA0007CD005980028FBD006980028F8D0687FE5
:101AB000042801D00520687700202066059921645C
:101AC0000699E9800699A980A6630699E187069997
:101AD000A187E06420650723E1681B02994202D8D0
:101AE000E888012806D920684268012109038A4351
:101AF000426005E020684168012212031143416001
:101B000020680168490603D401684022114301603E
:101B1000E1686068994242D9002802D0E08F01282C
:101B200035D121683088C860E08F401EE087B61C40
:101B30002DE0009800280ED0E08F00280BD0206800
:101B40008168890707D53188C160E08F401EE08732
:101B50000020B61C0090E88800280ED0206881681C
:101B6000C9070AD0C068059908800598801C0590AF
:101B7000E888401EE880012000900C98401C06D0A8
:101B8000FFF728FA0199411A0C9881426DD2E08F33
:101B90000028CED1E8880028CBD16EE079E000287B
:101BA00002D0E08F012862D1E08F012807D9216897
:101BB0003088C860E08F801EE087B61C57E021683F
:101BC00030780873E08F401EE087761C4FE0009865
:101BD000002818D0E08F002815D020688168890778
:101BE00011D5E18F012906D93188C160E08F801EAF
:101BF000E087B61C05E031780173E08F401EE08776
:101C0000761C00200090E888002824D02068816895
:101C1000C90720D0E988012912D9C0680599088030
:101C20000598801C0590E888801EE880E8880128D7
:101C30000FD820684168012212031143416008E077
:101C4000017B059801700598401C0590E888401EAE
:101C5000E880012000900C98401C08D0FFF7BAF9EA
:101C60000199401A0C99884201D3032712E0E08FB2
:101C70000028ACD1E8880028A9D12046019A0C9907
:101C800000F001FC002801D020202066206E0028F2
:101C900000D0012701206877002028773846F8E631
:101CA000042204490428086902D09043086170475F
:101CB0001043FBE700E000E070470000094910B561
:101CC000401E884201D9012010BD074C60610321EC
:101CD000081F00F079FB0020A06107202061002090
:101CE00010BD0000FFFFFF0000E000E010B5FFF7AF
:101CF000E3FF10BD70B5040005D025466035687A55
:101D0000002802D006E0012070BD00202872204685
:101D100000F026F82420687220680168490849000C
:101D20000160204600F044FD0128EDD0606A0028E3
:101D300002D0204600F0CEFC206841680122D20289
:101D40009143416020688168082291438160206846
:101D50000168012211430160204600F020FD70BDA2
:101D600000B50068124987B088421FD111488269C6
:101D7000012189030A43826180690840059003209C
:101D80004002009002200190012103200390029163
:101D9000049109206946C006FFF768F80022022175
:101DA0001B20FFF76DF91B20FFF760F907B000BD9E
:101DB000003801400010024070B5034660339C7A41
:101DC000202C39D100290BD0002A09D001258468A4
:101DD0002D03AC4206D10669002E03D1CE0701D0F7
:101DE000012070BD1E7A012E26D001261E7241658B
:101DF000014640310A834A83FF22AC4204D1046980
:101E0000002C07D10D4A05E0002C04D10469002CF8
:101E100000D07F228A830021C16622229A72197221
:101E200001688A6832438A6000680168FF222132B3
:101E300011430160002070BD022070BDFF01000051
:101E4000FFB5064604466036707A83B00D462028FA
:101E500058D1002D0CD00598002809D00120A16888
:101E60000003814207D12069002804D1E80702D08D
:101E7000012007B0F0BD307A012843D00120307234
:101E80000020E06621207072FFF7A4F80190274639
:101E90004037059838820598788218E0788A401E85
:101EA000788206980090002280212046019B00F055
:101EB00009FD002818D10120A1680003814202D148
:101EC0002069002812D02168287808856D1C788A3E
:101ED0000028E3D106980090002240212046019B73
:101EE00000F0F0FC002808D00320C2E72888216811
:101EF000C005C00D0885AD1CE9E7202070720020E8
:101F00003072B6E70220B4E7FEE770B50124092578
:101F1000A403ED06002221462846FFF754F800F0FE
:101F2000FDF8002261102846FFF74DF8022001F06D
:101F30005DFD012221462846FFF745F8022001F009
:101F400055FD002221462846FFF73DF870BDF8B543
:101F50001D4617460E46044600F02EF9310A069833
:101F60000091032807D0014660084000022906D0EE
:101F7000012909D011E04800FE30204004E000F0C3
:101F8000E9F800F05EF9009800F0E4F800F059F983
:101F9000F0B200F0DFF800F054F900F00DF920463F
:101FA0000121084300F0D6F800F04BF906E06D1E61
:101FB000EDB2012000F063F838707F1C012DF6D1DE
:101FC000002000F05CF8387000F018F9F8BDFFB59B
:101FD00081B01C4616460D4600F0EEF80A982F0A0E
:101FE000032808D00146019840084000022907D084
:101FF00001290AD015E078000199FE30084004E07C
:1020000000F0A8F800F01DF9384600F0A3F800F041
:1020100018F9E8B201E03078761C00F09BF800F087
:1020200010F92046641EE4B20028F4D100F0E6F86E
:102030000A2001F0D3FC05B0F0BD70B501240925DC
:10204000A403ED06002221462846FEF7BCFF00F05F
:1020500065F8012251032846FEF7B5FF022001F082
:10206000C5FC012221462846FEF7ADFF022001F003
:10207000BDFC002221462846FEF7A5FF70BDF1B544
:10208000002400F02FF801260025B6030927FF06DB
:10209000002231463846FEF796FF022001F0A6FCEA
:1020A000012231463846FEF78EFF6006040E0121FC
:1020B00049033846FEF77EFF002801D0641CE4B2D5
:1020C000012001F093FC6D1CEDB2082DE0D30098C7
:1020D000002803D0FFF719FF2046F8BDFFF7ADFF3A
:1020E000FAE7000000B50C4887B0426901214904B5
:1020F0000A434261406908400590081100900021A0
:10210000012002900191039109206946C006FEF763
:10211000ADFE07B000BD00000010024000B50C4845
:1021200087B04269012149040A434261406908407D
:10213000059008110090012001900020029003906A
:1021400009206946C006FEF791FE07B000BD0000F9
:1021500000100240F8B50546FFF7E0FF0126092709
:10216000B603FF06002231463846FEF72CFF002456
:10217000E80901D0012200E000220121490338468C
:10218000FEF721FF6806050E022001F02FFC012258
:1021900031463846FEF717FF022001F027FC0022E7
:1021A00031463846FEF70FFF022001F01FFC641C89
:1021B000E4B2082CDCD3F8BD70B5FFF7AFFF012205
:1021C00009255403ED0621462846FEF7FCFE0122B0
:1021D000960331462846FEF7F6FE042001F006FC81
:1021E000002221462846FEF7EEFE042001F0FEFB09
:1021F000002231462846FEF7E6FE70BD70B5FFF7B7
:102200008DFF01240925A403ED060022214628465E
:10221000FEF7D9FE6610002231462846FEF7D3FEAF
:10222000042001F0E3FB012221462846FEF7CBFE05
:10223000012231462846FEF7C6FE042001F0D6FBF7
:1022400070BDF8B50024FFF74DFF012209255603A4
:10225000ED0631462846FEF7B6FE012001F0C6FB2A
:102260000122970339462846FEF7ADFE012001F012
:10227000BDFB07E0641CE4B2FA2C03D9FFF7BEFFF4
:102280000120F8BD31462846FEF794FE0028F1D122
:10229000002239462846FEF796FE0020F8BD0000D1
:1022A000F0B5244887B04269012189050A4342619B
:1022B00042690A400592426949110A4342614269F2
:1022C0000A400592426949000A434261406901227D
:1022D0000840059002211848FEF775FE01220221F0
:1022E0001648FEF770FE03277F03092001223946B6
:1022F000C006FEF768FE0024022601250294694606
:102300000D48009601950394FEF7B0FD02946946CE
:102310000A48009601950394FEF7A8FD092002944F
:102320006946C006009701950394FEF79FFD07B02C
:10233000F0BD0000001002400014004800040048F6
:1023400010B511480F490160FF210531416000219E
:102350000722816012020161C260012241615202C2
:102360008261016210224162C26181620722C262FF
:10237000016308214163FFF78DF9002800D0FEE7D3
:1023800010BD0000003001401400002010B50C48C2
:102390000A490160E1214902416000218160C16078
:1023A00001618161C1610C22016242614162FFF7FA
:1023B000A1FC002800D0FEE710BD0000003801405D
:1023C00078000020704700008307FF22DB0E9A4050
:1023D0008907090E994000280BDA0007000F08381A
:1023E000830808489B001818C36993430B43C361D3
:1023F0007047830804489B001B18186890430843E3
:102400001860704700ED00E000E400E07047F7B5A9
:1024100004464068FF26053682B01546B0420CD10E
:102420000121A068C903884202D04911884204D121
:1024300020680168402291430160009500228021BC
:102440002046039B00F090F82027002813D16068F5
:10245000B04216D1A068B902884202D04911884220
:102460000FD103210095002249022046039B00F072
:1024700030F8002805D0206E38432066032005B0D0
:10248000F0BD0020FBE7F8B50F460B46154600925D
:10249000032104460022C90200F01BF82026002870
:1024A00012D13B46002280212046009500F05CF8C6
:1024B000002809D103213B4600224902204600950D
:1024C00000F007F8002803D0206E30432066032078
:1024D000F8BDF8B51D4617460E4604463DE00321FB
:1024E00049028E4205D1002F03D1017B684601705D
:1024F0000078681C31D0002D05D0FEF76BFD0699E1
:10250000401AA84229D320684168E02291434160E3
:102510006068C11FFD390CD10121A068C903884240
:1025200002D04911884204D12068016840229143B9
:1025300001600120A16A4003814207D121680A6835
:1025400082430A6021680A6802430A60012040341D
:102550006077002020770320F8BD20688168314033
:10256000B942BCD10020F8BDF8B51D4617460E464D
:10257000044633E0681C31D0002D05D0FEF72AFD5B
:102580000699401AA84229D320684168E022914365
:1025900041606068C11FFD390CD10121A068C903E9
:1025A000884202D04911884204D120680168402243
:1025B000914301600120A16A4003814207D1216853
:1025C0000A6882430A6021680A6802430A6001209F
:1025D00040346077002020770320F8BD20688168B0
:1025E0003046884304D00020B842C3D10020F8BD53
:1025F0000120F9E7704710B5FEF7F2FCFFF776FB14
:1026000010BD70B594B000241020099402250490E8
:10261000052001260095C00403960A9008950B94A6
:102620006846FEF78DFE002800D0FEE707200C90DC
:102630000E9401210D950F940CA8FEF799FD00282A
:1026400000D0FEE710A810961294FEF71DFD00289A
:1026500000D0FEE7FEF722FE7D21C900FDF740FD18
:10266000FFF72CFB0420FFF71BFB00221146501E36
:10267000FEF706FD14B070BD134801680122114336
:1026800001604168114A114041600168104A1140DF
:1026900001600168012292049143016041683F2278
:1026A000120491434160C16A09090901C162016BC9
:1026B000FF22143291430163416B49084900416391
:1026C0000021816070470000001002400CB8FF0834
:1026D000FFFFF6FE10B5818CC90707D001684A6874
:1026E00001235B049A43836A1A434A60818C8907F9
:1026F00007D501684A6801231B049A43C36A1A4339
:102700004A60818C490707D501684A6801239B0408
:102710009A43036B1A434A60818C090707D5016805
:102720004A680123DB039A43436B1A434A60818C56
:10273000C90607D50268916801231B039943836B7F
:1027400019439160818C890607D501688A68012345
:102750005B039A43C36B1A438A60818C490612D586
:1027600003685A6801210905046C8A4322435A60B0
:10277000026C8A4207D10268516803235B059943C2
:10278000436C19435160818C090607D501684A687A
:102790000123DB04806C9A4302434A6010BD002190
:1027A000C166202260304272827201720846704710
:1027B000F8B504462369A268E6691A4363691021E3
:1027C0003343002026681A4333680546394F3B409F
:1027D0001343336023685A6803263603B243E6681E
:1027E00032435A60236AA26926681A43B3680B27EA
:1027F0003F02BB431343B3602F4A126B9207920F01
:1028000006D0012A08D0022A08D0032A07D101E005
:10281000002104E0022102E0042100E0082101225D
:10282000E369D203934224D100290CD002290DD0B0
:10283000042913D0082917D001250109090100072F
:10284000400F084332E0FEF72FFD09E061681B4AA4
:1028500048088018FDF744FC80B2EEE7FEF734FD2F
:10286000616840004A08F4E76168012248081204E0
:10287000EFE7002908D0022909D004290BD0082944
:102880000ED001252846F8BDFEF70EFD05E0616873
:102890000B4A480806E0FEF717FD61684A0801E0A8
:1028A000616848088018FDF71BFC80B22168C86089
:1028B000E8E70000F369FFFF001002400024F40085
:1028C00000127A00FFB581B017460E4604460A9DF5
:1028D0001DE0681C1BD0002D05D0FEF77BFB049982
:1028E000401AA84213D920680168FF22A1329143FF
:1028F00001602068816849084900816020206034B7
:102900006072A07200202072032005B0F0BD206824
:10291000C1693046884304D00020B842D9D0002095
:10292000F3E70120F9E700000FB410B503A9044B49
:10293000044A029800F0F0F810BC08BC04B0184734
:102940001D3A0008100000202021020C01D01021A7
:102950001046020A01D010460839020901D010467B
:10296000091F820801D01046891E420801D0881E26
:102970007047081A704702E008C8121F08C1002AF1
:10298000FAD170477047002001E001C1121F002AF0
:10299000FBD17047F0B51FB486B00998089A030DB3
:1029A0000021024314D05148514A181850430514CD
:1029B0001198012810981AD0281A401C00264D4F53
:1029C0004D49009601910490002812DA444211E02A
:1029D0001198012449A3012801D11098C1430698F8
:1029E000119A84600360C26041600BB0F0BD404248
:1029F000E4E70446210500203F4A001C51410391B1
:102A0000029012E0E00707D032463B460199009859
:102A1000FDF760FC0191009032463B461046194696
:102A2000FDF758FC06460F466410002CEAD10498C6
:102A3000039B0028029A0999089806DAFDF74AFCD8
:102A4000019B009AFDF746FC05E0FDF7ABFC019BFE
:102A5000009AFDF7A7FC04460E460022284BFDF71E
:102A60009DFD03D80020C043014607E00022254B0E
:102A700020463146FDF77CFBFDF706FF102409E0F8
:102A8000002C0ADB0A220023FDF7B8FD079B303239
:102A90001A55641E02460A43F2D11122641C079B98
:102AA000121B1C19119B012B03D0012308430ED1CB
:102AB0000AE0084304D0112010900020119077E71D
:102AC0001098151A6D1E0BE01098824202DD00234B
:102AD0006D1C03E0824201DA00236D1E002BEED054
:102AE000069811998260C16030C07EE701FCFFFF4B
:102AF000104D0000000014400000F03F30000000C6
:102B00000000F0430000E03F30380A2801D20120E5
:102B10007047002070470000FFB597B006460025BB
:102B200018E2252877D100242746FD49049400E0C7
:102B30000443761C32780120203A90400842F7D1B5
:102B400030782A280ED002223078014630390929FF
:102B500016D804990A235943303940181443761C77
:102B60000490F1E7189802C804911890002904DA3B
:102B70000120400304434842049002200443761C91
:102B800030782E2814D1042004437078761C2A282B
:102B900009D11898761C80C8189009E00A214F4383
:102BA000303FC719761C3078014630390929F5D9EC
:102BB00030786C2810D006DC4C281AD068280ED04B
:102BC0006A2817D104E0742813D07A2812D110E0B3
:102BD0000120400504430CE00121090501E0032127
:102BE00009050C437178814203D1012000052418A6
:102BF000761C761C3078119066280BD013DC582890
:102C00007DD009DC00287BD04528F6D04628F4D0BA
:102C100047281AD1A5E118E0632835D0642870D080
:102C2000652812D19DE170286CD008DC6728F1D0AE
:102C300069287BD06E280DD06F2806D1BAE07328A2
:102C40002ED0752871D0782859D01A9A19999047A2
:102C50006D1C7EE16002400F022809D003280DD0D0
:102C60000428189801680DD00D60001D189070E1BF
:102C70001898EA1701680D604A60F6E7189801682D
:102C80000D80F2E70D70F0E718986A46017811722E
:102C9000001D18900020507202A80090012005E04D
:102CA000189802C8189000200091C04361070DD504
:102CB000002101E00199491C0191B94212DA8142D7
:102CC000F8DB009A515C0029F4D10BE0002101E00F
:102CD0000199491C01918142FADB019A0099895CB2
:102CE0000029F5D1019904981A9B471A21463846C4
:102CF000199A00F097FA0199401945180BE04FE036
:102D00002CE113E04EE0009800990078491C0091F6
:102D10001A9A199990470198401E0190401CF2D1CF
:102D2000214638461A9B199A10E137E00A20002103
:102D3000009001916002410F022907D0189A01CA40
:102D40001892C2179446032908D00AE01898C01DAB
:102D5000C108C90005C91891944607E000B2C2171E
:102D60009446042902D140B2C1178C460022614624
:102D7000944506DA0A460021404291418C462D21B5
:102D800002E0210504D52B216A461173012103E0DD
:102D9000E10701D02021F7E7029155E00A200AE07F
:102DA000102008E01020009000210420044301912D
:102DB000082703E008200021019100906002410FE4
:102DC000022907D0189A01CA1892002294460329B2
:102DD00008D008E01898C01DC108C90005C918919D
:102DE000944603E080B2042900D1C0B200210291D0
:102DF000210729D51199702906D0009A1021019B2D
:102E00004A401A4305D00EE040216A461173012161
:102E100008E06146014306D030216A4611731199DA
:102E2000517302210291009A0821019B4A401A43E2
:102E30000AD16146014301D1610705D530216A46B7
:102E4000117301217F1E02911199582904D035A1D7
:102E50000E910DA90D910DE037A1F9E76146019B97
:102E6000009AFDF7CBFB0E9B8C469B5C0D9A521E85
:102E70000D92137061460143F0D10D9805A9081A0F
:102E800020300190600703D501200004844300E056
:102E900001270198874201DD381A00E000200199DE
:102EA00000904118029809180498401A0490E00311
:102EB00006D421461A9B199A049800F0B3F94519D3
:102EC000002706E003A81A9AC05D199990476D1C67
:102ED0007F1C02988742F5DBE0030CD521461A9B44
:102EE000199A049800F09EF9451904E01A9A3020C6
:102EF000199990476D1C0099481E00900029F5DC37
:102F000008E00D980D990078491C0D911A9A1999AD
:102F100090476D1C0199481E01900029F1DC63E186
:102F2000092801003031323334353637383961629F
:102F30006364656600000000303132333435363763
:102F400038394142434445460000000000F05AF938
:102F50004519761C3078002800D0E2E528461BB0E1
:102F6000F0BD600700D406271898C01DC108C9002D
:102F700048680A680831C30FDB071891190001D0AF
:102F80009CA108E0210501D59BA104E0E10701D047
:102F90009AA100E09AA1430011985B08109165285E
:102FA0000CD006DC452809D046281DD0472841D141
:102FB00041E0662818D067283CD13CE00021112F61
:102FC00001DB112000E0781C0191009008A911A8F4
:102FD000FFF7E0FC139905910021119A15927F1CCF
:102FE00012980197009150E00120C0070390012042
:102FF000019008A9009711A8FFF7CCFC139A149927
:1030000005920022119B009212981593059A019245
:10301000002901D0104602E0791C40180190381AAE
:1030200001D5019804E04042401E0090781C0190B8
:10303000C01B029043E0012F00DA01270021112F6D
:1030400001DD112000E038460191009008A911A887
:10305000FFF7A0FC13990591119A0021129815927F
:103060000091019721070CD40599B94201DB019920
:1030700000E00191012904DD159A491E515C3029B7
:1030800006D0B84201DA011D05DA0121029115E0EE
:103090000199491EEDE7002805DC009941180091CF
:1030A0000199091A03E0019A411C914200DD019146
:1030B0000099401A401C02900120C007039020078D
:1030C00006D402990198814202DB0020C04302909D
:1030D00000206946C87707AF012103980337C90765
:1030E000884224D0022011902B20129003980028AF
:1030F0000CDA404203902D20129007E00A21039839
:10310000FCF7EEFF30317F1E039039701199481E95
:1031100011900029F2DC03980028EFD1791E129853
:1031200008703078202108404530BF1E387006A84E
:10313000C01BC01D039010980078002800D001200B
:10314000019941180298C0170918039809180498A2
:10315000401A401E0490E00306D421461A9B199A97
:10316000049800F05FF8451910980078002803D003
:103170001A9A199990476D1CE00324D521461A9B91
:10318000199A049800F04EF845191CE000980028A0
:1031900007DB00990598884203DD1598405C199972
:1031A00001E0199930201A9A904700986D1C401C34
:1031B00000900298401E0290002804D11A9A2E20F6
:1031C000199990476D1C0199481E01900029DDDC7A
:1031D00005E038781A9A7F1C199990476D1C03995D
:1031E000481E03900029F4DC21461A9B199A049882
:1031F000ACE600002D0000002B00000020000000C5
:1032000000000000F8B5044600251E461746880455
:1032100004D405E039462020B0476D1C641EF9D562
:103220002846F8BDFFB50446002581B01E46C803F8
:1032300001D5302700E02027880404D505E0384672
:103240000399B0476D1C641EF9D5284605B0F0BD42
:10325000024600200A4200D001207047F8B505461A
:1032600016460F461C46184600F064FC00280ED196
:10327000A078012801D08020054360786468334637
:103280003A462946A047002801D00320C043F8BD94
:10329000F0B506468BB00020029003900490059094
:1032A00006900C461546104600F044FC002855D107
:1032B000002C53D02B46082202A9F720FFF7CEFF9F
:1032C000002849D16846007A2F4601036846407AB3
:1032D000103702016846807A1143000901436846AD
:1032E0000491C07A002501036846007B020168460C
:1032F000407B11430009014368460591807B010230
:103300006846C07B0843069004A80190002F20D097
:103310000020A0600146E06003C4A060E060083CBB
:10332000700705D03946019800F0D2FAE160A0603C
:10333000F00705D03946019800F0C6F903C4083CEF
:10334000700708D53946019800F014F961612061D1
:1033500001E00025ED4328460BB0F0BD0020C0433E
:10336000FAE770B504460D46084600F0E3FB002876
:1033700009D12B4601222146F420FFF76FFF217867
:103380008907890F217070BD38B505460020694650
:1033900008700524284600F0CDFB002822D12B46DA
:1033A00001226946D020FFF759FF002803D1684663
:1033B0000078602807D0E96801208847641E240649
:1033C000240EECD10CE0684600782870284600F006
:1033D000B8F8002802D1284600F02EFB002C01D1BD
:1033E0000120C04338BDF0B585B014460E460546F1
:1033F0001F460A2A00D90A24184600F09BFB002821
:1034000039D1002D37D0002E35D0002C30D0307877
:1034100069460870B878012809D0002005E0295CC9
:103420004906490E2954401CC0B2A042F7D3012CD2
:1034300012D9694601200AE04200944652182B5CDA
:10344000203AD377335C6246401C8B54C0B223468B
:10345000A042F1D35B0000E02346BC68297878786D
:103460006A46A047002801D00320C04305B0F0BD44
:103470000220C043FAE70020C043F7E73EB5054607
:103480000C46084600F056FB002825D1214601A82D
:10349000FFF767FF00281FD168460079002804D095
:1034A000204600F0E1FB002816D1F420694608729E
:1034B00023460122FFF7D2FE00280DD16946087885
:1034C000A90780088000890F0843694608702346D1
:1034D000012202A8FFF787FF3EBDF8B507460D465B
:1034E000084600F027FB040029D129466846FFF76B
:1034F00038FF040023D168460078002804D028460D
:1035000000F0B2FB04001AD139460720FFF7A0FEF5
:103510002E463836002806D02A463146384600F076
:10352000EFFB04000BD139461820FFF791FE00286D
:1035300005D02A463146384600F0B7FB04462046FF
:10354000F8BD7CB50546E02168460170B6210171E1
:10355000284600F0EFFA040009D12B46012201A908
:103560006846FFF740FF0446E96802208847204686
:103570007CBD0000F3B58FB000200C464F4904908D
:10358000059003910290606AFCF79AFF00224C4B71
:10359000FCF792FE054620200E46205EFCF790FFC9
:1035A0000D22D243FCF776FF2A463346FCF792FE03
:1035B00007461E200191205EFCF782FF0622FCF7E1
:1035C00069FF3A46019BFCF7D3FD07460F98079128
:1035D0008068FCF789FF3A46079BFCF76DFE069072
:1035E00009911A20205EFCF76BFF0F22D243FCF7F3
:1035F00051FF01910C90207FFCF776FF1922D243F6
:10360000FCF748FF2A463346FCF764FE00222D4BA8
:10361000FCF7AEFD0791074622210857FCF750FF43
:103620001922D243FCF736FF2A463346FCF752FEF6
:103630003A46079BFCF74EFE0022224BFCF798FD12
:1036400002460B4638460799FCF744FE05460E46EF
:10365000019B0C9A09990698FCF73CFE2A463346D2
:10366000FCF738FE06460D46207EFCF73DFF32464D
:103670002B46FCF72FFE1222D243FCF70BFF002251
:10368000104BFCF71FFE32462B46FCF723FE044688
:103690000D460022094BFCF781FF02D2039D029CDC
:1036A00008E00022134620462946FCF763FF01D2BA
:1036B000059D049C2946204611B0F0BD00005940EC
:1036C00000C0F2400000F03FF3B58DB00D4600247D
:1036D00079487A49089409910790686AFCF7F0FEE6
:1036E000621EFCF7D7FE0022754BFCF7E5FD06468F
:1036F00010200F46285EFCF7E3FE32463B4605915C
:10370000049010461946FCF7E5FD059B049AFCF76A
:10371000E1FD0E22D243FCF7BDFE049005910E2080
:10372000285EFCF7CDFE32463B46FCF7D3FD012276
:10373000FCF7B0FE059B049AFCF71AFD0490059176
:103740000C20285EFCF7BCFE1022FCF7A3FE0091C3
:103750000A90A21E05990498FCF79CFE009B0A9A09
:10376000FCF706FD049005910A20285EFCF7A8FEF0
:1037700032463B46FCF7AEFD32463B46FCF7AAFD1F
:103780001222D243FCF786FE0C9001910820285E9D
:10379000FCF796FE32463B46FCF79CFD019B0C9ADB
:1037A000FCF7E6FC1222D243FCF774FE06460F46F5
:1037B000E888FCF799FE00910E220A90D243304629
:1037C0003946FCF767FE00223E4BFCF7D1FC009B1C
:1037D0000A9AFCF77FFD002206460F461346FCF7C7
:1037E000C9FE59D00D980068FCF77EFE0022364BCA
:1037F000FCF768FD00900B220191D24305990498D3
:10380000FCF748FE019B009AFCF75CFD00222F4B61
:10381000FCF760FD32463B46FCF7C4FD0646162029
:103820000F46285EFCF74CFE32463B46FCF752FD45
:1038300032463B46FCF74EFD1E22D243FCF72AFEE1
:10384000029003911420285EFCF73AFE32463B4674
:10385000FCF740FD0E22D243FCF71CFE04900591BC
:103860001220285EFCF72CFE05460B9102A80FC81B
:10387000FCF77EFC2A460B9BFCF77AFC221FFCF728
:1038800009FE32463B46FCF773FC05460E46002215
:10389000094BFCF76FFE02D22546079E08E0002286
:1038A000064B28463146FCF779FE01D2099E089D59
:1038B000314628460FB0F0BD004CDD4000DBFA4039
:1038C0000040EF400000F03F00003041006AB84087
:1038D000F0B58DB00C4605463D49002007913D49A5
:1038E00006900A9108902088FCF7FEFD0922064602
:1038F000D2430491FCF7CEFD074603916868FCF7BC
:10390000F3FD0D220546D2430591FCF7C3FD3A466F
:10391000039BFCF7D1FC074602200391205EFCF7D5
:10392000CFFD3A46039BFCF7D5FC074603910C22DA
:103930003046D2430499FCF7ADFD064609911022AA
:103940002846D2430599FCF7A5FD3246099BFCF7B2
:10395000B3FC054604200E46205EFCF7B1FD2A4666
:1039600033460591049010461946FCF7B3FC059BBD
:10397000049AFCF7AFFC05460E4602460B46384655
:103980000399FCF7F5FBFCF7BDFD60622A46334660
:1039900038460399FCF7ECFB00220F4BFCF702FDC5
:1039A00004460D4600220A4BFCF7E4FD02D2079DB7
:1039B000069C08E00022074B20462946FCF7EEFD56
:1039C00001D20A9D089C294620460DB0F0BD00009A
:1039D000000044C0004055400000B4407D2100B5C7
:1039E000C900484300F002F800BD000070B50A4C61
:1039F000002365693021A2694843A1699142FCD046
:103A0000914201D2521A01E06E1AB218D3180A4636
:103A10008342F2D370BD000000E000E013B5044B18
:103A2000012269460348FEF70BFA00981CBD00000E
:103A3000FFFF00007800002030B587B004468825DD
:103A40001C216846FCF77AFB23461A226946284661
:103A5000FFF704FC002827D12146684600F08DF8C6
:103A6000E120234607226946FFF7F8FB00281BD117
:103A700069460988618569468978103421776946E5
:103A800003228A56097912010907090F0A43E283C2
:103A9000694605228A560979120109090A432284D6
:103AA000694689792034A17007B030BD1CB5FDF797
:103AB0009FFAFEF7A6FDFEF7F3FBFEF767FCFEF7A5
:103AC0003FFC174800244470847016494160164931
:103AD00081601649C160FFF757FC154D012628701B
:103AE000334601AA6421A0200096FEF730FA68460A
:103AF000007959280AD06C600D4909480122491CF7
:103B00007038FEF759F9064800F04CF9084A0423CA
:103B1000121D0021A0200096FEF719FAECE7000024
:103B2000E8000020593E0008A53E0008513E00086C
:103B30000800002000280AD04168002907D08168C9
:103B4000002904D0C068002801D000207047002060
:103B5000C043704702785207520F8A708278D206AB
:103B6000520F0A70827852094A70C278D206520FF8
:103B7000CA70C07840090871704742780378120211
:103B80001A430A82C2788378120612141A434A82B0
:103B900042790379120612141A438A82C279837910
:103BA00012021A43CA82427A037A120612141A4384
:103BB0000A83C27A837A120612141A434A83427B1A
:103BC000037B120612141A438A83C27B837B12067C
:103BD00012141A43CA83427C037C120612141A433D
:103BE0000A84C27C837C120612141A434A84427DE2
:103BF000037D120612141A438A84C27D837D120645
:103C000012141A43CA84407E1031087670470000AF
:103C10007FB5044603CC00220C4B083CFCF7C2FBEA
:103C200005460B480E464068FCF790FCE368A26826
:103C3000FCF748FB039602950B46626921690192E5
:103C40000246009103A0FEF76FFE7FBD00408F404B
:103C50000800002025302E32662C25302E32662CAE
:103C600025302E32660D0A003EB504460346042276
:103C700002A9F220FFF7F2FA002815D1694602A83E
:103C8000FFF768FF2046FFF75CFC00280CD16D466B
:103C9000224629461F2000F033F8002804D122468E
:103CA00029461F2000F001F83EBD7CB50C460546B4
:103CB0001646F5206946134608710122FFF7CEFA31
:103CC00000281CD1280709D569460878E321084057
:103CD000E1784907C90E084369460870E80608D527
:103CE000694608782179C006C00E49010843694633
:103CF000087033460122694601A8FFF774FB7CBDBA
:103D0000FEB504460F4601206107F426154600293A
:103D10001EDAF22168460170B87813464107490F50
:103D200068460171012201A9FFF75DFB00280FD150
:103D300069460E7030462B46012202A9FFF78EFA23
:103D4000002805D12B46012202A96846FFF74BFB4C
:103D5000A10725D0694630460E712B460122FFF798
:103D60007DFA00281CD1E00709D069460878E321D4
:103D7000084039784907C90E084369460870A0070A
:103D800008D5694608787978C006C00E490108430D
:103D9000694608702B460122694601A8FFF723FBFC
:103DA000FEBD00000446234686B0052020339876E9
:103DB000187658760020D87618771F202146FFF70E
:103DC0008CFB21460320FFF759FB10A0FEF7ACFD4A
:103DD000FDF700F90546164EFCF7CAFFFDF7FAF8A5
:103DE000431B00D55B42C82BF6DD02213046FDF7B0
:103DF000E6F8224669460720FFF74AFA6846FFF7C9
:103E000007FFFDF7E7F80546E6E7000054656D702B
:103E1000657261747572652C2048756D696469748A
:103E2000792C2050726573737572650D0A0000005D
:103E30000014004800B50A4683B0002100910191AA
:103E400001466846FCF749FC0199009803B000BDA3
:103E500010B5FCF7FDFF10BDFFB5002481B015467D
:103E6000002817D10D4E002202213046FDF7ABF895
:103E7000671E3B46012202A90948FDF735FD3B4676
:103E800029460748049AFDF783FC012202213046A7
:103E9000FDF799F8204605B0F0BD00000004004889
:103EA00014000020FFB5002481B01546002817D16A
:103EB0000D4E002202213046FDF785F8671E3B4675
:103EC000012202A90948FDF70FFD3B462946074894
:103ED000049AFDF709FD012202213046FDF773F82F
:103EE000204605B0F0BD000000040048140000208A
:103EF000000000000000000001020304060708099A
:103F00000000000001020304DDDDDDDDDCBBBBDD04
:103F1000DDDDDDDDDDDDDDDD988888888888888869
:103F20007777777777888888855555566666666689
:103F30006666666666688888833333322222222268
:103F4000222222222228888D683F000800000020BB
:103F500014000000762900087C3F000814000020AF
:103F60004C050000862900080000000000127A00BD
:0C3F700000000000000000000000000045
:04000005080000B13E
:00000001FF
