:020000040800F2
:10000000E00F00203D010008911200088311000854
:1000100000000000000000000000000000000000E0
:10002000000000000000000000000000D9120008DD
:100030000000000000000000FB000008F3120008B0
:100040004F010008000000004F0100084F010008A8
:100050004F0100084F0100084F0100084F01000840
:10006000000000004F0100084F0100084F01000888
:100070004F010008CD1300084F01000800000000E8
:100080004F01000800000000000000004F010008C0
:10009000000000004F0100084F0100084F01000858
:1000A000000000004F01000800000000D517000804
:1000B0000348854600F0BAF8004800474D1D000887
:1000C000E00F0020084B19680868203080F3098889
:1000D000022080F31488BFF36F8F3FBCAE4608BC8C
:1000E00004BC62B61847000060010020EFF31080E6
:1000F00072B6704780F310887047EFF309800E4B9B
:100100001A6820381060F0C044464D4656465F4697
:10011000F0C008B572B602F0E9FE62B60CBC116818
:1001200008681030F0C8A046A946B246BB4680F326
:1001300009882038F0C8184760010020044880472B
:1001400004480047FEE7FEE7FEE7FEE7FEE7FEE7BE
:1001500071130008B100000830B50B4601460020BD
:100160002022012409E00D46D5409D4205D31D46BD
:100170009540491B2546954040191546521E002DB5
:10018000F1DC30BD10B5202A04DB0846203AD0400F
:10019000002110BD0B46D340D0402024A21A91402C
:1001A0000843194610BD03460B439B0703D009E0E3
:1001B00008C9121F08C0042AFAD203E00B780370A2
:1001C000401C491C521EF9D27047F0B51FB40646B8
:1001D000002082B005464024019100901BE0019967
:1001E00022460F463046FFF7CDFF049A059B801A42
:1001F000994110D310461946224600F029F8361AC4
:100200008F410197224601200021009F00F020F835
:1002100038184D4100902046641E0028DFDC019B09
:1002200000982946324607B0F0BD0000064C012573
:10023000064E05E0E36807CC2B430C3C984710348E
:10024000B442F7D3FFF738FF643200088432000865
:1002500010B5202A04DB0146203A9140002010BD51
:10026000914020239C1A0346E3401943904010BD5F
:1002700070B58C180578401C6B075B0F01D10378B3
:10028000401C2A1106D10278401C03E006780E704B
:10029000401C491C5B1EF9D12B0705D40023521EBC
:1002A0000DD40B70491CFAE70378401CCB1A921C42
:1002B00003E01D780D70491C5B1C521EF9D5A1424C
:1002C000D8D3002070BD70B50024014620314A7893
:1002D000022A03D004218163012416E00268136816
:1002E0000E25AB431360026813685B085B00136064
:1002F0000122056C1346AB40C56B6B604A7000224F
:100300000A70416B002900D08847204670BD31B586
:1003100000F0B6F8009C0546601C00D0641C00F09C
:10032000AFF8401BA042FAD338BD0000F8B5002357
:100330008DE001249C40A44622407DD04C68022CD4
:1003400001D0122C0CD1DC08A40027183C6A5D07F0
:10035000ED0E0F26AE40B4430E69AE4026433E621A
:1003600005685E000324B4400F79A543BF07BF0FA3
:10037000B7402F4307604D68012D05D0022D03D0F3
:10038000112D01D0122D0ED18568CF68A543B7403D
:100390002F43876047686546AF430D79ED06ED0F43
:1003A0009D403D434560C568A5438C68B4402C43DF
:1003B000C4604C68E40049D5284CA5690126354342
:1003C000A561A4699D0834400094254CAD002F1907
:1003D000BC689D072E0F0F25B540AC430925ED06DF
:1003E000A84201D100250FE01E4DA84201D10125F0
:1003F0000AE01D4DA84201D1022505E01B4DA8428F
:1004000001D1032500E00525B5402543BD60184C0A
:1004100025684E689543F60300D515432560656849
:100420004E689543B60300D515436560A5684E68D0
:100430009543F60202D500E008E01543A560E568A3
:100440004E689543B60200D51543E5605B1C0A680B
:100450001446DC4000D06CE7F8BD000000100240FC
:10046000000001400004004800080048000C00485B
:1004700000040140002A01D0816170478162704709
:1004800001480068704700003C01002002480168F4
:10049000491C0160704700003C01002010B506486F
:1004A0000168102211430160002000F007F800F0FD
:1004B00041F8002010BD00000020024000B50146B8
:1004C00087B000220D2000F061F80D2000F054F8F4
:1004D00013488269C1140A4382618069084005900B
:1004E00004A9684600F060F900F080F90D49FFF7B3
:1004F00033FE0E490C4A0A600D4A401ECA6048602D
:10050000002008618860084600F08CFB002802D0BB
:10051000012007B000BD054800F09FFBF9E700008F
:100520000010024040420F00002C0140B0020020A9
:10053000E703000008B50F4881690122114381617A
:10054000816911400091C26901040A43C261C06916
:100550000022084000901146501F00F017F80321B8
:100560000022481F00F012F803210022081F00F0AB
:100570000DF808BD00100240C106C90E01208840D8
:10058000014908607047000000E100E010B500F08C
:1005900081FE10BDF8B505460068354CC00352D544
:1005A000E0690026C00007D4E16920040143E1614D
:1005B000E1690140012600912E480168C90510D467
:1005C0000168821511430160FFF75AFF074604E0F6
:1005D000FFF756FFC01B642824D826480068C005D2
:1005E000F6D5206A03273F02384020D06968394099
:1005F00081421CD0206A226AB843012109040A43BF
:100600002262226A8A4322622062C0070FD0FFF76B
:1006100037FF009008E0FFF733FF0099411A1648B2
:10062000814201D90320F8BD206A8007F3D5206AF2
:100630006968B84308432062002E04D0E1690120B4
:1006400000078143E1612878C00705D0206BA968C5
:1006500080088000084320632878800605D5206B39
:1006600010218843E968084320630020F8BD00009A
:10067000001002400070004088130000F8B50546E5
:1006800044480E460068C007C00FB0420AD2414835
:10069000016849084900314301600068C007C00F84
:1006A000B0425CD128783C4C800705D56068F021C9
:1006B0008843A968084360602878C0073FD068680D
:1006C000012813D02168022813D08907002946DAAF
:1006D00061688908890001436160FFF7D1FE69689C
:1006E000074601290DD0022917D024E0216889038B
:1006F000ECE78901EAE7FFF7C3FEC11B2748814207
:1007000017D860680007800F0128F4D117E0FFF7C1
:10071000B7FEC11B214881420BD860680007800FDB
:100720000228F4D10BE0FFF7ABFEC11B1B4881424E
:1007300001D90320F8BD60680007800FF3D1154888
:100740000168C907C90FB1420BD9016849084900BE
:10075000314301600068C007C00FB04201D00120E2
:10076000F8BD2878400706D560680721090288434C
:10077000E9680843606000F049F86168084A0906C2
:10078000090F515CC840074908600020FFF796FE3A
:100790000020F8BD00200240001002408813000035
:1007A000983100084001002010B5072202600A4A73
:1007B00053689B079B0F43605368F024234083607A
:1007C000526807231B021A40C26004480068C00731
:1007D000C00F086010BD0000001002400020024061
:1007E00001480068704700004001002004480549A6
:1007F00000684968044A4905490F515CC840704780
:100800004001002000100240A831000810B512A3DA
:100810000FCB88B06C460FC413A30FCB0FC416497F
:100820004A680C20134603401448042B0FD0082BB1
:100830000DD193021B0F6C46E45CC96A04AB090737
:10084000090F595CD20304D5FFF786FC604308B05A
:1008500010BD0B486043FAE70203040506070809C8
:100860000A0B0C0D0E0F10100102030405060708F9
:10087000090A0B0C0D0E0F100010024000127A0036
:1008800000093D00FEB504460078D04DC00747D0B2
:1008900068680007800F012807D068680007800F8C
:1008A000022809D16868C00306D52868800337D5B7
:1008B000606800287ED033E0012062680004012ACD
:1008C00011D08100002A01D0052A10D02A68824365
:1008D0002A602868884328606068002814D0FFF7E1
:1008E000CFFD06460CE0296801432960F4E72A6839
:1008F0000A432A60F7E7FFF7C3FD801BC8286FD8BB
:1009000028688003F7D50BE0FFF7BAFD064604E040
:10091000FFF7B6FD801BC828F1D828688003F7D4FC
:1009200020780126800700283BDA68680007800FDE
:1009300007D068680007800F022809D16868C003E3
:1009400006D42868800715D5E068012832D111E067
:10095000E0680028286815D030432860FFF790FD34
:10096000074604E0FFF78CFDC01B0228C7D82868A3
:100970008007F7D52868F82188432169C900084312
:1009800028600EE0400840002860FFF779FD074628
:1009900004E0FFF775FDC01B0228B0D82868800767
:1009A000F7D42078000724D5E0690028686A10D0C1
:1009B000304300E008E16862FFF762FD074604E0AB
:1009C000FFF75EFDC01B022899D8686A8007F7D53B
:1009D0000FE0400840006862FFF752FD074605E05F
:1009E0009DE0FFF74DFDC01B022888D8686A80078C
:1009F000F7D4207804274007002860DA002001900F
:100A0000E869C00008D4E969B8060143E961E96909
:100A100001400120009101906D480168C90511D481
:100A20000168821511430160FFF72AFD009005E07F
:100A3000FFF726FD0099401A642870D864480068C2
:100A4000C005F5D5A06801280AD0002801D00528E6
:100A500010D0286A400840002862286AB84301E0A4
:100A6000286A30432862A068002812D0FFF708FDEA
:100A700000900AE0286A38432862F1E7FFF700FD9A
:100A80000099411A5348814249D8286A8007F5D510
:100A90000DE0FFF7F5FC009006E0FFF7F1FC009990
:100AA000411A4C4881423AD8286A8007F5D4019807
:100AB000002804D0E969012000078143E96120781A
:100AC000C00635D5606901280CD0401D686B23D065
:100AD00038436863686B400840006863FFF7D0FCE8
:100AE000064622E0686B38436863686B304368638E
:100AF000FFF7C6FC064604E0FFF7C2FC801B022895
:100B00005BD8686B8007F7D5686BF8218843A169CB
:100B1000C900084368630BE0B8436863F4E74CE03E
:100B2000FFF7AEFC801B022847D8686B8007F7D41C
:100B3000206A002846D069680907890F022943D036
:100B4000012636060228286805D0B0432860FFF742
:100B500097FC044633E0B0432860FFF791FC07465A
:100B600004E0FFF78DFCC01B022826D8286880010E
:100B7000F7D4E86AE16A000900010843E862616AA3
:100B8000A06A084369683D221204914308436860E3
:100B9000286830432860FFF773FC044604E0FFF741
:100BA0006FFC001B022808D828688001F7D509E0EF
:100BB000FFF766FC001B022801D90320FEBD286850
:100BC0008001F5D40020FEBD0120FEBD00100240D2
:100BD00000700040881300000422044904280869BA
:100BE00002D09043086170471043FBE700E000E04B
:100BF000094910B5401E884201D9012010BD074C9B
:100C000060610321081F00F045FB0020A061072060
:100C10002061002010BD0000FFFFFF0000E000E0A9
:100C20007047704770B5040005D025462035687FB1
:100C3000002802D006E0012070BD00202877204661
:100C400000F00AF802206877211D206800F0C6FB3A
:100C500001206877002070BD70470268D3680121C9
:100C60000B43D360006802680A43026000207047AB
:100C7000704770B50446006801690025C9438907BB
:100C8000002915DBC168C943890711D4E91E016138
:100C900001202077206880698007204602D0FFF776
:100CA000E7FF04E000F096F8204600F094F825777E
:100CB00020680169C943490717D4C168C943490776
:100CC00013D40421C9430161022020772068806980
:100CD0008005800F204602D0FFF7CAFF04E000F035
:100CE00079F8204600F077F8257720680169C94334
:100CF000090716D4C168C943090712D40821C9439A
:100D00000161042020772068C0698007204602D056
:100D1000FFF7AEFF04E000F05DF8204600F05BF85E
:100D2000257720680169C943C90617D4C168C9433A
:100D3000C90613D41021C943016108202077206817
:100D4000C0698005800F204602D0FFF791FF04E0C4
:100D500000F040F8204600F03EF825772068016951
:100D6000C943C90708D1C168C943C90704D1891E4D
:100D70000161204600F030F820680169C943090686
:100D800009D4C168C943090605D48021C94301615A
:100D90002046FFF745FF20680169C943490609D489
:100DA000C168C943490605D44021C94301612046B1
:100DB00000F01CF820680169C943890609D4C1689C
:100DC000C943890605D42021C94301612046FFF7A4
:100DD00028FF70BD7047704710B50068024988420F
:100DE00001D1FFF753FB10BD002C01407047704745
:100DF00001466031487A897A08437047F8B503683C
:100E00000446D96918680D072D0F07D18A0605D544
:100E1000820603D5204600F0B1FBF8BD9A68002D8C
:100E200064D0D507ED0FFF26213606402E435DD056
:100E3000CE0706D0C60504D501261E62E36E3343F5
:100E4000E3668F0702230426002F06DAD70704D0B3
:100E500027683B62E76E3743E7664F0706D5D20740
:100E600004D022681662E26E1A43E2660A0709D5C8
:100E7000202202402A4305D0236808221A62E36E2A
:100E80001343E366E26E002AC7D0890604D58006C4
:100E900002D5204600F072FBE06E000703D4206804
:100EA000806840061CD5204600F04CFB2068816815
:100EB000490611D58168402291438160606E002807
:100EC0000AD012494163606EFFF7FDF90028A4D0F3
:100ED000606E416B8847F8BD2046FFF788FFF8BD7C
:100EE0002046FFF784FF0020E066F8BD0A0605D51E
:100EF000020603D5204600F009FCF8BD4906FCD5E2
:100F00004006FAD5204600F02CFBF8BD311500084C
:100F100070B5040005D025466035687A002802D0F7
:100F200006E0012070BD00202872204600F026F85F
:100F30002420687220680168490849000160204641
:100F400000F05AFB0128EDD0606A002802D020464C
:100F500000F080FA206841680122D202914341608A
:100F6000206881680822914381602068016801221D
:100F700011430160204600F0D2FA70BD00B5006850
:100F8000124987B088421FD1114882690121890323
:100F90000A4382618069084005900C20009002207D
:100FA000019000200290032003900120049009206A
:100FB0006946C006FFF7BAF9002203211B20FFF79C
:100FC000E5FA1B20FFF7D8FA07B000BD0038014052
:100FD0000010024070B5034660339C7A202C39D152
:100FE00000290BD0002A09D0012584682D03AC42CA
:100FF00006D10669002E03D1CE0701D0012070BDB5
:101000001E7A012E26D001261E724165014640310E
:101010000A834A83FF22AC4204D10469002C07D121
:101020000D4A05E0002C04D10469002C00D07F2279
:101030008A830021C16622229A72197201688A6825
:1010400032438A6000680168FF2221321143016047
:10105000002070BD022070BDFF01000030B50068A7
:10106000124988420CD1124841880A0408D4024629
:101070004C0400231278002C06DA0A2A01D043809F
:1010800030BD0122D2030DE00D2A09D08C04A40C3E
:10109000084D491C89B22A5541806329EFD830BDDB
:1010A000012292031143418030BD0000003801400D
:1010B000380100204C020020FFB506460446603689
:1010C000707A83B00D46202858D1002D0CD0059899
:1010D000002809D00120A1680003814207D12069BE
:1010E000002804D1E80702D0012007B0F0BD307A13
:1010F000012843D0012030720020E0662120707268
:10110000FFF7BEF9019027464037059838820598C9
:10111000788218E0788A401E788206980090002233
:1011200080212046019B00F024FB002818D10120DB
:10113000A1680003814202D12069002812D02168F1
:10114000287808856D1C788A0028E3D106980090DD
:10115000002240212046019B00F00BFB002808D014
:101160000320C2E728882168C005C00D0885AD1C92
:10117000E9E72020707200203072B6E70220B4E761
:101180007047FEE710B58AB014220B496846FFF796
:101190000AF80021684600F020FE084C064920604D
:1011A0001422143105A8FEF7FEFF002105A800F067
:1011B00014FE60600AB010BD7031000830010020DC
:1011C000F0B51D4887B04269012189050A43426193
:1011D00042690A400592426949110A4342614269E3
:1011E0000A400592426949000A4342614069134C32
:1011F00008400926F6060590002221463046FFF7F2
:1012000039F90F4F002202213846FFF733F90094D5
:101210000024012501950294694630460394FFF7A6
:1012200085F802200090029469460195039438469F
:10123000FFF77CF807B0F0BD00100240F306000095
:101240000004004810B50D480B490160E121490236
:10125000416000218160C16001618161C1610C2236
:10126000016242614162FFF753FE002803D04E2124
:1012700003A000F0CBFA10BD00380140DC010020D3
:101280002E2E2F5372632F75736172742E630000BC
:10129000704700008307FF22DB0E9A408907090E82
:1012A000994000280BDA0007000F08388308084827
:1012B0009B001818C36993430B43C36170478308AD
:1012C00004489B001B181868904308431860704737
:1012D00000ED00E000E400E070470924E406012589
:1012E000FF265F36606968406061304600F060FD4F
:1012F000F8E710B500F069FD10BD70B594B000249A
:101300001020099402250490052001260095C004B0
:1013100003960A9008950B946846FFF7B3FA0028E5
:1013200000D0FEE707200C900E9401210D950F943C
:101330000CA8FFF7A3F9002800D0FEE710A810962C
:101340001294FFF727F9002800D0FEE7FFF748FACC
:101350007D21C900FEF700FFFFF74AFC0420FFF7DC
:101360003BFC03210022081FFFF710F914B070BDE9
:10137000134801680122114301604168114A11407C
:1013800041600168104A1140016001680122920425
:101390009143016041683F22120491434160C16A58
:1013A00009090901C162016BFF22143291430163F3
:1013B000416B49084900416300218160704700008A
:1013C000001002400CB8FF08FFFFF6FE10B50248FF
:1013D000FFF74FFC10BD0000B002002070B502689E
:1013E000174B184E984201D0B04203D17024A2434B
:1013F0004C682243144C154D984208D0B04206D098
:10140000134EB04203D0A04201D0A84204D103261B
:101410003602B243CE6832438026B2434E6932432D
:1014200002608A68C2620A688262984203D0A0425F
:1014300001D0A84201D1096901630121416170BD58
:10144000002C0140000400400044014000480140DD
:101450000020004010B5818CC90707D001684A6898
:1014600001235B049A43836A1A434A60818C89078B
:1014700007D501684A6801231B049A43C36A1A43CB
:101480004A60818C490707D501684A6801239B049B
:101490009A43036B1A434A60818C090707D5016898
:1014A0004A680123DB039A43436B1A434A60818CE9
:1014B000C90607D50268916801231B039943836B12
:1014C00019439160818C890607D501688A680123D8
:1014D0005B039A43C36B1A438A60818C490612D519
:1014E00003685A6801210905046C8A4322435A6043
:1014F000026C8A4207D10268516803235B05994355
:10150000436C19435160818C090607D501684A680C
:101510000123DB04806C9A4302434A6010BD002122
:10152000C1662022603042728272017208467047A2
:1015300010B5406A0022014640314A834A82FFF7D3
:1015400056FC10BD01680A68FF2321339A430A60E4
:1015500001688A68520852008A60202160308172D6
:10156000704710B501680A6840239A430A60202238
:1015700069210A54FFF704FE002010BD70B5024631
:10158000403203466033948B9D7A0168222D05D04A
:101590008869082210438861022070BD898C012669
:1015A00085683603B54202D10569002D0BD0214074
:1015B000446D651C45652170518B491E0904090C59
:1015C000518307D015E0456D21402980416D891C6C
:1015D0004165F1E701680A68FF242134A2430A60EB
:1015E00001688A68520852008A6020219972FFF7C8
:1015F00035FD002070BD0000F8B504462369A268DF
:10160000E6691A43636910213343002026681A43B0
:1016100033680546394F3B401343336023685A68AB
:1016200003263603B243E66832435A60236AA2694E
:1016300026681A43B3680B273F02BB431343B360CA
:101640002F4A126B9207920F06D0012A08D0022A65
:1016500008D0032A07D101E0002104E0022102E0C2
:10166000042100E008210122E369D203934224D13E
:1016700000290CD002290DD0042913D0082917D035
:101680000125010909010007400F084332E0FFF777
:10169000ADF809E061681B4A48088018FEF75CFD58
:1016A00080B2EEE7FFF7B2F8616840004A08F4E75D
:1016B0006168012248081204EFE7002908D00229D6
:1016C00009D004290BD008290ED001252846F8BDE1
:1016D000FFF78CF805E061680B4A480806E0FFF761
:1016E00095F861684A0801E0616848088018FEF7CB
:1016F00033FD80B22168C860E8E70000F369FFFFAE
:10170000001002400024F40000127A006921095CF4
:10171000212901D00220704702464032518A002917
:1017200012D0012381681B03994202D1016900296B
:1017300015D0C16C4B1CC364006809780185508AC0
:10174000401E50820020704701680A6880239A4337
:101750000A6000680168402211430160F2E7C16C31
:1017600003680988C905C90D1985C16C891CC16444
:10177000E5E7FFB581B017460E4604460A9D1DE019
:10178000681C1BD0002D05D0FEF77AFE0499401A84
:10179000A84213D920680168FF22A1329143016059
:1017A00020688168490849008160202060346072A7
:1017B000A07200202072032005B0F0BD2068C1692E
:1017C0003046884304D00020B842D9D00020F3E747
:1017D0000120F9E710B50348FFF710FB00F004F80B
:1017E00010BD0000DC01002010B50648FFF700FB2B
:1017F0002028FAD1012204490248FFF7EBFB002818
:10180000F8D110BDDC01002038010020FEE7000007
:101810000FB410B503A9044B044A029800F024F851
:1018200010BC08BC04B01847311D0008D8010020C6
:1018300030B47446641E2578641CAB4200D21D4649
:10184000635D5B00E31830BC184702E008C8121F54
:1018500008C1002AFAD170477047002001E001C199
:10186000121F002AFBD17047FFB591B00F46054605
:10187000002606E025280AD0149A139990476D1C7B
:10188000761C28780028F5D1304615B0F0BD00242C
:1018900000940121F34A029400E004436D1C2B786C
:1018A0000846203B98401042F7D128782A280ED0CD
:1018B000022128780246303A092A15D8009A0A23CC
:1018C0005A43303A80180C436D1C0090F1E701CF69
:1018D0000090002805DA01204003044300984042AC
:1018E0000090022004436D1C28782E2815D1042076
:1018F000044368786D1C2A280AD101CF6D1C029020
:101900000BE002990A225143303940186D1C0290B5
:101910002878014630390929F3D928786C2810D065
:1019200006DC4C281AD068280ED06A2817D104E0AB
:10193000742813D07A2812D110E001204005044306
:101940000CE00121090501E0032109050C43697838
:10195000814203D10120000524186D1C6D1C2878DC
:1019600003906E281ED00CDC632831D004DC0028E4
:101970008AD0582811D1B2E064287BD069280CD1D4
:1019800078E073282DD004DC6F2870D0702804D143
:10199000A7E075286CD078286BD0149A13999047DB
:1019A000761C62E06002400F022807D003280AD0AC
:1019B000042838680AD006603F1D56E03868F117E1
:1019C00006604160F8E738680680F5E70670F3E7DF
:1019D0003878694608740020487404A803900120F0
:1019E00003E0386803900020C0433F1D61070FD516
:1019F000002101E00199491C029A0191914213DAF8
:101A00008142F7DB019A0399895C0029F2D10BE04E
:101A1000002101E00199491C01918142FADB019A00
:101A20000399895C0029F5D101990098139A401A0D
:101A300000902146149B00F03BF90199801946184B
:101A400007E0039803990078491C0391149A1399AD
:101A500090470198401E0190401CF2D12146149BF2
:101A6000139A009800F014F986196D1C09E741E0FB
:101A700033E034E00A200021049005916002410F18
:101A8000022905D001CFC2179446032905D007E0EB
:101A9000FF1DFF08FF0003CF06E000B2C217944607
:101AA000042902D140B2C1178C46002261469445F8
:101AB00006DA0A460021404291418C462D2102E07F
:101AC000210504D52B216A461176012103E0E107A7
:101AD00001D02021F7E7019154E00A200BE010200B
:101AE00009E01020049000210420044308200591FF
:101AF000029003E008200021059104906002410F4C
:101B0000022905D001CF00229446032906D006E021
:101B1000FF1DFF08FF0003CF8C4603E080B20429BD
:101B200000D1C0B20021019121072BD50399702962
:101B300006D0049A1021059B4A401A4305D00EE0B6
:101B400040216A461176012108E06146014306D032
:101B500030216A4611760399517602210191049A47
:101B60000821059B4A401A430CD16146014301D12B
:101B7000610707D530216A4611760121019102994A
:101B8000491E02910399582904D037A103910FA946
:101B90000F910DE039A1F9E76146059B049AFEF724
:101BA00014FB039B8C469B5C0F9A521E0F92137082
:101BB00061460143F0D10F9807A9081A203003901D
:101BC000600704D5012000048443029801E001204D
:101BD00002900399884201DD401A00E0002041187C
:101BE0000290019809180098401A0090E00306D46A
:101BF0002146149B139A009800F05AF88619002089
:101C0000049008E006A9085C149A13999047049878
:101C1000401C761C049001998842F3DBE0030CD54C
:101C20002146149B139A009800F042F8861904E0AC
:101C3000149A302013999047761C0299481E0290FE
:101C40000029F5DC08E00F980F990078491C0F91E6
:101C5000149A13999047761C0399481E0390002903
:101C6000F1DCFBE6092801003031323334353637F8
:101C700038396162636465660000000030313233D8
:101C80003435363738394142434445460000000078
:101C9000F8B5044600251E461746880404D405E01E
:101CA00039462020B0476D1C641EF9D52846F8BD82
:101CB000FFB50446002581B01E46C80301D5302774
:101CC00000E02027880404D505E038460399B04792
:101CD0006D1C641EF9D5284605B0F0BD10B5FEF7A1
:101CE00016FB02A0FFF794FD10BD00003C6F6B3E99
:101CF0000000000070B50B4C002365693021A2691B
:101D00004843A1699142FCD0914201D2521A01E0AC
:101D10006E1AB218D3180A468342F2D302A0FFF714
:101D200077FD70BD00E000E03C6F6B3E00000000FE
:101D300013B5044B012269460348FFF7BDF900982B
:101D40001CBD0000FFFF0000DC010020FEF7A6FB29
:101D5000FFF7D3FAFFF734FAFFF774FA084841683F
:101D60000020884707A0FFF753FD01220B490C48CC
:101D7000FFF730F9FFF706FA00F022F8FEE700005F
:101D80003C00002020636F6E74726F6C6C65722073
:101D9000696E6974206F6B0D0A3E3E0038010020A9
:101DA000DC01002001460020842900D0C81C7047B7
:101DB00010B5002800D1012001F052F8002010BD1C
:101DC00010B501F065F8002010BD10B501F00CF958
:101DD000012801D001F0CEF810BD3EB50446082020
:101DE0000D46205EFFF7DEFF02A901910090208AD8
:101DF0002B4682B22168606801F0CEF8012801D03C
:101E000000203EBD02983EBDF8B5134C0F46E66873
:101E100005462068001D00F085FF681C07D1002FD3
:101E200005D021680D48091D00F0B4FFF8BD2068F9
:101E3000751945602168B54204D2A06B091D00F0F8
:101E400091FFF8BD606B091D00F08CFFA06A854210
:101E5000F7D2A562F8BD000060010020CC0B002085
:101E6000F8B5054600F0A2FF294CA068401CA06010
:101E70002068284F002803D06069002827D02CE074
:101E80002560A068012828D1002614207043C019BD
:101E900000F05AFF761C072EF7D31E488C3000F056
:101EA00053FF1C48A03000F04FFF1A48B43000F038
:101EB0004BFF1848C83000F047FF1648DC3000F0F0
:101EC00043FF14488C3060631430A06305E0206841
:101ED000E96AC06A884200D82560606A401C606276
:101EE000E86A2169884200D9206114214843C01959
:101EF000291D00F04FFF00F065FF6069002806D043
:101F00002068E96AC06A884201D200F09DFFF8BDEE
:101F100060010020F00A002070B5114E114C18E04D
:101F200000F0DCFF3068002817D001F0CBF800F09B
:101F30003DFFF068C568281D00F0F4FEA068401E53
:101F4000A0606068401E606000F03CFF284600F022
:101F50000BF860680028E3D170BD01F0B3F8F8E732
:101F6000B80B00206001002010B50446006B00F0A3
:101F700037FF204600F034FF10BD000001210E485D
:101F8000C902420705D0C01DC0080B4AC000821A12
:101F9000891A0A4A0023411809C20839C908C90028
:101FA000183A11604B600B600B1A0AC09360012055
:101FB000C0075360D0607047F00200205401002039
:101FC000044CFFF7A9FF20680128FAD900F03CFF74
:101FD000F7E70000F00A0020FFB581B00C9C9000EC
:101FE000236B001F1818C6080A9DF600700701D061
:101FF00072B6FEE723180A5C20331A750A5C002AC1
:1020000002D0401C1028F5D3204640300027009015
:10201000C770072D00D30625E562A764201D6564FF
:1020200000F09DFE2046183000F099FE2461072044
:10203000401B6462A061E764009807743046049A0C
:10204000019900F09FF820600B98002800D00460F0
:1020500005B0F0BD30B5114900E011460A68824272
:10206000FBD34B685C18844203D140681818486061
:10207000084643681C18944209D1084C103C246857
:10208000A24209D052689A1842600A681268026037
:10209000814200D0086030BD0460F9E7540100209F
:1020A0000648416B0968002905D0416BC968C968B9
:1020B0004968816270470021C943FAE76001002046
:1020C00003480068401C72B600D0FEE7FEE700003F
:1020D0005C010020F8B50546002700F0FFFE284E01
:1020E0003068002801D1FFF749FFF06805423FD171
:1020F000002D3DD00835680708D06807400F08213B
:10210000081A4519680701D072B6FEE7002D2FD0D6
:10211000706885422CD81A48103001460C6801E0DE
:1021200020460C466168A94202D221680029F7D1F5
:1021300031688C421CD007682168016060680837EC
:10214000411B102908D96019420701D072B6FEE779
:1021500041606560FFF77EFF61687068401A7060DB
:10216000B268904200D2B060F0680143002003C41E
:1021700000F0A8FF780701D072B6FEE73846F8BD38
:102180004401002010B50124031F24061C601B1FFE
:102190001960191F024B0B60143940380A6010BDDA
:1021A000C120000810B5411E0A290FD24100084A7B
:1021B00080008918283A801840398038C98FC06F4C
:1021C0000022FEF757F903A0FFF722FB10BD000025
:1021D000C40100206F6B000010B5411E0A290FD208
:1021E0004100084A80008918283A80184039803810
:1021F000C98FC06F0122FEF73DF903A0FFF708FB6E
:1022000010BD0000C40100206F6B0000034C20696A
:1022100080470120FFF7CCFDF9E700003C000020DB
:1022200030B595B0054613AB6A4603A900F0A4F992
:10223000002823D1694608711C4C14E0C0002168B5
:10224000001D085813AB02AA0BA900F095F900284D
:1022500014D103A90BA800F0A2FB002810D06946F6
:102260000879401C08716846217D00798142E5D8D3
:102270006946207D097988420DD1042015B030BD12
:102280006846017A0078814201D90220F6E7684663
:102290000079A075ECE701A9284600F031FA002882
:1022A000ECD16846007960750020E7E73C0000202B
:1022B000F0B5664C9BB0A07D217D814272D9C500EE
:1022C0002168281D085819AB10AA11A900F054F96B
:1022D00011A95FA0FFF79CFA002606AF33E0208B20
:1022E0000121B140084217D022215AA0FFF790FAED
:1022F000304600F06DFA011957A02431FFF788FA33
:10230000222154A0FFF784FA304600F061FA001948
:10231000B100243078500CE0304600F059FA001932
:10232000416AB0003950E07D00281ED04BA0FFF775
:102330006FFA10A80078401E864202D049A0FFF72D
:1023400067FA761CF6B210A800788642C7D346A07A
:10235000FFF75EFA607D0300FFF76AFA0B090D12C2
:10236000181E252D37414B57630040A0DFE720683A
:102370004059804755E0206841590698884750E009
:10238000206807994259069890474AE0206806AEAF
:10239000435907CE984744E0206806AE44590FCE13
:1023A000A0473EE050E00A980090206806AE4459ED
:1023B0000FCEA04735E00B990A9801910090206854
:1023C00006AE44590FCEA0472BE00AAB07CB6B46B5
:1023D00007C3206806AE44590FCEA04721E00AAEDD
:1023E0000FCE6E460FC6206806AE44590FCEA047EA
:1023F00017E00BAE0FCE01AE0FC60A980090206812
:1024000006AE44590FCEA0470BE00CAE0FCE02AE85
:102410000FC60B990A9801910090206844590FCE7D
:10242000A04713A0FFF7F4F90848E030007B00282C
:102430000AD006480A218030006FFDF78DFE0A465B
:1024400001460DA0FFF7E4F91BB0F0BD3C000020F1
:102450002573280025630000257300003058255897
:10246000000000002C00000029000000256C640022
:102470000D0A3E3E0000000046756E6374696F6E83
:102480002052756E2054696D653A25642E2531649D
:102490006D730D0A00000000F0B50446002094465C
:1024A00007460646054623782C2B04D0292B06D058
:1024B000002B04D005E0002D03D1012701E0002D01
:1024C00030D0002E04D0222B29D0002F2AD12EE08C
:1024D0001A46303A092A15D92D2B13D02B2B11D09F
:1024E000313A052A0ED92032052A0BD9582B09D0AA
:1024F000782B07D0222B0DD0202B22D02C2B20D0B4
:10250000FF260FE0002F0DD1612B00D3203B0B7075
:10251000491C16E0002F05D10126354611E00025A3
:10252000002F0ED000220A7061460E70F0BD002D03
:1025300007D05C2B02D1401CC0B2641C22780A7008
:10254000E6E7401CC0B2641CADE730B5002515704D
:102550000AE00C701478401C641CE4B2491C14702E
:102560009C4201D3012030BD0478202C01D0002CE6
:10257000EFD10D70002030BDFFB5002484B00120E4
:1025800003902546264622460294049816E0202908
:1025900011D053065B0E052B0DD2002A00D18022EC
:1025A00053065B0E042B01D12A290AD16F46521C17
:1025B000F954D2B201E0852A05D0401C01780029E7
:1025C000E5D1002A0DD051060027490E6846475430
:1025D00049A100F0E4F9002806D007980121017014
:1025E00000220027049B12E007980770F8E77F1C81
:1025F00058785B1CFFB2202801D02A2807D1184642
:1026000000F058F9282802D02A2800D03D46187832
:10261000282801D00028EAD10498002D01D04019C3
:10262000401C0025AC460178002916D0282904D08A
:10263000292908D0222914D018E06346002B15D18F
:10264000641CE4B212E06346002B0FD1002C04D0CE
:10265000641E2406240E01D010E00125012E38D07E
:1026600042E06346002B0CD000239C46002C0AD08D
:102670002C2910D0202921D028291FD0002A0FD0A2
:1026800018E00123F1E7202921D0059B1970059955
:10269000491C05911BE00121521CD2B203910DE0AF
:1026A000029B052B06D2029F6B46D9550299491C05
:1026B000C9B202910399491CC9B20391012C06D1F8
:1026C0000399022903D10321761CF6B20391401C21
:1026D000A9E7029A00206946885407A1684600F0DD
:1026E0005EF9002800D100260698067005990020A2
:1026F0000870284608B0F0BD766F696400000000DD
:10270000F3B50024314DB7B0214622466B18491C61
:10271000C9B29A760A29F9D303E04178401C00290E
:1027200013D001782829F8D1461C012735AA02A91F
:102730003046FFF7B1FE361830A8007D002807D0DC
:10274000012825D0FF2837D10CE0012039B0F0BD99
:102750006846007A00282FD036A902A800F0B2F807
:10276000002801D00220F1E7204600F031F840199E
:1027700036994162288B3946A1408843288304203A
:102780002919641CE4B288760A2C15D90320DDE7E8
:1027900002A800F01AF9401C0190204600F018F839
:1027A000411902A8243100F007F9288B3946A140CD
:1027B000084328830198E3E73078292801D00028CE
:1027C000B4D1389804700020C0E700003C0000201D
:1027D000024610B500200146054B05E05C18A47EBA
:1027E0002018491CC0B2C9B29142F7D310BD0000F5
:1027F0003C00002001490020C87570473C000020C3
:102800000246012000E050430B46491EC9B2002B8E
:10281000F9D17047F8B5164D2888010426D5154919
:10282000C0B20026144F0E54B968124888470400FD
:102830000FD0104800F0D4F8012801D0040014D0C3
:10284000012C09D0022C09D0032C09D0042C0CD166
:1028500008E0F868804708E008A004E00AA002E069
:102860000CA000E00EA0FEF7D3FF2E80F8BD000004
:102870003A0100204C0200203C000020BAAFCAFD03
:10288000B4EDCEF3210D0A00B2CECAFDB4EDCEF305
:10289000210D0A00B2CECAFDCCABB6E0210D0A0074
:1028A000CEB4D5D2B5BDC6A5C5E4B5C4BAAFCAFDD0
:1028B000210D0A00401C0178202901D10028F9D1FE
:1028C000C8B27047FCB500240D460A210091264687
:1028D00001462C600A781346303B092B14D9037843
:1028E0002D2B01D02B2B01D1002C0DD01346413BB9
:1028F000052B09D9582A04D01106090E16D001203B
:10290000FCBD012C02D0FAE7412A01D3102200922B
:1029100002782D2A04D02B2A04D0641CE4B203E0F0
:10292000022600E00126401C491CD3E70746009818
:10293000102802D0002C10D013E0032C01D202206A
:10294000FCBD3878302802D17878582801D003208F
:10295000FCBDA41EE4B2BF1C01E00420FCBD002CA1
:1029600001D0641EE4B2387801463038092801D815
:10297000019001E03739019121460098FFF740FFAF
:102980000199484329684018286079787F1C0029FC
:10299000E5D1022E01D1404228600020FCBD027822
:1029A0000B789A4201D001207047002A02D0401CC7
:1029B000491CF4E70020704702780A700278002A68
:1029C00002D0401C491CF7E7704700210278002A1A
:1029D00003D0491CC9B2401CF8E708467047000004
:1029E00070B58CB004461E236A4601A9FFF7ADFD01
:1029F0000990002875D16846007826180025684699
:102A00005B4C0570684600788000215801A8FFF7EC
:102A1000C6FF002806D069460878401CC0B208707E
:102A20000728EFD368460078524C0300FEF700FFFA
:102A300006040415345A7A9D4FA0FEF7E9FE4FA014
:102A4000FEF7E6FE5DA0FEF7E3FE62A0FEF7E0FE05
:102A500066A0FEF7DDFE6CA019E047A0FEF7D8FEE9
:102A600079A0FEF7D5FE684605700AE0C00021682F
:102A7000001D095884A0FEF7CBFE69460878401C6B
:102A800008706846217D00788142EFD86BE0FEF740
:102A9000BFFE00200CB070BD37A0FEF7B9FE7CA0D1
:102AA000FEF7B6FE6846057015E0C0002168001DFF
:102AB00008580BAB0AAA01A9FFF75EFD6946097821
:102AC0002068C900425801A981A0FEF7A1FE69460D
:102AD0000878401C08706846217D00788142E4D85F
:102AE00041E042E024A0FEF793FE6A4601A9304689
:102AF000FFF7D2FC68460078002829D109A901A86F
:102B0000FFF7E0FE69460870002802D004281FD1B4
:102B100002E074A009991FE075A0FEF779FE01207C
:102B2000E07520E014A0FEF773FE6A4601A9304666
:102B3000FFF7B2FC68460078002809D109A901A86E
:102B4000FFF7C0FE69460870002803D0042806D0AD
:102B500002209FE76BA00999FEF75AFE03E06CA0E4
:102B6000FEF756FEE57504A091E7012092E700000C
:102B7000000000203C0000200D0A00002D2D2D2D0E
:102B80002D2D2D2D2D2D2D2D2D2D2D2D2D2D2D2D75
:102B90002D2D2D2D55534D4152542056332E332D6E
:102BA0002D2D2D2D2D2D2D2D2D2D2D2D2D2D2D2D55
:102BB0002D2D2D2D2D2D2D200D0A00003F3A2020EA
:102BC00020202020BBF1C8A1B0EFD6FAD0C5CFA2FB
:102BD0000D0A000068656C703A202020BBF1C8A186
:102BE000B0EFD6FAD0C5CFA20D0A00006C6973749D
:102BF0003A202020BFC9D3C3B5C4BAAFCAFDC1D0E3
:102C0000B1ED0D0A0A0000002D2D2D2D2D2D2D2D9D
:102C10002D2D2D2D2D2D2D2D2D2D2D2D2D2D2D2DE4
:102C20002D2D414C49454E54454B2D2D2D2D2D2DEF
:102C30002D2D2D2D2D2D2D2D2D2D2D2D2D2D2D2DC4
:102C40002D2D2D200D0A00002D2D2D2D2D2D2D2D5E
:102C50002D2D2D2D2D2D2D2D2D2D2D2D2D2D2D2DA4
:102C60002DBAAFCAFDC7E5B5A52D2D2D2D2D2D2DC6
:102C70002D2D2D2D2D2D2D2D2D2D2D2D2D2D2D2D84
:102C80002D2D2D2D200D0A0025730D0A00000000AA
:102C90002D2D2D2D2D2D2D2D2D2D2D2D2D2D2D2D64
:102CA0002D2D2D2D2D2D2D2D2DBAAFCAFD204944B2
:102CB000202D2D2D2D2D2D2D2D2D2D2D2D2D2D2D51
:102CC0002D2D2D2D2D2D2D2D2D2D2D2D200D0A00B1
:102CD00025732069642069733A0D0A30582530380D
:102CE000580D0A004845583A305825580D0A00003A
:102CF0003136BDF8D6C6B2CECAFDCFD4CABE210D7C
:102D00000A0000004445433A256C750D0A00000096
:102D10003130BDF8D6C6B2CECAFDCFD4CABE210D61
:102D20000A0000004368826801699A60836842680B
:102D30005A604A68824201D182684A600022026178
:102D40000868401E08607047014608310022416053
:102D5000D243C1608260016100210160704700219F
:102D60000161704730B50B685A1C02D00246083228
:102D700002E0026904E02246546825689D42FAD9BF
:102D800053684B6099608A60516008610168491C12
:102D9000016030BD42684A6093688B6093685960F7
:102DA000916008610168491C0160704772B604486F
:102DB0000168491C0160BFF34F8FBFF36F8F7047ED
:102DC0005C01002005490868002804D0401E086006
:102DD00000D162B6704772B6FEE700005C010020C9
:102DE00070B500281AD004460D4D083C6068E968AB
:102DF000084201D172B6FEE72268002A01D072B6FD
:102E0000FEE78843606000F069F860686968401810
:102E100068602046FFF71EF900F054F970BD00000D
:102E20004401002010B506487D21C9000068FDF767
:102E300093F90449401E48610720086110BD000055
:102E40004001002000E000E0012004490007486044
:102E5000BFF34F8FBFF36F8F7047000000ED00E0AE
:102E600010B502000FD00948006B002801D072B6DF
:102E7000FEE700F033F800211046FEF7C5FF00F032
:102E800021F9002801D1FFF7DFFF10BD600100200C
:102E90001CB50E4800240190234660220CA100942A
:102EA0000D4800F079F8012803D0401C0CD172B60F
:102EB000FEE772B600210548C9432C388162012122
:102EC0004161C46000F03EF81CBD00008C01002090
:102ED00049444C4500000000C11F00080248016B36
:102EE000491C0163704700006001002010B51348C1
:102EF000016B002902D00121C16110BD0021C16117
:102F000001690F4A02E0002915D0491E14234B43E2
:102F1000D358002BF7D014234B439A185368144608
:102F20005B6808345360A34201D15B685360DA6880
:102F30000260016110BD72B6FEE700006001002072
:102F4000F00A002010B50948016AFF22120411435B
:102F50000162016A120211430162FFF763FF044933
:102F600000200860FDF7AEF8002010BD00ED00E085
:102F70005C01002010B5FDF7B9F8044600F044F8F4
:102F8000002803D001200349000748602046FDF7D0
:102F9000B1F810BD00ED00E0FFB585B01646900019
:102FA0000F9FFFF797F805001AD05420FFF792F80B
:102FB000040012D0256300210E9803910197009020
:102FC00002943246089B06990598FFF705F82046BB
:102FD000FEF746FF012009B0F0BD2846FFF700FFCD
:102FE0000020C043F7E7000006484169002904D0EB
:102FF000006B002803D0002070470120704702209A
:103000007047000060010020F8B52C4C0027206BB1
:10301000002808D0A069401CA061E069002800D009
:1030200001273846F8BDE668761CE6600ED1606B75
:103030000068002801D072B6FEE7606BA16B616387
:10304000A063206A401C2062FFF72AF8A06A86422B
:103050000AD3606B0068002810D0606BC068C56838
:10306000686886420DD2A06220681421C06A484375
:10307000134908580128D0D90127CEE70020C043C2
:10308000F1E7281DFFF74EFEA86A002803D0284666
:103090001830FFF747FEE86A2169884200D92061AD
:1030A0001421484306494018291DFFF773FEE86ABA
:1030B0002168C96A8842CCD30127CAE76001002091
:1030C000F00A0020F8B5284C0025206B2E46002879
:1030D00008D0FFF76BFE206B401E2063206B00289A
:1030E00002D03DE072B6FEE7A168204F00291DD155
:1030F00036E0F868C56828461830FFF713FE281D2B
:10310000FFF710FEE86A2169884200D92061142186
:1031100048431649B4394018291DFFF73BFEE86AB9
:103120002168C96A884201D30120E061386800281B
:10313000DFD1002D01D0FEF7B3FFA569002D09D026
:103140000127FFF761FF002800D0E7616D1EF8D16D
:103150000020A061E069002802D00126FFF774FE7C
:10316000FFF730FE3046F8BD60010020A40B0020C0
:1031700058320008DB1200080000000000000000C8
:10318000600000004C3200080D2200080000000022
:1031900000000000600000000000000000000000CF
:1031A00001020304060708090000000001020304ED
:1031B0003F000000646563006964000072756E740E
:1031C000696D650068656C70000000006C6973745F
:1031D0000000000068657800766F69642072656C95
:1031E00061795F636C6F73652875696E74385F749D
:1031F000206E756D6265722900000000766F69644B
:103200002072656C61795F6F70656E2875696E7488
:10321000385F74206E756D6265722900766F69641F
:103220002064656C61795F6D7328753136206E6D31
:1032300073290000766F69642064656C61795F753D
:103240007328753332206E75732900006D795461CF
:10325000736B30310000000064656661756C7454F6
:1032600061736B008432000800000020DC01000064
:1032700070020008F0320008DC010020040E00009B
:103280005A18000813B0311B08C4041ACC041AB829
:10329000041AD4041AB4041ABC0413DD1C14081C48
:1032A000321B08F5081A340813A5211B08D8181A70
:1032B000D9081AFC08221C1420F527140821221B07
:1032C00008B10413152823080402ED010319127A2A
:1032D0001AAA01013FBA4804DA0410590412101A5C
:1032E0002002128022021A04052B02400A3100003B
:04000005080000B13E
:00000001FF
