:020000040800F2
:100000008807002079020008AD6000081D4B000839
:100010001B5A0008DD2600082B81000800000000A4
:100020000000000000000000000000005D750008F6
:10003000C945000800000000356100087D7B00080C
:10004000930200089302000893020008930200083C
:10005000930200089302000893020008930200082C
:1000600093020008930200088D47000893020008DD
:10007000930200089302000893020008930200080C
:1000800093020008930200089302000893020008FC
:10009000930200089302000893020008E147000859
:1000A00093020008930200089302000893020008DC
:1000B00093020008930200089302000893020008CC
:1000C00093020008930200089302000893020008BC
:1000D00093020008757E000893020008930200084E
:1000E000930200089302000893020008930200089C
:1000F000930200089302000893020008930200088C
:10010000930200089302000893020008930200087B
:10011000930200089302000893020008930200086B
:10012000930200089302000893020008930200085B
:1001300000F002F800F090F80AA090E8000C824469
:100140008344AAF10107DA4501D100F085F8AFF246
:10015000090EBAE80F0013F0010F18BFFB1A43F0A5
:100160000103184784920000A4920000103A24BFB3
:1001700078C878C1FAD8520724BF30C830C144BF0C
:1001800004680C607047000000230024002500264E
:10019000103A28BF78C1FBD8520728BF30C148BFEA
:1001A0000B6070476E2900F02982702900F06B8384
:1001B000662908F06487652908F06187672908F0D7
:1001C0005E876129AFF3008003681B0A28BF41F0F6
:1001D0008001692900F0D681642900F0D381752956
:1001E00000F0D0816F2900F0F882782900F0378381
:1001F000E92900F09382E42900F09082F52900F0CB
:100200008D82EF2900F0F582F82900F0368303682B
:10021000DB0928BF41F08001632900F06D87732955
:1002200000F07287E32900F07D87F32900F08287D0
:10023000002070471FB500F09BFC04000020002147
:1002400008F0B8FA401C60600020002108F0C8FAED
:10025000E0601FBD10B510BD00F0BEFF1146FFF7F6
:10026000E9FF08F073F901F00BFB03B4FFF7F2FFAD
:1002700003BC01F043FD00000948804709480047DE
:10028000FEE7FEE7FEE7FEE7FEE7FEE7FEE7FEE746
:10029000FEE7FEE704480549054A064B70470000A3
:1002A0008D7B0008310100088801002088070020AC
:1002B00088030020880300201CB50C46064B7B44B5
:1002C00069460090204600F0B2F9044600206946D5
:1002D00000F0C0F920461CBD930300002DE9F04753
:1002E00091460F4680460446002614F8015B2DB166
:1002F00000F0DAF80068405DC007F6D12B2D02D07F
:100300002D2D18D0641E4A463946204600F08AFB3F
:1003100027B13968A14201D1C7F800804FF002042B
:1003200071050BD54042002803DD00F0C5F80460DC
:10033000A007BDE8F08746F48066E4E70028F8DA15
:1003400000F0BAF804606FF00040F2E710B5431C0B
:1003500002E010F8011B71B18107FAD14FF00132B0
:1003600002C88C1A8C4314EAC211F9D0C01A0A06CA
:1003700003D0C01E10BDC01A10BD0A0401D0801EDB
:1003800010BD0902FCD0401E10BD40EA010370B54B
:100390009B072ED14FF00136042A2AD308C810C972
:1003A0009D1B9D43121F15EAC61517D0D8B2E1B2A6
:1003B000401A50EA056110D198B2A1B2401A50EA31
:1003C00005410AD123F07F4024F07F41401A50EAD2
:1003D000052102D1180EA0EB146070BDA342DBD042
:1003E00018BA21BA884201D9012070BD4FF0FF3000
:1003F00070BD0AB9002070BD10F8013B11F8014B27
:1004000063B1A3420AD1521E08D010F8013B11F883
:10041000014B1BB1A34201D1521EEDD1181B70BD7F
:100420004FF0013C50F8042B51F8043B9A4221D183
:10043000A2EB0C03934313EACC1317D150F8042B0F
:1004400051F8043B9A4215D1A2EB0C03934313EAF3
:10045000CC130BD150F8042B51F8043B9A4209D12C
:10046000A2EB0C03934313EACC13DBD04FF0000054
:10047000704700BFD01A01BAB1FA81F101F018013A
:1004800022FA01F0CB40C1F12001DBB2C0B2C01AA8
:100490002CFA01F3D11A914311EAC311E6D1704746
:1004A000704770477047000010B500F061FB001DF9
:1004B00010BD00BF018300000048704724010020E8
:1004C00070B5044685690068C10601D5302600E094
:1004D0002026C00707D070BDD4E9012130469047DF
:1004E000206A401C20626D1EF6D570BD70B50446B2
:1004F00085690078C00707D170BDD4E901212020AB
:100500009047206A401C20626D1EF6D570BD0968B8
:100510004A0501D540B27047C905FCD500B2704705
:1005200009684A0501D5C0B27047C905FCD580B23B
:10053000704770B50C460546012A05D0287880061C
:1005400000D5EA69002302E0012305E05B1C934229
:1005500002D2E05C0028F9D1A869E618C01AA861A7
:10056000286A184428622846FFF7AAFF04E0D5E964
:10057000012114F8010B9047B442F8D32846FFF745
:10058000B5FF70BD2DE9F0410646002410687529BD
:10059000314616A510D0FFF7BAFF002802DA404214
:1005A00013A507E031688A0701D512A502E04907C3
:1005B00004D511A5012401E0FFF7B2FF00210A22B2
:1005C00006F1240709E0B0FBF2FCB0FBF2F302FBFA
:1005D0001C00303078541846491C0028F3D12346BB
:1005E0002A463046BDE8F04100F014BB0000000090
:1005F0002D0000002B0000002000000011680268A0
:10060000006A530501D508700AE0D30501D50880BA
:1006100006E0130603D5C217C1E9000200E0086036
:100620000120704701694A1C02610878704700B5D3
:100630008FB0CDE901310021059105497944CDE91B
:1006400003101146684600F029F90FB000BD000004
:10065000E5FFFFFF0A6802F8010B0A60704700001F
:100660002DE9FF5F15468A460446DFF8AC80F84462
:100670000027D8E900103E46CDE9001010E03AF816
:1006800016106A4602A800F087FD411C07D02178A9
:10069000890603D5E269391891420DD80744761CC2
:1006A0002078800602D5E069B84205DDAE42E6DB7F
:1006B0003AF816000028E2D1A069C01BA0612046CC
:1006C000FFF7FEFED8E90010CDE90010002017E08A
:1006D0003AF818106A4602A800F05EFDB0F1FF3F3C
:1006E00081460BD000250DF1080B05E0D4E901216E
:1006F0001BF8050090476D1C4D45F7D308F101002C
:10070000B0428046E4DB206A384420622046FFF78E
:10071000EDFEBDE8FF9F00006E8B00002DE9F0416B
:100720008046D21D22F007020025D2E90002F529F9
:1007300015A614D0011E72F1000106DA0023D0EBD9
:10074000030063EB020211A608E0D8F800108B0743
:1007500001D50FA602E0490701D50EA601251146D5
:10076000002408F1240704E000F006FA30323A557C
:10077000641C50EA0102F7D12B463246214640461E
:10078000BDE8F04100F046BA000000002D00000076
:100790002B0000002000000030B4002100F12404F0
:1007A00008E002F00705D208303542EA4372DB0860
:1007B0006554491C52EA0305F3D10468002310A2D2
:1007C000250707D5A40600D421B1C46901230DA2D1
:1007D000641EC46130BC00F01DBA10B50446214649
:1007E0001068FFF79DFE02462046BDE8104000233A
:1007F000D2E7D21D22F00701D1E90023CCE70000A7
:100800000000000030000000F0B40D46018809052A
:1008100002D5214C7C4402E01F4C7C440E34002164
:1008200000F1240608E002F00F071209E75D42EA32
:1008300003721B097754491C52EA0307F3D102786B
:100840000023120704D5702D06D009B102231134FC
:100850002246F0BC00F0DEB901231034F8E770B591
:1008600004460D4621461068FFF75AFE0246294607
:100870002046BDE870400023C6E7D21D22F00703E2
:10088000D3E90023C0E70368126843F02003036044
:100890000823C3610023B7E7D08900002DE9F05F8A
:1008A000894604464FF0000ADFF874B1FB44C0F8F3
:1008B00020A02046E1688847002874D0252806D06B
:1008C000D4E901219047206A401C2062F1E700260C
:1008D0005F462046E16888472028054607DB312D22
:1008E00005D2781910F8200C08B10643F1E7B007DB
:1008F00001D526F00406C4F81CA00027C4F818A0EF
:100900002A2D09D0284607F08CFD38B304EB870860
:10091000303DC8F8185019E059F8041B204604EB84
:1009200087029161E1688847012F054618D1E06987
:10093000002820DA26F020061DE0D8F8180000EB89
:10094000800005EB40003038C8F818002046E16808
:100950008847054607F065FD0028EED1012F0AD033
:100960002E2D08D12046E16888477F1C0546022FBE
:1009700046F02006C4DBA069002803DA404246F0B6
:100980000106A061F00701D026F010066C2D0BD0F7
:10099000682D09D04C2D39D06A2D35D0742D35D025
:1009A0007A2D33D016E038E0E1682F46204688479C
:1009B000B842054609D16C2F26D04FF48060E1681B
:1009C000064320468847054604E06C2F1AD04FF4B2
:1009D000807006430DB3A5F14100192802D82035D7
:1009E00046F400664A462946204626604E46FFF7F2
:1009F000D9FB80B101280BD0F61D26F0070000F1CD
:100A0000080956E74020E4E78020D8E70020D6E731
:100A100006F104094DE7284652E7206ABDE8F09F39
:100A2000608900002DE9F05F824615468B4600275D
:100A30000AF10104B9460078302801D09DB113E0D5
:100A400014F8010B0127782803D0582801D045B1AC
:100A50000AE00DB1102D07D1002714F8010B102565
:100A600002E0082500E00A250026B0460EE005FB5E
:100A7000080005FB06F101271FFA80F801EB10467C
:100A8000B6F5803F00D3B94614F8010B294600F0B3
:100A900055FB0028EBDABBF1000F05D00FB1641E47
:100AA00000E05446CBF80040B9F1000F06D0FFF744
:100AB00003FD02210160C81EBDE8F09F48EA064020
:100AC000FAE700000FB4002300B589B00CA900912B
:100AD0000B99CB60214B7B440693214B7B440793BE
:100AE00004236FF00042CDE901321E4A7A446B467E
:100AF00008920246002008F024FB09B05DF814FBC0
:100B000070B506464FF0FF3015460C46324686B0AB
:100B10000091CDE9010169460020049004A8FFF787
:100B2000D1FF02460498211825B108B1084600E01B
:100B300020462860049800280DD0002A02DD009885
:100B4000884208D03246081B69460094CDE901046A
:100B500004A8FFF7B7FF06B070BD00007F060000D5
:100B60009706000013010000004870472401002090
:100B7000004870474401002030B5B0F10A024FEA46
:100B8000900E71F100034EEA817EB0EB0E0061EB36
:100B900091014FEA101E4EEA017E10EB0E0041EB70
:100BA00011114FEA102E4EEA016E10EB0E0041EBD0
:100BB00011214FEA104E4EEA014E10EB0E0041EBB0
:100BC0001141401841F100014FEAD00040EA417064
:100BD0004FEAD10110EB80054FEA810444EA90749A
:100BE00044EB01046D1944EB0404521BA3414FF084
:100BF000000348BF0A3200D530BD401C41F100015E
:100C000030BD10B50446FFF74FFC0068005D00F0F2
:100C1000010010BD2DE9F0470D4699469246044665
:100C200000F124080168880604D5E06921F010016C
:100C3000216000E00120A84201DD471B00E0002701
:100C4000A1697A1902EB0900081AA0612078C00690
:100C500002D42046FFF734FC002608E0D4E9012145
:100C60001AF806009047206A401C761C20624E4508
:100C7000F4DB2078C0060AD52046FFF721FC06E009
:100C8000D4E9012130209047206A401C2062381EA0
:100C9000A7F10107F4DC07E0D4E9012118F8050009
:100CA0009047206A401C2062281EA5F10105F3DC54
:100CB0002046FFF71BFC2078000602D50220BDE885
:100CC000F0870120FBE770472DE9FF4F0C461E46D9
:100CD0004FF0FF378BB0D2E90001DDF860800A9059
:100CE0008A46C1F30A5505B93D46002108464FF032
:100CF0000000BAF1000F00F4400005DA00EB8000BC
:100D00004FF4400101EA50004FEA9059B9F1010F48
:100D100000DDB9460A9850EA4A000ED044F6105059
:100D2000A5F2FF3545432F14B8F1000F1ED07542D0
:100D3000291E1EDDC9F100021CE0B8F1010F4FF0C1
:100D4000000001D0302103E0F24305E02154401CB3
:100D5000B042FBDB30460022002121540B99C1F840
:100D60000880C1E900200FB0BDE8F08FBD1B6D1CED
:100D7000DEE74A4600DA694206A800F00FFD06AB3E
:100D800093E8070003AB83E8070050460A9900F098
:100D9000CFFF8DE80700A0F500501F3800900398A2
:100DA000002D0ADD42F21F014A460844002303A930
:100DB0000390684601F07AFA09E0A0F500504A462F
:100DC0001F38002303A90390684601F099FA8DE8C3
:100DD00007000004000C03D04FF0FF30410800E092
:100DE0001046B8F1000F03D00022009215461EE015
:100DF000751E05D4FFF7C0FE303262556D1EF9D561
:100E0000B3460122084302D000227F1C04E0207870
:100E1000302801D100227F1E002A099784D01DE0CE
:100E2000112D07DAFFF7A8FE303262556D1C50EA2B
:100E30000102F5D1084302D00098C8B10EE00021AC
:100E4000681E05E0235C625C63542254401E491C0A
:100E50008142F7DBAB46A81B401E0990002004F836
:100E60000B000B98099AC0F80880C0E9002B7AE7BC
:100E700011264FF0000857E72DE9F04F8846044649
:100E8000D21D22F0070191B0D1E90001CDE90A019C
:100E900007F032FA02460B98C00F01D02D2007E070
:100EA0002068810701D52B2002E0202101EAC00043
:100EB000032A099001D0072A05DB03464146204654
:100EC00000F0B0F90BE12078800601D5E06900E080
:100ED0000620B8F1650F814606D0B8F1660F18D02C
:100EE000B8F1670F70D131E00020B9F1110F009017
:100EF00001DB112301E009F101030AAA01A90CA8F1
:100F0000FFF7E2FEDDE90C70002609F101058346DA
:100F100047E001204B4600904FF000470AAA01A984
:100F20000CA8FFF7D1FEDDE90DB00C995D46002657
:100F300010B909F101000D18B9EB050003D4C0F197
:100F4000FF3609F10105A5EB09002BE0B9F1010F0E
:100F500001DA4FF001090020B9F1110F0090484665
:100F600001DD112300E003460AAA01A90CA8FFF73E
:100F7000ABFEDDE90C704D46002683462078000765
:100F80000AD4AB4500DA5D4601A8012D04DD411904
:100F900011F8011C302907D04F4502DA17F1040F70
:100FA00004DA012082460FE06D1EEEE7002F02DC1E
:100FB000ED1B3E4403E0781CA84200DD7D1CB81BFD
:100FC00000F1010A4FF000472078000703D4AA453A
:100FD00001DB4FF0FF3A0021B7F1004F0DF143085C
:100FE0008DF8431024D002202B23002F01DA7F42FA
:100FF0002D230A21021EA0F1010000DC5FB197FB46
:10100000F1FC97FBF1F201FB1C7C17460CF1300C54
:1010100008F801CDEEE7A8F1010003702188090569
:1010200001D5452100E06521A0F1010800F8011C6F
:1010300009980FA9A1EB0807FF1D00B10120411974
:1010400001EBEA70A1693844081A401EA0612078BB
:10105000C00602D42046FFF733FA099828B1D4E934
:1010600001219047206A401C20622078C00622D5CA
:101070002046FFF725FA1EE0002E04DBB34502DD13
:1010800001A8805D00E03020D4E901219047206A6A
:10109000401C2062761CAAF101005FEA000A0AD116
:1010A000FFF766FDC0680168405CD4E90121904704
:1010B000206A401C2062281EA5F10105DCDC07E047
:1010C000D4E9012118F8010B9047206A401C2062E6
:1010D000381EA7F10107F3DC2046FFF707FA0320CB
:1010E00011B041E610B5436913B1AFF3008001E0E0
:1010F000FFF71FFA012010BD127800F124010A70D9
:1011000000224A700122EDE711684FF0FF32E9E753
:1011100010B5436913B1AFF3008001E0FFF7A0FA07
:10112000012010BD128800F1240182840022C284B3
:101130000122EDE711684FF0FF32E9E73A2800D2CB
:10114000303820F02002412A01D3A2F13700884232
:1011500001D34FF0FF307047426842B1016811F887
:10116000013B23B1521EC0E900121846704701210D
:10117000C160881E704742685AB1C368016843B9AC
:1011800083688B4205D0491E521CC0E90012002022
:1011900070474FF0FF30704770B516460C46054655
:1011A000FFF782F9036893F80101012806D0FF2CAC
:1011B0000FD8185D68B101202C7070BDD3F80701FD
:1011C0003246214603F2071303442846BDE8704027
:1011D00018474FF0FF3070BD7546FFF7C5FCAE46AF
:1011E00005006946534620F00700854618B020B533
:1011F000FFF750F8BDE820404FF000064FF0000721
:101200004FF000084FF0000B21F00701AC46ACE8AE
:10121000C009ACE8C009ACE8C009ACE8C0098D461B
:10122000704700002DE9F0411F460446032601687F
:10123000072A01F4006004DB08B116A505E016A535
:1012400003E008B115A500E015A521F0100020600D
:10125000A069C01EA0610FB1401EA0612046FFF72B
:101260002FF94FB1D4E9012138469047206A401C3C
:101270002062C01C206206E0206AFAE7D4E901215E
:1012800015F8010B9047761EF8D22046FFF72EF98D
:10129000BDE8F0814E414E006E616E00494E460041
:1012A000696E66002DE9FF4F06468BB00878FF286F
:1012B00006D0491C2D2805D000244FF0000908E075
:1012C00000200CE00124F8E709EB8903491C00EB3E
:1012D00043090878FF28F7D114B1C9F1000081460D
:1012E000107800252C46AA4629462D2801D02B2807
:1012F00004D1521C2D2813D0002082468B46107832
:10130000FF280FD04FF0000C0A21521CA5FB0178DA
:1013100004FB018105FB0C11C5194BEB0104EEE741
:101320000120EAE7002108464FF00000BAF1000F63
:1013300002D000EB80004008C0F38157012F01DD8F
:101340004FF0FF370E9955EA040009EB01080BD066
:101350004FF0020918F5FA7F16DA4FEACA70002F2B
:10136000706008DD012007E04FEACA70C6E900B0EE
:101370000FB0BDE8F08F00203060FFF79DF8C0F897
:1013800000901821084616E0B8F5FA7F18DD002F06
:1013900002DAF748784401E0F6487844D0E90010D2
:1013A000C6E9001040EACA707060FFF785F8C0F81F
:1013B0000090142108460FB0BDE8F04F07F05CBE66
:1013C000002108464FF00000B8F10001099002DA50
:1013D000C7F1000200E03A4601DAC8F1000106A8B0
:1013E00000F0DCF906AB93E8070003AB83E80700E5
:1013F00044F23E005BEA04010090584604D144F2F6
:101400001E012C465D460091210C0904014306D1C2
:101410000099240444EA15442D041039009104F085
:101420007F41014306D10099240244EA15642D024C
:101430000839009104F07041014306D1009924015C
:1014400044EA15742D01091F009104F04041014345
:1014500006D10099A40044EA9574AD00891E00915C
:1014600004F00041084304D100986D196441401E06
:1014700000904FF001033A466846B8F1000FCDE9FD
:10148000014503A902DD00F050FF01E000F023FF59
:10149000BAF1000F04460D4601D084F0004400214B
:1014A00008464FF00000099940F2FF77484010F0DD
:1014B0000C0F07D124F00040284303D0C4F30A5096
:1014C000B84212D1FEF7F8FFC0F80090C4F30A50FA
:1014D000B8420AD1A8487844D0E90010C6E9001003
:1014E00004F000410843706042E7C6E900543FE75A
:1014F0002DE9FF4F1F464FF0000A4FF0FF384546D9
:1015000091B0D7E90146CDF83CA0FFF731FBC068A8
:101510000168405C1090B96912986D1C8847396A5F
:10152000814688470028F6D1B9F1FF3F0AD0002E46
:1015300024F4D06411DDB9F12B0F08D0B9F12D0FCF
:101540000BD102E0404615B013E744F48064B9695A
:1015500012986D1C8847761E8146600504A901D546
:101560002D2000E02B20002E01F1010B0DF13008A1
:101570008DF810003FDDB9F1690F08D0B9F1490FBE
:1015800005D0B9F16E0F02D0B9F14E0F1CD13B4618
:1015900001A8009580E85002DDE912126FF0020008
:1015A00007F0D3FDC11CCED10EE0B96912986D1CB5
:1015B000884781461398761E44F4007405600F989E
:1015C000401C002E0F9016DDB9F1300FEDD0B9F1AF
:1015D000780F02D0B9F1580F0DD10F9801280AD118
:1015E0003B46CDE90054DDE91212001F029607F0D8
:1015F000AAFDC11CA7D1109989453ED144F08004B1
:1016000006E01399681CAAF1010A44F4007408600A
:10161000B9696D1C1298761E884730288146F0D033
:101620002BE01099894505D1200603D4761E44F09D
:10163000800418E0484606F0F4FE08B3761E0DF16B
:1016400023018B4544F4007408D2A9F130000BF853
:10165000010B200607D5AAF1010003E0200602D401
:101660000AF101008246A00502D51399681C0860A2
:10167000B96912986D1C88478146002ED1DC53E071
:10168000002E51DDB9F1650F02D0B9F1450F4BD1F4
:10169000A00549D5B9696D1C1298761E24F44074D2
:1016A0008847002E81460CDD2B2804D0B9F12D0F80
:1016B00007D144F48074B96912986D1C8847761E6E
:1016C0008146E00501D52D2100E02B2108F8011B02
:1016D000CDF8008021E0761E0DF13901884544F4F3
:1016E00000740CD2A9F1300010F0FF0088F800005F
:1016F00002D10099884509D908F1010806E0E00502
:1017000001D51E4801E042F20F708246B969129875
:101710006D1C8847814613980560002E04DD4846FD
:1017200006F07FFE0028D6D1F96912988847FF207D
:1017300053468BF8000088F8000000200A900B90B8
:1017400004AA0CA90AA8FFF7ADFDA00502D46FF00A
:101750000100F8E614F0240F12D0E0071CD138681D
:10176000DDE90A12031D3B600068C0E9001213E0C6
:10177000788000006A8000002E7F0000F1D8FFFF13
:101780000AA9684606F0DCFDE00705D13868009A32
:10179000011D3960006802602846D4E62DE9F04753
:1017A000814616468AB0354878440DC88DE80D004C
:1017B00032487844801C03AC0DC884E80D0041F623
:1017C0009B300844372190FBF1F290FBF1F5A5F135
:1017D000800501FB12041B3C02D56442012000E09D
:1017E0000020DFF898A080460027FA44AAF1BE0A3C
:1017F0000EE0E0070AD03246684607EB47010123B6
:101800000AEB810100F07CFD8DE8070064107F1C6D
:10181000002CEED1194F7F44AE3F19E0E80715D0F8
:1018200007EB04100DF1180A90E80E008AE80E008C
:10183000C068F04201D1981908903246012306A9E8
:1018400003A800F05DFD03AB83E807006D10641C86
:10185000002DE3D14FF0010332466946B8F1000F85
:1018600003A802D000F022FD01E000F049FDC9E923
:101870000001C9F808200AB0BDE8F087F47A00003A
:1018800010B50446AFF300802046BDE81040FEF7D7
:10189000ECBC10B5FEF710FE006810BD10B5044694
:1018A000FEF70AFE046010BD2DE9FF4F1F464FF002
:1018B0003C0987B04FF00042DDE9141001F1010846
:1018C000DDF858A002EA40500390002005908346BE
:1018D000054604460490B969461E08988847AAF14F
:1018E000010A0290BAF1000F3BDD02982E2815D0B4
:1018F0001021FFF723FC00282EDB4FF0010B059988
:10190000014317D0B9F1000F0BDB4A46C11700F0B5
:10191000FBF905430C43A9F1040905E001200490FB
:101920000BE008B145F0010501200590049820B9AD
:10193000361D02E0049800B1361FB969089808F115
:1019400001088847BBF1000FAAF1010A0290C9D033
:101950000999C1F80080C5E70298702808D050287E
:1019600006D0F96908988847BBF1000F14D04FE002
:10197000002002900120BBF1000F049009D0B9694A
:10198000089808F101088847AAF10109B9F1000F88
:1019900007DCF969089888476FF001000BB0BDE8D3
:1019A000F08F2B2804D02D280CD14FF0FF3004905D
:1019B000B969089808F101088847A9F10109B9F146
:1019C000000FE6DD411CE4D00A21FFF7B7FB002839
:1019D000DFDB029908F1010801EB810100EB410016
:1019E0000290B969089888470A21FFF7A7FB099A6E
:1019F000A9F10109B9F1000FC2F8008001DD00284A
:101A0000E7DAF969089888470499029800FB0166AB
:101A100055EA040004D004F04041090002D006E079
:101A2000039898E0A40044EA9574AD00B61E04F053
:101A30000041080002D16D196441761E159810F01E
:101A4000240F03D04FF00B095C4803E04FF0280946
:101A50006FF07D008246564507DAAAEB06018944FD
:101A6000B9F1410F01DD4FF0410901200021A9F139
:101A7000010200F049F9024628400B462140084384
:101A800001D0012100E00021501E029143F1FF31FD
:101A900028402140084301D0012000E000200299A5
:101AA000834651EA0B014FD0002108464FF0000059
:101AB000039900F4400039B100EB80004FF440017D
:101AC00000EBD07001EA60008015012802DD4FF0C4
:101AD000FF3000E013D0401C36D0029860B3BBF159
:101AE000000F0CD14A460120002100F00DF92840DA
:101AF0002140084301D0012000E00020E0B1012096
:101B00004A46002100F000F9034640190A466141A7
:101B10002D1A8C4111D3B9F1400F09DD159810F041
:101B2000240F02D0AAF1340603E0AAF1170600E060
:101B3000761C00254FF0004406E05B1E42F1FF32A8
:101B400020EA030521EA0204CAF10100B04206DAE4
:101B50001B49039808430190002000900EE0039A6F
:101B6000C4F3D321E80A0A43164940EA44500A4321
:101B70003146CDE90002684606F048FC159810F0A1
:101B8000240F0BD01598C00715D13868DDE9001275
:101B9000031D3B600068C0E900120CE002A8694622
:101BA00006F0CEFB1598C00705D13868029A011DD2
:101BB0003960006802604046F0E6000002FCFFFF6A
:101BC0000000F07F0000F03F2DE9FF4F92461D46D8
:101BD00085B04FF00041DDE9124BDDE914727F1E44
:101BE00001EA4B50414940F0FF4940EA0108002119
:101BF00022F020004928049102D04E2828D04CE041
:101C00003BA0012607C88DE80700A9690698641C57
:101C100088477F1E014606D41DF8060018B121F042
:101C2000200181420BD0E96906988847032E34D001
:101C3000082E32D06FF0010009B0BDE8F08F761C9D
:101C4000032E01D0082EE0D1601CCAF80000DCE7AA
:101C5000A9690698641C88477F1E2AD420F02000BA
:101C6000412826D1A9690698641C88477F1E20D484
:101C700020F020004E281CD1A9690698641C8847D2
:101C80007F1E48F4002849F48009CAF8004001D4B6
:101C9000282806D0E969069888475FEACB7012D0F9
:101CA00022E0A9690698641C88477F1E01D4002899
:101CB00003DAE96906988847BCE72928F1D1641C52
:101CC000CAF80040E9E71BF0240F07D02868049900
:101CD000031D2B600068C0E9001805E02868021D9C
:101CE0002A600068C0F800902046A5E70000F07F59
:101CF000494E46494E4954590000000001491820F8
:101D0000ABBEFEE726000200B2F120030AD5C2F105
:101D1000200301FA02F120FA03F300FA02F041EA8B
:101D20000301704700FA03F14FF00000704770475D
:101D30005FEA400C08BF91F0000F4FEA8C234FEA96
:101D4000C12243EA51514FEA1C5018BF00F5F04040
:101D50004FEA300018BF41F000415FEA6C5C00F0D0
:101D60002980BCF1FF3F08BF40F080407047130C52
:101D700006BF12044FF0100C4FF0000C130E04BFFE
:101D800012020CF1080C130F04BF12010CF1040C29
:101D9000930F04BF92000CF1020CD30F04BF52004A
:101DA0000CF1010C11464FF00002A0F11F00A0EB56
:101DB0000C00704711F0004F08BF704731F0004130
:101DC0003FF4D5AF0B0C06BF09044FF0100C4FF0D9
:101DD000000C0B0E04BF09020CF1080C0B0F04BF22
:101DE00009010CF1040C8B0F04BF89000CF1020CEB
:101DF000CB0F04BF49000CF1010CCCF12003A0EB88
:101E00000C0022FA03F302FA0CF241EA030100F19A
:101E10000100704720F07F4C80EA030023F07F47E9
:101E2000ACEB070303F57C5300F0004003F1FF0324
:101E30002DE980494FEA154B09B44FEA144325EACE
:101E40000B4E24EA03480FF2042606EB1327490839
:101E50003E785FEA320203FB0667C7F5000707FB1F
:101E600006F64FEA54374FEAD64606F1020607FB5C
:101E7000066CCCF1005C4FEA1C472CEA074C07FBD0
:101E800006F40CFB06F504EB15464FEA961634BF34
:101E900000204FF000404FEAD13706FB07FC4FEA25
:101EA0001C4C0CFB0BF7D21B03FB0CF761EB07017F
:101EB0000CFB0EF7B0EB074072EB17420CFB08F778
:101EC00034BFA2EB0742B2EB074261EB17414FEA86
:101ED0000C444FEA910706FB07FC4FEA1C4C0CFB35
:101EE0000BF7B0EBC74072EB573203FB0CF734BF74
:101EF000A2EBC742B2EBC74261EB57310CFB0EF7C6
:101F0000B0EBC70072EB57720CFB08F734BFA2EBC3
:101F1000C702B2EBC70261EB5771039F4FEA8161C1
:101F200041EA921104EBCC044FEAD1374FEA8262C6
:101F300006FB07FC42EA90124FEA80604FEA1C4C15
:101F40000CFB0BF7D21B03FB0CF761EB07010CFB3F
:101F50000EF7B0EB074072EB17420CFB08F734BFEB
:101F6000A2EB0742B2EB074261EB17414FEA8C55F7
:101F70004FEA910704EB9C2406FB07FC4FEA1C4C3C
:101F80000CFB0BF7B0EBC74072EB573203FB0CF7BF
:101F900034BFA2EBC742B2EBC74261EB57310CFB37
:101FA0000EF7B0EBC70072EB57720CFB08F734BFAB
:101FB000A2EBC702B2EBC70261EB577115EB4C25E0
:101FC0004FEA816141EA92114FEA82624FEAD137CA
:101FD00042EA901206FB07FC44F100044FEA8060DD
:101FE0004FEA1C4C0CFB0BF7D21B03FB0CF761EB0D
:101FF00007010CFB0EF7B0EB074072EB17420CFB2E
:1020000008F734BFA2EB0742B2EB074261EB17417E
:1020100015EB1C154FEA813141EA92414FEA8232B9
:1020200042EA90424FEA80304FEA0C7644F10004D5
:1020300048EA03434EEA0B484FF0000EB2EB080C9F
:1020400071EB030724BF624639464EEB0E0E4FF08C
:10205000000B0018524149414BEB0B0BB2EB080C43
:1020600071EB03077BF1000B24BF624639464EEB50
:102070000E0E4FF0000B0018524149414BEB0B0B79
:10208000B2EB080C71EB03077BF1000B24BF624637
:1020900039464EEB0E0E51EA020718BF46F0010614
:1020A00016EB0E7655F1000254F1000103D5BDE8A0
:1020B0008901BDE80088BDE88901BDE80048B6197E
:1020C000524141EB0101A3F10103704780807F7E03
:1020D0007D7C7B7A7978777676757473727171709E
:1020E0006F6E6E6D6C6C6B6A6A6968686766666550
:1020F0006464636362616160605F5F5E5E5D5D5CDE
:102100005C5B5B5A5A59595858575756565555554E
:102110005454535352525251515050504F4F4F4EAE
:102120004E4D4D4D4C4C4C4B4B4B4A4A4A494949FC
:10213000484848474747474646464545454444443E
:1021400044434343434242424241414146EA0646F8
:10215000A3F570534FEA164646EA42564FEAD2229A
:1021600042EA415210B54FEAD121A3F1010300F038
:102170002FF820F0004000F1020C00F0004701EBC6
:1021800000501146BCF5006F40EA070000D210BDB8
:10219000BAF1000F0AD01CB503B44FF004004FF0A1
:1021A00004014FF000000FBCBDE810404FF00001EB
:1021B000BBF1010FB9BF04484FF0FF3103480021C4
:1021C00040EA070010BD00BFFFFFEF7F0000F07F77
:1021D000002B9C4630D477002BD01CB54FEA370734
:1021E00003B44FF010004FF01001BAF1000F06D009
:1021F000BCF1000FDCBF40F0080040F008014FF0D8
:1022000000000FBCBDE810400BF1010BBBF1010F4A
:1022100008BF5FEA170722BF12F1010211F10101A5
:102220004FF0004143F1000300F0004043EA00009A
:102230007047F9D35708D0E746EA064613F1400F36
:102240004FEA16461FDD13F1200FDFBF16430A4683
:10225000002120335B42BED0C3F1200746EA064688
:1022600002FA07F74FEA164646EA0706C3F12007C7
:1022700022FA03F201FA07F721FA03F14FF0000303
:1022800042EA0702A7E746EA020646EA06464FEA9E
:10229000164646EA0106BCBF46EA0646360C4FF033
:1022A00000034FF000024FF0000194E72DE9804C4D
:1022B0009A46934670B491E8380007C831EA400C5A
:1022C00048BF34EA430C03D5FFF7A4FDFFF780FFB6
:1022D000F0BCBDE8008C2DE9804C9A46934670B462
:1022E00091E8380007C831EA400C48BF34EA430C93
:1022F00003D5FFF78FFDFFF729FFF0BCBDE8008C89
:102300002DE9804C9A46934670B491E8380007C88E
:1023100010F0804F08BF13F0804F03D100F01AF87F
:10232000FFF756FFF0BCBDE8008C2DE9804C9A46C3
:10233000934670B491E8380007C810F0804F08BF8A
:1023400013F0804F03D100F005F8FFF7FFFEF0BC5B
:10235000BDE8008C20F07F4780EA030023F07F4C2B
:1023600007EB0C03A3F57C5300F00040A3F1FE0340
:1023700092F0000F00F0B38095F0000F00F077802E
:102380002DE901494FEA11404FEA144621EA00487D
:1023900000FB06FC24EA064708FB06F607FB08F8E4
:1023A00000FB07F718EB06484CEB164C4FEA124BB4
:1023B00018EB07484FEA15464CEB174022EA0B4E44
:1023C0000BFB06FC25EA06470EFB06F607FB0EFE96
:1023D0000BFB07F71EEB064E4CEB164C4FF00006BE
:1023E0001EEB074E4CEB174B18EB0B0840F10000AF
:1023F00018EB0E0B58EB000840F100008F1A4FF05D
:1024000000013CBFC943661B14BFB5EB040C00219F
:102410003CBFC943F61B4FEA17444EEA8E0E27EA2B
:1024200004454FEA1C4704FB07622CEA074C05FBF6
:1024300007F70CFB05F604FB0CFC16EB074642EB1A
:10244000174216EB0C4642EB1C421BEB060658EB00
:102450000202414146EA9E0601D5BDE80189B6194E
:10246000524141EB0101A3F10103BDE801894FEAAB
:1024700014454FEA114724EA054621EA074C05FBBB
:1024800007F406FB07F70CFB06F105FB0CFC11EB50
:10249000074144EB17444FEA124711EB0C4144EB60
:1024A0001C4422EA074C05FB07F206FB07F70CFB6E
:1024B00006F605FB0CFC16EB074642EB174216EB43
:1024C0000C4642EB1C456A1854F1000148BF7047A6
:1024D000B619524141EB0101A3F10103704795F098
:1024E000000F37D04FEA11424FEA144721EA024663
:1024F00024EA074C02FB07F106FB07F70CFB06F486
:1025000002FB0CFC14EB074441EB17414FEA154763
:1025100014EB0C4441EB1C4125EA074C02FB07F588
:1025200006FB07F70CFB06F602FB0CFC16EB074656
:1025300045EB174516EB0C4645EB1C42121951F1C1
:10254000000148BF7047B619524141EB0101A3F1A8
:10255000010370474FEA14454FEA114724EA054644
:1025600021EA074C05FB07F106FB07F70CFB06F217
:102570004FF0000605FB0CFC12EB074241EB174144
:1025800012EB0C4251EB1C4148BF7047921841EBD3
:102590000101A3F10103704710B502F0D7FB10BD94
:1025A00070B506460C46154608E03046721C96B2D9
:1025B00000F01DF804F8010B681E85B2002DF4D15F
:1025C00070BD2DE9F04107460C460026002509E0C4
:1025D00036023919491B491E88B200F008F8064432
:1025E000681CC5B2A542F3DB3046BDE8F08170B58A
:1025F0000446002602F05AFCA02002F023FC02F060
:10260000A1FC201202F01EFC02F09CFC2546E11702
:1026100004EB11610912A4EB0121C8B202F012FC13
:1026200002F090FC02F042FCA12002F00BFC02F050
:1026300089FC002002F0CEFB064602F05DFC30462D
:1026400070BD70B505460C46164606E02178284652
:1026500000F01EF8681C85B2641C301EA6F1010152
:102660008EB2F3D170BD2DE9F04105460E461746F6
:10267000002409E0E20026FA02F2D1B22A1990B24F
:1026800000F006F8601CC4B2BC42F3DBBDE8F08188
:1026900070B504460E4602F009FCA02002F0D2FB01
:1026A00002F050FC201202F0CDFB02F04BFC25465C
:1026B000E11704EB11610912A4EB0121C8B202F089
:1026C000C1FB02F03FFC304602F0BCFB02F03AFCDA
:1026D00002F012FC0A2005F0ABFE70BD00BFFEE761
:1026E00010B51848008800F40040002828D016488B
:1026F000007830B11548007818B915A005F0AEFB88
:1027000018E010480478002017490855084605F0DD
:10271000A5FB0A2005F078FB1348007818B911A032
:1027200005F09CFB06E0104804F0F6FB10B90FA082
:1027300005F094FB0FA005F091FB002001490880F3
:1027400010BD00000400002075000020980000204B
:10275000456D657267656E63792069732070726577
:10276000737365640A000000C00000203C4E413EC7
:102770000A0000003E3E000010B5044621461FA09E
:10278000FDF74EFE58B92048007818B11FA005F09B
:1027900065FB02E020A005F061FB012010BD214691
:1027A00020A0FDF73DFE30B921A005F057FB03F056
:1027B00037F90120F2E721461EA0FDF731FE58B996
:1027C0001F48007818B11FA005F048FB02E020A0C8
:1027D00005F044FB0120E1E7214620A0FDF720FEA3
:1027E00048B90020164908701F49086008A005F084
:1027F00035FB0120D2E70020D0E700006973206894
:102800006F6D65640000000081000020484F4D4559
:102810003C4F4B3E0A000000484F4D453C4E4F3E5A
:102820000A0000006D6F746F72207265736574002A
:102830003E3E0000697320737461727400000000F2
:102840007400002053544152543C4F4B3E0A000048
:1028500053544152543C4E4F3E0A00007465737409
:10286000206F766572000000980122420146002028
:102870007047000010B5044621463AA0FDF7D0FD90
:1028800070B901203D49086000203D49C1F884012C
:10289000C0203C4908603CA005F0E0FA012010BDD2
:1028A00021463CA0FDF7BCFD88B9002033490860F3
:1028B00001203349C1F8840140203249091F0860D2
:1028C0008020086039A005F0C9FA0120E7E7214619
:1028D00039A0FDF7A5FD88B90020284908602849DE
:1028E000C1F8840140202749091F08608020091D84
:1028F000086037A005F0B2FA0120D0E7214637A0E2
:10290000FDF78EFD50B90120394908700020394982
:10291000087039A005F0A2FA0120C0E7214638A0CE
:10292000FDF77EFD48B90020314908703149087033
:1029300031A005F093FA0120B1E7214635A0FDF75B
:102940006FFD68B92B480078012804D135A005F047
:1029500085FA0120A3E735A005F080FA01209EE763
:1029600000209CE76D65617375726520636F696C0B
:102970003120746F20636F696C320000B081214296
:1029800000802142141401403C43312D43323E0A61
:10299000000000006D65617375726520636F696C7E
:1029A0003120746F20676E64000000003C43312DBD
:1029B000474E443E0A0000006D65617375726520E4
:1029C000636F696C3220746F20676E6400000000D2
:1029D0003C43322D474E443E0A000000656E616262
:1029E0006C65207374617274206B6579000000005F
:1029F000A2000020A10000203C4F4B3E0A00000036
:102A000064697361626C65207374617274206B65B4
:102A100079000000726561647920746F20746573B9
:102A2000743F00003C5945533E0A00003C4E4F3E67
:102A30000A00000010B5044621463DA0FDF7F0FC59
:102A400050B901203E49087000203E4908703EA060
:102A500005F004FA012010BD21463DA0FDF7E0FC81
:102A6000E0B93F480078022809D101203D490870AB
:102A700000203D49087001203C49086009E03848C1
:102A80000078042805D1012039490870002039490F
:102A900008702DA005F0E2F90120DCE7214636A000
:102AA000FDF7BEFCD0B92E480078022808D10020DE
:102AB0002C4908702C49087001202C49086008E056
:102AC00027480078042804D10020294908702949A2
:102AD00008701DA005F0C2F90120BCE721462AA01C
:102AE000FDF79EFC10BB1E480078022802D0042887
:102AF0001CD10DE01C480078012804D126A005F067
:102B0000ADF90120A7E727A005F0A8F90120A2E769
:102B100018480078012804D11FA005F09FF9012072
:102B200099E720A005F09AF9012094E7002092E7A8
:102B30006D6F746F7220676F20686F6D65000000A5
:102B400085000020810000203C4F4B3E0A00000021
:102B5000627574746F6E20656E61626C6500000052
:102B6000980000209C0000209B0000208C01214246
:102B7000A2000020A1000020627574746F6E2064B2
:102B8000697361626C650000697320627574746FAB
:102B90006E206F6B00000000425554544F4E3C4F66
:102BA0004B3E0A00425554544F4E3C4E4F3E0A0095
:102BB00070B592B005460A222FA12846FDF7E5FB25
:102BC000002828D1119005F10A0600240A2211A933
:102BD0003046FDF783FB044611980078202815D174
:102BE000A4B1F62C12D20220009004F10A00800554
:102BF000010C4023119A521CA02002F03FF82146FC
:102C000020A005F0EFF8012012B070BD22A005F061
:102C100025F90120F8E70A2221A12846FDF7B5FB96
:102C200038BB0020119005F10A0600240A2211A9E0
:102C30003046FDF753FB044611980078A0B99CB1CB
:102C4000F62C11D20220009004F10A008005010C3C
:102C5000402301AAA02001F09FFF01AA214613A052
:102C600005F0C0F80120CFE70BA005F0F7F8012030
:102C7000CAE70020C8E700007361766520696E66C8
:102C80006F2000007361766520696E666F20256491
:102C9000204F4B0A000000003C4E413E0A0000005D
:102CA0007265616420696E666F2000007265616400
:102CB00020696E666F20256420252E3634730A0045
:102CC000F8B50446062246A1601CFDF75EFB00280D
:102CD0003ED12078303844490870084600780328EF
:102CE00031DA00200090E51D0A2269462846FDF7EA
:102CF000F5FA3D49097801EBC1013C4A02EB81013B
:102D000048600098401BC6B2002E1BDD042E19DC63
:102D10003548007800EBC00002EB80004168324883
:102D2000007804F079FC3048007800EBC0002F49AF
:102D300001EB800042682C4801782DA005F052F884
:102D40000120F8BD00BF2EA005F088F80120F8E7AB
:102D500009222DA12046FDF718FB00282FD1009055
:102D600004F109050A2269462846FDF7B7FA1F490A
:102D700048600098401BC6B2002E1BDD042E19DCF3
:102D80000846416881624168C1644168002004F0DE
:102D900043FC1648816A012004F03EFC1348C16CD4
:102DA000022004F039FC114841681AA005F01AF815
:102DB0000120C6E712A005F051F80120C1E719A1D2
:102DC0002046FDF72DFB40B90848C36C826A416874
:102DD00017A005F007F80120B3E70020B1E70000D5
:102DE0002320616363200000AB0000200800002066
:102DF000415B25642D25645D3C4F4B3E0A0000007D
:102E00003C4E413E0A000000616C6C23206163630C
:102E100020000000415B616C6C2D25645D3C4F4BD4
:102E20003E0A00006163632023616C6C00000000B7
:102E3000415B305D3C25643E2C415B315D3C25644B
:102E40003E2C415B325D3C25643E0A00F8B50446E9
:102E50000922214610A0FDF798FAD0B90020009071
:102E600004F109050A2269462846FDF737FA0646A5
:102E7000009800785D2807D10098407820B9304646
:102E800005F0B2F90120F8BD06A004F0E7FF01202B
:102E9000F9E70020F7E7000062617564726174650C
:102EA0005B0000003C4E413E0A00000070B5054644
:102EB000294619A0FDF7B4FA18B903F0BFFF0120A5
:102EC00070BD0422294615A0FDF75FFA10BB00244F
:102ED00009E0201D285C5D2803D10021201D295414
:102EE00003E0601CC4B20B2CF3DB00BF002C0CDD34
:102EF0000B2C0ADA201D285C38B9601D285C20B92B
:102F0000281D05F085F90120DAE706A004F0A6FFE8
:102F10000120D5E70020D3E766736E0066736E5B11
:102F2000000000003C4E413E0A00000010B504467F
:102F3000214605A0FDF774FA18B903F0FDF8012049
:102F400010BD0020FCE7000068656C700000000008
:102F5000F8B50446214615A0FDF762FA18B903F04A
:102F60007FFF0120F8BD0322214611A0FDF70DFAD5
:102F7000C8B900200090E51C0A2269462846FDF7E2
:102F8000ADF9C6B2009800785D2807D10098407866
:102F900020B9304605F050F90120E3E705A004F020
:102FA0005DFF0120DEE70020DCE70000687600001E
:102FB00068765B003C4E413E0A000000F0B585B0EB
:102FC000054624A12846FDF72BFAB0B900240BE0F2
:102FD000611CC8B201F0F6FC08B1312000E03020DD
:102FE0000DF80400601CC4B2122CF1DB69461BA072
:102FF00004F0F8FE012005B0F0BD04221BA1284614
:10300000FDF7C3F918BB002004902E1D0A2204A965
:103010003046FDF763F9C4B2049800785D2811D1F9
:103020000498407870B9002C0CDD122C0ADC204684
:1030300001F0C8FC07463A4621460EA004F0D2FE35
:103040000120D8E70FA004F009FF0120D3E70020FA
:10305000D1E70000696E707574730000494E5055D9
:1030600054533C252E3138733E0A0000696E745B60
:1030700000000000494E545B25645D3C256C643EB5
:103080000A0000003C4E413E0A0000007CB50546A7
:1030900009224BA12846FDF778F9002833D1687A38
:1030A00030384A49087008460078032826DA032198
:1030B0007C2004F091F9454909784A0002219140A9
:1030C000084008B1012000E000204049097801EBE8
:1030D000C1013F4A02EB810181F820003B480078A2
:1030E00000EBC000114601EB800090F8202037482B
:1030F000017838A004F076FE01207CBD39A004F0F0
:10310000ADFE0120F9E70A2238A12846FDF73DF976
:1031100098BBA87A30382D490870084600780328F3
:1031200026DA03217C2004F057F9284909784A005F
:1031300001219140084008B1012000E0002023490E
:10314000097801EBC101224A02EB810181F82100DB
:103150001E48007800EBC000114601EB800090F89B
:1031600021201A48017824A004F03CFE0120C4E785
:103170001CA004F073FE0120BFE7FFE722A1284650
:10318000FDF74EF9C8B903217C2004F025F9064665
:1031900000240AE020202041304008B1312000E026
:1031A00030200DF80400601CC4B2062CF2DB694626
:1031B00018A004F017FE01209FE700209DE7000003
:1031C0006973206C6566742023000000AB0000204A
:1031D000080000205245464C5B25645D3C25643E5A
:1031E0000A0000003C4E413E0A0000006973207254
:1031F0006967687420230000524546525B25645D70
:103200003C25643E0A0000006973206C696D697496
:10321000000000004C494D49543C252E36733E0AAF
:1032200000000000F8B504460A22ACA1601CFDF7BE
:10323000ACF800287ED1E07A2B2802D0E07A2D2845
:103240007BD120783038A8490870084600780328D8
:1032500073DA0020009004F10C050A226946284622
:10326000FDF73CF8A049097801EBC1019F4A02EB48
:10327000810108610098401BC6B2002E5CDD082E5B
:103280005ADC9B4898490978405CF8B1964A127814
:1032900002EBC202954B53F82210934A1278062390
:1032A00043EA4212D0B204F07CFF8F48007800EB72
:1032B000C0008E4A02EB800041688B48007804F021
:1032C000ABF900208A49884A12788854022186483E
:1032D000007804F07DF9E07A2B2810D1824A127828
:1032E00002EBC202814B03EB820211697E4A127823
:1032F000002343EA4212D0B204F040FF10E07A4AC1
:10330000127802EBC202794B03EB8202126951423E
:10331000754A1278002343EA4212D0B204F02EFF1D
:1033200000217148007804F053F972A004F096FD72
:103330000120F8BD06E000E000BF70A004F08EFDA3
:103340000120F6E707226FA1601CFDF71EF8002898
:103350007ED1207A2B2802D0207A2D2879D120788E
:1033600030386149087008460078032871DA002077
:10337000009004F109050A2269462846FCF7AEFFD1
:103380005949097801EBC101584A02EB81010861F2
:103390000098401BC6B2002E71DD082E6FDC544829
:1033A00051490978405CF8B14F4A127802EBC202E9
:1033B0004E4B53F822104C4A1278062343EA42122D
:1033C000D0B204F0EEFE4848007800EBC000474A57
:1033D00002EB800041684448007804F01DF90020A9
:1033E0004349414A1278885402213F48007804F04A
:1033F000EFF8207A2B281AD13B490978022242EAB9
:103400004111C8B203F0B1FF3749097801EBC1019E
:10341000364A02EB810109694718334909780022CD
:1034200042EA4111C8B2394604F0A8FE1CE02E4918
:103430000978022242EA4111C8B203F096FF2A49F4
:10344000097801EBC101294A02EB8101096901E018
:103450001BE015E0471A24490978002242EA41118D
:10346000C8B2394604F08AFE00211F48007804F0F3
:10347000AFF826A004F0F2FC01205AE7FFE700BFF6
:103480001EA004F0EBFC012053E7062221A1601CE2
:10349000FCF77BFF00BB20783038134908700846E2
:1034A0000078032813DA02210F48007804F090F81E
:1034B0000D490978082242EA4111C8B204F084FE9D
:1034C0000948017815A004F08DFC012031E70BA01C
:1034D00004F0C4FC01202CE700202AE723206D6FB4
:1034E000766520746F200000AB00002008000020EB
:1034F000A80000203C4F4B3E0A0000003C4E413EDD
:103500000A00000023206D6F766520003C4F4B3E83
:103510000D0A0000232073746F70000053544F5045
:103520005B25645D3C4F4B3E0D0A00007CB50446B4
:10353000082230A12046FCF728FFE0B92046FCF71E
:1035400005FF172816D1A07D5D2813D1E07D88B92D
:10355000012508E0E81D205C3038C1B2284604F09F
:10356000CFF9681CC5B20F2DF4DB25A004F03AFC9E
:1035700001207CBD00BF042223A12046FCF705FFEB
:10358000002834D10190201D00900A2201A9009842
:10359000FCF7A4FEC5B2019800785D2822D10198FD
:1035A00040785B281ED1002D1CDD0E2D1ADC00207A
:1035B00000900A2269460198801CFCF78FFEC6B273
:1035C000009800785D280DD10098407850B93146B8
:1035D000284604F095F9324629460DA004F002FC75
:1035E0000120C6E70FA004F039FC0120C1E700204C
:1035F000BFE700006F7574707574735B00000000A6
:103600003C4F4B3E0A0000006F75745B00000000E9
:103610004F55545B25645D5B25645D3C4F4B3E0A12
:10362000000000003C4E413E0A00000010B5044678
:1036300027A12046FCF7F4FEB8B9022003F095FE5E
:1036400027494861222003F090FE254988634220E3
:1036500003F08BFE2249C8650846C36D826B416941
:1036600020A004F0BFFB012010BD0A2224A12046A7
:10367000FCF78BFE50BBA07A30382449087008460E
:10368000007803281DDA0978022242EA4111C8B203
:1036900003F06BFE1D49097801EBC101104A02EBF2
:1036A000810148611948007800EBC000114601EB28
:1036B000800042691548017815A004F093FB0120B1
:1036C000D2E716A004F0CAFB0120CDE70020CBE72B
:1036D000706F736974696F6E2023616C6C000000F9
:1036E00008000020505B305D3C25643E2C505B316F
:1036F0005D3C25643E2C505B325D3C25643E0A00F7
:10370000706F736974696F6E20230000AB00002036
:10371000505B25645D3C25643E0A00003C4E413E02
:103720000A00000070B504460A224CA12046FCF7AE
:103730002CFE002831D1A07A30384B490870084659
:103740000078032824DA03F055FE474909784A0037
:1037500001219140084008B1012000E000204249C9
:10376000097801EBC101414A02EB810181F8230094
:103770003D48007800EBC000114601EB800090F856
:103780002320394801783AA004F02CFB012070BDB9
:103790003BA004F063FB0120F9E709223AA120468F
:1037A000FCF7F3FD002856D103217C2003F014FE22
:1037B0000546607A30382C4908700846007803289E
:1037C00044DA09780A2242EA4111C8B203F0EAFD5C
:1037D00050B901202449097801EBC101234A02EBC9
:1037E000810181F8220009E000201F49097801EBDE
:1037F000C1011E4A02EB810181F8220005F003009D
:10380000032803D10120194981F8220005F00C009A
:103810000C2803D10121154880F8461005F030002E
:10382000302803D10121114880F86A100E48007831
:1038300000EBC0000D4901EB800090F822200A48FF
:10384000017814A004F0CEFA0120A0E70CA004F047
:1038500005FB01209BE7002099E7000069732072B7
:103860006561636820230000AB0000200800002091
:1038700052454143485B25645D3C25643E0A000097
:103880003C4E413E0A00000069732073746F702043
:103890002300000053544F505B25645D3C25643E7B
:1038A0000A00000070B50446042223A12046FCF75C
:1038B0006CFD00283DD1257960795D2834D1A0794F
:1038C000002831D1722D0AD180201D490860602066
:1038D000091D08601BA004F0C1FA012070BD672D0E
:1038E0000AD1402016490860A020091D086018A0D0
:1038F00004F0B4FA0120F1E7622D0AD1202010492A
:103900000860C020091D086014A004F0A7FA012077
:10391000E4E7202D08D1E0200949091D086012A024
:1039200004F09CFA0120D9E712A004F097FA0120D4
:10393000D4E70020D2E700007267625B000000005D
:10394000101401405247425B525D3C4F4B3E0A000F
:103950005247425B475D3C4F4B3E0A005247425B39
:10396000425D3C4F4B3E0A005247425B205D3C4F5C
:103970004B3E0A003C4E413E0A0000002DE9FE434A
:103980008046042244A14046FCF7FFFC002845D1B4
:10399000029008F10400019000250A2202A9019872
:1039A000FCF79CFC85B2029800785D2835D102981E
:1039B00040785B2831D1002D2FDD652D2DDA0020D8
:1039C000019001A90298801C04F0E6FE064604F06E
:1039D0001DFF0090019800785D281ED10198407865
:1039E000D8B900240AE01DF80410642202EB850215
:1039F000224490B2FEF74CFE601CC4B2042CF2DBF1
:103A0000009805F0A7FA064632460B46294624A040
:103A100004F0E8F90120BDE8FE8300BF04221EA1E6
:103A20004046FCF7B2FC002834D1029008F10409AA
:103A300000250A2202A94846FCF750FC85B20298EC
:103A400000785D2821D102984078F0B9002D1CDD66
:103A5000652D1ADA00240AE0642101EB8501214476
:103A600088B2FEF7C4FD01A90855601CC4B2042C3D
:103A7000F2DB019805F06EFA064632460B462946FF
:103A80000CA004F0AFF90120C5E70EA004F0E6F9A0
:103A90000120C0E70020BEE7726F6D5B00000000F0
:103AA000524F4D5B25645D5B252E33665D3C4F4B6D
:103AB0003E0A0000524F4D5B25645D3C252E336667
:103AC0003E0A00003C4E413E0A000000F8B50446A4
:103AD000092239A1601CFCF758FC002869D1A07AA2
:103AE0002B2802D0A07A2D285ED120783038354995
:103AF000087008460078032856DA0020009004F188
:103B00000B050A2269462846FCF7E8FB2D4909788F
:103B100001EBC1012C4A02EB810188610098401B36
:103B2000C6B2002E3FDD042E3DDC01212748254A88
:103B30001278815402212348007803F049FD21497D
:103B40000978062242EA4111C8B240F2FF7104F03E
:103B500028FBA07A2B2810D11A4A127802EBC20255
:103B6000194B03EB82029169164A1278082343EA43
:103B70004212D0B204F015FB10E0124A127802EBA8
:103B8000C202114B03EB8202926951420D4A127834
:103B9000082343EA4212D0B204F003FB0CA004F065
:103BA0005DF90120F8BD00BF0BA004F057F901201A
:103BB000F8E70020F6E700002320726F7461746557
:103BC00020000000AB00002008000020A80000201A
:103BD0003C4F4B3E0A0000003C4E413E0A000000B4
:103BE000FEB504460B22FEA1601CFCF7CEFB0028AC
:103BF0007ED120783038FD490870084600780328C7
:103C000077DA0020029004F10C050A2202A9284666
:103C1000FCF764FBF549097801EBC101F44A42F86D
:103C200021000298401BC6B2002E7DDD042E7BDCF5
:103C3000EE4A127802EBC202ED4B53F82210EB4A27
:103C40001278062343EA4212D0B204F0AAFAE948F5
:103C5000007818B1E7480078012866D1E348007879
:103C600000EBC000E24951F8200046280ED119218E
:103C7000DE48007803F0D0FC1920DC49097801EB1C
:103C8000C101DB4A02EB810148608AE2D748007833
:103C900000EBC000D64951F8200064280ED128213D
:103CA000D248007803F0B8FC2820D049097801EB0D
:103CB000C101CF4A02EB8101486072E2CB48007833
:103CC00000EBC000CA4951F82000B0F57A7F13D14B
:103CD0004FF4C861C548007803F09EFC4FF4C860FB
:103CE000C249097801EBC101C14A02EB810101E03F
:103CF0006CE266E2486054E2BC48007800EBC00029
:103D0000BB4951F82000B0F52F7F13D24FF4C87192
:103D1000B648007803F080FC4FF4C870B3490978C6
:103D200001EBC101B24A01E049E271E002EB81011D
:103D3000486036E2AD48007800EBC000AC4951F86D
:103D40002000B0F5527F10D24FF42F71A7480078B1
:103D500003F062FC4FF42F70A449097801EBC10114
:103D6000A34A02EB810148601BE2A048007800EB07
:103D7000C0009F4951F82000B0F5757F10D24FF474
:103D80007A719A48007803F047FC4FF47A709749AB
:103D9000097801EBC101964A02EB8101486000E21B
:103DA0009248007800EBC000914951F8200040F2A1
:103DB0009C41884210D240F214518C48007803F0A4
:103DC0002BFC40F214508949097801EBC101884A63
:103DD00002EB81014860E4E18448007800EBC00018
:103DE000834951F8200040F2FF718842A1D24FF47C
:103DF000E1617E48007803F00FFC4FF4E1607B49FD
:103E0000097801EBC1017A4A02EB81014860C8E1FF
:103E10007848007802288CD17448007800EBC00004
:103E2000734951F8200019281CD27048007800EB23
:103E3000C0000A4652F82000411D6C48007803F08B
:103E4000EBFB6A48007800EBC000694951F820009C
:103E5000401D6649097801EBC101654A02EB810109
:103E600048609EE16148007800EBC000604951F86D
:103E7000200064281DD25D48007800EBC0000A468F
:103E800052F8200000F10A015848007803F0C4FB02
:103E90005648007800EBC000554951F820000A3020
:103EA0005249097801EBC101514A02EB8101486096
:103EB00077E14E48007800EBC0004D4951F82000F2
:103EC00096281DD24948007800EBC0000A4652F8F7
:103ED000200000F11E014548007803F09DFB434897
:103EE000007800EBC000424951F820001E303F49E5
:103EF000097801EBC1013E4A02EB8101486050E1C3
:103F00003A48007800EBC000394951F82000B0F57C
:103F10008C7F1DD23548007800EBC0000A4652F86D
:103F2000200000F13C013148007803F075FB2F4878
:103F3000007800EBC0002E4951F820003C302B499E
:103F4000097801EBC1012A4A02EB8101486028E1AE
:103F50002648007800EBC000254951F82000B0F554
:103F6000D27F1DD22148007800EBC0000A4652F8EB
:103F7000200000F164011D48007803F04DFB1B4850
:103F8000007800EBC0001A4951F82000643017494E
:103F9000097801EBC101164A02EB8101486000E19A
:103FA0001248007800EBC000114951F82000B0F52C
:103FB0000C7F2AD20D48007800EBC0000A4652F868
:103FC000200000F196010948007803F025FB07481E
:103FD000007800EBC000064951F8200096300BE055
:103FE000232076656C6F636974792000AB00002034
:103FF0000800002098000020C249097801EBC101A7
:10400000C14A02EB81014860CBE0BE48007800EB7A
:10401000C000BD4951F82000B0F52F7F1DD2B9482E
:10402000007800EBC0000A4652F8200000F1C801F9
:10403000B448007803F0F0FAB248007800EBC00012
:10404000B14951F82000C830AE49097801EBC101EF
:10405000AD4A02EB81014860A3E0AA48007800EB7A
:10406000C000A94951F82000B0F5527F1DD2A548E3
:10407000007800EBC0000A4652F8200000F1FA0177
:10408000A048007803F0C8FA9E48007800EBC00012
:104090009D4951F82000FA309A49097801EBC10195
:1040A000994A02EB810148607BE09648007800EB7A
:1040B000C000954951F82000B0F5757F1ED2914897
:1040C000007800EBC0000A4652F8200000F5967117
:1040D0008C48007803F0A0FA8A48007800EBC00012
:1040E000894951F8200000F596708649097801EB5E
:1040F000C101854A02EB8101486052E081480078A5
:1041000000EBC000804951F8200040F29C418842F9
:104110001ED87C48007800EBC0007B4A52F8200093
:1041200000F5AF717748007803F076FA75480078AB
:1041300000EBC000744951F8200000F5AF707149E0
:10414000097801EBC101704A02EB8101486028E067
:104150006C48007800EBC0006B4951F8200040F239
:10416000FF7188421DD26748007800EBC000664AA4
:1041700052F8200000F516716248007803F04CFAFE
:104180006048007800EBC0005F4951F8200000F55E
:1041900016705C49097801EBC1015B4A02EB8101B1
:1041A00048605848007800EBC000574951F820207B
:1041B0005448017855A003F015FE0120FEBD0020F3
:1041C000FCE757A003F04AFE0120F7E70E2256A1B4
:1041D0002046FCF7DAF890BB0020029004F10C05B1
:1041E0000A2202A92846FCF779F847490860029894
:1041F000401BC6B2002E1DDD042E1BDC08460068E5
:10420000486208460068886408460168062003F092
:10421000C8FF3D48416A262003F0C3FF3A48816C3D
:10422000462003F0BEFF3848016843A003F0DAFDE2
:104230000120C3E73AA003F011FE0120BEE7FFE72B
:1042400041A12046FCF7ECF8F8B90A2003F0AAF8DF
:104250002D49C8612A2003F0A5F82B4908644A209B
:1042600003F0A0F8284948660846416E006C264ACB
:10427000D269CDE9002002912348836C426A01682B
:1042800035A003F0AFFD012098E70A2242A12046A5
:10429000FCF77BF890BBA07A30381A4908700846C2
:1042A0000078032825DA09780A2242EA4111C8B2C7
:1042B00003F078F81349097801EBC101124A02EBC7
:1042C0008101C8610F48007800EBC000114601EB86
:1042D0008000C06900900B48007800EBC00051F8E6
:1042E00020200848037801782EA003F07BFD0120F0
:1042F00064E70BA003F0B2FD01205FE7FFE70020B9
:104300005CE70000AB0000200800002056736574D5
:104310005B25642D25645D3C4F4B3E0A0000000088
:104320003C4E413E0A000000616C6C232076656CB7
:104330006F63697479200000567365745B25645D52
:104340003C4F4B3E0A00000076656C6F63697479E0
:104350002023616C6C000000567365745B305D3C1B
:1043600025643E2C567365745B315D3C25643E2CA0
:10437000567365745B325D3C25643E2C565B305D44
:104380003C25643E2C565B315D3C25643E2C565BDF
:10439000325D3C25643E0A0076656C6F6369747912
:1043A00020230000567365745B25645D3C25643EE4
:1043B0002C565B25645D3C25643E0A00F8B5044636
:1043C000214615A0FCF72CF818B902F077FD012062
:1043D000F8BD0322214611A0FBF7D7FFC8B9002082
:1043E0000090E51C0A2269462846FBF777FFC6B213
:1043F000009800785D2807D10098407820B93046B1
:1044000003F04AFF0120E3E705A003F027FD0120A8
:10441000DEE70020DCE700007376000073765B00C7
:104420003C4E413E0A00000070B500F071FB0446AE
:1044300054A003F013FD0020594908600120594998
:10444000C1F88801642003F0F3FF1CE000F060FB7A
:10445000051B002D01DB284600E06842B0F57A7F9D
:1044600011DD514803F0FAFC5048006880F08000EC
:104470004E49086080204E4908606020091D086090
:1044800000F046FB04464B480068012803D1494828
:10449000001D006808B1012000E000200028D5D1EF
:1044A0003F490C31086001203E49C1F88C0164206D
:1044B00003F0BEFF1CE000F02BFB051B002D01DB11
:1044C000284600E06842B0F57A7F11DD3A4803F0F3
:1044D000C5FC3648006880F08000344908608020C0
:1044E000334908606020091D086000F011FB044694
:1044F00030480C300068012803D12E48083000688D
:1045000008B1012000E000200028D4D12B49086028
:1045100001202B49C1F8A401642003F089FF1CE0AD
:1045200000F0F6FA051B002D01DB284600E068428A
:10453000B0F57A7F11DD234803F090FC1B4800683A
:1045400080F08000194908608020194908606020C7
:10455000091D086000F0DCFA0446164814380068AB
:10456000012803D113481038006808B1012000E089
:1045700000200028D4D120200D490860C020091D4A
:10458000086070BD0A3E3E43796C696E64657220B6
:10459000726573657474696E672E2E2E0A000000B2
:1045A000A001214200002142549300080C0C01405C
:1045B000101401401C012342B8920008A0012242BD
:1045C0000000224208930008704710B501240EE055
:1045D000204600F0F7F920B90021204603F090F9B9
:1045E00003E00121204603F08BF9601CC4B2092CC2
:1045F000EEDB092412E0204600F0E4F930B9A4F122
:104600000801C8B2002103F07BF905E0A4F108011C
:10461000C8B2012103F074F9601CC4B2132CEADBA8
:1046200010BD0000F8B50020FDF7E1FF562840D08E
:1046300000241DE004EB44031F4E06EBC3031A7A6B
:1046400004EB440306EBC303596904EB440306EB94
:10465000C3039B8898B2FEF706F80A2217A14020F0
:10466000FDF7EFFF56210020FEF712F8601CC4B2E0
:10467000042CDFDB1448009001250FE0002409E042
:104680001DF80410642202EB85021019FEF700F8F1
:10469000601CC4B2042CF3DB681CC5B2042DEDDB36
:1046A0000020FDF7A4FF562801D10120F8BD00200D
:1046B000FCE70120FAE7000080910008494E332D05
:1046C000534D432D30310000000048430A48006834
:1046D00030B90948001D0068012801D10020704749
:1046E00005480068012805D10348001D006808B985
:1046F0000120F4E70320F2E7200123420A48006882
:1047000030B90948001D0068012801D10020704718
:1047100005480068012805D10348001D006808B954
:104720000120F4E70320F2E7180123420A48006859
:10473000012805D10848001D006808B9002070470D
:104740000548006828B90448001D0068012800D108
:10475000F5E70320F3E70000040123420A4800685C
:1047600030B90948001D0068012801D100207047B8
:1047700005480068012805D10348001D006808B9F4
:104780000120F4E70320F2E70801234210B50D48A9
:104790000078012811D10C48006801280DD10A20A9
:1047A00002F000FE002808DA002003F0B9F907A0A3
:1047B00003F018FB002003490870102000F06AF88D
:1047C00010BD00007E000020100123424178697373
:1047D000205820486F6D65643C4F4B3E0A3E3E00BA
:1047E00010B51F484078012818D11E4800680128DC
:1047F00014D12A2002F0D6FD00280FDD012003F09D
:104800008FF919A003F0EEFA002015494870012035
:1048100088701A488188022002F04AFE1048807889
:10482000012819D10F48001D0068012814D14A2021
:1048300002F0B8FD00280FDD022003F071F910A08E
:1048400003F0D0FA002006498870012008700B4858
:104850000188002002F03BFE602000F01BF810BD34
:104860007E000020140123424178697320592048BA
:104870006F6D65643C4F4B3E0A3E3E007800002061
:1048800041786973205A20486F6D65643C4F4B3EF8
:104890000A3E3E00014908607047000014040140D0
:1048A00062B670472DE9F04102460025002600203F
:1048B00000230024002791F803C00CF00F0591F8A5
:1048C00003C00CF0100CBCF1000F03D091F802C033
:1048D0004CEA050591F800C0BCF1000F31D0146816
:1048E00000202BE04FF0010C0CFA00F3B1F800C0EF
:1048F0000CEA03069E4220D183004FF00F0C0CFA05
:1049000003F7BC4305FA03FC4CEA040491F803C026
:10491000BCF1280F06D14FF0010C0CFA00FCC2F8D4
:1049200014C00AE091F803C0BCF1480F05D14FF064
:10493000010C0CFA00FCC2F810C0401C0828D1D3AE
:104940001460B1F800C0BCF1FF0F34DD54680020E2
:104950002EE000F1080C4FF0010808FA0CF3B1F852
:1049600000C00CEA03069E4221D183004FF00F0CD9
:104970000CFA03F7BC4305FA03FC4CEA040491F873
:1049800003C0BCF1280F05D100F1080C08FA0CF89F
:10499000C2F8148091F803C0BCF1480F07D100F1B0
:1049A000080C4FF0010808FA0CF8C2F81080401CFF
:1049B0000828CED35460BDE8F081416170470161A1
:1049C00070470000014613296FD2DFE801F0980A12
:1049D000111921293139414951596169717880880A
:1049E00090004848006808B9012070470020FCE7A3
:1049F0004448001D006808B90120F6E70020F4E7EC
:104A000040480830006808B90120EEE70020ECE7D4
:104A10003C480C30006808B90120E6E70020E4E7D4
:104A200038481030006808B90120DEE70020DCE7D4
:104A300034481430006808B90120D6E70020D4E7D4
:104A400030481830006808B90120CEE70020CCE7D4
:104A50002C481C30006808B90120C6E70020C4E7D4
:104A600028482030006808B90120BEE70020BCE7D4
:104A700024482430006808B90120B6E70020B4E7D4
:104A800020482830006808B90120AEE70020ACE7D4
:104A90001C482C30006808B90120A6E70020A4E7D4
:104AA0001948006810B901209FE728E000209CE722
:104AB0001648006808B9012097E7002095E71348D9
:104AC0001030006808B901208FE700208DE70F48FB
:104AD000001D006808B9012087E7002085E70A4823
:104AE0003830006808B901207FE700207DE70648DC
:104AF0003030006808B9012077E7002075E7FF2013
:104B000073E70000000123420481214220812242F8
:104B100001480068704700000000002000BFFEE769
:104B200010B50446E0B2022102F052FD082141EA2C
:104B30004411C8B203F048FB0A2141EA4411C8B24B
:104B400003F042FB10BD000010B500200F490860C3
:104B50000F48006820F00F000D4908600846006803
:104B600040F00300086000200A49C1F8A0010220BB
:104B700003F067FC012005490860022003F061FC96
:104B800000200449C1F8A40110BD0000A481214205
:104B9000040C0140008021422DE9F04705460C46F7
:104BA00016461F46DDF8208000F080F9B8F1030FAB
:104BB00019D1A146E11704EB11610912FE2202EBA3
:104BC000410101EA050000F03DF900F0BBF9E117F1
:104BD00004EB11610912A4EB0121C8B200F032F913
:104BE00000F0B0F92FE0B8F1020F17D105F0FE0088
:104BF00000F028F900F0A6F9201200F023F900F0E7
:104C0000A1F9A146E11704EB11610912A4EB0121FE
:104C1000C8B200F017F900F095F914E0B8F1010FEF
:104C200011D105F0FE0000F00DF900F08BF9A1465E
:104C3000E11704EB11610912A4EB0121C8B200F0E5
:104C400001F900F07FF900F031F945F0010000F0C2
:104C5000F9F800F077F906E0781EC7B2012000F0FD
:104C6000B9F806F8010B012FF6D1002000F0B2F8D8
:104C700006F8010B00F040F9BDE8F0872DE9F04798
:104C800005460C4616469946089F00F00FF9032F7B
:104C900019D1A046E11704EB11610912FE2202EBC3
:104CA000410101EA050000F0CDF800F04BF9E117F1
:104CB00004EB11610912A4EB0121C8B200F0C2F8A3
:104CC00000F040F92DE0022F17D105F0FE0000F0B2
:104CD000B9F800F037F9201200F0B4F800F032F91A
:104CE000A046E11704EB11610912A4EB0121C8B23F
:104CF00000F0A8F800F026F913E0012F11D105F01B
:104D0000FE0000F09FF800F01DF9A046E11704EB4B
:104D100011610912A4EB0121C8B200F093F800F070
:104D200011F905E016F8010B00F08CF800F00AF913
:104D3000B9F10000A9F1010101F0FF09F2D100F081
:104D4000DBF80A2003F074FBBDE8F08708B5012109
:104D5000082002F019FA4FF44070ADF8000010205E
:104D60008DF8030003208DF8020069460448FFF720
:104D700099FD4FF440710248FFF721FE08BD000085
:104D8000000C014010B500200F4908600F48006872
:104D900020F00F000D4908600846006840F003004D
:104DA000086001200A49C1F8A001022003F049FB74
:104DB000012005490860022003F043FB002004495C
:104DC000C1F8A40110BD0000A4812142040C0140DF
:104DD0000080214270B5054600241748006820F085
:104DE0000F00154908600846006840F00800086098
:104DF000002616E0002011490860022003F021FB84
:104E000001200F49C1F8A4016006040E0B48843844
:104E1000006808B1601CC4B2012003F012FB701CD2
:104E2000C6B2082EE6DB15B9FFF7ACFF01E0FFF7CD
:104E30008BFE204670BD0000040C0140A48121427D
:104E40000080214270B504461548006820F00F002C
:104E5000134908600846006840F00300086000201D
:104E600010490860002517E0E0090E49091F086095
:104E70006006040E022003F0E4FA01200A49C1F89A
:104E8000A401022003F0DDFA002006490860022098
:104E900003F0D7FA681CC5B2082DE5DB70BD000031
:104EA000040C0140A48121420080214210B50F482A
:104EB000006820F00F000D4908600846006840F0C7
:104EC0000300086001200A4908600A49C1F8A401EA
:104ED000042003F0B6FA002005490860042003F01E
:104EE000B0FA00200349C1F8A40110BD040C014030
:104EF000A08121420080214210B50F48006820F0B7
:104F00000F000D4908600846006840F00300086083
:104F100000200A4908600A49C1F8A001042003F0F2
:104F200090FA0120054908600549C1F8A001042054
:104F300003F087FA10BD0000040C0140A481214257
:104F40000080214210B500241448006820F00F00B2
:104F5000124908600846006840F008000860012017
:104F60000F49086003F06DFA01200E49C1F8A40151
:104F700003F067FA07E0601CC4B2FA2C03DDFFF708
:104F8000BBFF012010BD0648803800680028F2D120
:104F90000349091D086000BFF4E70000040C01404C
:104FA000A08121420080214270B500250BE0002441
:104FB00005E044EA4511C8B203F006F9641C1C2C54
:104FC000F7D9681CC5B2032DF1DB3F48007818B152
:104FD0003D480078012805D14FF49971682003F00D
:104FE000CDF808E038480078022804D140F23B119F
:104FF000682003F0C3F80223042200217E2003F07E
:10500000A9F83248017B407B61F31F10C2B2042330
:105010000021182003F09EF82C4890F8301090F8EA
:10502000310061F31F10C2B204230021382003F0C5
:1050300091F8264890F8541090F8550061F31F102D
:10504000C2B204230021582003F084F80023042274
:105050001946142003F07EF8002304221946342058
:1050600003F078F8002304221946542003F072F864
:105070000121042003F095F80121242003F091F888
:105080000121442003F08DF810480168062003F048
:1050900075F80E484168002002F0BEFA0B48416ADC
:1050A000262003F06BF80948816A012002F0B4FA67
:1050B0000648816C462003F061F80448C16C022068
:1050C00002F0AAFA70BD000098000020080000203D
:1050D00008B50121042002F057F80121082002F050
:1050E00053F80121102002F04FF80121202002F096
:1050F0004BF80121402002F047F84FF47070ADF8F2
:10510000000010208DF8030003208DF8020069468E
:105110002A48FFF7C7FB4FF470712848FFF74DFC92
:1051200040F60C10ADF8000069462548FFF7BAFBC1
:1051300040F60C112248FFF740FCE020ADF80000DB
:1051400069462048FFF7AEFBE0211E48FFF735FC1B
:105150008020ADF8000069461B48FFF7A3FB8021C3
:105160001948FFF72AFC40F6FF70ADF80000032055
:105170008DF8020048208DF8030069461348FFF7B8
:1051800091FB4AF20200ADF8000069460E48FFF7B5
:1051900089FB4FF49850ADF8000069460948FFF7C5
:1051A00081FB4FF44050ADF8000028208DF803003B
:1051B00069460648FFF776FB08BD00000010014075
:1051C0000008014000140140000C0140001801409B
:1051D00000B587B00121042001F0D6FF01210803AA
:1051E00001F0D2FFA020ADF8040003208DF80600E6
:1051F00018208DF8070001A92048FFF753FB102065
:10520000ADF804008DF8070001A91C48FFF74AFB20
:1052100010211A48FFF7D3FB4020ADF8040003200B
:105220008DF8060004208DF8070001A91348FFF748
:1052300039FB0020ADF808004FF48270ADF80A0089
:105240000020ADF80C000220ADF80E000120ADF8F2
:1052500010004002ADF812003020ADF8140000201C
:10526000ADF81600ADF8180002A9054802F058F98B
:105270000121034802F03AF907B000BD00080140DF
:105280000030014010B56FF0040002F063FC42F200
:1052900028304FF0E02148610846006940F00200E4
:1052A00008610846006940F00100086110BD000077
:1052B00010B586B00446394802F036FE0121880355
:1052C00001F062FF0121042001F05EFF03208DF850
:1052D000020018208DF803004FF40070ADF80000B4
:1052E00069462F48FFF7DEFA04208DF8030000021C
:1052F000ADF8000069462A48FFF7D4FA02A802F088
:1053000008FF029402A9254802F08EFE25208DF8A0
:10531000040005208DF8050000208DF8060001200E
:105320008DF8070001A800F0C3FE40F2FF311B48D2
:1053300002F0E4FD00222821184802F050FE00226D
:1053400040F22771154802F04AFE002240F2266121
:10535000124802F044FE012240F225510F4802F0AB
:105360003EFE002240F224410C4802F038FE0022AA
:1053700040F64601094802F032FE002240F66A116A
:10538000064802F02CFE00226021044802F027FEAD
:105390000121024802F0BBFD06B010BD00380140FB
:1053A0000008014010B524480068012828D123488E
:1053B000007828BB142003F03BF81F480068012840
:1053C0001ED11E490870002407E02046FFF7A8FB05
:1053D000204602F0A5FB601CC4B2032CF5DB802044
:1053E000174908606020091D0860002015490870F1
:1053F00015490870154908601549C1F89C0100BF9E
:105400000D480068A0B90D48007801280DD1114859
:10541000007830B120200A490860C020091D0860CA
:1054200003E0E0200649091D0860002003490870D8
:105430000248007810BD00000801234275000020DA
:1054400010140140740000207600002098012242D0
:10545000000022428100002010B50A48006878B997
:105460000948007860B9142002F0E2FF054800689E
:1054700030B900200549087005490860FEF7D4FFDF
:1054800010BD0000040123427600002074000020BB
:105490009801224210B50B48006888B90A48007884
:1054A00070B9142002F0C4FF0648006840B900201B
:1054B0000649087006490860FEF7B6FF00F0B0FA2A
:1054C00010BD00000401234276000020740000207B
:1054D0009801224210B50D480068A8B90C48007820
:1054E00090B9142002F0A4FF0848006860B90020B9
:1054F0000849087008490860202008490860C02051
:10550000091D086000F08CFA10BD00000401234260
:1055100076000020740000209801224210140140FF
:1055200010B512480078F8B911480068E0B9114880
:105530000078C8B9142002F07BFF0D48006898B9C4
:1055400001200D49086000BF094800680028FBD011
:105550000120084908700020044908700649091D07
:10556000086006A002F07AFC10BD00007600002062
:1055700000012342740000209801224253544152FA
:10558000543C313E0A3E3E0010B593480078052851
:1055900074D2DFE800F0038FABD7F600FFF7DEF838
:1055A00001286CD1FFF7AAF80028FAD18B480068CF
:1055B000002834D18948001D006801282FD1FFF749
:1055C000A7FA874908600A2002F032FF0AE0834800
:1055D000006838B98148001D006818B901207E496B
:1055E00008700DE0FFF794FA7D490968441A002C11
:1055F00001DB204600E060427A4909788842E6DB18
:1056000000BF7548007850B905E077A002F026FC8D
:10561000642002F00DFF714800680028F5D06F4843
:105620000068012838D16D48001D0068002833D17A
:10563000FFF76EFA6A4908600A2002F0F9FE0AE0F4
:105640006648006838B96548001D006818B901202F
:10565000614908700DE0FFF75BFA61490968441A77
:10566000002C01DB204600E060425E490978884258
:10567000E6DB00BF5848007808B907E0A8E018E06A
:1056800069A002F0EBFB642002F0D2FE5348001D3B
:1056900000680028F4D00CE0142002F0C9FE4F4846
:1056A000006830B94D48001D006810B901204A4912
:1056B00008708EE049480068A0B94848001D00689D
:1056C00080B901206849086000206849C1F8A40138
:1056D000642002F0ADFEFFF741F830B902203E49E8
:1056E000087002E004203C49087072E03B48006802
:1056F00020BB3A48001D006800BB01205C490860DF
:1057000000205C49C1F8AC01642002F091FEFEF774
:10571000F5FF012815D10020534908390860534985
:10572000C1F89C01544908700120544908700020B8
:105730002949087052A002F091FB02E0032026499B
:10574000087046E025480068012804D02348001D61
:105750000068012811D10020454908600120454911
:10576000C1F8AC01642002F063FEFEF7C7FF38B950
:1057700004201949087003E003E00220164908706C
:1057800027E016480068012804D01448001D00686E
:10579000012819D100203449086001203349C1F89B
:1057A000A401642002F044FEFEF7D8FF012803D1D3
:1057B00000200949087002E000202B490860012000
:1057C0002949091D086002E001200349087000E032
:1057D00000BF00BF10BD0000A00000200001234258
:1057E000A4000020A30000207374617274206B6514
:1057F0007920707265737320697320696E76616CAD
:1058000069642C20706C656173652072656C6561DC
:10581000736520616E6420726570726573732069B0
:10582000740A3E3E000000007374617274206B6560
:105830007920707265737320697320696E76616C6C
:1058400069642C20706C656173652072656C65619C
:10585000736520697420616E64207265707265736F
:10586000730A3E3E00000000A001224200002242D6
:105870008C01214200002142A2000020A100002052
:10588000726561647920746F20746573740A3E3E9A
:105890000000000010B54E48007805287ED2DFE8F1
:1058A00000F0031730536D00FEF740FF01280ED1C2
:1058B000FEF70CFF58B94748006840B9142002F0C1
:1058C000B7FD4448006810B90120414908707CE0E8
:1058D0004048006888B908203F49086040013F49B6
:1058E000486140000861642002F0A2FDFEF71EFF3F
:1058F00030B902203649087002E0042034490870AB
:1059000063E034480068D8B9082033490860402073
:105910003249086180204861642002F089FDFEF769
:10592000D5FE01280FD100202D49087001202D49F6
:1059300008700020264908702BA002F08FFA02E0C0
:1059400003202349087040E02248006890B10820F5
:105950002149091D086040202049486180200861D4
:10596000642002F065FDFEF7B1FE30B9042018494D
:10597000087002E002201649087026E01548006809
:10598000F0B108201449091D08604001134908615D
:1059900040004861642002F04BFD00E014E0FEF797
:1059A000C5FE012803D100200949087003E04FF427
:1059B00080700A4908614FF400700849486102E0AC
:1059C00001200349087000E000BF00BF10BD0000C7
:1059D0009A000020000123421008014000100140FD
:1059E0009C0000209B000020726561647920746F28
:1059F00020746573740A3E3E0000000009E00178DF
:105A0000412905DB01785A2902DC01782031017037
:105A1000401C01780029F2D1704700BFFEE700006A
:105A200010B501201E49087000201E490870012091
:105A30001D49086040F2FF71062002F09FFB4FF401
:105A40007A71002001F0E8FD40F2FF71262002F09B
:105A500095FB4FF47A71012001F0DEFD40F2FF71F9
:105A6000462002F08BFB4FF47A71022001F0D4FD46
:105A70000EA002F0B7F9202011490860C020091DCE
:105A8000086000200F490870487088700E484188EF
:105A9000012001F00DFD01200C49487010BD0000EF
:105AA00076000020810000209C0122426D6F746FFF
:105AB0007220686F6D696E672E2E2E0A000000003E
:105AC0001014014082000020780000207E00002099
:105AD00070B5C448007801287ED1C348007830B939
