:020000040800F2
:1000000088070020790200088D600008B94B0008BD
:10001000F7590008DD2600084781000800000000AD
:1000200000000000000000000000000055750008FE
:10003000A54500080000000015610008997B000834
:10004000930200089302000893020008930200083C
:100050009302000893020008114700087547000842
:10006000930200089302000893020008930200081C
:10007000930200089302000893020008930200080C
:1000800093020008930200089302000893020008FC
:10009000930200089302000893020008D947000861
:1000A00093020008930200089302000893020008DC
:1000B00093020008930200089302000893020008CC
:1000C00093020008930200089302000893020008BC
:1000D00093020008917E0008930200089302000832
:1000E000930200089302000893020008930200089C
:1000F000930200089302000893020008930200088C
:10010000930200089302000893020008930200087B
:10011000930200089302000893020008930200086B
:10012000930200089302000893020008930200085B
:1001300000F002F800F090F80AA090E8000C824469
:100140008344AAF10107DA4501D100F085F8AFF246
:10015000090EBAE80F0013F0010F18BFFB1A43F0A5
:10016000010318476094000080940000103A24BFF7
:1001700078C878C1FAD8520724BF30C830C144BF0C
:1001800004680C607047000000230024002500264E
:10019000103A28BF78C1FBD8520728BF30C148BFEA
:1001A0000B6070476E2900F02982702900F06B8384
:1001B000662909F05280652909F04F80672909F006
:1001C0004C806129AFF3008003681B0A28BF41F00F
:1001D0008001692900F0D681642900F0D381752956
:1001E00000F0D0816F2900F0F882782900F0378381
:1001F000E92900F09382E42900F09082F52900F0CB
:100200008D82EF2900F0F582F82900F0368303682B
:10021000DB0928BF41F08001632900F06D87732955
:1002200000F07287E32900F07D87F32900F08287D0
:10023000002070471FB500F09BFC04000020002147
:1002400008F0A6FB401C60600020002108F0B6FB0F
:10025000E0601FBD10B510BD00F0BEFF1146FFF7F6
:10026000E9FF08F081F901F00BFB03B4FFF7F2FF9F
:1002700003BC01F043FD00000948804709480047DE
:10028000FEE7FEE7FEE7FEE7FEE7FEE7FEE7FEE746
:10029000FEE7FEE704480549054A064B70470000A3
:1002A000A97B000831010008880100208807002090
:1002B00088030020880300201CB50C46064B7B44B5
:1002C00069460090204600F0B2F9044600206946D5
:1002D00000F0C0F920461CBD930300002DE9F04753
:1002E00091460F4680460446002614F8015B2DB166
:1002F00000F0DAF80068405DC007F6D12B2D02D07F
:100300002D2D18D0641E4A463946204600F08AFB3F
:1003100027B13968A14201D1C7F800804FF002042B
:1003200071050BD54042002803DD00F0C5F80460DC
:10033000A007BDE8F08746F48066E4E70028F8DA15
:1003400000F0BAF804606FF00040F2E710B5431C0B
:1003500002E010F8011B71B18107FAD14FF00132B0
:1003600002C88C1A8C4314EAC211F9D0C01A0A06CA
:1003700003D0C01E10BDC01A10BD0A0401D0801EDB
:1003800010BD0902FCD0401E10BD40EA010370B54B
:100390009B072ED14FF00136042A2AD308C810C972
:1003A0009D1B9D43121F15EAC61517D0D8B2E1B2A6
:1003B000401A50EA056110D198B2A1B2401A50EA31
:1003C00005410AD123F07F4024F07F41401A50EAD2
:1003D000052102D1180EA0EB146070BDA342DBD042
:1003E00018BA21BA884201D9012070BD4FF0FF3000
:1003F00070BD0AB9002070BD10F8013B11F8014B27
:1004000063B1A3420AD1521E08D010F8013B11F883
:10041000014B1BB1A34201D1521EEDD1181B70BD7F
:100420004FF0013C50F8042B51F8043B9A4221D183
:10043000A2EB0C03934313EACC1317D150F8042B0F
:1004400051F8043B9A4215D1A2EB0C03934313EAF3
:10045000CC130BD150F8042B51F8043B9A4209D12C
:10046000A2EB0C03934313EACC13DBD04FF0000054
:10047000704700BFD01A01BAB1FA81F101F018013A
:1004800022FA01F0CB40C1F12001DBB2C0B2C01AA8
:100490002CFA01F3D11A914311EAC311E6D1704746
:1004A000704770477047000010B500F061FB001DF9
:1004B00010BD00BFDD840000004870472801002007
:1004C00070B5044685690068C10601D5302600E094
:1004D0002026C00707D070BDD4E9012130469047DF
:1004E000206A401C20626D1EF6D570BD70B50446B2
:1004F00085690078C00707D170BDD4E901212020AB
:100500009047206A401C20626D1EF6D570BD0968B8
:100510004A0501D540B27047C905FCD500B2704705
:1005200009684A0501D5C0B27047C905FCD580B23B
:10053000704770B50C460546012A05D0287880061C
:1005400000D5EA69002302E0012305E05B1C934229
:1005500002D2E05C0028F9D1A869E618C01AA861A7
:10056000286A184428622846FFF7AAFF04E0D5E964
:10057000012114F8010B9047B442F8D32846FFF745
:10058000B5FF70BD2DE9F0410646002410687529BD
:10059000314616A510D0FFF7BAFF002802DA404214
:1005A00013A507E031688A0701D512A502E04907C3
:1005B00004D511A5012401E0FFF7B2FF00210A22B2
:1005C00006F1240709E0B0FBF2FCB0FBF2F302FBFA
:1005D0001C00303078541846491C0028F3D12346BB
:1005E0002A463046BDE8F04100F014BB0000000090
:1005F0002D0000002B0000002000000011680268A0
:10060000006A530501D508700AE0D30501D50880BA
:1006100006E0130603D5C217C1E9000200E0086036
:100620000120704701694A1C02610878704700B5D3
:100630008FB0CDE901310021059105497944CDE91B
:1006400003101146684600F029F90FB000BD000004
:10065000E5FFFFFF0A6802F8010B0A60704700001F
:100660002DE9FF5F15468A460446DFF8AC80F84462
:100670000027D8E900103E46CDE9001010E03AF816
:1006800016106A4602A800F087FD411C07D02178A9
:10069000890603D5E269391891420DD80744761CC2
:1006A0002078800602D5E069B84205DDAE42E6DB7F
:1006B0003AF816000028E2D1A069C01BA0612046CC
:1006C000FFF7FEFED8E90010CDE90010002017E08A
:1006D0003AF818106A4602A800F05EFDB0F1FF3F3C
:1006E00081460BD000250DF1080B05E0D4E901216E
:1006F0001BF8050090476D1C4D45F7D308F101002C
:10070000B0428046E4DB206A384420622046FFF78E
:10071000EDFEBDE8FF9F00004A8D00002DE9F0418D
:100720008046D21D22F007020025D2E90002F529F9
:1007300015A614D0011E72F1000106DA0023D0EBD9
:10074000030063EB020211A608E0D8F800108B0743
:1007500001D50FA602E0490701D50EA601251146D5
:10076000002408F1240704E000F006FA30323A557C
:10077000641C50EA0102F7D12B463246214640461E
:10078000BDE8F04100F046BA000000002D00000076
:100790002B0000002000000030B4002100F12404F0
:1007A00008E002F00705D208303542EA4372DB0860
:1007B0006554491C52EA0305F3D10468002310A2D2
:1007C000250707D5A40600D421B1C46901230DA2D1
:1007D000641EC46130BC00F01DBA10B50446214649
:1007E0001068FFF79DFE02462046BDE8104000233A
:1007F000D2E7D21D22F00701D1E90023CCE70000A7
:100800000000000030000000F0B40D46018809052A
:1008100002D5214C7C4402E01F4C7C440E34002164
:1008200000F1240608E002F00F071209E75D42EA32
:1008300003721B097754491C52EA0307F3D102786B
:100840000023120704D5702D06D009B102231134FC
:100850002246F0BC00F0DEB901231034F8E770B591
:1008600004460D4621461068FFF75AFE0246294607
:100870002046BDE870400023C6E7D21D22F00703E2
:10088000D3E90023C0E70368126843F02003036044
:100890000823C3610023B7E7AC8B00002DE9F05FAC
:1008A000894604464FF0000ADFF874B1FB44C0F8F3
:1008B00020A02046E1688847002874D0252806D06B
:1008C000D4E901219047206A401C2062F1E700260C
:1008D0005F462046E16888472028054607DB312D22
:1008E00005D2781910F8200C08B10643F1E7B007DB
:1008F00001D526F00406C4F81CA00027C4F818A0EF
:100900002A2D09D0284607F09AFD38B304EB870852
:10091000303DC8F8185019E059F8041B204604EB84
:1009200087029161E1688847012F054618D1E06987
:10093000002820DA26F020061DE0D8F8180000EB89
:10094000800005EB40003038C8F818002046E16808
:100950008847054607F073FD0028EED1012F0AD025
:100960002E2D08D12046E16888477F1C0546022FBE
:1009700046F02006C4DBA069002803DA404246F0B6
:100980000106A061F00701D026F010066C2D0BD0F7
:10099000682D09D04C2D39D06A2D35D0742D35D025
:1009A0007A2D33D016E038E0E1682F46204688479C
:1009B000B842054609D16C2F26D04FF48060E1681B
:1009C000064320468847054604E06C2F1AD04FF4B2
:1009D000807006430DB3A5F14100192802D82035D7
:1009E00046F400664A462946204626604E46FFF7F2
:1009F000D9FB80B101280BD0F61D26F0070000F1CD
:100A0000080956E74020E4E78020D8E70020D6E731
:100A100006F104094DE7284652E7206ABDE8F09F39
:100A20003C8B00002DE9F05F824615468B4600277F
:100A30000AF10104B9460078302801D09DB113E0D5
:100A400014F8010B0127782803D0582801D045B1AC
:100A50000AE00DB1102D07D1002714F8010B102565
:100A600002E0082500E00A250026B0460EE005FB5E
:100A7000080005FB06F101271FFA80F801EB10467C
:100A8000B6F5803F00D3B94614F8010B294600F0B3
:100A900055FB0028EBDABBF1000F05D00FB1641E47
:100AA00000E05446CBF80040B9F1000F06D0FFF744
:100AB00003FD02210160C81EBDE8F09F48EA064020
:100AC000FAE700000FB4002300B589B00CA900912B
:100AD0000B99CB60214B7B440693214B7B440793BE
:100AE00004236FF00042CDE901321E4A7A446B467E
:100AF00008920246002008F012FC09B05DF814FBD1
:100B000070B506464FF0FF3015460C46324686B0AB
:100B10000091CDE9010169460020049004A8FFF787
:100B2000D1FF02460498211825B108B1084600E01B
:100B300020462860049800280DD0002A02DD009885
:100B4000884208D03246081B69460094CDE901046A
:100B500004A8FFF7B7FF06B070BD00007F060000D5
:100B6000970600001301000000487047280100208C
:100B7000004870474801002030B5B0F10A024FEA42
:100B8000900E71F100034EEA817EB0EB0E0061EB36
:100B900091014FEA101E4EEA017E10EB0E0041EB70
:100BA00011114FEA102E4EEA016E10EB0E0041EBD0
:100BB00011214FEA104E4EEA014E10EB0E0041EBB0
:100BC0001141401841F100014FEAD00040EA417064
:100BD0004FEAD10110EB80054FEA810444EA90749A
:100BE00044EB01046D1944EB0404521BA3414FF084
:100BF000000348BF0A3200D530BD401C41F100015E
:100C000030BD10B50446FFF74FFC0068005D00F0F2
:100C1000010010BD2DE9F0470D4699469246044665
:100C200000F124080168880604D5E06921F010016C
:100C3000216000E00120A84201DD471B00E0002701
:100C4000A1697A1902EB0900081AA0612078C00690
:100C500002D42046FFF734FC002608E0D4E9012145
:100C60001AF806009047206A401C761C20624E4508
:100C7000F4DB2078C0060AD52046FFF721FC06E009
:100C8000D4E9012130209047206A401C2062381EA0
:100C9000A7F10107F4DC07E0D4E9012118F8050009
:100CA0009047206A401C2062281EA5F10105F3DC54
:100CB0002046FFF71BFC2078000602D50220BDE885
:100CC000F0870120FBE770472DE9FF4F0C461E46D9
:100CD0004FF0FF378BB0D2E90001DDF860800A9059
:100CE0008A46C1F30A5505B93D46002108464FF032
:100CF0000000BAF1000F00F4400005DA00EB8000BC
:100D00004FF4400101EA50004FEA9059B9F1010F48
:100D100000DDB9460A9850EA4A000ED044F6105059
:100D2000A5F2FF3545432F14B8F1000F1ED07542D0
:100D3000291E1EDDC9F100021CE0B8F1010F4FF0C1
:100D4000000001D0302103E0F24305E02154401CB3
:100D5000B042FBDB30460022002121540B99C1F840
:100D60000880C1E900200FB0BDE8F08FBD1B6D1CED
:100D7000DEE74A4600DA694206A800F00FFD06AB3E
:100D800093E8070003AB83E8070050460A9900F098
:100D9000CFFF8DE80700A0F500501F3800900398A2
:100DA000002D0ADD42F21F014A460844002303A930
:100DB0000390684601F07AFA09E0A0F500504A462F
:100DC0001F38002303A90390684601F099FA8DE8C3
:100DD00007000004000C03D04FF0FF30410800E092
:100DE0001046B8F1000F03D00022009215461EE015
:100DF000751E05D4FFF7C0FE303262556D1EF9D561
:100E0000B3460122084302D000227F1C04E0207870
:100E1000302801D100227F1E002A099784D01DE0CE
:100E2000112D07DAFFF7A8FE303262556D1C50EA2B
:100E30000102F5D1084302D00098C8B10EE00021AC
:100E4000681E05E0235C625C63542254401E491C0A
:100E50008142F7DBAB46A81B401E0990002004F836
:100E60000B000B98099AC0F80880C0E9002B7AE7BC
:100E700011264FF0000857E72DE9F04F8846044649
:100E8000D21D22F0070191B0D1E90001CDE90A019C
:100E900007F040FA02460B98C00F01D02D2007E062
:100EA0002068810701D52B2002E0202101EAC00043
:100EB000032A099001D0072A05DB03464146204654
:100EC00000F0B0F90BE12078800601D5E06900E080
:100ED0000620B8F1650F814606D0B8F1660F18D02C
:100EE000B8F1670F70D131E00020B9F1110F009017
:100EF00001DB112301E009F101030AAA01A90CA8F1
:100F0000FFF7E2FEDDE90C70002609F101058346DA
:100F100047E001204B4600904FF000470AAA01A984
:100F20000CA8FFF7D1FEDDE90DB00C995D46002657
:100F300010B909F101000D18B9EB050003D4C0F197
:100F4000FF3609F10105A5EB09002BE0B9F1010F0E
:100F500001DA4FF001090020B9F1110F0090484665
:100F600001DD112300E003460AAA01A90CA8FFF73E
:100F7000ABFEDDE90C704D46002683462078000765
:100F80000AD4AB4500DA5D4601A8012D04DD411904
:100F900011F8011C302907D04F4502DA17F1040F70
:100FA00004DA012082460FE06D1EEEE7002F02DC1E
:100FB000ED1B3E4403E0781CA84200DD7D1CB81BFD
:100FC00000F1010A4FF000472078000703D4AA453A
:100FD00001DB4FF0FF3A0021B7F1004F0DF143085C
:100FE0008DF8431024D002202B23002F01DA7F42FA
:100FF0002D230A21021EA0F1010000DC5FB197FB46
:10100000F1FC97FBF1F201FB1C7C17460CF1300C54
:1010100008F801CDEEE7A8F1010003702188090569
:1010200001D5452100E06521A0F1010800F8011C6F
:1010300009980FA9A1EB0807FF1D00B10120411974
:1010400001EBEA70A1693844081A401EA0612078BB
:10105000C00602D42046FFF733FA099828B1D4E934
:1010600001219047206A401C20622078C00622D5CA
:101070002046FFF725FA1EE0002E04DBB34502DD13
:1010800001A8805D00E03020D4E901219047206A6A
:10109000401C2062761CAAF101005FEA000A0AD116
:1010A000FFF766FDC0680168405CD4E90121904704
:1010B000206A401C2062281EA5F10105DCDC07E047
:1010C000D4E9012118F8010B9047206A401C2062E6
:1010D000381EA7F10107F3DC2046FFF707FA0320CB
:1010E00011B041E610B5436913B1AFF3008001E0E0
:1010F000FFF71FFA012010BD127800F124010A70D9
:1011000000224A700122EDE711684FF0FF32E9E753
:1011100010B5436913B1AFF3008001E0FFF7A0FA07
:10112000012010BD128800F1240182840022C284B3
:101130000122EDE711684FF0FF32E9E73A2800D2CB
:10114000303820F02002412A01D3A2F13700884232
:1011500001D34FF0FF307047426842B1016811F887
:10116000013B23B1521EC0E900121846704701210D
:10117000C160881E704742685AB1C368016843B9AC
:1011800083688B4205D0491E521CC0E90012002022
:1011900070474FF0FF30704770B516460C46054655
:1011A000FFF782F9036893F80101012806D0FF2CAC
:1011B0000FD8185D68B101202C7070BDD3F80701FD
:1011C0003246214603F2071303442846BDE8704027
:1011D00018474FF0FF3070BD7546FFF7C5FCAE46AF
:1011E00005006946534620F00700854618B020B533
:1011F000FFF750F8BDE820404FF000064FF0000721
:101200004FF000084FF0000B21F00701AC46ACE8AE
:10121000C009ACE8C009ACE8C009ACE8C0098D461B
:10122000704700002DE9F0411F460446032601687F
:10123000072A01F4006004DB08B116A505E016A535
:1012400003E008B115A500E015A521F0100020600D
:10125000A069C01EA0610FB1401EA0612046FFF72B
:101260002FF94FB1D4E9012138469047206A401C3C
:101270002062C01C206206E0206AFAE7D4E901215E
:1012800015F8010B9047761EF8D22046FFF72EF98D
:10129000BDE8F0814E414E006E616E00494E460041
:1012A000696E66002DE9FF4F06468BB00878FF286F
:1012B00006D0491C2D2805D000244FF0000908E075
:1012C00000200CE00124F8E709EB8903491C00EB3E
:1012D00043090878FF28F7D114B1C9F1000081460D
:1012E000107800252C46AA4629462D2801D02B2807
:1012F00004D1521C2D2813D0002082468B46107832
:10130000FF280FD04FF0000C0A21521CA5FB0178DA
:1013100004FB018105FB0C11C5194BEB0104EEE741
:101320000120EAE7002108464FF00000BAF1000F63
:1013300002D000EB80004008C0F38157012F01DD8F
:101340004FF0FF370E9955EA040009EB01080BD066
:101350004FF0020918F5FA7F16DA4FEACA70002F2B
:10136000706008DD012007E04FEACA70C6E900B0EE
:101370000FB0BDE8F08F00203060FFF79DF8C0F897
:1013800000901821084616E0B8F5FA7F18DD002F06
:1013900002DAF748784401E0F6487844D0E90010D2
:1013A000C6E9001040EACA707060FFF785F8C0F81F
:1013B0000090142108460FB0BDE8F04F07F04ABF77
:1013C000002108464FF00000B8F10001099002DA50
:1013D000C7F1000200E03A4601DAC8F1000106A8B0
:1013E00000F0DCF906AB93E8070003AB83E80700E5
:1013F00044F23E005BEA04010090584604D144F2F6
:101400001E012C465D460091210C0904014306D1C2
:101410000099240444EA15442D041039009104F085
:101420007F41014306D10099240244EA15642D024C
:101430000839009104F07041014306D1009924015C
:1014400044EA15742D01091F009104F04041014345
:1014500006D10099A40044EA9574AD00891E00915C
:1014600004F00041084304D100986D196441401E06
:1014700000904FF001033A466846B8F1000FCDE9FD
:10148000014503A902DD00F050FF01E000F023FF59
:10149000BAF1000F04460D4601D084F0004400214B
:1014A00008464FF00000099940F2FF77484010F0DD
:1014B0000C0F07D124F00040284303D0C4F30A5096
:1014C000B84212D1FEF7F8FFC0F80090C4F30A50FA
:1014D000B8420AD1A8487844D0E90010C6E9001003
:1014E00004F000410843706042E7C6E900543FE75A
:1014F0002DE9FF4F1F464FF0000A4FF0FF384546D9
:1015000091B0D7E90146CDF83CA0FFF731FBC068A8
:101510000168405C1090B96912986D1C8847396A5F
:10152000814688470028F6D1B9F1FF3F0AD0002E46
:1015300024F4D06411DDB9F12B0F08D0B9F12D0FCF
:101540000BD102E0404615B013E744F48064B9695A
:1015500012986D1C8847761E8146600504A901D546
:101560002D2000E02B20002E01F1010B0DF13008A1
:101570008DF810003FDDB9F1690F08D0B9F1490FBE
:1015800005D0B9F16E0F02D0B9F14E0F1CD13B4618
:1015900001A8009580E85002DDE912126FF0020008
:1015A00007F0C1FEC11CCED10EE0B96912986D1CC6
:1015B000884781461398761E44F4007405600F989E
:1015C000401C002E0F9016DDB9F1300FEDD0B9F1AF
:1015D000780F02D0B9F1580F0DD10F9801280AD118
:1015E0003B46CDE90054DDE91212001F029607F0D8
:1015F00098FEC11CA7D1109989453ED144F08004C2
:1016000006E01399681CAAF1010A44F4007408600A
:10161000B9696D1C1298761E884730288146F0D033
:101620002BE01099894505D1200603D4761E44F09D
:10163000800418E0484606F002FF08B3761E0DF15C
:1016400023018B4544F4007408D2A9F130000BF853
:10165000010B200607D5AAF1010003E0200602D401
:101660000AF101008246A00502D51399681C0860A2
:10167000B96912986D1C88478146002ED1DC53E071
:10168000002E51DDB9F1650F02D0B9F1450F4BD1F4
:10169000A00549D5B9696D1C1298761E24F44074D2
:1016A0008847002E81460CDD2B2804D0B9F12D0F80
:1016B00007D144F48074B96912986D1C8847761E6E
:1016C0008146E00501D52D2100E02B2108F8011B02
:1016D000CDF8008021E0761E0DF13901884544F4F3
:1016E00000740CD2A9F1300010F0FF0088F800005F
:1016F00002D10099884509D908F1010806E0E00502
:1017000001D51E4801E042F20F708246B969129875
:101710006D1C8847814613980560002E04DD4846FD
:1017200006F08DFE0028D6D1F96912988847FF206F
:1017300053468BF8000088F8000000200A900B90B8
:1017400004AA0CA90AA8FFF7ADFDA00502D46FF00A
:101750000100F8E614F0240F12D0E0071CD138681D
:10176000DDE90A12031D3B600068C0E9001213E0C6
:1017700054820000468200000A810000F1D8FFFF79
:101780000AA9684606F0EAFDE00705D13868009A24
:10179000011D3960006802602846D4E62DE9F04753
:1017A000814616468AB0354878440DC88DE80D004C
:1017B00032487844801C03AC0DC884E80D0041F623
:1017C0009B300844372190FBF1F290FBF1F5A5F135
:1017D000800501FB12041B3C02D56442012000E09D
:1017E0000020DFF898A080460027FA44AAF1BE0A3C
:1017F0000EE0E0070AD03246684607EB47010123B6
:101800000AEB810100F07CFD8DE8070064107F1C6D
:10181000002CEED1194F7F44AE3F19E0E80715D0F8
:1018200007EB04100DF1180A90E80E008AE80E008C
:10183000C068F04201D1981908903246012306A9E8
:1018400003A800F05DFD03AB83E807006D10641C86
:10185000002DE3D14FF0010332466946B8F1000F85
:1018600003A802D000F022FD01E000F049FDC9E923
:101870000001C9F808200AB0BDE8F087D07C00005C
:1018800010B50446AFF300802046BDE81040FEF7D7
:10189000ECBC10B5FEF710FE006810BD10B5044694
:1018A000FEF70AFE046010BD2DE9FF4F1F464FF002
:1018B0003C0987B04FF00042DDE9141001F1010846
:1018C000DDF858A002EA40500390002005908346BE
:1018D000054604460490B969461E08988847AAF14F
:1018E000010A0290BAF1000F3BDD02982E2815D0B4
:1018F0001021FFF723FC00282EDB4FF0010B059988
:10190000014317D0B9F1000F0BDB4A46C11700F0B5
:10191000FBF905430C43A9F1040905E001200490FB
:101920000BE008B145F0010501200590049820B9AD
:10193000361D02E0049800B1361FB969089808F115
:1019400001088847BBF1000FAAF1010A0290C9D033
:101950000999C1F80080C5E70298702808D050287E
:1019600006D0F96908988847BBF1000F14D04FE002
:10197000002002900120BBF1000F049009D0B9694A
:10198000089808F101088847AAF10109B9F1000F88
:1019900007DCF969089888476FF001000BB0BDE8D3
:1019A000F08F2B2804D02D280CD14FF0FF3004905D
:1019B000B969089808F101088847A9F10109B9F146
:1019C000000FE6DD411CE4D00A21FFF7B7FB002839
:1019D000DFDB029908F1010801EB810100EB410016
:1019E0000290B969089888470A21FFF7A7FB099A6E
:1019F000A9F10109B9F1000FC2F8008001DD00284A
:101A0000E7DAF969089888470499029800FB0166AB
:101A100055EA040004D004F04041090002D006E079
:101A2000039898E0A40044EA9574AD00B61E04F053
:101A30000041080002D16D196441761E159810F01E
:101A4000240F03D04FF00B095C4803E04FF0280946
:101A50006FF07D008246564507DAAAEB06018944FD
:101A6000B9F1410F01DD4FF0410901200021A9F139
:101A7000010200F049F9024628400B462140084384
:101A800001D0012100E00021501E029143F1FF31FD
:101A900028402140084301D0012000E000200299A5
:101AA000834651EA0B014FD0002108464FF0000059
:101AB000039900F4400039B100EB80004FF440017D
:101AC00000EBD07001EA60008015012802DD4FF0C4
:101AD000FF3000E013D0401C36D0029860B3BBF159
:101AE000000F0CD14A460120002100F00DF92840DA
:101AF0002140084301D0012000E00020E0B1012096
:101B00004A46002100F000F9034640190A466141A7
:101B10002D1A8C4111D3B9F1400F09DD159810F041
:101B2000240F02D0AAF1340603E0AAF1170600E060
:101B3000761C00254FF0004406E05B1E42F1FF32A8
:101B400020EA030521EA0204CAF10100B04206DAE4
:101B50001B49039808430190002000900EE0039A6F
:101B6000C4F3D321E80A0A43164940EA44500A4321
:101B70003146CDE90002684606F056FC159810F093
:101B8000240F0BD01598C00715D13868DDE9001275
:101B9000031D3B600068C0E900120CE002A8694622
:101BA00006F0DCFB1598C00705D13868029A011DC4
:101BB0003960006802604046F0E6000002FCFFFF6A
:101BC0000000F07F0000F03F2DE9FF4F92461D46D8
:101BD00085B04FF00041DDE9124BDDE914727F1E44
:101BE00001EA4B50414940F0FF4940EA0108002119
:101BF00022F020004928049102D04E2828D04CE041
:101C00003BA0012607C88DE80700A9690698641C57
:101C100088477F1E014606D41DF8060018B121F042
:101C2000200181420BD0E96906988847032E34D001
:101C3000082E32D06FF0010009B0BDE8F08F761C9D
:101C4000032E01D0082EE0D1601CCAF80000DCE7AA
:101C5000A9690698641C88477F1E2AD420F02000BA
:101C6000412826D1A9690698641C88477F1E20D484
:101C700020F020004E281CD1A9690698641C8847D2
:101C80007F1E48F4002849F48009CAF8004001D4B6
:101C9000282806D0E969069888475FEACB7012D0F9
:101CA00022E0A9690698641C88477F1E01D4002899
:101CB00003DAE96906988847BCE72928F1D1641C52
:101CC000CAF80040E9E71BF0240F07D02868049900
:101CD000031D2B600068C0E9001805E02868021D9C
:101CE0002A600068C0F800902046A5E70000F07F59
:101CF000494E46494E4954590000000001491820F8
:101D0000ABBEFEE726000200B2F120030AD5C2F105
:101D1000200301FA02F120FA03F300FA02F041EA8B
:101D20000301704700FA03F14FF00000704770475D
:101D30005FEA400C08BF91F0000F4FEA8C234FEA96
:101D4000C12243EA51514FEA1C5018BF00F5F04040
:101D50004FEA300018BF41F000415FEA6C5C00F0D0
:101D60002980BCF1FF3F08BF40F080407047130C52
:101D700006BF12044FF0100C4FF0000C130E04BFFE
:101D800012020CF1080C130F04BF12010CF1040C29
:101D9000930F04BF92000CF1020CD30F04BF52004A
:101DA0000CF1010C11464FF00002A0F11F00A0EB56
:101DB0000C00704711F0004F08BF704731F0004130
:101DC0003FF4D5AF0B0C06BF09044FF0100C4FF0D9
:101DD000000C0B0E04BF09020CF1080C0B0F04BF22
:101DE00009010CF1040C8B0F04BF89000CF1020CEB
:101DF000CB0F04BF49000CF1010CCCF12003A0EB88
:101E00000C0022FA03F302FA0CF241EA030100F19A
:101E10000100704720F07F4C80EA030023F07F47E9
:101E2000ACEB070303F57C5300F0004003F1FF0324
:101E30002DE980494FEA154B09B44FEA144325EACE
:101E40000B4E24EA03480FF2042606EB1327490839
:101E50003E785FEA320203FB0667C7F5000707FB1F
:101E600006F64FEA54374FEAD64606F1020607FB5C
:101E7000066CCCF1005C4FEA1C472CEA074C07FBD0
:101E800006F40CFB06F504EB15464FEA961634BF34
:101E900000204FF000404FEAD13706FB07FC4FEA25
:101EA0001C4C0CFB0BF7D21B03FB0CF761EB07017F
:101EB0000CFB0EF7B0EB074072EB17420CFB08F778
:101EC00034BFA2EB0742B2EB074261EB17414FEA86
:101ED0000C444FEA910706FB07FC4FEA1C4C0CFB35
:101EE0000BF7B0EBC74072EB573203FB0CF734BF74
:101EF000A2EBC742B2EBC74261EB57310CFB0EF7C6
:101F0000B0EBC70072EB57720CFB08F734BFA2EBC3
:101F1000C702B2EBC70261EB5771039F4FEA8161C1
:101F200041EA921104EBCC044FEAD1374FEA8262C6
:101F300006FB07FC42EA90124FEA80604FEA1C4C15
:101F40000CFB0BF7D21B03FB0CF761EB07010CFB3F
:101F50000EF7B0EB074072EB17420CFB08F734BFEB
:101F6000A2EB0742B2EB074261EB17414FEA8C55F7
:101F70004FEA910704EB9C2406FB07FC4FEA1C4C3C
:101F80000CFB0BF7B0EBC74072EB573203FB0CF7BF
:101F900034BFA2EBC742B2EBC74261EB57310CFB37
:101FA0000EF7B0EBC70072EB57720CFB08F734BFAB
:101FB000A2EBC702B2EBC70261EB577115EB4C25E0
:101FC0004FEA816141EA92114FEA82624FEAD137CA
:101FD00042EA901206FB07FC44F100044FEA8060DD
:101FE0004FEA1C4C0CFB0BF7D21B03FB0CF761EB0D
:101FF00007010CFB0EF7B0EB074072EB17420CFB2E
:1020000008F734BFA2EB0742B2EB074261EB17417E
:1020100015EB1C154FEA813141EA92414FEA8232B9
:1020200042EA90424FEA80304FEA0C7644F10004D5
:1020300048EA03434EEA0B484FF0000EB2EB080C9F
:1020400071EB030724BF624639464EEB0E0E4FF08C
:10205000000B0018524149414BEB0B0BB2EB080C43
:1020600071EB03077BF1000B24BF624639464EEB50
:102070000E0E4FF0000B0018524149414BEB0B0B79
:10208000B2EB080C71EB03077BF1000B24BF624637
:1020900039464EEB0E0E51EA020718BF46F0010614
:1020A00016EB0E7655F1000254F1000103D5BDE8A0
:1020B0008901BDE80088BDE88901BDE80048B6197E
:1020C000524141EB0101A3F10103704780807F7E03
:1020D0007D7C7B7A7978777676757473727171709E
:1020E0006F6E6E6D6C6C6B6A6A6968686766666550
:1020F0006464636362616160605F5F5E5E5D5D5CDE
:102100005C5B5B5A5A59595858575756565555554E
:102110005454535352525251515050504F4F4F4EAE
:102120004E4D4D4D4C4C4C4B4B4B4A4A4A494949FC
:10213000484848474747474646464545454444443E
:1021400044434343434242424241414146EA0646F8
:10215000A3F570534FEA164646EA42564FEAD2229A
:1021600042EA415210B54FEAD121A3F1010300F038
:102170002FF820F0004000F1020C00F0004701EBC6
:1021800000501146BCF5006F40EA070000D210BDB8
:10219000BAF1000F0AD01CB503B44FF004004FF0A1
:1021A00004014FF000000FBCBDE810404FF00001EB
:1021B000BBF1010FB9BF04484FF0FF3103480021C4
:1021C00040EA070010BD00BFFFFFEF7F0000F07F77
:1021D000002B9C4630D477002BD01CB54FEA370734
:1021E00003B44FF010004FF01001BAF1000F06D009
:1021F000BCF1000FDCBF40F0080040F008014FF0D8
:1022000000000FBCBDE810400BF1010BBBF1010F4A
:1022100008BF5FEA170722BF12F1010211F10101A5
:102220004FF0004143F1000300F0004043EA00009A
:102230007047F9D35708D0E746EA064613F1400F36
:102240004FEA16461FDD13F1200FDFBF16430A4683
:10225000002120335B42BED0C3F1200746EA064688
:1022600002FA07F74FEA164646EA0706C3F12007C7
:1022700022FA03F201FA07F721FA03F14FF0000303
:1022800042EA0702A7E746EA020646EA06464FEA9E
:10229000164646EA0106BCBF46EA0646360C4FF033
:1022A00000034FF000024FF0000194E72DE9804C4D
:1022B0009A46934670B491E8380007C831EA400C5A
:1022C00048BF34EA430C03D5FFF7A4FDFFF780FFB6
:1022D000F0BCBDE8008C2DE9804C9A46934670B462
:1022E00091E8380007C831EA400C48BF34EA430C93
:1022F00003D5FFF78FFDFFF729FFF0BCBDE8008C89
:102300002DE9804C9A46934670B491E8380007C88E
:1023100010F0804F08BF13F0804F03D100F01AF87F
:10232000FFF756FFF0BCBDE8008C2DE9804C9A46C3
:10233000934670B491E8380007C810F0804F08BF8A
:1023400013F0804F03D100F005F8FFF7FFFEF0BC5B
:10235000BDE8008C20F07F4780EA030023F07F4C2B
:1023600007EB0C03A3F57C5300F00040A3F1FE0340
:1023700092F0000F00F0B38095F0000F00F077802E
:102380002DE901494FEA11404FEA144621EA00487D
:1023900000FB06FC24EA064708FB06F607FB08F8E4
:1023A00000FB07F718EB06484CEB164C4FEA124BB4
:1023B00018EB07484FEA15464CEB174022EA0B4E44
:1023C0000BFB06FC25EA06470EFB06F607FB0EFE96
:1023D0000BFB07F71EEB064E4CEB164C4FF00006BE
:1023E0001EEB074E4CEB174B18EB0B0840F10000AF
:1023F00018EB0E0B58EB000840F100008F1A4FF05D
:1024000000013CBFC943661B14BFB5EB040C00219F
:102410003CBFC943F61B4FEA17444EEA8E0E27EA2B
:1024200004454FEA1C4704FB07622CEA074C05FBF6
:1024300007F70CFB05F604FB0CFC16EB074642EB1A
:10244000174216EB0C4642EB1C421BEB060658EB00
:102450000202414146EA9E0601D5BDE80189B6194E
:10246000524141EB0101A3F10103BDE801894FEAAB
:1024700014454FEA114724EA054621EA074C05FBBB
:1024800007F406FB07F70CFB06F105FB0CFC11EB50
:10249000074144EB17444FEA124711EB0C4144EB60
:1024A0001C4422EA074C05FB07F206FB07F70CFB6E
:1024B00006F605FB0CFC16EB074642EB174216EB43
:1024C0000C4642EB1C456A1854F1000148BF7047A6
:1024D000B619524141EB0101A3F10103704795F098
:1024E000000F37D04FEA11424FEA144721EA024663
:1024F00024EA074C02FB07F106FB07F70CFB06F486
:1025000002FB0CFC14EB074441EB17414FEA154763
:1025100014EB0C4441EB1C4125EA074C02FB07F588
:1025200006FB07F70CFB06F602FB0CFC16EB074656
:1025300045EB174516EB0C4645EB1C42121951F1C1
:10254000000148BF7047B619524141EB0101A3F1A8
:10255000010370474FEA14454FEA114724EA054644
:1025600021EA074C05FB07F106FB07F70CFB06F217
:102570004FF0000605FB0CFC12EB074241EB174144
:1025800012EB0C4251EB1C4148BF7047921841EBD3
:102590000101A3F10103704710B502F011FC10BD59
:1025A00070B506460C46154608E03046721C96B2D9
:1025B00000F01DF804F8010B681E85B2002DF4D15F
:1025C00070BD2DE9F04107460C460026002509E0C4
:1025D00036023919491B491E88B200F008F8064432
:1025E000681CC5B2A542F3DB3046BDE8F08170B58A
:1025F0000446002602F092FCA02002F05BFC02F0F0
:10260000D9FC201202F056FC02F0D4FC2546E1175A
:1026100004EB11610912A4EB0121C8B202F04AFCDB
:1026200002F0C8FC02F07AFCA12002F043FC02F0A8
:10263000C1FC002002F006FC064602F095FC304684
:1026400070BD70B505460C46164606E02178284652
:1026500000F01EF8681C85B2641C301EA6F1010152
:102660008EB2F3D170BD2DE9F04105460E461746F6
:10267000002409E0E20026FA02F2D1B22A1990B24F
:1026800000F006F8601CC4B2BC42F3DBBDE8F08188
:1026900070B504460E4602F041FCA02002F00AFC90
:1026A00002F088FC201202F005FC02F083FC2546B3
:1026B000E11704EB11610912A4EB0121C8B202F089
:1026C000F9FB02F077FC304602F0F4FB02F072FCFA
:1026D00002F04AFC0A2005F0B9FE70BD00BFFEE71B
:1026E00010B51848008800F40040002828D016488B
:1026F000007830B11548007818B915A005F0BCFB7A
:1027000018E010480478002017490855084605F0DD
:10271000B3FB0A2005F086FB1348007818B911A016
:1027200005F0AAFB06E0104804F0F2FB10B90FA078
:1027300005F0A2FB0FA005F09FFB002001490880D7
:1027400010BD00000400002075000020980000204B
:10275000456D657267656E63792069732070726577
:10276000737365640A000000C40000203C4E413EC3
:102770000A0000003E3E000010B5044621461FA09E
:10278000FDF74EFE58B92048007818B11FA005F09B
:1027900073FB02E020A005F06FFB012010BD214675
:1027A00020A0FDF73DFE30B921A005F065FB03F048
:1027B00025F90120F2E721461EA0FDF731FE58B9A8
:1027C0001F48007818B11FA005F056FB02E020A0BA
:1027D00005F052FB0120E1E7214620A0FDF720FE95
:1027E00048B90020164908701F49086008A005F084
:1027F00043FB0120D2E70020D0E700006973206886
:102800006F6D65640000000081000020484F4D4559
:102810003C4F4B3E0A000000484F4D453C4E4F3E5A
:102820000A0000006D6F746F72207265736574002A
:102830003E3E0000697320737461727400000000F2
:102840007400002053544152543C4F4B3E0A000048
:1028500053544152543C4E4F3E0A00007465737409
:10286000206F766572000000BC0121420146002005
:102870007047000010B50446214632A0FDF7D0FD98
:1028800050B90020354908603549C1F8840135A0A8
:1028900005F0F2FA012010BD214635A0FDF7C0FD7C
:1028A00050B901202D4908602D49C1F8840136A096
:1028B00005F0E2FA0120EEE7214636A0FDF7B0FD73
:1028C00058B901202549086000202549C1F8840134
:1028D00036A005F0D1FA0120DDE7214636A0FDF74C
:1028E0009FFD50B90120394908700020384908700F
:1028F00038A005F0C1FA0120CDE7214637A0FDF749
:102900008FFD48B90020314908703149087031A065
:1029100005F0B2FA0120BEE7214635A0FDF780FDA3
:1029200068B92B480078012804D135A005F0A4FA35
:102930000120B0E734A005F09FFA0120ABE70020AA
:10294000A9E700006D65617375726520636F696C3E
:102950003120746F20636F696C320000B0812142B6
:10296000008021423C43312D43323E0A00000000EA
:102970006D65617375726520636F696C3120746F6A
:1029800020676E64000000003C43312D474E443EFA
:102990000A0000006D65617375726520636F696C74
:1029A0003220746F20676E64000000003C43322DBB
:1029B000474E443E0A000000656E61626C652073FC
:1029C00074617274206B657900000000A60000201D
:1029D000A50000203C4F4B3E0A0000006469736173
:1029E000626C65207374617274206B6579000000FD
:1029F000726561647920746F20746573743F0000A0
:102A00003C5945533E0A00003C4E4F3E0A00000030
:102A100010B5044621463DA0FDF702FD50B9012046
:102A20003E49087000203E4908703EA005F024FA97
:102A3000012010BD21463DA0FDF7F2FCE0B93F4862
:102A40000078022809D101203D49087000203D4945
:102A5000087001203C49086009E0384800780428E3
:102A600005D10120394908700020394908702DA08E
:102A700005F002FA0120DCE7214636A0FDF7D0FC84
:102A8000C8B92E480078022807D100202C490870C8
:102A90002C4908702C49086008E028480078042870
:102AA00004D1002029490870294908701DA005F0AB
:102AB000E3F90120BDE721462AA0FDF7B1FC10BBD8
:102AC0001E480078022802D004281CD10DE01D48C1
:102AD0000078012804D127A005F0CEF90120A8E74D
:102AE00027A005F0C9F90120A3E7194800780128BB
:102AF00004D120A005F0C0F901209AE720A005F03C
:102B0000BBF9012095E7002093E700006D6F746F1B
:102B10007220676F20686F6D6500000085000020DF
:102B2000810000203C4F4B3E0A0000006275747427
:102B30006F6E20656E61626C650000009800002079
:102B4000A3000020A200002088812242A6000020CD
:102B5000A5000020627574746F6E206469736162F1
:102B60006C650000697320627574746F6E206F6B02
:102B700000000000425554544F4E3C4F4B3E0A005B
:102B8000425554544F4E3C4E4F3E0A0070B592B0E1
:102B900005460A222FA12846FDF7F7FB002828D179
:102BA000119005F10A0600240A2211A93046FDF70A
:102BB00095FB044611980078202815D1A4B1F62C75
:102BC00012D20220009004F10A008005010C40237B
:102BD000119A521CA02002F08BF8214620A005F08B
:102BE0000FF9012012B070BD22A005F045F90120B7
:102BF000F8E70A2221A12846FDF7C7FB38BB0020D1
:102C0000119005F10A0600240A2211A93046FDF7A9
:102C100065FB044611980078A0B99CB1F62C11D23E
:102C20000220009004F10A008005010C402301AA53
:102C3000A02001F0EBFF01AA214613A005F0E0F867
:102C40000120CFE70BA005F017F90120CAE700200B
:102C5000C8E700007361766520696E666F2000002A
:102C60007361766520696E666F202564204F4B0A7C
:102C7000000000003C4E413E0A00000072656164A5
:102C800020696E666F2000007265616420696E665F
:102C90006F20256420252E3634730A00F8B50446CB
:102CA000062246A1601CFDF770FB00283ED120786B
:102CB00030384449087008460078032831DA00208B
:102CC0000090E51D0A2269462846FDF707FB3D49AD
:102CD000097801EBC1013C4A02EB81014860009890
:102CE000401BC6B2002E1BDD042E19DC35480078CF
:102CF00000EBC00002EB800041683248007804F02D
:102D000085FC3048007800EBC0002F4901EB8000C3
:102D100042682C4801782DA005F072F80120F8BD1A
:102D200000BF2EA005F0A8F80120F8E709222DA188
:102D30002046FDF72AFB00282FD1009004F1090559
:102D40000A2269462846FDF7C9FA1F4948600098DB
:102D5000401BC6B2002E1BDD042E19DC084641685C
:102D600081624168C1644168002004F04FFC16484C
:102D7000816A012004F04AFC1348C16C022004F06F
:102D800045FC114841681AA005F03AF80120C6E751
:102D900012A005F071F80120C1E719A12046FDF746
:102DA0003FFB40B90848C36C826A416817A005F030
:102DB00027F80120B3E70020B1E70000232061637A
:102DC00063200000AF00002008000020415B256464
:102DD0002D25645D3C4F4B3E0A0000003C4E413EB9
:102DE0000A000000616C6C23206163632000000016
:102DF000415B616C6C2D25645D3C4F4B3E0A0000CD
:102E00006163632023616C6C00000000415B305DF6
:102E10003C25643E2C415B315D3C25643E2C415B8E
:102E2000325D3C25643E0A00F8B50446092221467D
:102E300010A0FDF7AAFAD0B90020009004F109050E
:102E40000A2269462846FDF749FA064600980078A6
:102E50005D2807D10098407820B9304605F0D2F9B6
:102E60000120F8BD06A005F007F80120F9E70020D1
:102E7000F7E7000062617564726174655B000000D1
:102E80003C4E413E0A00000070B50546294619A097
:102E9000FDF7C6FA18B903F0CDFF012070BD04227A
:102EA000294615A0FDF771FA10BB002409E0201D8A
:102EB000285C5D2803D10021201D295403E0601CFB
:102EC000C4B20B2CF3DB00BF002C0CDD0B2C0ADA98
:102ED000201D285C38B9601D285C20B9281D05F02C
:102EE000A5F90120DAE706A004F0C6FF0120D5E726
:102EF0000020D3E766736E0066736E5B000000000F
:102F00003C4E413E0A00000010B50446214605A093
:102F1000FDF786FA18B903F0FFF8012010BD002074
:102F2000FCE7000068656C7000000000F8B504461E
:102F3000214615A0FDF774FA18B903F08DFF0120A2
:102F4000F8BD0322214611A0FDF71FFAC8B90020E1
:102F50000090E51C0A2269462846FDF7BFF9C6B273
:102F6000009800785D2807D10098407820B9304655
:102F700005F070F90120E3E705A004F07DFF0120D2
:102F8000DEE70020DCE700006876000068765B0082
:102F90003C4E413E0A000000F0B585B0054624A134
:102FA0002846FDF73DFAB0B900240BE0611CC8B219
:102FB00001F01CFD08B1312000E030200DF80400C4
:102FC000601CC4B2122CF1DB69461BA004F018FF90
:102FD000012005B0F0BD04221BA12846FDF7D5F95C
:102FE00018BB002004902E1D0A2204A93046FDF7CC
:102FF00075F9C4B2049800785D2811D1049840781E
:1030000070B9002C0CDD122C0ADC204601F0EEFC1D
:1030100007463A4621460EA004F0F2FE0120D8E70A
:103020000FA004F029FF0120D3E70020D1E7000022
:10303000696E707574730000494E505554533C25A9
:103040002E3138733E0A0000696E745B0000000088
:10305000494E545B25645D3C256C643E0A000000CB
:103060003C4E413E0A0000007CB5054609224BA1BA
:103070002846FDF78AF9002833D1687A30384A4962
:10308000087008460078032826DA03217C2004F023
:103090009FF9454909784A0002219140084008B14A
:1030A000012000E000204049097801EBC1013F4ABE
:1030B00002EB810181F820003B48007800EBC00062
:1030C000114601EB800090F820203748017838A0A5
:1030D00004F096FE01207CBD39A004F0CDFE012055
:1030E000F9E70A2238A12846FDF74FF998BBA87ADC
:1030F00030382D49087008460078032826DA032165
:103100007C2004F065F9284909784A0001219140A2
:10311000084008B1012000E000202349097801EBB4
:10312000C101224A02EB810181F821001E4800788A
:1031300000EBC000114601EB800090F821201A48F6
:10314000017824A004F05CFE0120C4E71CA004F078
:1031500093FE0120BFE7FFE722A12846FDF760F9B3
:10316000C8B903217C2004F033F9064600240AE0A4
:1031700020202041304008B1312000E030200DF8FF
:103180000400601CC4B2062CF2DB694618A004F0EF
:1031900037FE01209FE700209DE700006973206C47
:1031A0006566742023000000AF00002008000020A6
:1031B0005245464C5B25645D3C25643E0A00000098
:1031C0003C4E413E0A0000006973207269676874D2
:1031D00020230000524546525B25645D3C25643E39
:1031E0000A0000006973206C696D697400000000BA
:1031F0004C494D49543C252E36733E0A00000000D0
:10320000F8B504460A22ACA1601CFDF7BEF8002800
:103210007ED1E07A2B2802D0E07A2D287BD120784D
:103220003038A849087008460078032873DA00206F
:10323000009004F10C050A2269462846FDF74EF875
:10324000A049097801EBC1019F4A02EB81010861A5
:103250000098401BC6B2002E5CDD082E5ADC9B484D
:1032600098490978405CF8B1964A127802EBC2029C
:10327000954B53F82210934A1278062343EA4212E0
:10328000D0B204F09CFF8F48007800EBC0008E4A5B
:1032900002EB800041688B48007804F0B7F9002009
:1032A0008A49884A1278885402218648007804F0B6
:1032B00089F9E07A2B2810D1824A127802EBC202F7
:1032C000814B03EB820211697E4A1278002343EAA4
:1032D0004212D0B204F060FF10E07A4A127802EB9A
:1032E000C202794B03EB820212695142754A12788D
:1032F000002343EA4212D0B204F04EFF002171488D
:10330000007804F05FF972A004F0B6FD0120F8BD6A
:1033100006E000E000BF70A004F0AEFD0120F6E77B
:1033200007226FA1601CFDF730F800287ED1207ABB
:103330002B2802D0207A2D2879D120783038614985
:10334000087008460078032871DA0020009004F124
:1033500009050A2269462846FCF7C0FF5949097841
:1033600001EBC101584A02EB810108610098401B42
:10337000C6B2002E71DD082E6FDC54485149097821
:10338000405CF8B14F4A127802EBC2024E4B53F840
:1033900022104C4A1278062343EA4212D0B204F0BB
:1033A0000EFF4848007800EBC000474A02EB80005F
:1033B00041684448007804F029F900204349414A13
:1033C0001278885402213F48007804F0FBF8207AF4
:1033D0002B281AD13B490978022242EA4111C8B28E
:1033E00003F0BFFF3749097801EBC101364A02EB10
:1033F00081010969471833490978002242EA4111DD
:10340000C8B2394604F0C8FE1CE02E4909780222F1
:1034100042EA4111C8B203F0A4FF2A49097801EB3E
:10342000C101294A02EB8101096901E01BE015E0B5
:10343000471A24490978002242EA4111C8B23946A4
:1034400004F0AAFE00211F48007804F0BBF826A073
:1034500004F012FD01205AE7FFE700BF1EA004F0B0
:103460000BFD012053E7062221A1601CFCF78DFF14
:1034700000BB2078303813490870084600780328CC
:1034800013DA02210F48007804F09CF80D490978FE
:10349000082242EA4111C8B204F0A4FE09480178AA
:1034A00015A004F0ADFC012031E70BA004F0E4FC12
:1034B00001202CE700202AE723206D6F7665207419
:1034C0006F200000AF00002008000020AC000020AA
:1034D0003C4F4B3E0A0000003C4E413E0A000000BB
:1034E00023206D6F766520003C4F4B3E0D0A000097
:1034F000232073746F70000053544F505B25645D3C
:103500003C4F4B3E0D0A00007CB50446082230A11A
:103510002046FCF73AFFE0B92046FCF717FF1728D2
:1035200016D1A07D5D2813D1E07D88B9012508E082
:10353000E81D205C3038C1B2284604F0DBF9681C75
:10354000C5B20F2DF4DB25A004F05AFC01207CBD90
:1035500000BF042223A12046FCF717FF002834D126
:103560000190201D00900A2201A90098FCF7B6FEE8
:10357000C5B2019800785D2822D1019840785B2877
:103580001ED1002D1CDD0E2D1ADC002000900A2219
:1035900069460198801CFCF7A1FEC6B2009800782D
:1035A0005D280DD10098407850B93146284604F086
:1035B000A1F9324629460DA004F022FC0120C6E7FD
:1035C0000FA004F059FC0120C1E70020BFE7000074
:1035D0006F7574707574735B000000003C4F4B3E58
:1035E0000A0000006F75745B000000004F55545BCB
:1035F00025645D5B25645D3C4F4B3E0A0000000086
:103600003C4E413E0A00000010B5044627A120466A
:10361000FCF706FFB8B9022003F0A3FE2749486172
:10362000222003F09EFE25498863422003F099FE84
:103630002249C8650846C36D826B416920A004F029
:10364000DFFB012010BD0A2224A12046FCF79DFECD
:1036500050BBA07A30382449087008460078032807
:103660001DDA0978022242EA4111C8B203F079FE5C
:103670001D49097801EBC101104A02EB8101486143
:103680001948007800EBC000114601EB8000426948
:103690001548017815A004F0B3FB0120D2E716A06D
:1036A00004F0EAFB0120CDE70020CBE7706F7369DF
:1036B00074696F6E2023616C6C00000008000020AC
:1036C000505B305D3C25643E2C505B315D3C256495
:1036D0003E2C505B325D3C25643E0A00706F73697E
:1036E00074696F6E20230000AF000020505B2564DA
:1036F0005D3C25643E0A00003C4E413E0A0000004D
:1037000070B504460A224CA12046FCF73EFE002874
:1037100031D1A07A30384B49087008460078032828
:1037200024DA03F063FE474909784A0001219140F9
:10373000084008B1012000E000204249097801EB6F
:10374000C101414A02EB810181F823003D48007824
:1037500000EBC000114601EB800090F823203948AF
:1037600001783AA004F04CFB012070BD3BA004F0AE
:1037700083FB0120F9E709223AA12046FCF705FE68
:10378000002856D103217C2003F022FE0546607AF2
:1037900030382C49087008460078032844DA097844
:1037A0000A2242EA4111C8B203F0F8FD50B90120E3
:1037B0002449097801EBC101234A02EB810181F818
:1037C000220009E000201F49097801EBC1011E4ACF
:1037D00002EB810181F8220005F00300032803D1E8
:1037E0000120194981F8220005F00C000C2803D1B2
:1037F0000121154880F8461005F03000302803D12B
:103800000121114880F86A100E48007800EBC000D2
:103810000D4901EB800090F822200A48017814A09D
:1038200004F0EEFA0120A0E70CA004F025FB012033
:103830009BE7002099E70000697320726561636867
:1038400020230000AF000020080000205245414323
:10385000485B25645D3C25643E0A00003C4E413EC9
:103860000A00000069732073746F70202300000049
:1038700053544F505B25645D3C25643E0A000000B4
:1038800070B50446042223A12046FCF77EFD0028E3
:103890003DD1257960795D2834D1A079002831D1D6
:1038A000722D0AD140201D4908603020091D086092
:1038B0001BA004F0E1FA012070BD672D0AD1202081
:1038C000164908605020091D086018A004F0D4FAB9
:1038D0000120F1E7622D0AD1102010490860602014
:1038E000091D086014A004F0C7FA0120E4E7202DA8
:1038F00008D170200949091D086012A004F0BCFA23
:103900000120D9E712A004F0B7FA0120D4E7002083
:10391000D2E700007267625B0000000010140140F3
:103920005247425B525D3C4F4B3E0A005247425B5E
:10393000475D3C4F4B3E0A005247425B425D3C4F65
:103940004B3E0A005247425B205D3C4F4B3E0A0013
:103950003C4E413E0A0000002DE9FE438046042211
:1039600044A14046FCF711FD002845D1029008F122
:103970000400019000250A2202A90198FCF7AEFC80
:1039800085B2029800785D2835D1029840785B288E
:1039900031D1002D2FDD652D2DDA0020019001A9F8
:1039A0000298801C04F0E6FF064605F01DF8009022
:1039B000019800785D281ED101984078D8B900247C
:1039C0000AE01DF80410642202EB8502224490B242
:1039D000FEF75EFE601CC4B2042CF2DB009805F01A
:1039E000A7FB064632460B46294624A004F008FAF7
:1039F0000120BDE8FE8300BF04221EA14046FCF763
:103A0000C4FC002834D1029008F1040900250A22E0
:103A100002A94846FCF762FC85B2029800785D284E
:103A200021D102984078F0B9002D1CDD652D1ADAFD
:103A300000240AE0642101EB8501214488B2FEF7ED
:103A4000D6FD01A90855601CC4B2042CF2DB019814
:103A500005F06EFB064632460B4629460CA004F0E4
:103A6000CFF90120C5E70EA004F006FA0120C0E757
:103A70000020BEE7726F6D5B00000000524F4D5B8F
:103A800025645D5B252E33665D3C4F4B3E0A00008E
:103A9000524F4D5B25645D3C252E33663E0A000087
:103AA0003C4E413E0A000000F8B50446092239A107
:103AB000601CFCF76AFC002869D1A07A2B2802D090
:103AC000A07A2D285ED12078303835490870084614
:103AD0000078032856DA0020009004F10B050A2232
:103AE00069462846FCF7FAFB2D49097801EBC1012C
:103AF0002C4A02EB810188610098401BC6B2002E5F
:103B00003FDD042E3DDC01212748254A12788154EF
:103B100002212348007803F055FD21490978062247
:103B200042EA4111C8B240F2FF7104F048FBA07AAA
:103B30002B2810D11A4A127802EBC202194B03EB60
:103B400082029169164A1278082343EA4212D0B2DF
:103B500004F035FB10E0124A127802EBC202114B5E
:103B600003EB8202926951420D4A1278082343EA1C
:103B70004212D0B204F023FB0CA004F07DF9012026
:103B8000F8BD00BF0BA004F077F90120F8E7002092
:103B9000F6E700002320726F746174652000000056
:103BA000AF00002008000020AC0000203C4F4B3E3E
:103BB0000A0000003C4E413E0A000000FEB50446EB
:103BC0000B22FEA1601CFCF7E0FB00287ED12078D0
:103BD0003038FD49087008460078032877DA00205D
:103BE000029004F10C050A2202A92846FCF776FB94
:103BF000F549097801EBC101F44A42F82100029825
:103C0000401BC6B2002E7DDD042E7BDCEE4A12780E
:103C100002EBC202ED4B53F82210EB4A1278062356
:103C200043EA4212D0B204F0CAFAE948007818B167
:103C3000E7480078012866D1E348007800EBC0002F
:103C4000E24951F8200046280ED11921DE480078BB
:103C500003F0DCFC1920DC49097801EBC101DB4AE7
:103C600002EB810148608AE2D748007800EBC0008F
:103C7000D64951F8200064280ED12821D248007876
:103C800003F0C4FC2820D049097801EBC101CF4AD8
:103C900002EB8101486072E2CB48007800EBC00083
:103CA000CA4951F82000B0F57A7F13D14FF4C861AA
:103CB000C548007803F0AAFC4FF4C860C2490978EF
:103CC00001EBC101C14A02EB810101E06CE266E255
:103CD000486054E2BC48007800EBC000BB4951F892
:103CE0002000B0F52F7F13D24FF4C871B64800788A
:103CF00003F08CFC4FF4C870B349097801EBC101A3
:103D0000B24A01E049E271E002EB8101486036E22B
:103D1000AD48007800EBC000AC4951F82000B0F588
:103D2000527F10D24FF42F71A748007803F06EFC39
:103D30004FF42F70A449097801EBC101A34A02EBAB
:103D4000810148601BE2A048007800EBC0009F4959
:103D500051F82000B0F5757F10D24FF47A719A486F
:103D6000007803F053FC4FF47A709749097801EB1F
:103D7000C101964A02EB8101486000E29248007856
:103D800000EBC000914951F8200040F29C4188426C
:103D900010D240F214518C48007803F037FC40F206
:103DA00014508949097801EBC101884A02EB81016D
:103DB0004860E4E18448007800EBC000834951F892
:103DC000200040F2FF718842A1D24FF4E1617E48A9
:103DD000007803F01BFC4FF4E1607B49097801EBAC
:103DE000C1017A4A02EB81014860C8E17848007855
:103DF00002288CD17448007800EBC000734951F858
:103E0000200019281CD27048007800EBC0000A4638
:103E100052F82000411D6C48007803F0F7FB6A4817
:103E2000007800EBC000694951F82000401D664948
:103E3000097801EBC101654A02EB810148609EE10E
:103E40006148007800EBC000604951F82000642808
:103E50001DD25D48007800EBC0000A4652F82000F1
:103E600000F10A015848007803F0D0FB564800786A
:103E700000EBC000554951F820000A30524909783A
:103E800001EBC101514A02EB8101486077E14E48E4
:103E9000007800EBC0004D4951F8200096281DD253
:103EA0004948007800EBC0000A4652F8200000F1B3
:103EB0001E014548007803F0A9FB4348007800EB59
:103EC000C000424951F820001E303F49097801EBFB
:103ED000C1013E4A02EB8101486050E13A48007856
:103EE00000EBC000394951F82000B0F58C7F1DD29D
:103EF0003548007800EBC0000A4652F8200000F177
:103F00003C013148007803F081FB2F48007800EB3A
:103F1000C0002E4951F820003C302B49097801EBB4
:103F2000C1012A4A02EB8101486028E12648007855
:103F300000EBC000254951F82000B0F5D27F1DD21A
:103F40002148007800EBC0000A4652F8200000F13A
:103F500064011D48007803F059FB1B48007800EB12
:103F6000C0001A4951F8200064301749097801EB64
:103F7000C101164A02EB8101486000E11248007855
:103F800000EBC000114951F82000B0F50C7F2AD297
:103F90000D48007800EBC0000A4652F8200000F1FE
:103FA00096010948007803F031FB0748007800EBE0
:103FB000C000064951F8200096300BE023207665BA
:103FC0006C6F636974792000AF0000200800002046
:103FD00098000020C249097801EBC101C14A02EBF7
:103FE00081014860CBE0BE48007800EBC000BD49CD
:103FF00051F82000B0F52F7F1DD2B948007800EBB2
:10400000C0000A4652F8200000F1C801B448007808
:1040100003F0FCFAB248007800EBC000B14951F857
:104020002000C830AE49097801EBC101AD4A02EB6E
:1040300081014860A3E0AA48007800EBC000A949CC
:1040400051F82000B0F5527F1DD2A548007800EB52
:10405000C0000A4652F8200000F1FA01A04800789A
:1040600003F0D4FA9E48007800EBC0009D4951F857
:104070002000FA309A49097801EBC101994A02EB14
:10408000810148607BE09648007800EBC0009549CC
:1040900051F82000B0F5757F1ED29148007800EBF2
:1040A000C0000A4652F8200000F596718C4800784E
:1040B00003F0ACFA8A48007800EBC000894951F857
:1040C000200000F596708649097801EBC101854A08
:1040D00002EB8101486052E08148007800EBC000AB
:1040E000804951F8200040F29C4188421ED87C480B
:1040F000007800EBC0007B4A52F8200000F5AF7159
:104100007748007803F082FA7548007800EBC00029
:10411000744951F8200000F5AF707149097801EB3E
:10412000C101704A02EB8101486028E06C480078C8
:1041300000EBC0006B4951F8200040F2FF7188424B
:104140001DD26748007800EBC000664A52F8200094
:1041500000F516716248007803F058FA604800785C
:1041600000EBC0005F4951F8200000F516705C4973
:10417000097801EBC1015B4A02EB810148605848B4
:10418000007800EBC000574951F8202054480178CE
:1041900055A003F035FE0120FEBD0020FCE757A02E
:1041A00003F06AFE0120F7E70E2256A12046FCF735
:1041B000ECF890BB0020029004F10C050A2202A941
:1041C0002846FCF78BF8474908600298401BC6B2A6
:1041D000002E1DDD042E1BDC0846006848620846E0
:1041E0000068886408460168062003F0E8FF3D483F
:1041F000416A262003F0E3FF3A48816C462003F031
:10420000DEFF3848016843A003F0FAFD0120C3E750
:104210003AA003F031FE0120BEE7FFE741A12046AE
:10422000FCF7FEF8F8B90A2003F0B8F82D49C86188
:104230002A2003F0B3F82B4908644A2003F0AEF8B3
:10424000284948660846416E006C264AD269CDE985
:10425000002002912348836C426A016835A003F074
:10426000CFFD012098E70A2242A12046FCF78DF8F5
:1042700090BBA07A30381A490870084600780328A5
:1042800025DA09780A2242EA4111C8B203F086F819
:104290001349097801EBC101124A02EB8101C8619F
:1042A0000F48007800EBC000114601EB8000C069A8
:1042B00000900B48007800EBC00051F8202008481F
:1042C000037801782EA003F09BFD012064E70BA08A
:1042D00003F0D2FD01205FE7FFE700205CE700006C
:1042E000AF00002008000020567365745B25642D24
:1042F00025645D3C4F4B3E0A000000003C4E413EB1
:104300000A000000616C6C232076656C6F63697431
:1043100079200000567365745B25645D3C4F4B3E0D
:104320000A00000076656C6F636974792023616C04
:104330006C000000567365745B305D3C25643E2C58
:10434000567365745B315D3C25643E2C5673657411
:104350005B325D3C25643E2C565B305D3C25643E03
:104360002C565B315D3C25643E2C565B325D3C2512
:10437000643E0A0076656C6F6369747920230000DF
:10438000567365745B25645D3C25643E2C565B2545
:10439000645D3C25643E0A00F8B50446214615A03C
:1043A000FCF73EF818B902F085FD0120F8BD0322A4
:1043B000214611A0FBF7E9FFC8B900200090E51CD9
:1043C0000A2269462846FBF789FFC6B200980078A2
:1043D0005D2807D10098407820B9304603F06AFF85
:1043E0000120E3E705A003F047FD0120DEE7002000
:1043F000DCE700007376000073765B003C4E413EC4
:104400000A00000070B500F0D1FB044654A003F090
:1044100033FD00205949086001205949C1F8840141
:10442000642004F013F81CE000F0C0FB051B002D15
:1044300001DB284600E06842B0F57A7F11DD514883
:1044400003F01AFD5048006880F080004E49086073
:104450004020091D08603020091D086000F0A6FBFF
:1044600004464A480068012803D14848001D0068F6
:1044700008B1012000E000200028D5D13F490C31CF
:10448000086001203E49C1F88801642003F0DEFF86
:104490001CE000F08BFB051B002D01DB284600E033
:1044A0006842B0F57A7F11DD394803F0E5FC364803
:1044B000006880F08000344908604020091D0860D1
:1044C0003020091D086000F071FB04462F480C30B5
:1044D0000068012803D12D480830006808B1012088
:1044E00000E000200028D4D12A49086001202A4990
:1044F000C1F8B001642003F0A9FF1CE000F056FBF6
:10450000051B002D01DB284600E06842B0F57A7FEC
:1045100011DD224803F0B0FC1B48006880F08000E9
:10452000194908604020091D08603020091D0860F5
:1045300000F03CFB04461A480068012803D11848E3
:10454000001D006808B1012000E000200028D5D13E
:1045500010200D49091D08606020091D086070BD0C
:104560000A3E3E43796C696E6465722072657365BC
:104570007474696E672E2E2E0A000000808122421C
:1045800000802242309500080C14014008012342AB
:1045900094940008AC01224200002242E4940008F6
:1045A0001C81214270470000F8B50020FEF71FF87B
:1045B000562840D000241DE004EB44031F4E06EBB8
:1045C000C3031A7A04EB440306EBC303596904EBF3
:1045D000440306EBC3039B8898B2FEF744F80A2213
:1045E00017A14020FEF72DF856210020FEF750F8C5
:1045F000601CC4B2042CDFDB1448009001250FE0DE
:10460000002409E01DF80410642202EB8502101951
:10461000FEF73EF8601CC4B2042CF3DB681CC5B284
:10462000042DEDDB0020FDF7E2FF562801D101202B
:10463000F8BD0020FCE70120FAE700005C930008C9
:10464000494E332D534D432D303100000000484377
:104650000A48006830B90948001D0068012801D1E6
:104660000020704705480068012805D10348001D57
:10467000006808B90120F4E70320F2E70C012342A7
:104680000A48006830B90948001D0068012801D1B6
:104690000020704705480068012805D10348001D27
:1046A000006808B90120F4E70320F2E7040123427F
:1046B0000A480068012805D10848001D006808B9AB
:1046C000002070470548006828B90448001D0068AC
:1046D000012800D1F5E70320F3E70000188121420B
:1046E0000A48006830B90948001D0068012801D156
:1046F0000020704705480068012805D10348001DC7
:10470000006808B90120F4E70320F2E71C81214288
:1047100010B510484078012818D10F4800680128CA
:1047200014D12A2002F03AFE00280FDD012003F008
:1047300005FA0AA003F064FB002006494870012036
:1047400088700B488188022002F0AEFE012000F044
:104750006DF810BD7E00002000012342417869738E
:10476000205920486F6D65643C4F4B3E0A3E3E0029
:104770007800002010B510488078012818D10F4823
:104780000068012814D14A2002F008FE00280FDD3D
:10479000022003F0D3F90AA003F032FB00200649FF
:1047A0008870012008700B480188002002F08BFE01
:1047B000022000F03BF810BD7E00002004012342DF
:1047C00041786973205A20486F6D65643C4F4B3EB9
:1047D0000A3E3E007800002010B50D480078012800
:1047E00011D10C48006801280DD10A2002F0D6FD35
:1047F000002808DA002003F0A1F907A003F000FB6D
:104800000020034908704FF4007000F00FF810BD4D
:104810007E0000202481214241786973205820487D
:104820006F6D65643C4F4B3E0A3E3E000149086097
:10483000704700001404014062B670472DE9F04152
:10484000024600250026002000230024002791F8BE
:1048500003C00CF00F0591F803C00CF0100CBCF174
:10486000000F03D091F802C04CEA050591F800C092
:10487000BCF1000F31D0146800202BE04FF0010C88
:104880000CFA00F3B1F800C00CEA03069E4220D1F6
:1048900083004FF00F0C0CFA03F7BC4305FA03FC3E
:1048A0004CEA040491F803C0BCF1280F06D14FF084
:1048B000010C0CFA00FCC2F814C00AE091F803C025
:1048C000BCF1480F05D14FF0010C0CFA00FCC2F806
:1048D00010C0401C0828D1D31460B1F800C0BCF14E
:1048E000FF0F34DD546800202EE000F1080C4FF07B
:1048F000010808FA0CF3B1F800C00CEA03069E4266
:1049000021D183004FF00F0C0CFA03F7BC4305FADA
:1049100003FC4CEA040491F803C0BCF1280F05D154
:1049200000F1080C08FA0CF8C2F8148091F803C0E2
:10493000BCF1480F07D100F1080C4FF0010808FA4C
:104940000CF8C2F81080401C0828CED35460BDE893
:10495000F0810000F0B50A46002300240021002564
:1049600000F00046B6F1004F02D11D4EF16901E0A2
:104970001B4E7168C0F3034583B200F44016B6F5D0
:10498000401F08D121F07061154E766826F07066E0
:10499000134F7E6012E000F48016B6F5801F06D13A
:1049A000032606FA05F4A14341F0706106E0460DC6
:1049B000360103FA06F6B14341F0706122B1460DAB
:1049C000360103FA06F6314300F00046B6F1004F17
:1049D00002D1034EF16101E0014E7160F0BD0000B3
:1049E00000000140416170470161704738B50446DD
:1049F0006848007878BB082C2DDD012065490870D7
:104A00000121042002F0BCFB0121082002F0B8FBC8
:104A10000121102002F0B4FB0121202002F0B0FBA4
:104A20000121402002F0ACFB03208DF80200482059
:104A30008DF803004AF20200ADF8000069465648BE
:104A4000FFF7FCFE4FF49850ADF80000694653485C
:104A5000FFF7F4FE00BF132C6FD2DFE804F0980AD2
:104A60001119212931384048505860687178808880
:104A700090004B48006808B9012038BD0020FCE7D1
:104A80004748001D006808B90120F6E70020F4E758
:104A900043480830006808B90120EEE70020ECE741
:104AA0003F480C30006808B90120E6E70020E4E741
:104AB0003B481030006808B90120DEE70020DCE741
:104AC0003848006808B90120D7E70020D5E7354805
:104AD000001D006808B90120CFE70020CDE731486C
:104AE0000830006808B90120C7E70020C5E72D4855
:104AF0000C30006808B90120BFE70020BDE7294855
:104B00001030006808B90120B7E70020B5E7254854
:104B10001430006808B90120AFE70020ADE7214854
:104B20001830006808B90120A7E70020A5E71C4855
:104B30001038006810B901209FE728E000209CE7AA
:104B40001948006808B9012097E7002095E7164842
:104B50001030006808B901208FE700208DE7124867
:104B6000001D006808B9012087E7002085E70C4890
:104B70002830006808B901207FE700207DE7084859
:104B80002030006808B9012077E7002075E7FF2092
:104B900073E7000007000020000C014000140140F2
:104BA00014812142000123422081224201480068F1
:104BB000704700000000002000BFFEE710B5002095
:104BC0000F4908600F48006820F470400D490860E4
:104BD0000846006840F44050086000200A49C1F8C7
:104BE0008C01022003F03BFC0120054908600220F3
:104BF00003F035FC00200449C1F8900110BD00000D
:104C000090812142000C0140008021422DE9F047B3
:104C100005460C4616461F46DDF8208000F07EF95A
:104C2000B8F1030F19D1A146E11704EB1161091284
:104C3000FE2202EB410101EA050000F03BF900F021
:104C4000B9F9E11704EB11610912A4EB0121C8B213
:104C500000F030F900F0AEF92FE0B8F1020F17D1F3
:104C600005F0FE0000F026F900F0A4F9201200F093
:104C700021F900F09FF9A146E11704EB1161091237
:104C8000A4EB0121C8B200F015F900F093F914E08B
:104C9000B8F1010F11D105F0FE0000F00BF900F0A2
:104CA00089F9A146E11704EB11610912A4EB012176
:104CB000C8B200F0FFF800F07DF900F02FF945F0E0
:104CC000010000F0F7F800F075F906E0781EC7B2B1
:104CD000012000F0B7F806F8010B012FF6D10020F3
:104CE00000F0B0F806F8010B00F03EF9BDE8F087DF
:104CF0002DE9F04705460C4616469946089F00F0F8
:104D00000DF9032F19D1A046E11704EB1161091227
:104D1000FE2202EB410101EA050000F0CBF800F0B1
:104D200049F9E11704EB11610912A4EB0121C8B2A2
:104D300000F0C0F800F03EF92DE0022F17D105F089
:104D4000FE0000F0B7F800F035F9201200F0B2F8DC
:104D500000F030F9A046E11704EB11610912A4EB51
:104D60000121C8B200F0A6F800F024F913E0012FE9
:104D700011D105F0FE0000F09DF800F01BF9A046EF
:104D8000E11704EB11610912A4EB0121C8B200F094
:104D900091F800F00FF905E016F8010B00F08AF821
:104DA00000F008F9B9F10000A9F1010101F0FF09D3
:104DB000F2D100F0D9F80A2003F048FBBDE8F087F3
:104DC00008B50121082002F0DBF91820ADF8000039
:104DD00010208DF8030003208DF802006946044876
:104DE000FFF72CFD18210248FFF7FEFD08BD00006B
:104DF000000C014010B500200F4908600F48006802
:104E000020F470400D4908600846006840F44050A6
:104E1000086001200A49C1F88C01022003F01FFB41
:104E2000012005490860022003F019FB0020044915
:104E3000C1F8900110BD000090812142000C01409A
:104E40000080214270B5054600241748006820F410
:104E50007040154908600846006840F4004008604A
:104E6000002616E0002011490860022003F0F7FA3E
:104E700001200F49C1F890016006040E0B488438E8
:104E8000006808B1601CC4B2012003F0E8FA701C8D
:104E9000C6B2082EE6DB15B9FFF7ACFF01E0FFF75D
:104EA0008DFE204670BD0000000C01409081214223
:104EB0000080214270B504461548006820F4704017
:104EC000134908600846006840F44050086000201C
:104ED00010490860002517E0E0090E49091F086025
:104EE0006006040E022003F0BAFA01200A49C1F854
:104EF0009001022003F0B3FA002006490860022066
:104F000003F0ADFA681CC5B2082DE5DB70BD0000EA
:104F1000000C0140908121420080214210B50F48D1
:104F2000006820F470400D4908600846006840F4AD
:104F30004050086001200A4908600A49C1F8900100
:104F4000042003F08CFA002005490860042003F0D7
:104F500086FA00200349C1F8900110BD000C014001
:104F60008C8121420080214210B50F48006820F456
:104F700070400D4908600846006840F440500860E1
:104F800000200A4908600A49C1F88C01042003F096
:104F900066FA0120054908600549C1F88C01042022
:104FA00003F05DFA10BD0000000C01409081214229
:104FB0000080214210B500241448006820F470409D
:104FC000124908600846006840F40040086001206B
:104FD0000F49086003F043FA01200E49C1F890011F
:104FE00003F03DFA07E0601CC4B2FA2C03DDFFF7C2
:104FF000BBFF012010BD0648803800680028F2D1B0
:105000000349091D086000BFF4E70000000C0140DF
:105010008C8121420080214270B500250BE00024E4
:1050200005E044EA4511C8B203F0DCF8641C1C2C0E
:10503000F7D9681CC5B2032DF1DB3F48007818B1E1
:105040003D480078012805D14FF49971682003F09C
:10505000A3F808E038480078022804D140F23B1158
:10506000682003F099F80223042200217E2003F037
:105070007FF83248017B407B61F31F10C2B20423EA
:105080000021182003F074F82C4890F8301090F8A4
:10509000310061F31F10C2B204230021382003F055
:1050A00067F8264890F8541090F8550061F31F10E7
:1050B000C2B204230021582003F05AF800231A46F4
:1050C0001946142003F054F800231A4619463420D8
:1050D00003F04EF800231A461946542003F048F80E
:1050E0000121042003F06BF80121242003F067F86C
:1050F0000121442003F063F810480168062003F002
:105100004BF80E484168002002F080FA0B48416AD3
:10511000262003F041F80948816A012002F076FA5E
:105120000648816C462003F037F80448C16C022021
:1051300002F06CFA70BD000098000020080000200A
:1051400008B50121042002F01BF80121082002F01B
:1051500017F80121102002F013F80121202002F09D
:105160000FF80121402002F00BF80121084602F05F
:1051700007F801212F48FFF7EDFB4FF40040ADF891
:10518000000010208DF8030003208DF8020069460E
:105190002948FFF753FB4FF400412748FFF722FC53
:1051A0004FF4E050ADF8000069462448FFF746FB95
:1051B0004FF4E0512148FFF715FC0F20ADF8000037
:1051C00069461F48FFF73AFB0F211D48FFF70AFC0D
:1051D000F020ADF8000069461948FFF72FFBF021D9
:1051E0001748FFF7FFFB4FF47870ADF8000003207D
:1051F0008DF8020048208DF8030069461148FFF73A
:105200001DFB7F20ADF8000003208DF80200482030
:105210008DF8030069460C48FFF710FB4FF440502F
:10522000ADF8000028208DF8030069460648FFF716
:1052300005FB08BD000230000008014000100140DD
:1052400000140140000C01400018014000B587B077
:105250000121042001F094FF0121080301F090FFD7
:10526000A020ADF8040003208DF8060018208DF86A
:10527000070001A92048FFF7E1FA1020ADF804006B
:105280008DF8070001A91D48FFF7D8FA10211B4827
:10529000FFF7AAFB4020ADF8040003208DF80600BC
:1052A00004208DF8070001A91348FFF7C7FA002072
:1052B000ADF808004FF48270ADF80A000020ADF898
:1052C0000C000220ADF80E000120ADF810004002E5
:1052D000ADF812003020ADF814000020ADF8160033
:1052E000ADF8180002A9064802F016F90121044899
:1052F00002F0F8F807B000BD0008014000100140BE
:105300000030014010B56FF0040002F031FC42F2B1
:1053100028304FF0E02148610846006940F0020063
:1053200008610846006940F00100086110BD0000F6
:1053300010B586B00446394802F004FE0121880306
:1053400001F01EFF0121042001F01AFF03208DF857
:10535000020018208DF803004FF40070ADF8000033
:1053600069462F48FFF76AFA04208DF8030000020F
:10537000ADF8000069462A48FFF760FA02A802F07B
:10538000D6FE029402A9254802F05CFE25208DF885
:10539000040004208DF8050000208DF8060001208F
:1053A0008DF8070001A800F073FE40F2FF311B48A2
:1053B00002F0B2FD00222821184802F01EFE002251
:1053C00040F22771154802F018FE002240F22661D3
:1053D000124802F012FE012240F225510F4802F05D
:1053E0000CFE002240F224410C4802F006FE00228E
:1053F00040F64601094802F000FE002240F66A111C
:10540000064802F0FAFD00226021044802F0F5FD92
:105410000121024802F089FD06B010BD00380140AC
:105420000008014010B50A48006878B909480078BA
:1054300060B9142003F00AF80548006830B900206C
:105440000549087005490860FEF7DCFF10BD000043
:10545000188121427600002074000020BC01214206
:1054600010B50B48006888B90A48007870B9142054
:1054700002F0ECFF0648006840B9002006490870B9
:1054800006490860FEF7BEFF00F0B8FA10BD000044
:10549000188121427600002074000020BC012142C6
:1054A00010B50D480068A8B90C48007890B91420D0
:1054B00002F0CCFF0848006860B900200849087075
:1054C000084908601020084908606020091D08602C
:1054D00000F094FA10BD00001881214276000020EF
:1054E00074000020BC0121421014014010B5114885
:1054F0000078F0B910480068D8B910480078C0B9F1
:10550000142002F0A3FF0C48006890B901200C4958
:10551000086000BF084800680028FBD00120074948
:1055200008700020034908700649086006A002F0D0
:10553000A3FC10BD760000201481214274000020DD
:10554000BC012142A801224253544152543C313EF5
:105550000A3E3E0010B592480078052874D2DFE874
:1055600000F0038FABD6F500FFF7BAF801286CD135
:10557000FFF786F80028FAD18A480068002834D15D
:105580008848001D006801282FD1FFF70FFB8649CE
:1055900008600A2002F05AFF0AE08248006838B921
:1055A0008048001D006818B901207D4908700DE091
:1055B000FFF7FCFA7C490968441A002C01DB2046FD
:1055C00000E06042794909788842E6DB00BF744810
:1055D000007850B905E076A002F04EFC642002F09D
:1055E00035FF704800680028F5D06E480068012833
:1055F00038D16C48001D0068002833D1FFF7D6FA77
:10560000694908600A2002F021FF0AE06548006845
:1056100038B96448001D006818B901206049087055
:105620000DE0FFF7C3FA60490968441A002C01DB5A
:10563000204600E060425D4909788842E6DB00BF11
:105640005748007808B907E0A7E018E068A002F022
:1056500013FC642002F0FAFE5248001D0068002886
:10566000F4D00CE0142002F0F1FE4E48006830B98E
:105670004C48001D006810B90120494908708DE0B0
:1056800048480068A0B94748001D006880B901205B
:105690006749086000206749C1F8B001642002F042
:1056A000D5FEFFF71DF830B902203D49087002E031
:1056B00004203B49087071E03A48006818BB39483B
:1056C000001D0068F8B901205B49086000205B49B3
:1056D000C1F88C01642002F0B9FEFEF7D1FF012869
:1056E00014D10020564908605249C1F8A801554913
:1056F000087001205449087000202949087053A0FF
:1057000002F0BAFB02E003202549087046E0254874
:105710000068012804D02348001D0068012811D129
:1057200000204549086001204449C1F88C016420EB
:1057300002F08CFEFEF7A4FF38B904201849087067
:1057400003E003E002201649087027E015480068CE
:10575000012804D01348001D0068012819D1002039
:105760003349086001203349C1F8B001642002F0D8
:105770006DFEFEF7B5FF012803D10020084908702F
:1057800002E000202A49086001202949091D08601B
:1057900002E001200249087000E000BF00BF10BD18
:1057A000A400002014812142A8000020A7000020AE
:1057B0007374617274206B657920707265737320E5
:1057C000697320696E76616C69642C20706C656108
:1057D00073652072656C6561736520616E6420720B
:1057E0006570726573732069740A3E3E00000000A4
:1057F0007374617274206B657920707265737320A5
:10580000697320696E76616C69642C20706C6561C7
:1058100073652072656C6561736520697420616EC3
:105820006420726570726573730A3E3E000000006A
:10583000AC012242000022428881224200802242A2
:10584000BC012142A6000020A50000207265616411
:105850007920746F20746573740A3E3E0000000066
:1058600010B55048007805286FD2DFE800F0031724
:1058700032577300FEF71CFF01280ED1FEF7E8FE39
:1058800058B94948006840B9142002F0DFFD464885
:10589000006810B901204349087080E04248006860
:1058A00098B901204149086000204149C1F8AC0184
:1058B000012040490860642002F0C8FDFEF7F8FEB0
:1058C00030B902203749087002E0042035490870D9
:1058D00065E035480068E8B9012034490860364978
:1058E000C1F8BC010020334908390860642002F087
:1058F000ADFDFEF7ADFE01280FD100202F49087045
:1059000001202F4908700020264908702DA002F0C0
:10591000B3FA02E003202349087040E022480068FF
:10592000A0B10020214908602349C1F8BC01012031
:10593000204908390860642002F088FDFEF788FEDF
:1059400038B904201749087003E027E00220154900
:10595000087024E014480068E0B100201349086092
:1059600001201349C1F8AC010020124908606420ED
:1059700002F06CFDFEF79CFE012803D100200949CE
:10598000087003E001200B49091F08600020094945
:10599000086002E001200349087000E000BF00BF7A
:1059A00010BD0000A1000020148121428881224204
:1059B00000002242B001224200002142A300002048
:1059C000A2000020726561647920746F2074657391
:1059D000740A3E3E0000000009E00178412905DB21
:1059E00001785A2902DC017820310170401C0178CD
:1059F0000029F2D1704700BFFEE7000010B501207A
:105A00001E49087000201E49087001201D490860C9
:105A100040F2FF71062002F0BFFB4FF47A710020C4
:105A200001F0F4FD40F2FF71262002F0B5FB4FF4C7
:105A30007A71012001F0EAFD40F2FF71462002F088
:105A4000ABFB4FF47A71022001F0E0FD0EA002F0F2
:105A5000D7F91020114908606020091D0860002056
:105A60000F490870487088700E484188012001F085
:105A70001BFD01200C49487010BD0000760000207D
:105A800081000020A80122426D6F746F7220686F40
:105A90006D696E672E2E2E0A000000001014014062
:105AA00082000020780000207E00002070B5C448ED
:105AB000007801287ED1C348007830B9FFF776F826
:105AC000C14908600120BF490870C04840780128DA
:105AD0001ED1BF48006801281AD12A2001F05EFCBF
