:020000040800F2
:10000000F00B002065260008D5040008D70400087E
:10001000DB040008DF040008E3040008000000001F
:10002000000000000000000000000000E7040008DD
:10003000E904000800000000EB040008AD220008FD
:100040007F2600087F2600087F2600087F260008FC
:100050007F2600087F260008F31A00080B1B000803
:10006000231B00083B1B0008531B00087F260008C9
:100070007F2600087F2600087F2600087F260008CC
:100080007F2600087F2600087F2600087F260008BC
:100090007F2600087F2600087F2600086B1B0008CB
:1000A0007F2600087F2600087F2600087F2600089C
:1000B0007F2600087F2600087F2600087F2600088C
:1000C0007F2600087F2600087F2600087F2600087C
:1000D0007F260008FF2400087F2600087F260008EE
:1000E000E11B00087F2600087F2600087F26000805
:1000F0007F2600087F2600087F2600087F2600084C
:100100007F2600087F2600087F2600087F2600083B
:100110007F2600087F2600087F2600087F2600082B
:100120007F2600087F2600087F2600087F2600081B
:1001300000F002F800F0B0F80AA090E8000C824449
:100140008344AAF10107DA4501D100F0A5F8AFF226
:10015000090EBAE80F0013F0010F18BFFB1A43F0A5
:1001600001031847785B0000985B00000A444FF0D9
:10017000000C10F8013B13F0070408BF10F8014B06
:100180001D1108BF10F8015B641E05D010F8016B4B
:10019000641E01F8016BF9D113F0080F1EBF10F8AF
:1001A000014BAD1C0C1B09D16D1E58BF01F801CBD2
:1001B000FAD505E014F8016B01F8016B6D1EF9D555
:1001C0009142D6D37047000000230024002500266A
:1001D000103A28BF78C1FBD8520728BF30C148BFAA
:1001E0000B6070476E2903F07883702903F0C58493
:1001F000662905F03684652905F03384672905F002
:1002000030846129AFF3008003681B0A28BF41F0E6
:100210008001692903F0A080642903F09D8075297D
:1002200003F09A806F2903F05284782903F09184B7
:10023000E92903F0ED83E42903F0EA83F52903F0CB
:10024000E783EF2903F04F84F82903F090840368D3
:10025000DB0928BF41F08001632903F05C83732927
:1002600003F06183E32903F0BB87F32903F0C08720
:10027000002070471FB503F031FD0400002000216D
:1002800005F07CFA401C60600020002105F08CFA2B
:10029000E0601FBD10B510BD04F000F81146FFF777
:1002A000E9FF00F009F804F01FFB03B4FFF7F2FFC9
:1002B00003BC02F0C9F8000088B04FF4A06002F05F
:1002C00063F901F0FCFF57490868804756494869BF
:1002D00080474FF4E13002F0C6F81021534801F096
:1002E000F5FC53A003F002F800F0A0FC43F6FF7009
:1002F000142253490590684603F0D0F95148C56867
:100300004F4810380FC8A84718B94FA002F0EEFFA9
:1003100071E043F6FF70142249490590684603F0E6
:10032000BDF94848C568464810380FC8A847012895
:1003300035D13C48012142681020904739480021BE
:1003400042680F20904737480021426801209047BB
:100350003448012142680220904732480021426817
:10036000032090472F4801214268042090472D48E0
:1003700000214268052090472A4801214268062052
:1003800090472848002142680720904725480121CE
:1003900042680820904739A002F0A8FF2BE043F6FE
:1003A000FF70142226490590684603F077F9254826
:1003B000C568234810380FC8A847022808D1194833
:1003C000012142680A20904737A002F08FFF12E017
:1003D000002043F6FF711422CDE905101849684644
:1003E00003F05CF917480569154810380FC8A8478D
:1003F00033A002F07BFF01F05FFF044611E000F044
:10040000D0F901F059FF051B002D01DB284600E063
:100410006842C82805DD054801F0CDFC01F04CFF1D
:100420000446ECE7BC0000209C000020A80100204E
:100430006D637520696E6974206F6B203B2000002E
:100440002400002070000020656570726F6D2069C7
:100450007320696E69746564203B20466978747501
:10046000726520547970653D53686F65426F7820DE
:10047000616E64204F530D0A3E3E00006565707248
:100480006F6D20697320696E69746564203B204636
:1004900069787475726520547970653D42515431A4
:1004A0000D0A3E3E000000004669787475726520B2
:1004B000547970653D484541540D0A3E3E000000A8
:1004C000656570726F6D20696E69742E2E2E0D0A2F
:1004D0003E3E0000704700BFFEE700BFFEE700BFE2
:1004E000FEE700BFFEE77047704770470CB500207D
:1004F000019000906C48006840F480306A490860C0
:1005000000BF6948006800F4003000900198401C6A
:100510000190009818B90198B0F5A06FF1D1624828
:10052000006800F4003010B10120009001E00020CC
:1005300000900098012843D15C48006840F010000A
:100540005A4908600846006820F003000860084621
:10055000006840F002000860534840685249486013
:100560000846406848600846406840F4806048603B
:100570000846406820F47C1048600846406840F413
:10058000881048600846006840F08070086000BF2E
:100590004548006800F000700028F9D042484068E3
:1005A00020F00300404948600846406840F00200DF
:1005B000486000BF3C48406800F00C000828F9D1B2
:1005C0000CBD10B5FFF792FF10BD10B5364800689E
:1005D00040F001003449086008464068344908404A
:1005E0003149486008460068324908402E49086091
:1005F0000846006820F4802008600846406820F41F
:10060000FE0048604FF41F008860FFF7DAFF4FF0EC
:1006100000602949086010BD10B5002100200022AB
:10062000214B5B6803F00C0121B1042906D0082995
:1006300028D107E0214B224C236027E0214B204C9E
:10064000236023E0184B5B6803F47010164B5B6863
:1006500003F48032022303EB904022B91A4B434348
:10066000174C23600DE0104B5B6803F4003323B19B
:10067000164B4343124C236003E0124B4343104C90
:10068000236003E00D4B0E4C236000BF00BF064B00
:100690005B68C3F303130E4CE15C094B1B68CB4052
:1006A000074C236010BD00000010024000200240F3
:1006B0000000FFF8FFFFF6FE08ED00E000127A00F0
:1006C00000000020001BB70000093D00808D5B008A
:1006D0000400002009E00178412905DB01785A294E
:1006E00002DC017820310170401C01780029F2D130
:1006F000704710B548A002F0F9FD49A002F0F6FDE0
:1007000052A002F0F3FD5CA002F0F0FD67A002F041
:10071000EDFD73A002F0EAFD7AA002F0E7FD82A0F1
:1007200002F0E4FD89A002F0E1FD87A002F0DEFD09
:100730008FA002F0DBFD99A002F0D8FD82A002F0AC
:10074000D5FDA2A002F0D2FDA5A002F0CFFDA9A088
:1007500002F0CCFD10BD10B504462146B0A002F059
:10076000CFFF18B9FFF7C5FF012010BD0020FCE73F
:1007700010B504462046FFF7EEFF012800D110BD5A
:10078000204600F073F9012800D1F8E7204600F078
:10079000D0F9012800D1F2E7A3A002F0A7FD0020C4
:1007A000EDE710B5A248008800F40040B0B1A048C1
:1007B000047800209F4908550846FFF78BFF9D48A5
:1007C00002F088FD9B48007810B19A48FFF7D0FFEF
:1007D00099A002F08BFD00209549088010BD10B54E
:1007E0000446214696A002F08BFF20B995A002F0A6
:1007F0007DFD012010BD0020FCE710B50446214618
:1008000094A002F07DFF20B993A002F06FFD0120BB
:1008100010BD0020FCE700000D0A0D0A00000000DA
:1008200073772D2D2D2D2D2D2D2D2D2D2D2D2D2D68
:100830002D2D2D2D2D67657420736F667477617271
:10084000652076657273696F6E0D0A0068772D2DCD
:100850002D2D2D2D2D2D2D2D2D2D2D2D2D2D2D2DC8
:100860002D676574206861726477617265207665B2
:100870007273696F6E0D0A0066736E2D2D2D2D2D0E
:100880002D2D2D2D2D2D2D2D2D2D2D2D2D676574DF
:1008900020666978747572652073657269616C2071
:1008A0006E756D6265720D0A0000000066736E5B06
:1008B0002D2D2D2D2D2D2D2D2D2D2D2D2D2D2D2D68
:1008C0002D7365742066697874757265207365721E
:1008D00069616C206E756D6265720D0A0000000022
:1008E000726F6D5B5D2D2D2D2D2D2D2D2D2D2D2D13
:1008F0002D2D2D2D2D7265616420726F6D730D0A83
:1009000000000000726F6D5B5D5B5D2D2D2D2D2D48
:100910002D2D2D2D2D2D2D2D2D7772697465207285
:100920006F6D730D0A0000007361766520696E6655
:100930006F2078782079797979792D2D2D777269E2
:1009400074652064617461730D0A000072656164EE
:1009500020696E666F2078782D2D2D2D2D2D2D2D53
:100960002D726561642064617461730D0A0000007A
:10097000696E745B5D2D2D2D2D2D2D2D2D2D2D2D85
:100980002D2D2D2D2D6765742074686520696E707E
:100990007574207374617475730D0A006F75745BE0
:1009A0005D5B5D2D2D2D2D2D2D2D2D2D2D2D2D2DE9
:1009B0002D73657420746865206F7574707574206C
:1009C0007374617475730D0A0000000073776974A5
:1009D000636820746F20623138380D0A000000000F
:1009E00073776974636820746F20623233350D0A3F
:1009F0000D0A0000506C656173652073656E64209C
:100A0000636F6D6D616E642061732061626F7665E6
:100A100020656E642077697468205C725C6E0A00E1
:100A200068656C70000000003C4E413E0000000014
:100A3000B0040020C80400200D0A3E3E0000000063
:100A4000737700003C423138382D423233352D3037
:100A5000313E0000687700003C494E432D4D423145
:100A60003631363030372D30343E0000F8B504468C
:100A7000FEA1204602F044FE40B9FE49C869804705
:100A8000FC49FDA002F032FC0120F8BD0422FCA1CB
:100A9000204602F0B8FDF8B900200090261D0A2279
:100AA0006946304602F058FDC5B2009800785D28CE
:100AB00011D10098407870B9002D0CDD112D0ADAA3
:100AC000EC4881692846884707463946EEA002F07F
:100AD0000DFC0120D9E700BF05222146ECA002F061
:100AE00092FD10BB607920281FD1E0793038A179C0
:100AF000303901EB810100EB4100C0B20546002D09
:100B000012DD112D10DADB4881692846884701285B
:100B100004D12946E0A002F0E9FB03E02946E3A066
:100B200002F0E4FB0120B0E701E00020ADE700BFE8
:100B3000ABE77CB504460822E1A1204602F063FD44
:100B400098B9204602F040FD19280ED1207E5D287C
:100B50000BD1607E48B9DD48816804F10800884700
:100B6000DBA002F0C3FB01207CBD0422DAA12046F9
:100B700002F049FD78BB00200190201D00900A2260
:100B800001A9009802F0E8FCC5B2019800785D2840
:100B900022D1019840785B281ED1002D1CDD102D3C
:100BA0001ADC002000900A2269460198801C02F09D
:100BB000D3FCC6B2009800785D280DD1009840782B
:100BC00050B9C2483146426828469047C0A002F05A
:100BD0008DFB0120C8E700E000BF06222146C0A02F
:100BE00002F011FDF0B9A07920281BD1207A30380D
:100BF000E179303901EB810100EB4100C5B2A07A07
:100C00003038C0B20646002D0BDD112D09DAAF4891
:100C10003146426828469047B3A002F067FB0120A6
:100C2000A2E701E000209FE700BF9DE710B586B076
:100C3000AE48AF4C1ECC14301EC01422A0F11401DB
:100C4000684602F02BFDAB480468A8480FC8A047CF
:100C500006B010BDF0B599B004462146A6A002F03A
:100C60004FFD30BB402009A90022CDE905210790A6
:100C700014229E491031684602F010FD9D484668D6
:100C80009A480FC8B047002509E009A8405D7F28B1
:100C900003DD002009A9485503E0681CC5B2402DBA
:100CA000F3DB00BF09A995A002F020FB012019B0D9
:100CB000F0BD207873281FD160786E281CD1A078F1
:100CC0003A2819D1E01C02F07FFC401C85B2E01CE0
:100CD00000211422CDE906050591844910316846AA
:100CE00002F0DCFC8348866880480FC8B04778A0D3
:100CF00002F0FCFA0120DAE70422214681A002F08A
:100D000082FC002834D105460AE0281D205C5D28BD
:100D100003D10021281D215404E0681CC0B20546FF
:100D2000402DF2DB00BF002D21DD402D1FDA281DF4
:100D3000205CE0B9681D205CC8B9201D02F044FCAD
:100D4000401C86B2201D00211422CDE90606059123
:100D500066491031684602F0A1FC6648876863481E
:100D60000FC8B8475AA002F0C1FA01209FE701E07E
:100D700000209CE700BF9AE7F0B599B00646042230
:100D800062A1304602F03FFC002846D11890301D89
:100D9000179000240A2218A9179802F0DDFBC4B2AC
:100DA000189800785D2837D1189840785B2833D19F
:100DB000002C31DD652C2FDA0020179017A9189828
:100DC000801C04F0CDFCC5B2179800785D2823D1B3
:100DD0001798407800BB0020179908701898801C5D
:100DE00002F0F2FB401C87B21898801CA10114226B
:100DF000CDE9060705913D491031684602F04EFCE9
:100E00003C48D0F808C039480FC8E04730A002F08D
:100E10006DFA012019B0F0BD00BF04223BA130469D
:100E200002F0F1FB002820D11890371D00250A227E
:100E300018A9384602F090FB85B2189800785D2812
:100E400012D11898407878B9002D0DDD652D0BDA98
:100E5000402108AA4FF6FF7000EA8510CDE906216F
:100E600005901422214955E074E074E0696E7075B4
:100E7000747300009C0000203C252E3136733E0028
:100E8000696E745B000000003C25643E00000000B9
:100E9000696E7075740000000D0A73656E7365727B
:100EA0002564207475726E206F6E00000D0A7365E4
:100EB0006E7365722564207475726E206F666600AD
:100EC0006F7574707574735B00000000BC000020C7
:100ED0003C4F4B3E000000006F75745B000000004B
:100EE0006F75747075740000204F4B001400002063
:100EF000E45B00087000002066736E003C252E360F
:100F000034733E0066736E5B00000000726F6D5BB1
:100F1000000000001031684602F0C0FB5448D0F8D1
:100F200004C054480FC8E047002409E008A8005D49
:100F30007F2803DD002008A9085503E0601CC4B227
:100F4000402CF3DB00BF08A9AFF2500002F0CEF94D
:100F500001205FE701E000205CE700BF5AE7F0B541
:100F600099B005460A2244A1284602F04CFB00280D
:100F700034D1189005F10A0600240A2218A9304637
:100F800002F0EAFA044618980078202825D124B304
:100F9000642C22D21898401C02F016FB401C87B229
:100FA0001899491C04F164004FF6FF7202EA8010A0
:100FB000142205AB83C32F491031684602F06EFB43
:100FC0002B48D0F808C02B480FC8E047AFF2E80024
:100FD00002F08CF9012019B0F0BD00BF0A2229A14E
:100FE000284602F010FB00283ED1189005F10A07B0
:100FF00000260A2218A9384602F0AEFA06461898CA
:10100000007878BB76B3B6F5C87F2CD2402108AA09
:1010100006F164004FF6FF7303EA8010CDE9062164
:101020000590142213491031684602F037FB10482E
:10103000D0F804C00F480FC8E047002409E008A812
:10104000005D7F2803DD002008A9085503E0601C2F
:10105000C4B2402CF3DB00BF08A90DA002F046F992
:101060000120B8E7FFE701E00020B4E700BFB2E7E6
:1010700070000020140000207361766520696E66A0
:101080006F2000007265616420696E666F20000049
:1010900020252E363473000010B524498868482175
:1010A00000F014FE21494868102100F00FFE1F498E
:1010B0000869102100F00AFE1C49C868102100F0E0
:1010C00005FE1A49C86800F05BFE1849086900F07F
:1010D00057FE1649486800F053FE1449C86800F0EE
:1010E00053FE10BD2DE9F04104460D46174600267B
:1010F00017E00E49086900F047FE022001F007F9E9
:101100000A49086900F03CFE022001F000F9074A94
:10111000516890683A4601F037F904F8010B701CE9
:10112000C6B2AE42E5DBBDE8F08100003800002029
:1011300010B520498868102100F0C8FD1D49486895
:10114000102100F0C3FD1B49C868102100F0BEFD4E
:101150001849886800F014FE1649486800F010FE2F
:101160001449C86800F00CFE10BD2DE9F041054699
:101170000E4617460F49C86800F006FE002407E037
:101180002B5D0C4A516890683A4601F02AF9641CBC
:10119000B442F5DBBDE8F08110B50649C86800F03F
:1011A000F3FD022001F0B3F80249C86800F0E8FD41
:1011B00010BD0000540000200FB410B5BE480268F6
:1011C000DDE90401904710BC5DF814FB0FB4FEB5D7
:1011D000DDE91265119C61190E9881422EDABDF885
:1011E000340004280BDACDE9016500949DF8303015
:1011F000B14801228768DDE90A01B8471EE0BDF861
:10120000340002280FDDBDF8340020280BDACDE9C8
:10121000016500949DF83030A74803228768DDE916
:101220000A01B8470AE0CDE9016500949DF8303025
:10123000A14802228768DDE90A01B847FEBC5DF8D3
:1012400014FB0FB42DE9FE4FDDE91689159C04EB64
:1012500009011298814269DA0FFA89F60027BA4625
:10126000002560E0139894FBF0F100FB11400FFAA9
:1012700080FA1398B04201DA139800E030461399CF
:10128000A1EB0A01884203DD1398A0EB0A0005E0F8
:101290001398B04201DA139800E0304605B2BDF869
:1012A000440004280FDAA8B208EB0701CDE9004199
:1012B00002909DF8403080480122D0F804C0DDE95A
:1012C0000E01E04726E0BDF84400022813DDBDF81A
:1012D000440020280FDAA8B208EB0701CDE900414D
:1012E00002909DF8403074480322D0F804C0DDE934
:1012F0000E01E0470EE0A9B208EB0700CDE900407F
:1013000002919DF840306C480222D0F804C0DDE91B
:101310000E01E047052001F019F8701B06B278199C
:1013200007B2601984B2002E9CDC00BFBDE8FE0F3E
:101330005DF814FB0FB410B588B0139C01200AA906
:101340001422CDE9054107900EA9684602F0A6F9DE
:101350000AA80FC8FFF73AFF9DF8280008B010BC94
:101360005DF814FB0FB410B588B0139C012014A9CC
:101370001422CDE9054107900EA9684602F08EF9C6
:101380000AA80FC8FFF75DFF052000F0DFFF08B0D7
:1013900010BC5DF814FB0FB410B588B0139C02208C
:1013A0000AA91422CDE9054107900EA9684602F06A
:1013B00075F90AA80FC8FFF709FFBDF8280008B0A3
:1013C00010BC5DF814FB0FB410B588B0139C02205C
:1013D00014A91422CDE9054107900EA9684602F030
:1013E0005DF90AA80FC8FFF72CFF052000F0AEFF3B
:1013F00008B010BC5DF814FB0FB410B588B0139C96
:1014000004200AA91422CDE9054107900EA96846D7
:1014100002F044F90AA80FC8FFF7D8FE0A9808B0EE
:1014200010BC5DF814FB0FB410B588B0139C0420F9
:1014300014A91422CDE9054107900EA9684602F0CF
:101440002DF90AA80FC8FFF7FCFE052000F07EFF6B
:1014500008B010BC5DF814FB0FB410B588B0139C35
:1014600004200AA91422CDE9054107900EA9684677
:1014700002F014F90AA80FC8FFF7A8FE0A9808B0EE
:1014800010BC5DF814FB0FB410B588B0139C042099
:1014900014A91422CDE9054107900EA9684602F06F
:1014A000FDF80AA80FC8FFF7CCFE052000F04EFF9C
:1014B00008B010BC5DF814FB9804002010B548215A
:1014C000D84800F003FC4821D74800F0FFFB482132
:1014D000D64800F0FBFB4821D54800F0F7FB482137
:1014E000D44800F0F3FB4821D34800F0EFFB48213B
:1014F000D24800F0EBFB4821D14800F0E7FBD1498E
:101500004869804710BD38B5C64800F04AFC08B1AC
:10151000312000E03020CC490870C34800F041FC85
:1015200008B1312000E03020C7494870BF4800F0C2
:1015300038FC08B1312000E03020C3498870BC4835
:1015400000F02FFC08B1312000E03020BE49C87007
:10155000B84800F026FC08B1312000E03020BA493C
:101560000871B54800F01DFC08B1312000E03020C2
:10157000B5494871B14800F014FC08B1312000E0D1
:101580003020B1498871AE4800F00BFC08B1312021
:1015900000E03020AC49C871AA48002201218369CB
:1015A00068469847002410E0C4F107019DF8000048
:1015B000084100F0010008B1312100E03021A24AC9
:1015C00004F108001154601CC4B2082CECDB38BDD7
:1015D00010B50446FFF797FF601E9B49085C302852
:1015E00001D0012010BD0020FCE710B51021974864
:1015F00000F06CFB1021964800F068FB1021954824
:1016000000F064FB1021944800F060FB1021934827
:1016100000F05CFB1021924800F058FB102191482B
:1016200000F054FB1021904800F050FB8F490869EE
:1016300080478E4801220221436998478B49886977
:10164000804710BD70B504460D46192C73D2DFE8F3
:1016500004F08C0D12171C21262B30353637383903
:101660003A3B3C606162636465666700294677487F
:1016700000F08EFB7AE02946754800F089FB75E0A2
:101680002946744800F084FB70E02946724800F057
:101690007FFB6BE02946714800F07AFB66E0294643
:1016A0006F4800F075FB61E029466E4800F070FB62
:1016B0005CE029466C4800F06BFB57E000BF00BFC0
:1016C00000BF00BF00BF00BF00BF4DB167484078FA
:1016D000C4F11002802111410843644948700FE0B1
:1016E000C4F110017F200841C4F11001C1F10802CA
:1016F0007F21914008435D49497808405B49487023
:101700005A4801220221436998475849886980470D
:101710002CE000BF00BF00BF00BF00BF00BF00BF84
:1017200055B952480078C4F118028021114108438C
:101730004E49087010E018E0C4F118017F200841FC
:10174000C4F11801C1F108027F21914008434749C3
:10175000097808404549087044480122022143693C
:10176000984742498869804700E000BF00BF70BDCC
:1017700070B5044620783038C1B2344800F008FB18
:1017800060783038C1B2324800F002FBA0783038BF
:10179000C1B2304800F0FCFAE0783038C1B22E48CF
:1017A00000F0F6FA20793038C1B22C4800F0F0FA97
:1017B00060793038C1B22A4800F0EAFAA0793038AE
:1017C000C1B2284800F0E4FAE0793038C1B22648C6
:1017D00000F0DEFA002521E005F10800205C312848
:1017E00009D122480078C5F1070280211141084340
:1017F0001E49087008E01D480078C5F107027F21E6
:1018000011410840194908701848012211464369DE
:101810009847164988698047681CC5B2082DDBDBEC
:1018200070BD0000180300202003002028030020C2
:10183000300300203803002040030020480300202C
:1018400050030020380000209C000020F001002000
:10185000E801002080020020880200209002002081
:10186000180200202002002028020020540000203E
:1018700038B50446FE4800788DF8000000208DF849
:10188000010020788DF80200607A8DF80300684628
:1018900000F07FFE38BD1CB504464821606800F0AA
:1018A00015FA0121084601F0ABFC6068807900114F
:1018B00006281CD2DFE800F003070B0F13170020E7
:1018C000EC49087013E00120EA4908700FE002209B
:1018D000E84908700BE00320E649087007E004209F
:1018E000E449087003E00520E249087000BF00BF2A
:1018F0006068807900F00F00102815D2DFE800F052
:101900000815222F3C495663707D8B99A7B5C3D12A
:101910000020D94908700120D84908600620D44920
:101920000870D749E0680860C9E00120D249087012
:101930000220D24908600720CD490870D149E068EB
:101940000860BCE00220CC4908700420CB49086044
:101950000820C7490870CC49E0680860AFE0032060
:10196000C54908700820C54908600920C0490870A9
:10197000C649E0680860A2E00420BF490870102052
:10198000BE4908600A20BA490870C149E068086089
:1019900095E00520B84908702020B8490860172054
:1019A000B3490870BB49E068086088E00620B24986
:1019B00008704020B14908601720AD490870B64949
:1019C000E06808607BE00720AB4908708020AB49E5
:1019D00008601720A6490870B049E06808606EE00A
:1019E0000820A54908704001A44908601720A049B3
:1019F0000870AB49E068086061E009209E49087002
:101A00004FF400709D490860172099490870A54956
:101A1000E068086053E00A20974908704FF480603E
:101A2000964908602820924908709F49E06808603C
:101A300045E00B20904908704FF400608F49086022
:101A400028208B4908709949E068086037E00C202D
:101A5000894908704FF480508849086028208449DB
:101A600008709349E068086029E00D2082490870F9
:101A70004FF400508149086028207D4908708D4945
:101A8000E06808601BE00E207B4908704FF480403E
:101A90007A4908602820764908708749E06808601C
:101AA0000DE00F20744908704FF40040734908603E
:101AB00028206F4908708149E068086000BF00BFB6
:101AC0006D4801786B48007800F0F0FF6B480068C3
:101AD000009000208DF80400207A8DF80500012088
:101AE0008DF80600684600F0EBFD2046FFF7C0FECB
:101AF0001CBD10B5012000F049FE28B16048006807
:101B00008047012000F053FE10BD10B5022000F008
:101B10003DFE28B15B4800688047022000F047FE88
:101B200010BD10B5042000F031FE28B15648006801
:101B30008047042000F03BFE10BD10B5082000F0E7
:101B400025FE28B1514800688047082000F02FFE8C
:101B500010BD10B5102000F019FE28B14C480068E7
:101B60008047102000F023FE10BD10B5202000F0AB
:101B70000DFE28B1474800688047202000F017FE7E
:101B8000402000F003FE28B1434800688047402011
:101B900000F00DFE802000F0F9FD28B13F480068FC
:101BA0008047802000F003FE4FF4807000F0EEFDCF
:101BB00048B13B4800688047414800F0FCF84FF4CA
:101BC000807000F0F4FD4FF4007000F0DFFD30B1E4
:101BD0003448006880474FF4007000F0E8FD10BD05
:101BE00010B54FF4806000F0D1FD30B12E48006890
:101BF00080474FF4806000F0DAFD4FF4006000F0A1
:101C0000C5FD30B12948006880474FF4006000F0FE
:101C1000CEFD4FF4805000F0B9FD30B1244800688B
:101C200080474FF4805000F0C2FD4FF4005000F0A8
:101C3000ADFD30B11F48006880474FF4005000F000
:101C4000B6FD4FF4804000F0A1FD30B11A480068A5
:101C500080474FF4804000F0AAFD4FF4004000F0B0
:101C600095FD78B31548006880474FF400402AE09E
:101C7000D0000020C8000020C9000020CC000020B7
:101C8000D8000020DC000020E0000020E40000205C
:101C9000E8000020EC000020F0000020F40000200C
:101CA000F8000020FC0000200001002004010020BA
:101CB000080100200C010020100100201401002068
:101CC0004803002001E000F072FD10BD38B5044665
:101CD0000D463C4A2068811A904223D009DC3A49DB
:101CE000084480B1B0F5806F12D0B0F5006F2DD1EF
:101CF00013E0B1F5806F1AD0B1F5006F1CD0B1F5CB
:101D0000406F23D11DE00121042001F079FA1DE08C
:101D10000121082001F074FA18E00121102001F0DF
:101D20006FFA13E00121202001F06AFA0EE0012190
:101D3000402001F065FA09E00121802001F060FAFD
:101D400004E00121080201F05BFA00BF00BF182D7A
:101D500002D01C2D05D100BF0121084601F050FA28
:101D600000E000BF00BF8DF80350A088ADF8000070
:101D700003208DF802006946206800F081FD38BD1F
:101D800081880268116170478188026851617047DB
:101D900019B9828803685A6102E0828803681A616F
:101DA00070470146086880688A88104008B10120A1
:101DB00070470020FCE70168C968828851400268CA
:101DC000D16070470014014000F8FEBF13B5102128
:101DD0000198FFF77BFF10210098FFF777FF1CBDEC
:101DE00013B510210198FFF771FF0198FFF7C8FFA5
:101DF0000098FFF7C5FF042000F089FA0198FFF76B
:101E0000C3FF042000F083FA0098FFF7BDFF1CBD5C
:101E100013B510210198FFF759FF0198FFF7B4FFA0
:101E2000012000F074FA0098FFF7AAFF042000F0E8
:101E30006EFA0198FFF7A4FF042000F068FA1CBDB9
:101E400013B5002448210198FFF740FF012000F05E
:101E50005EFA0098FFF794FF012000F058FA09E0BD
:101E6000601CC4B2FA2C05DDDDE90001FFF7D0FFEC
:101E700001201CBD0198FFF794FF0028F0D10098C5
:101E8000FFF782FF012000F042FA0020F1E713B5CE
:101E90000098FFF779FF10210198FFF717FF0198CD
:101EA000FFF772FF022000F032FA0098FFF768FF98
:101EB000022000F02CFA0098FFF766FF022000F0E5
:101EC00026FA1CBD13B50098FFF75EFF102101989C
:101ED000FFF7FCFE0198FFF753FF022000F017FA0E
:101EE0000098FFF74DFF022000F011FA0098FFF76D
:101EF0004BFF012000F00BFA1CBD37B51446102132
:101F00000198FFF7E3FE0098FFF73EFF012000F085
:101F1000FEF9002516E0E1090198FFF739FF600698
:101F2000040E012000F0F3F90098FFF729FF0220CA
:101F300000F0EDF90098FFF727FF012000F0E7F926
:101F4000681CC5B2082DE6DB3EBDF7B51546082670
:101F5000002448210198FFF7B9FE002615E0022071
:101F600000F0D5F90098FFF70BFF6006040E01980A
:101F7000FFF717FF08B1601CC4B2022000F0C7F9D8
:101F80000098FFF701FF701CC6B2082EE7DB25B9E9
:101F9000DDE90001FFF796FF03E0DDE90001FFF74F
:101FA00076FF2046FEBD2DE9FF4717461D46DDE9B9
:101FB0000D890C9CDDE90001FFF712FF37B1012FFD
:101FC00014D0022F33D0032F73D15DE005F0FE0251
:101FD000DDE90001FFF791FFDDE90001FFF730FFC8
:101FE00018B1012004B0BDE8F08700BF05F0FE0283
:101FF000DDE90001FFF781FFDDE90001FFF720FFC8
:1020000008B10120EEE72646E01704EB106000124D
:10201000A4EB0020C2B2DDE90001FFF76EFFDDE9AD
:102020000001FFF70DFF08B10220DBE757E005F0E4
:10203000FE02DDE90001FFF760FFDDE90001FFF7C7
:10204000FFFE08B10120CDE72212DDE90001FFF714
:1020500054FFDDE90001FFF7F3FE08B10220C1E7FC
:102060002646E01704EB10600012A4EB0020C2B279
:10207000DDE90001FFF741FFDDE90001FFF7E0FEC8
:1020800008B10220AEE72AE02646E01704EB106014
:102090000012FE2101EB400000EA0502DDE900012B
:1020A000FFF72BFFDDE90001FFF7CAFE10B10120A9
:1020B00098E713E02646E01704EB10600012A4EB4B
:1020C0000020C2B2DDE90001FFF717FFDDE90001E2
:1020D000FFF7B6FE08B1022084E700E000BF00BFB2
:1020E0000CE018F8012BDDE90001FFF706FFDDE940
:1020F0000001FFF7A5FE08B1032073E7B9F1000066
:10210000A9F101011FFA81F9EBD1DDE90001FFF727
:102110007FFE002066E72DE9FF4790461D46DDE97A
:102120000D690C9CB8F1000F09D0B8F1010F07D070
:10213000B8F1020F2BD0B8F1030F72D158E000BFF5
:10214000DDE90001FFF74CFE05F0FE02DDE90001CC
:10215000FFF7D3FEDDE90001FFF772FE18B10120A1
:1021600004B0BDE8F0872746E01704EB10600012CA
:10217000A4EB0020C2B2DDE90001FFF7BEFEDDE9FD
:102180000001FFF75DFE08B10220E9E75FE0DDE94D
:102190000001FFF725FE05F0FE02DDE90001FFF773
:1021A000ACFEDDE90001FFF74BFE08B10120D7E7E7
:1021B0002212DDE90001FFF7A0FEDDE90001FFF7D3
:1021C0003FFE08B10220CBE72746E01704EB106082
:1021D0000012A4EB0020C2B2DDE90001FFF78DFE82
:1021E000DDE90001FFF72CFE08B10220B8E72EE080
:1021F000DDE90001FFF7F4FD2746E01704EB10606E
:102200000012FE2101EB400000EA0502DDE90001B9
:10221000FFF773FEDDE90001FFF712FE10B10120A8
:102220009EE713E02746E01704EB10600012A4EBD2
:102230000020C2B2DDE90001FFF75FFEDDE9000129
:10224000FFF7FEFD08B102208AE700E000BF00BFF3
:10225000DDE90001FFF7C4FD45F00102DDE9000101
:10226000FFF74BFEDDE90001FFF7EAFD08B10320AF
:1022700076E70AE0A9F101001FFA80F90122DDE901
:102280000001FFF762FE06F8010BB9F1010FF1D171
:102290000022DDE90001FFF758FE06F8010BDDE939
:1022A0000001FFF7B5FD00205AE700002C48006848
:1022B000401C2B490860704729480068704710B5DA
:1022C0006FF0040000F0AFF9264800682649B0FB23
:1022D000F1F0264908700846007800EB4001C1EB98
:1022E000C0104FF6FF7101EAC0002149088008467E
:1022F00000884FF0E02148610846006940F0020084
:1023000008610846006940F00100086110BD70B521
:10231000034600224FF0E026756903EBC30400BFBB
:10232000B16910E04FF0E026B06988420BD08842D6
:1023300002D20E1A324402E02E1A0E4432440146F2
:10234000A24200D300E0EDE700BF70BD10B5044627
:102350004FF47A7104FB01F0FFF7D9FF10BD0000C4
:10236000A80400200000002000127A00A40400202D
:10237000A604002030BF704772B6704762B670473F
:102380002F483049086070472DE9F04180460E46DD
:102390001746002500241FE037B94046FFF701FD2E
:1023A000A0402843C5B207E04046FFF7FAFCC4F15D
:1023B000070188402843C5B200213046FFF7E8FCFA
:1023C0000120FFF7A4FF01213046FFF7E1FC0120C7
:1023D000FFF79DFF601CC4B2082CDDDB2846BDE87A
:1023E000F0812DE9F04180460E4617461D46002437
:1023F00022E05FB90120A040284008B1012000E0A0
:10240000002001464046FFF7C3FC0CE0C4F1070280
:1024100001209040284008B1012000E00020014642
:102420004046FFF7B5FC01213046FFF7B1FC002123
:102430003046FFF7ADFC641C082CDADBBDE8F08108
:102440000100FFFF0CED00E0014600BF704700BF38
:10245000494A128802F04002002AF9D0C2B2464B23
:102460001B1D1A80704710B586B00446012144F246
:10247000040000F0C5FE4FF40070ADF81400032016
:102480008DF8160018208DF8170005A93B4800F0BC
:10249000F7F94FF48060ADF8140004208DF81700B0
:1024A00005A9364800F0ECF925208DF8000003203E
:1024B0008DF801008DF8020001208DF803006846B8
:1024C00000F067F801940020ADF80800ADF80A00AC
:1024D000ADF80C00ADF810000C20ADF80E0001A90D
:1024E000254800F05EFB012240F22551224800F011
:1024F000F0FB0121204800F0E0FB06B010BD10B554
:1025000040F225511C4800F0C9FC10B31A4800F0F5
:1025100045FCC4B21A48008800F40040C8B9184805
:10252000008800F4804060B10A2C03D000201449D8
:10253000088020E01248008840F4004010490880DC
:1025400019E00D2C06D10E48008840F480400C495B
:10255000088010E00A480088C0F30D0009490C54B7
:1025600007480088401C0649088008460088C7289C
:1025700001DD0020088010BD003801400008014046
:10258000B0040020C804002031490143314A1160E1
:10259000704770B5002100230F22C47804B32D4C7E
:1025A000246804F4E064C4F5E064210AC1F1040382
:1025B000CA40447804FA03F18478144021430901A5
:1025C000254C0678A155047804F01F050124AC4081
:1025D00005786D11AD0005F1E025C5F8004109E071
:1025E000047804F01F050124AC401C4D06787611D8
:1025F00045F8264070BD1A4A0A400243154B1B1F7E
:102600001A60704739B1134A121D12680243114B08
:102610001B1D1A6006E00F4A121D126882430D4B03
:102620001B1D1A607047042808D14FF0E02109698A
:1026300041F004014FF0E022116107E04FF0E0218A
:10264000096921F004014FF0E02211617047000098
:102650000000FA050CED00E000E400E080E100E09D
:1026600080FFFF1F0948804709480047FEE7FEE753
:10267000FEE7FEE7FEE7FEE7FEE7FEE7FEE7FEE732
:1026800004480549054A064B70470000CB05000881
:1026900031010008F0050020F00B0020F0070020B9
:1026A000F0070020002044490860091D0860091D4A
:1026B0000860091D086041483F49143108607047AF
:1026C00000213D498279002A3AD00A4612680368FF
:1026D0009A430B461A600A1D126803689A430B1D41
:1026E0001A60027911440A6803681A430A60324A80
:1026F0000832126803689A432F4B08331A601A1D78
:10270000126803689A432C4B0C331A604279102AE2
:102710000ED11A1F126803681A43274B08331A6038
:102720001A1D126803681A43234B0C331A600DE01C
:102730002149427911440A6803681A430A6005E096
:10274000027911440A6803689A430A6070470021BD
:10275000016001710C21417100218171704716499E
:10276000103109680143144A103211607047014664
:102770000020114A143212680A400AB1012000E018
:10278000002070470C491431086070470146002052
:102790000022094B1B6803EA0102074B14331B6834
:1027A0000B4013B10AB1012000E00020704702493C
:1027B000143108607047000000040140FFFF0F0063
:1027C00010B50446CC48844208D10121042000F011
:1027D00031FD0021042000F02DFD46E0C748844271
:1027E00008D10121082000F025FD0021082000F07B
:1027F00021FD3AE0C248844208D10121102000F0B6
:1028000019FD0021102000F015FD2EE0BD48844286
:1028100008D10121202000F00DFD0021202000F032
:1028200009FD22E0B848844208D10121402000F08F
:1028300001FD0021402000F0FDFC16E0B348844279
:1028400008D10121802000F0F5FC0021802000F05B
:10285000F1FC0AE0AE48844207D10121801500F066
:10286000E9FC0021A01500F0E5FC10BD10B5012128
:10287000084600F0DFFC0021012000F0DBFC10BD69
:102880002DE9F04102460025002600200023002407
:10289000002791F803C00CF00F0591F803C00CF06D
:1028A000100CBCF1000F03D091F802C04CEA0505F2
:1028B00091F800C0BCF1000F31D0146800202BE06B
:1028C0004FF0010C0CFA00F3B1F800C00CEA03065B
:1028D0009E4220D183004FF00F0C0CFA03F7BC434B
:1028E00005FA03FC4CEA040491F803C0BCF1280F7C
:1028F00006D14FF0010C0CFA00FCC2F814C00AE03B
:1029000091F803C0BCF1480F05D14FF0010C0CFA4F
:1029100000FCC2F810C0401C0828D1D31460B1F8E4
:1029200000C0BCF1FF0F34DD546800202EE000F140
:10293000080C4FF0010808FA0CF3B1F800C00CEADB
:1029400003069E4221D183004FF00F0C0CFA03F7CF
:10295000BC4305FA03FC4CEA040491F803C0BCF143
:10296000280F05D100F1080C08FA0CF8C2F8148001
:1029700091F803C0BCF1480F07D100F1080C4FF0EB
:10298000010808FA0CF8C2F81080401C0828CED3C1
:102990005460BDE8F0814FF6FF7101800221817023
:1029A0000421C17070470246002093680B400BB1B0
:1029B000012000E0002070470146886880B270471F
:1029C00002460020D3680B400BB1012000E000203C
:1029D00070470146C86880B2704701617047416125
:1029E00070470AB1016100E041617047C160704702
:1029F0004FF480320A438261816182618269826917
:102A0000704702460020434B18684FF68073184009
:102A100040EA021008433F4B186070473E49C861C6
:102A20007047F0B50A46002300240021002500F07D
:102A30000046B6F1004F02D1364EF16901E0354E45
:102A40007168C0F3034583B200F44016B6F5401F29
:102A500008D121F070612F4E766826F070662D4FF8
:102A60007E6012E000F48016B6F5801F06D10326C2
:102A700006FA05F4A14341F0706106E0460D360107
:102A800003FA06F6B14341F0706122B1460D3601FA
:102A900003FA06F6314300F00046B6F1004F02D1CA
:102AA0001C4EF16101E01B4E7160F0BD30B500229B
:102AB0008B071C0F0F2303FA04F2164B08338C10FC
:102AC00053F824309343134C08348D1044F82530C8
:102AD00023468C1053F824308C07240F00FA04F49A
:102AE00023430C4C08348D1044F8253030BD0A497E
:102AF000DC3108607047000000080140000C014014
:102B0000001001400014014000180140001C014069
:102B100000200140000001400000204210B50446A2
:102B2000FB48844209D10121880300F083FB002186
:102B30004FF4804000F07EFB32E0F648844209D139
:102B40000121480400F083FB00214FF4003000F025
:102B50007EFB25E0F048844209D10121880400F081
:102B600076FB00214FF4802000F071FB18E0EB4869
:102B7000844209D10121C80400F069FB00214FF40F
:102B8000002000F064FB0BE0E548844208D10121FD
:102B9000080500F05CFB00214FF4801000F057FBAB
:102BA00010BD2DE9F04786B005460E460024A2462A
:102BB00000BFA1460027B08900B100BF2F462C8A74
:102BC0004CF6FF700440F08804432C82AC894EF62A
:102BD000F3100440B08831890843718908430443E5
:102BE000AC81AC8A4FF6FF400440B0890443AC820C
:102BF00001A800F098FAC648874202D1DDF810A07B
:102C000001E0DDF80CA0A88900F4004040B10AEB17
:102C1000CA0000EB0A1031684900B0FBF1F807E088
:102C20000AEBCA0000EB0A1031688900B0FBF1F82A
:102C30006420B8FBF0F004012009642101FB108935
:102C4000A88900F4004040B1322000EBC900B0FB7D
:102C5000F1F000F00700044308E0322000EB091017
:102C60006421B0FBF1F000F00F0004432C8106B0AA
:102C7000BDE8F0874FF41651016000218180C180CA
:102C800001810C21418100218181704710B50246EC
:102C90000020108A4FF2FF0318400B884C88234312
:102CA0008C882343CC8823431843108210BD002115
:102CB000018041808180C180704721B1828942F4C6
:102CC0000052828104E082894DF6FF731A408281AE
:102CD0007047F0B50346002400260025002040F68A
:102CE0006A17B94200D100BF1846C1F3421401F07F
:102CF0001F06012707FA06F5012C01D10C3004E06C
:102D0000022C01D1103000E014301AB107682F43B3
:102D1000076002E00768AF430760F0BD1AB1838A1D
:102D20000B43838202E0838A8B4383827047028A4B
:102D30004FF6F0731A400282028A0A4302827047F9
:102D400082894FF2FF731A40828182890A4382810D
:102D5000704721B1828942F00202828104E08289B7
:102D60004FF6FD731A4082817047028A4FF6DF7377
:102D70001A400282028A0A430282704721B1028A03
:102D800042F48042028204E0028A4BF6FF731A404A
:102D900002827047C1F3080282807047014688882A
:102DA000C0F308007047818941F0010181817047BB
:102DB000028BD2B20283028B42EA01220283704765
:102DC000028B02F47F420283028B0A430283704724
:102DD00021B1828A42F02002828204E0828A4FF688
:102DE000DF731A408282704721B1828A42F010025A
:102DF000828204E0828A4FF6EF731A408282704723
:102E000021B1828A42F00802828204E0828A4FF66F
:102E1000F7731A408282704721B1828942F40042DE
:102E2000828103E08289C2F30E028281704721B160
:102E3000828A42F40062828204E0828A4FF2FF7347
:102E40001A4082827047828A4FF6FB731A40828250
:102E5000828A0A438282704721B1828A42F002024A
:102E6000828204E0828A4FF6FD731A4082827047A4
:102E700002460020B1F5007F00D100BF13880B404F
:102E80000BB1012000E00020704701F40072B2F5A0
:102E9000007F00D100BFCA430280704770B5024670
:102EA000002400230025002040F66A16B14200D11C
:102EB00000BFC1F3421501F01F03012606FA03F318
:102EC000012D02D19689334006E0022D02D1168AE7
:102ED000334001E0968A33400C12012606FA04F4CE
:102EE0001688344013B10CB1012000E0002070BD01
:102EF00010B50022002340F66A14A14200D100BFA1
:102F00000A1201249440A3B2DC43048010BD0000E7
:102F1000003801400044004000480040004C0040A0
:102F200000500040DF48006840F00100DD490860C3
:102F300008464068DC490840DA49486008460068AD
:102F4000DA490840D74908600846006820F4802024
:102F500008600846406820F4FE0048604FF41F00F7
:102F600088607047CF49096821F48031CD4A1160EB
:102F70001146096821F480211160B0F5803F03D02B
:102F8000B0F5802F0ED106E0C649096841F48031C2
:102F9000C44A116007E0C349096841F4A021C14A4D
:102FA000116000E000BF00BF704710B5014600226D
:102FB000002300204A11012A02D1BA4C236806E0FE
:102FC000022A02D1B74C236A01E0B64C636A01F0D1
:102FD0001F02012494401C400CB1012000E000209D
:102FE00010BD38B5002000900024002500BF31201E
:102FF000FFF7DBFF05460098401C00900098B0F5F5
:10300000A06F01D0002DF2D03120FFF7CEFF08B124
:10301000012400E00024204638BD01460020A14ADA
:10302000106820F0F80040EAC10010607047A04925
:1030300008607047024600209A4B586820F47C10C4
:1030400042EA01031843974B586070479849086655
:10305000704701460020934A506820F0030008435F
:10306000506070478F48406800F00C007047014680
:1030700000208C4A506820F0F000084350607047F0
:1030800001460020874A506820F4E0600843506001
:10309000704701460020834A506820F4605040EA9F
:1030A000C1005060704729B17E4A527A02437D4B7D
:1030B0005A7204E07B4A527A82437A4B5A727047C2
:1030C0007B49D8310860704701460020754A506836
:1030D00020F440400843506070470021714A20327C
:1030E0001170704A82F82010012802D004280AD1F9
:1030F00004E001216B4A2032117005E00521694A84
:103100002032117000E000BF00BF704769490860BD
:1031100070476449096A0143624A11627047654910
:1031200044390860704730B5002100220024002394
:103130005C4D6D6805F00C0121B1042905D008290A
:1031400023D105E05C4D056022E05C4D05601FE089
:10315000544D6D6805F47012524D6D6805F480345D
:10316000022505EB92421CB9554D554305600BE015
:103170004C4D6D6805F400351DB1524D5543056049
:1031800002E04E4D5543056002E04B4D056000BF27
:1031900000BF444D6D6805F0F00109094A4D6B5CB4
:1031A0000568DD4045603F4D6D6805F4E061090A42
:1031B000454D6B5C4568DD4085603A4D6D6805F4B2
:1031C0006051C90A404D6B5C4568DD40C560354DB6
:1031D0006D6805F44041890B3C4D6B5CC568B5FBDF
:1031E000F3F5056130BD29B12E4A526902432D4BDA
:1031F0005A6104E02B4A526982432A4B5A61704754
:1032000029B1284A92690243264B9A6104E0254A73
:1032100092698243234B9A61704729B1214AD2694E
:103220000243204BDA6104E01E4AD26982431D4BFF
:10323000DA61704729B11B4AD2680243194BDA6040
:1032400004E0184AD2688243164BDA60704729B10D
:10325000144A12690243134B1A6104E0114A1269BD
:103260008243104B1A617047124940390860704719
:103270000F49C86470470B49C87170470948406AD4
:1032800040F0807007494862704701460020054AB7
:1032900092680A400AB1012000E00020704701490D
:1032A00088727047001002400000FFF8FFFFF6FE32
:1032B000000042428004424200127A00001BB70024
:1032C00000093D00808D5B00B2040020C204002094
:1032D000704700000FB4044910B503AA029800F02B
:1032E00027FB10BC5DF814FBAC0400200FB40449AC
:1032F00010B503AA029800F01BFB10BC5DF814FB8C
:10330000AC04002070B50C460546012A05D028788B
:10331000800600D5EA69002302E0012305E05B1C7A
:10332000934202D2E05C0028F9D1A869E618C01ADD
:10333000A861286A18442862284600F03CFA04E094
:10334000D5E9012114F8010B9047B442F8D328467F
:1033500000F047FA70BD00002DE9F0410646002458
:1033600010687529314616A510D000F04BFA0028D8
:1033700002DA404213A507E031688A0701D512A599
:1033800002E0490704D511A5012401E000F043FA49
:1033900000210A2206F1240709E0B0FBF2FCB0FB91
:1033A000F2F302FB1C00303078541846491C002808
:1033B000F3D123462A463046BDE8F04100F034BA46
:1033C000000000002D0000002B0000002000000085
:1033D0002DE9F05F894604464FF0000ADFF874B12A
:1033E000FB44C0F820A02046E1688847002874D03C
:1033F000252806D0D4E901219047206A401C20628C
:10340000F1E700265F462046E16888472028054608
:1034100007DB312D05D2781910F8200C08B10643CE
:10342000F1E7B00701D526F00406C4F81CA0002778
:10343000C4F818A02A2D09D0284602F024F938B380
:1034400004EB8708303DC8F8185019E059F8041B00
:10345000204604EB87029161E1688847012F054609
:1034600018D1E069002820DA26F020061DE0D8F8FF
:10347000180000EB800005EB40003038C8F8180059
:103480002046E1688847054602F0FDF80028EED1A5
:10349000012F0AD02E2D08D12046E16888477F1CD5
:1034A0000546022F46F02006C4DBA069002803DA97
:1034B000404246F00106A061F00701D026F0100658
:1034C0006C2D0BD0682D09D04C2D39D06A2D35D0FC
:1034D000742D35D07A2D33D016E038E0E1682F46D0
:1034E00020468847B842054609D16C2F26D04FF4B4
:1034F0008060E168064320468847054604E06C2F5B
:103500001AD04FF4807006430DB3A5F1410019287D
:1035100002D8203546F400664A46294620462660F1
:103520004E46FCF75FFE80B101280BD0F61D26F059
:10353000070000F1080956E74020E4E78020D8E7BB
:103540000020D6E706F104094DE7284652E7206A35
:10355000BDE8F09F202800002DE9F04791460F4676
:1035600080460446002614F8015B2DB100F00CF9EA
:103570000068405DC007F6D12B2D02D02D2D18D04C
:10358000641E4A463946204600F002FB27B13968DE
:10359000A14201D1C7F800804FF0020471050BD59C
:1035A0004042002803DD00F0F7F80460A007BDE802
:1035B000F08746F48066E4E70028F8DA00F0ECF8DB
:1035C00004606FF00040F2E710B5431C02E010F811
:1035D000011B71B18107FAD14FF0013202C88C1A78
:1035E0008C4314EAC211F9D0C01A0A0603D0C01ED7
:1035F00010BDC01A10BD0A0401D0801E10BD090202
:10360000FCD0401E10BD40EA010370B59B072ED1CF
:103610004FF00136042A2AD308C810C99D1B9D43C8
:10362000121F15EAC61517D0D8B2E1B2401A50EAF7
:10363000056110D198B2A1B2401A50EA05410AD1F1
:1036400023F07F4024F07F41401A50EA052102D147
:10365000180EA0EB146070BDA342DBD018BA21BADB
:10366000884201D9012070BD4FF0FF3070BD0AB90A
:10367000002070BD10F8013B11F8014B63B1A3426B
:103680000AD1521E08D010F8013B11F8014B1BB1B2
:10369000A34201D1521EEDD1181B70BD10B5203AC6
:1036A000C0F00B80B1E81850203AA0E81850B1E8FB
:1036B0001850A0E81850BFF4F5AF5FEA027C24BFB1
:1036C000B1E81850A0E8185044BF18C918C0BDE8A8
:1036D00010405FEA827C24BF51F8043B40F8043B71
:1036E00008BF7047D20728BF31F8023B48BF11F826
:1036F000012B28BF20F8023B48BF00F8012B704780
:103700004FF0013C50F8042B51F8043B9A4221D170
:10371000A2EB0C03934313EACC1317D150F8042BFC
:1037200051F8043B9A4215D1A2EB0C03934313EAE0
:10373000CC130BD150F8042B51F8043B9A4209D119
:10374000A2EB0C03934313EACC13DBD04FF0000041
:10375000704700BFD01A01BAB1FA81F101F0180127
:1037600022FA01F0CB40C1F12001DBB2C0B2C01A95
:103770002CFA01F3D11A914311EAC311E6D1704733
:10378000704770477047704710B500F0A7FA001DEA
:1037900010BD00BFE91F00000048704790050020E1
:1037A00010B5FFF7F9FF006810BD10B50446FFF72C
:1037B000F3FF046010BD70B5044685690068C1065A
:1037C00001D5302600E02026C00707D070BDD4E91F
:1037D000012130469047206A401C20626D1EF6D5BC
:1037E00070BD70B5044685690078C00707D170BD0B
:1037F000D4E9012120209047206A401C20626D1EE0
:10380000F6D570BD09684A0501D540B27047C905B3
:10381000FCD500B2704709684A0501D5C0B27047AF
:10382000C905FCD580B270472DE9F0470D46994691
:103830009246044600F124080168880604D5E06930
:1038400021F01001216000E00120A84201DD471BAA
:1038500000E00027A1697A1902EB0900081AA061AB
:103860002078C00602D42046FFF7A5FF002608E016
:10387000D4E901211AF806009047206A401C761C02
:1038800020624E45F4DB2078C0060AD52046FFF7BB
:1038900092FF06E0D4E9012130209047206A401CC5
:1038A0002062381EA7F10107F4DC07E0D4E901210A
:1038B00018F805009047206A401C2062281EA5F1D8
:1038C0000105F3DC2046FFF78CFF2078000602D5C7
:1038D0000220BDE8F0870120FBE711680268006A5A
:1038E000530501D508700AE0D30501D5088006E02C
:1038F000130603D5C217C1E9000200E008600120E9
:10390000704710B5436913B1AFF3008001E0FFF7D2
:10391000F9FC012010BD127800F124010A70002288
:103920004A700122EDE711684FF0FF32E9E700002D
:10393000074B70B50D467B4400F035FC0446284625
:1039400000F088FC10B14FF0FF3070BD204670BD14
:1039500015EBFFFF2DE9FF5F15468A460446DFF8A9
:10396000AC80F8440027D8E900103E46CDE90010AD
:1039700010E03AF816106A4602A800F06FFC411CED
:1039800007D02178890603D5E269391891420DD80C
:103990000744761C2078800602D5E069B84205DD30
:1039A000AE42E6DB3AF816000028E2D1A069C01B5F
:1039B000A0612046FFF7FFFED8E90010CDE9001016
:1039C000002017E03AF818106A4602A800F046FCFA
:1039D000B0F1FF3F81460BD000250DF1080B05E04B
:1039E000D4E901211BF8050090476D1C4D45F7D324
:1039F00008F10100B0428046E4DB206A38442062CE
:103A00002046FFF7EEFEBDE8FF9F0000B222000057
:103A10002DE9F0418046D21D22F007020025D2E9AF
:103A20000002F52915A614D0011E72F1000106DA74
:103A30000023D0EB030063EB020211A608E0D8F8E4
:103A400000108B0701D50FA602E0490701D50EA68D
:103A500001251146002408F1240704E000F042F992
:103A600030323A55641C50EA0102F7D12B463246F7
:103A700021464046BDE8F041FFF7D6BE00000000F9
:103A80002D0000002B0000002000000030B40021B9
:103A900000F1240408E002F00705D208303542EABC
:103AA0004372DB086554491C52EA0305F3D10468EC
:103AB000002310A2250707D5A40600D421B1C469AC
:103AC00001230DA2641EC46130BCFFF7ADBE10B56A
:103AD000044621461068FFF79EFE02462046BDE8D8
:103AE00010400023D2E7D21D22F00701D1E90023C4
:103AF000CCE700000000000030000000F0B40D46EC
:103B00000188090502D5214C7C4402E01F4C7C440D
:103B10000E34002100F1240608E002F00F0712091C
:103B2000E75D42EA03721B097754491C52EA030716
:103B3000F3D102780023120704D5702D06D009B105
:103B4000022311342246F0BCFFF76EBE012310346D
:103B5000F8E770B504460D4621461068FFF75BFE96
:103B6000024629462046BDE870400023C6E7D21D24
:103B700022F00703D3E90023C0E70368126843F08B
:103B8000200303600823C3610023B7E7142100006A
:103B90002DE9F05F824615468B4600270AF10104A5
:103BA000B9460078302801D09DB113E014F8010B1C
:103BB0000127782803D0582801D045B10AE00DB17B
:103BC000102D07D1002714F8010B102502E008255D
:103BD00000E00A250026B0460EE005FB080005FBC4
:103BE00006F101271FFA80F801EB1046B6F5803F79
:103BF00000D3B94614F8010B294600F0FDFA00285D
:103C0000EBDABBF1000F05D00FB1641E00E05446A3
:103C1000CBF80040B9F1000F06D0FFF7BDFD02213F
:103C20000160C81EBDE8F09F48EA0640FAE70000C0
:103C30000FB4002300B589B00CA900910B99CB609B
:103C4000214B7B440693214B7B44079304236FF065
:103C50000042CDE901321E4A7A446B460892024680
:103C6000002001F060FF09B05DF814FB70B5064656
:103C70004FF0FF3015460C46324686B00091CDE934
:103C8000010169460020049004A8FFF7D1FF024615
:103C90000498211825B108B1084600E020462860A4
:103CA000049800280DD0002A02DD0098884208D030
:103CB0003246081B69460094CDE9010404A8FFF7C9
:103CC000B7FF06B070BD0000CF050000E70500009B
:103CD000130100000048704790050020004870471D
:103CE000B005002030B5B0F10A024FEA900E71F134
:103CF00000034EEA817EB0EB0E0061EB91014FEACA
:103D0000101E4EEA017E10EB0E0041EB11114FEA3E
:103D1000102E4EEA016E10EB0E0041EB11214FEA1E
:103D2000104E4EEA014E10EB0E0041EB11414018CF
:103D300041F100014FEAD00040EA41704FEAD10161
:103D400010EB80054FEA810444EA907444EB0104CF
:103D50006D1944EB0404521BA3414FF0000348BF0C
:103D60000A3200D530BD401C41F1000130BD10B514
:103D70000446FFF709FD0068005D00F0010010BD7A
:103D800070472DE9FF4F0C461E464FF0FF378BB0B2
:103D9000D2E90001DDF860800A908A46C1F30A5535
:103DA00005B93D46002108464FF00000BAF1000F6A
:103DB00000F4400005DA00EB80004FF4400101EA16
:103DC00050004FEA9059B9F1010F00DDB9460A9849
:103DD00050EA4A000ED044F61050A5F2FF35454394
:103DE0002F14B8F1000F1ED07542291E1EDDC9F137
:103DF00000021CE0B8F1010F4FF0000001D03021AB
:103E000003E0F24305E02154401CB042FBDB3046A6
:103E10000022002121540B99C1F80880C1E900203B
:103E20000FB0BDE8F08FBD1B6D1CDEE74A4600DA1F
:103E3000694206A800F0EAFC06AB93E8070003AB72
:103E400083E8070050460A9900F095FF8DE80700C7
:103E5000A0F500501F3800900398002D09DD42F2B4
:103E60001F014A46084403A90390684601F01FFA5F
:103E700008E0A0F500504A461F3803A903906846A1
:103E800001F03DFA8DE807000004000C03D04FF06C
:103E9000FF30410800E01046B8F1000F03D00022C7
:103EA000009215461EE0751E05D4FFF71BFF303249
:103EB00062556D1EF9D5B3460122084302D0002297
:103EC0007F1C04E02078302801D100227F1E002AC8
:103ED000099786D01DE0112D07DAFFF703FF303276
:103EE00062556D1C50EA0102F5D1084302D00098DA
:103EF000C8B10EE00021681E05E0235C625C6354DB
:103F00002254401E491C8142F7DBAB46A81B401ED1
:103F10000990002004F80B000B98099AC0F808805B
:103F2000C0E9002B7CE711264FF0000859E72DE986
:103F3000F04F88460446D21D22F0070191B0D1E926
:103F40000001CDE90A0101F024FB02460B98C00FE5
:103F500001D02D2007E02068810701D52B2002E049
:103F6000202101EAC000032A099001D0072A05DBBD
:103F700003464146204600F0B7F90BE12078800661
:103F800001D5E06900E00620B8F1650F814606D052
:103F9000B8F1660F18D0B8F1670F70D131E000208A
:103FA000B9F1110F009001DB112301E009F10103C8
:103FB0000AAA01A90CA8FFF7E4FEDDE90C700026AF
:103FC00009F10105834647E001204B4600904FF080
:103FD00000470AAA01A90CA8FFF7D3FEDDE90DB03E
:103FE0000C995D46002610B909F101000D18B9EBD6
:103FF000050003D4C0F1FF3609F10105A5EB090066
:104000002BE0B9F1010F01DA4FF001090020B9F1FD
:10401000110F0090484601DD112300E003460AAA73
:1040200001A90CA8FFF7ADFEDDE90C704D46002696
:104030008346207800070AD4AB4500DA5D4601A824
:10404000012D04DD411911F8011C302907D04F451D
:1040500002DA17F1040F04DA012082460FE06D1E28
:10406000EEE7002F02DCED1B3E4403E0781CA84283
:1040700000DD7D1CB81B00F1010A4FF000472078DD
:10408000000703D4AA4501DB4FF0FF3A0021B7F146
:10409000004F0DF143088DF8431024D002202B234C
:1040A000002F01DA7F422D230A21021EA0F1010018
:1040B00000DC5FB197FBF1FC97FBF1F201FB1C7C8C
:1040C00017460CF1300C08F801CDEEE7A8F101001D
:1040D00003702188090501D5452100E06521A0F183
:1040E000010800F8011C09980FA9A1EB0807FF1DA2
:1040F00000B10120411901EBEA70A1693844081AA6
:10410000401EA0612078C00602D42046FFF753FB72
:10411000099828B1D4E901219047206A401C206207
:104120002078C00622D52046FFF745FB1EE0002E72
:1041300004DBB34502DD01A8805D00E03020D4E956
:1041400001219047206A401C2062761CAAF10100E0
:104150005FEA000A0AD1FFF7C1FDC0680168405C50
:10416000D4E901219047206A401C2062281EA5F155
:104170000105DCDC07E0D4E9012118F8010B9047C8
:10418000206A401C2062381EA7F10107F3DC20469C
:10419000FFF727FB032011B043E6000001694A1C2A
:1041A00002610878704700B58FB0CDE90131002178
:1041B000059105497944CDE9031011466846FFF79A
:1041C00007F90FB000BD0000E5FFFFFF10B5436920
:1041D00013B1AFF3008001E0FFF7BCFB012010BD7D
:1041E000128800F1240182840022C2840122EDE7BA
:1041F00011684FF0FF32E9E73A2800D2303820F05A
:104200002002412A01D3A2F13700884201D34FF0A6
:10421000FF307047426842B1016811F8013B23B199
:10422000521EC0E90012184670470121C160881E65
:10423000704742685AB1C368016843B983688B42CA
:1042400005D0491E521CC0E90012002070474FF0F3
:10425000FF307047007B00F08000704770B5164655
:104260000C460546FFF790FA036893F80101012810
:1042700006D0FF2C0FD8185D68B101202C7070BDDE
:10428000D3F807013246214603F2071303442846B8
:10429000BDE8704018474FF0FF3070BD7546FFF71E
:1042A00019FDAE4605006946534620F007008546D5
:1042B00018B020B5FEF7E4F9BDE820404FF0000645
:1042C0004FF000074FF000084FF0000B21F00701FE
:1042D000AC46ACE8C009ACE8C009ACE8C009ACE841
:1042E000C0098D46704700002DE9F0411F46044685
:1042F00003260168072A01F4006004DB08B116A553
:1043000005E016A503E008B115A500E015A521F00C
:1043100010002060A069C01EA0610FB1401EA06106
:104320002046FFF748FA4FB1D4E9012138469047BB
:10433000206A401C2062C01C206206E0206AFAE766
:10434000D4E9012115F8010B9047761EF8D22046DA
:10435000FFF747FABDE8F0814E414E006E616E00F6
:10436000494E4600696E66002DE9FF4F064689B04A
:104370000878FF2806D0491C2D2805D000244FF0CE
:10438000000908E000200CE00124F8E709EB8903AC
:10439000491C00EB43090878FF28F7D114B1C9F193
:1043A00000008146107800252C46AA4629462D2873
:1043B00001D02B2804D1521C2D2813D00020824676
:1043C0008B461078FF280FD04FF0000C0A21521CAA
:1043D000A5FB017804FB018105FB0C11C5194BEB12
:1043E0000104EEE70120EAE7002108464FF0000053
:1043F000BAF1000F02D000EB80004008C0F38158F2
:10440000B8F1010F01DD4FF0FF380C9809EB000700
:1044100055EA040009D04FF0020917F5FA7F0BDACC
:104420004FEACA70C6E900B012E04FEACA70C6E9A6
:1044300000B00DB0BDE8F08FB7F5FA7F0DDDF048A4
:104440007844D0E90010C6E9001040EACA707060F4
:10445000FFF7A2F9C0F80090EBE7391E02DAC8F1C5
:10446000000200E0424600DA794206A800F0CEF9E8
:1044700006AB93E8070003AB83E8070044F23E0075
:104480005BEA04010090584604D144F21E012C4618
:104490005D460091210C0904014306D100992404D2
:1044A00044EA15442D041039009104F07F41014382
:1044B00006D10099240244EA15642D0208390091BE
:1044C00004F07041014306D10099240144EA1574B7
:1044D0002D01091F009104F04041014306D10099CC
:1044E000A40044EA9574AD00891E009104F00041D7
:1044F000084304D100986D196441401E0090424663
:104500006846002FCDE9014503A902DD00F00BFF4D
:1045100001E000F0E0FEBAF1000F04460D4601D0C4
:1045200084F0004440F2FF7724F00040284303D099
:10453000C4F30A50B84212D1FFF72EF9C0F8009028
:10454000C4F30A50B8420AD1AE487844D0E900100A
:10455000C6E9001004F000410843706069E7C6E94D
:10456000005466E72DE9FF4F1F464FF0000A4FF059
:10457000FF38454691B0D7E90146CDF83CA0FFF79A
:10458000ADFBC0680168405C1090B96912986D1C61
:104590008847396A814688470028F6D1B9F1FF3F3C
:1045A0000AD0002E24F4D06411DDB9F12B0F08D00D
:1045B000B9F12D0F0BD102E0404615B03AE744F4B3
:1045C0008064B96912986D1C8847761E8146600523
:1045D00004A901D52D2000E02B20002E01F1010BB4
:1045E0000DF130088DF810003FDDB9F1690F08D0EA
:1045F000B9F1490F05D0B9F16E0F02D0B9F14E0FE4
:104600001CD13B4601A8009580E85002DDE912125A
:104610006FF0020001F08BFAC11CCED10EE0B96937
:1046200012986D1C884781461398761E44F40074D6
:1046300005600F98401C002E0F9016DDB9F1300F69
:10464000EDD0B9F1780F02D0B9F1580F0DD10F9814
:1046500001280AD13B46CDE90054DDE91212001FC2
:10466000029601F062FAC11CA7D1109989453ED18A
:1046700044F0800406E01399681CAAF1010A44F48E
:1046800000740860B9696D1C1298761E884730283E
:104690008146F0D02BE01099894505D1200603D43E
:1046A000761E44F0800418E0484600F0ECFF08B3A2
:1046B000761E0DF123018B4544F4007408D2A9F154
:1046C00030000BF8010B200607D5AAF1010003E02A
:1046D000200602D40AF101008246A00502D51399F2
:1046E000681C0860B96912986D1C88478146002EC5
:1046F000D1DC53E0002E51DDB9F1650F02D0B9F1E4
:10470000450F4BD1A00549D5B9696D1C1298761E8D
:1047100024F440748847002E81460CDD2B2804D0F9
:10472000B9F12D0F07D144F48074B96912986D1C4A
:104730008847761E8146E00501D52D2100E02B211A
:1047400008F8011BCDF8008021E0761E0DF139013B
:10475000884544F400740CD2A9F1300010F0FF0039
:1047600088F8000002D10099884509D908F10108AC
:1047700006E0E00501D5244801E042F20F708246D0
:10478000B96912986D1C8847814613980560002E00
:1047900004DD484600F077FF0028D6D1F969129869
:1047A0008847FF2053468BF8000088F8000000205F
:1047B0000A900B9004AA0CA90AA8FFF7D5FDA00542
:1047C00002D46FF00100F8E614F0240F0AD0E007DD
:1047D00014D13868DDE90A12031D3B600068C0E9A6
:1047E00000120BE00AA9684600F0F6FEE00705D1CA
:1047F0003868009A011D3960006802602846DCE6CE
:10480000B8180000AE170000F1D8FFFF2DE9F047FF
:10481000814616468AB0334878440DC88DE80D00AD
:1048200030487844801C03AC0DC884E80D0041F684
:104830009B300844372190FBF1F290FBF1F5A5F194
:10484000800501FB12041B3C02D56442012000E0FC
:104850000020DFF890A080460027FA44AAF1BE0AA3
:104860000DE0E00709D03246684607EB47010AEB46
:10487000810100F044FD8DE8070064107F1C002CCE
:10488000EFD1184F7F44AC3F18E0E80714D007EB96
:1048900004100DF1180A90E80E008AE80E00C068B6
:1048A000F04201D198190890324606A903A800F0F9
:1048B00026FD03AB83E807006D10641C002DE4D1D6
:1048C00032466946B8F1000F03A802D000F0EFFCB1
:1048D00001E000F014FDC9E90001C9F808200AB0A0
:1048E000BDE8F087A814000010B50446AFF30080BF
:1048F0002046BDE81040FBF7D8BC00002DE9FF4F73
:104900001F464FF03C0987B04FF00042DDE914101C
:1049100001F10108DDF858A002EA405003900020A0
:1049200005908346054604460490B969461E0898DA
:104930008847AAF1010A0290BAF1000F3BDD029804
:104940002E2815D01021FFF757FC00282EDB4FF042
:10495000010B0599014317D0B9F1000F0BDB4A4653
:10496000C11700F0F5F905430C43A9F1040905E06E
:10497000012004900BE008B145F0010501200590ED
:10498000049820B9361D02E0049800B1361FB969B9
:10499000089808F101088847BBF1000FAAF1010A45
:1049A0000290C9D00999C1F80080C5E70298702823
:1049B00008D0502806D0F96908988847BBF1000F45
:1049C00014D04FE0002002900120BBF1000F0490B2
:1049D00009D0B969089808F101088847AAF10109C6
:1049E000B9F1000F07DCF969089888476FF00100FA
:1049F0000BB0BDE8F08F2B2804D02D280CD14FF040
:104A0000FF300490B969089808F101088847A9F1B6
:104A10000109B9F1000FE6DD411CE4D00A21FFF7DE
:104A2000EBFB0028DFDB029908F1010801EB8101B3
:104A300000EB41000290B969089888470A21FFF706
:104A4000DBFB099AA9F10109B9F1000FC2F8008056
:104A500001DD0028E7DAF969089888470499029887
:104A600000FB016655EA040004D004F0404109004F
:104A700002D006E0039898E0A40044EA9574AD00E3
:104A8000B61E04F00041080002D16D196441761E83
:104A9000159810F0240F03D04FF00B095C4803E089
:104AA0004FF028096FF07D008246564507DAAAEBE1
:104AB00006018944B9F1410F01DD4FF041090120A0
:104AC0000021A9F1010200F043F9024628400B46FB
:104AD0002140084301D0012100E00021501E029135
:104AE00043F1FF3128402140084301D0012000E07C
:104AF00000200299834651EA0B014FD0002108465D
:104B00004FF00000039900F4400039B100EB800041
:104B10004FF4400100EBD07001EA600080150128DD
:104B200002DD4FF0FF3000E013D0401C36D0029879
:104B300060B3BBF1000F0CD14A460120002100F008
:104B400007F928402140084301D0012000E000205F
:104B5000E0B101204A46002100F0FAF8034640196E
:104B60000A4661412D1A8C4111D3B9F1400F09DD7C
:104B7000159810F0240F02D0AAF1340603E0AAF130
:104B8000170600E0761C00254FF0004406E05B1E8F
:104B900042F1FF3220EA030521EA0204CAF10100D2
:104BA000B04206DA1B4903980843019000200090A8
:104BB0000EE0039AC4F3D321E80A0A43164940EAF7
:104BC00044500A433146CDE90002684600F050FDEA
:104BD000159810F0240F0BD01598C00715D1386820
:104BE000DDE90012031D3B600068C0E900120CE023
:104BF00002A8694600F0F0FC1598C00705D1386896
:104C0000029A011D3960006802604046F0E600002B
:104C100002FCFFFF0000F07F0000F03F2DE9FF4F96
:104C200092461D4685B04FF00041DDE9124BDDE9AB
:104C300014727F1E01EA4B50414940F0FF4940EA9F
:104C40000108002122F020004928049102D04E28BA
:104C500028D04CE03BA0012607C88DE80700A969D1
:104C60000698641C88477F1E014606D41DF806007E
:104C700018B121F0200181420BD0E96906988847DC
:104C8000032E34D0082E32D06FF0010009B0BDE8F9
:104C9000F08F761C032E01D0082EE0D1601CCAF8DC
:104CA0000000DCE7A9690698641C88477F1E2AD4A7
:104CB00020F02000412826D1A9690698641C884765
:104CC0007F1E20D420F020004E281CD1A969069810
:104CD000641C88477F1E48F4002849F48009CAF8FC
:104CE000004001D4282806D0E969069888475FEA81
:104CF000CB7012D022E0A9690698641C88477F1EF9
:104D000001D4002803DAE96906988847BCE7292816
:104D1000F1D1641CCAF80040E9E71BF0240F07D06A
:104D200028680499031D2B600068C0E9001805E09D
:104D30002868021D2A600068C0F800902046A5E798
:104D40000000F07F494E46494E495459000000008A
:104D5000B2F120030AD5C2F1200301FA02F120FAD0
:104D600003F300FA02F041EA0301704700FA03F18D
:104D70004FF0000070475FEA400C08BF91F0000F51
:104D80004FEA8C234FEAC12243EA51514FEA1C50AB
:104D900018BF00F5F0404FEA300018BF41F0004165
:104DA0005FEA6C5C00F02980BCF1FF3F08BF40F077
:104DB00080407047130C06BF12044FF0100C4FF0E8
:104DC000000C130E04BF12020CF1080C130F04BFE9
:104DD00012010CF1040C930F04BF92000CF1020CB1
:104DE000D30F04BF52000CF1010C11464FF000022A
:104DF000A0F11F00A0EB0C00704711F0004F08BF9E
:104E0000704731F000413FF4D5AF0B0C06BF0904E9
:104E10004FF0100C4FF0000C0B0E04BF09020CF108
:104E2000080C0B0F04BF09010CF1040C8B0F04BF1D
:104E300089000CF1020CCB0F04BF49000CF1010CEE
:104E4000CCF12003A0EB0C0022FA03F302FA0CF2DF
:104E500041EA030100F10100704720F07F4C80EA35
:104E6000030023F07F47ACEB070303F57C5300F00E
:104E7000004003F1FF032DE980494FEA154B09B4C7
:104E80004FEA144325EA0B4E24EA03480FF20426A6
:104E900006EB132749083E785FEA320203FB0667F8
:104EA000C7F5000707FB06F64FEA54374FEAD64628
:104EB00006F1020607FB066CCCF1005C4FEA1C47CA
:104EC0002CEA074C07FB06F40CFB06F504EB154631
:104ED0004FEA961634BF00204FF000404FEAD1371A
:104EE00006FB07FC4FEA1C4C0CFB0BF7D21B03FB29
:104EF0000CF761EB07010CFB0EF7B0EB074072EB10
:104F000017420CFB08F734BFA2EB0742B2EB074293
:104F100061EB17414FEA0C444FEA910706FB07FC8F
:104F20004FEA1C4C0CFB0BF7B0EBC74072EB57324F
:104F300003FB0CF734BFA2EBC742B2EBC74261EBF5
:104F400057310CFB0EF7B0EBC70072EB57720CFB3E
:104F500008F734BFA2EBC702B2EBC70261EB57718F
:104F6000039F4FEA816141EA921104EBCC044FEABE
:104F7000D1374FEA826206FB07FC42EA90124FEA01
:104F800080604FEA1C4C0CFB0BF7D21B03FB0CF7A9
:104F900061EB07010CFB0EF7B0EB074072EB174219
:104FA0000CFB08F734BFA2EB0742B2EB074261EB00
:104FB00017414FEA8C554FEA910704EB9C2406FBFE
:104FC00007FC4FEA1C4C0CFB0BF7B0EBC74072EB35
:104FD000573203FB0CF734BFA2EBC742B2EBC74218
:104FE00061EB57310CFB0EF7B0EBC70072EB577259
:104FF0000CFB08F734BFA2EBC702B2EBC70261EBB0
:10500000577115EB4C254FEA816141EA92114FEA45
:1050100082624FEAD13742EA901206FB07FC44F164
:1050200000044FEA80604FEA1C4C0CFB0BF7D21BCC
:1050300003FB0CF761EB07010CFB0EF7B0EB07402D
:1050400072EB17420CFB08F734BFA2EB0742B2EB3E
:10505000074261EB174115EB1C154FEA813141EA1C
:1050600092414FEA823242EA90424FEA80304FEA60
:105070000C7644F1000448EA03434EEA0B484FF033
:10508000000EB2EB080C71EB030724BF62463946F1
:105090004EEB0E0E4FF0000B0018524149414BEB06
:1050A0000B0BB2EB080C71EB03077BF1000B24BF79
:1050B000624639464EEB0E0E4FF0000B001852417F
:1050C00049414BEB0B0BB2EB080C71EB03077BF187
:1050D000000B24BF624639464EEB0E0E51EA020722
:1050E00018BF46F0010616EB0E7655F1000254F19A
:1050F000000103D5BDE88901BDE80088BDE889014C
:10510000BDE80048B619524141EB0101A3F101038A
:10511000704780807F7E7D7C7B7A79787776767524
:105120007473727171706F6E6E6D6C6C6B6A6A699C
:105130006868676666656464636362616160605F36
:105140005F5E5E5D5D5C5C5B5B5A5A5959585857AF
:105150005756565555555454535352525251515017
:1051600050504F4F4F4E4E4D4D4D4C4C4C4B4B4B6A
:105170004A4A4A49494948484847474747464646B0
:1051800045454544444444434343434242424241EB
:105190004141000046EA0646A3F570534FEA164621
:1051A00046EA42564FEAD22242EA415210B54FEA4D
:1051B000D121A3F1010300F017F820F0004000F125
:1051C000010C00F0004701EB00501146BCF5006FE8
:1051D00040EA070000D210BD02484FF0000140EA4B
:1051E000070010BD0000F07F002B26D4770021D0EF
:1051F0001CB54FEA370703B44FF010004FF0100111
:105200004FF000000FBCBDE810400BF1010BBBF1EB
:10521000010F08BF5FEA170722BF12F1010211F167
:1052200001014FF0004143F1000300F0004043EA68
:1052300000007047F9D35708DAE746EA064613F14B
:10524000400F4FEA16461FDD13F1200FDFBF164354
:105250000A46002120335B42C8D0C3F1200746EA4A
:10526000064602FA07F74FEA164646EA0706C3F172
:10527000200722FA03F201FA07F721FA03F14FF0AF
:10528000000342EA0702B1E746EA020646EA06469A
:105290004FEA164646EA0106BCBF46EA0646360C09
:1052A0004FF000034FF000024FF000019EE72DE9A0
:1052B000C048934630B491E8380007C831EA400C42
:1052C00048BF34EA430C03D5FFF7C7FDFFF78CFF57
:1052D000F0BCBDE800882DE9C048934630B491E8A1
:1052E000380007C831EA400C48BF34EA430C03D504
:1052F000FFF7B3FDFFF74EFFF0BCBDE800882DE9D6
:10530000C048934630B491E8380007C810F0804F89
:1053100008BF13F0804F03D100F019F8FFF764FFC6
:10532000F0BCBDE800882DE9C048934630B491E850
:10533000380007C810F0804F08BF13F0804F03D12A
:1053400000F005F8FFF726FFF0BCBDE8008820F06C
:105350007F4780EA030023F07F4C07EB0C03A3F5A3
:105360007C5300F00040A3F1FE0392F0000F00F028
:10537000B38095F0000F00F077802DE901494FEAE6
:1053800011404FEA144621EA004800FB06FC24EADB
:10539000064708FB06F607FB08F800FB07F718EBC3
:1053A00006484CEB164C4FEA124B18EB07484FEAF5
:1053B00015464CEB174022EA0B4E0BFB06FC25EA88
:1053C00006470EFB06F607FB0EFE0BFB07F71EEB70
:1053D000064E4CEB164C4FF000061EEB074E4CEB06
:1053E000174B18EB0B0840F1000018EB0E0B58EBB5
:1053F000000840F100008F1A4FF000013CBFC94384
:10540000661B14BFB5EB040C00213CBFC943F61B5F
:105410004FEA17444EEA8E0E27EA04454FEA1C472E
:1054200004FB07622CEA074C05FB07F70CFB05F6AB
:1054300004FB0CFC16EB074642EB174216EB0C463E
:1054400042EB1C421BEB060658EB0202414146EAC6
:105450009E0601D5BDE80189B619524141EB010113
:10546000A3F10103BDE801894FEA14454FEA114752
:1054700024EA054621EA074C05FB07F406FB07F77B
:105480000CFB06F105FB0CFC11EB074144EB174448
:105490004FEA124711EB0C4144EB1C4422EA074C43
:1054A00005FB07F206FB07F70CFB06F605FB0CFCF9
:1054B00016EB074642EB174216EB0C4642EB1C4537
:1054C0006A1854F1000148BF7047B619524141EBC8
:1054D0000101A3F10103704795F0000F37D04FEAA7
:1054E00011424FEA144721EA024624EA074C02FB24
:1054F00007F106FB07F70CFB06F402FB0CFC14EBB0
:10550000074441EB17414FEA154714EB0C4441EBBC
:105510001C4125EA074C02FB07F506FB07F70CFBCD
:1055200006F602FB0CFC16EB074645EB174516EB9F
:105530000C4645EB1C42121951F1000148BF70475F
:10554000B619524141EB0101A3F1010370474FEA43
:1055500014454FEA114724EA054621EA074C05FBAA
:1055600007F106FB07F70CFB06F24FF0000605FB00
:105570000CFC12EB074241EB174112EB0C4251EBD2
:105580001C4148BF7047921841EB0101A3F1010390
:105590007047490050EAC12018BF04204A0D18BFC7
:1055A00040F0010040F2FF72B2EB515F08BF40F0E3
:1055B0000200012808BF0520704740F20132002098
:1055C0004FF0E04100F081BA024A0020110700F0DC
:1055D0007CBA000001FDFFFF10B50446D1E90001CF
:1055E00000F002F8206010BDF8B504460D466A468A
:1055F00000F050F800987E30009000281FDC002258
:1056000013462046294600F02BF918D0002140F619
:1056100008004FF0000006462046294600F0DAF860
:10562000044640F6080006EA00014FF0000034F09E
:10563000004004BF0220FEF7B8F82046F8BD0098ED
:10564000FF280DDB0220FEF7B0F8002213462046AB
:10565000294600F0CBF98CBF04484FF0FF40F8BD5D
:1056600020462946BDE8F84000F0B4B8000080FFAD
:1056700010B504460A46D4E90003194600F036F88E
:10568000C4E9000110BD30380A2801D2012070475A
:105690000020704710B5144600222260114A21F004
:1056A00000439342A8BF10BD53EA000208BF10BDDB
:1056B000B3F5801FA8BF226807DA362200F005FA8A
:1056C0006FF0350221F000432260DFF81CC06FF359
:1056D0001E510CEB23531A4441F0FF5141F000518D
:1056E000226010BD0000F07F02FCFFFF2DE9F041B9
:1056F00006460C4640F2FF75174635EA14502BD08B
:1057000000221346304600F0ABF825D03A4630462A
:10571000214600F0DAF906460C4635EA145010D05E
:1057200000221346304600F09BF815D10220FEF708
:105730003CF8FFF749FF0A46214662F31E01BDE827
:10574000F0810220FEF731F8FFF737FF0A462146C5
:1057500062F31E01BDE8F08130462146BDE8F081CC
:1057600000B583B00A460021CDE900110146684624
:10577000FEF77CFADDE9000103B000BD10B5002999
:105780000AD00878002807D005487844FDF7B8FF0C
:10579000002801D0002010BD0248784410BD000050
:1057A0007A0500007205000010B500290AD00878BB
:1057B000002807D005487844FDF7A2FF002801D053
:1057C000002010BD0248784410BD00005E060000B5
:1057D0005606000021F00042A2F16052B2F5801F8F
:1057E00001F0004328BFD2F17F6C0BD95FEA001CA7
:1057F00043EAC20242EB507018BF704728BF20F046
:1058000001007047B2F5801FBCBF184670474FEAD1
:10581000410C1CF5001F02D2084600F01DB970B5FE
:1058200000F096F800000089FFF7F6BF4FF0004047
:10583000A0F580007047000002494FF0000000F022
:1058400012B900BF0000F87F491058BFC1F14041B4
:105850005B1058BFC3F140438B42EFF300807047A9
:1058600051EA030C17D41CF5801F58BFBCF5801FEC
:1058700000F10680994218BF704708BF90427047F8
:1058800007D711F5801F58BF13F5801F19D499420F
:105890007047894270471CF5801F08D5BCF5801FF2
:1058A000F7D58B4218BF704708BF824270474FF44C
:1058B000001C1CEB410F38BF1CEB430F01D28B4285
:1058C000704770B500F044F8922449004FF0005141
:1058D0004FF08053FFF7B8BF51EA030C17D41CF503
:1058E000801F58BFBCF5801F00F10680994218BF89
:1058F000704708BF9042704707D711F5801F58BF07
:1059000013F5801F19D499427047894270471CF5DE
:10591000801F08D5BCF5801FF7D58B4218BF704794
:1059200008BF824270474FF4001C1CEB410F38BF88
:105930001CEB430F01D28B42704770B500F008F8A2
:10594000922449004FF000514FF08053FFF77CBF85
:105950000EF1020E2EF0030E5EF8046B364205D4F3
:10596000012A43EB030515F5001F12D8012841EB6E
:10597000010C1CF5001F0CD80ED14FEAD17C15F597
:10598000001F0CEB4C0C0CF1020C08BF4CEBD37C51
:1059900004E04FF0080C01E04FEAD37C0CEB4C051F
:1059A00026FA05F606F00706B6F1040C06D20EEB51
:1059B000860CBDE870404CF0010C6047DFE80CF04D
:1059C000090B02024FF000414FF00000A1F5002149
:1059D00070BD19461046012851EB010418BFD4F5DB
:1059E000001484BF002001F0004170BD53EA010C97
:1059F00017D41CF5801F58BFBCF5801F00F106802E
:105A00008B4218BF704708BF8242704707D713F513
:105A1000801F58BF11F5801F19D48B4270479B42DD
:105A200070471CF5801F08D5BCF5801FF7D599423B
:105A300018BF704708BF904270474FF4001C1CEB22
:105A4000430F38BF1CEB410F01D2994270470FB48E
:105A50000CBC03BCFFF771BFFF2141EAD050C00569
:105A60007047FEF764BA0CF00F03092B08BF08203B
:105A700000F05F800A2B0BD0082B18BF704708BFBF
:105A80001CF0400F0AD04FF000004FF000017047AB
:105A90001CF0400F18BF4FF0004070471CF0100F73
:105AA00008D020F0704300F07F4242EAD3014FEA71
:105AB0004370704700F0604021F07F4242EA0002EC
:105AC00001F07F4040EA727070474FF0FF0C4CF4D9
:105AD000E06C1CEA11531CBF9CEA030C9445C2BF46
